{
  "_format": "hh-sol-artifact-1",
  "contractName": "OrthoMarket",
  "sourceName": "contracts/OrthoMarket.sol",
  "abi": [
    {
      "inputs": [
        {
          "internalType": "address",
          "name": "_orthoDataAddress",
          "type": "address"
        }
      ],
      "stateMutability": "nonpayable",
      "type": "constructor"
    },
    {
      "anonymous": false,
      "inputs": [
        {
          "indexed": true,
          "internalType": "uint256",
          "name": "tokenId",
          "type": "uint256"
        },
        {
          "indexed": true,
          "internalType": "address",
          "name": "seller",
          "type": "address"
        },
        {
          "indexed": false,
          "internalType": "uint256",
          "name": "price",
          "type": "uint256"
        }
      ],
      "name": "DataListed",
      "type": "event"
    },
    {
      "anonymous": false,
      "inputs": [
        {
          "indexed": true,
          "internalType": "uint256",
          "name": "tokenId",
          "type": "uint256"
        },
        {
          "indexed": true,
          "internalType": "address",
          "name": "seller",
          "type": "address"
        },
        {
          "indexed": true,
          "internalType": "address",
          "name": "buyer",
          "type": "address"
        },
        {
          "indexed": false,
          "internalType": "uint256",
          "name": "price",
          "type": "uint256"
        }
      ],
      "name": "DataPurchased",
      "type": "event"
    },
    {
      "anonymous": false,
      "inputs": [
        {
          "indexed": true,
          "internalType": "uint256",
          "name": "tokenId",
          "type": "uint256"
        }
      ],
      "name": "ListingCancelled",
      "type": "event"
    },
    {
      "anonymous": false,
      "inputs": [
        {
          "indexed": true,
          "internalType": "address",
          "name": "previousOwner",
          "type": "address"
        },
        {
          "indexed": true,
          "internalType": "address",
          "name": "newOwner",
          "type": "address"
        }
      ],
      "name": "OwnershipTransferred",
      "type": "event"
    },
    {
      "inputs": [
        {
          "internalType": "uint256",
          "name": "",
          "type": "uint256"
        }
      ],
      "name": "activeListings",
      "outputs": [
        {
          "internalType": "uint256",
          "name": "",
          "type": "uint256"
        }
      ],
      "stateMutability": "view",
      "type": "function"
    },
    {
      "inputs": [
        {
          "internalType": "uint256",
          "name": "tokenId",
          "type": "uint256"
        }
      ],
      "name": "cancelListing",
      "outputs": [],
      "stateMutability": "nonpayable",
      "type": "function"
    },
    {
      "inputs": [],
      "name": "getActiveListings",
      "outputs": [
        {
          "internalType": "uint256[]",
          "name": "",
          "type": "uint256[]"
        }
      ],
      "stateMutability": "view",
      "type": "function"
    },
    {
      "inputs": [
        {
          "internalType": "uint256",
          "name": "tokenId",
          "type": "uint256"
        },
        {
          "internalType": "uint256",
          "name": "price",
          "type": "uint256"
        }
      ],
      "name": "listData",
      "outputs": [],
      "stateMutability": "nonpayable",
      "type": "function"
    },
    {
      "inputs": [
        {
          "internalType": "uint256",
          "name": "",
          "type": "uint256"
        }
      ],
      "name": "listings",
      "outputs": [
        {
          "internalType": "uint256",
          "name": "tokenId",
          "type": "uint256"
        },
        {
          "internalType": "address",
          "name": "seller",
          "type": "address"
        },
        {
          "internalType": "uint256",
          "name": "price",
          "type": "uint256"
        },
        {
          "internalType": "bool",
          "name": "isActive",
          "type": "bool"
        },
        {
          "internalType": "uint256",
          "name": "timestamp",
          "type": "uint256"
        }
      ],
      "stateMutability": "view",
      "type": "function"
    },
    {
      "inputs": [],
      "name": "orthoData",
      "outputs": [
        {
          "internalType": "contract OrthoData",
          "name": "",
          "type": "address"
        }
      ],
      "stateMutability": "view",
      "type": "function"
    },
    {
      "inputs": [],
      "name": "owner",
      "outputs": [
        {
          "internalType": "address",
          "name": "",
          "type": "address"
        }
      ],
      "stateMutability": "view",
      "type": "function"
    },
    {
      "inputs": [
        {
          "internalType": "uint256",
          "name": "tokenId",
          "type": "uint256"
        }
      ],
      "name": "purchaseData",
      "outputs": [],
      "stateMutability": "payable",
      "type": "function"
    },
    {
      "inputs": [],
      "name": "renounceOwnership",
      "outputs": [],
      "stateMutability": "nonpayable",
      "type": "function"
    },
    {
      "inputs": [
        {
          "internalType": "address",
          "name": "newOwner",
          "type": "address"
        }
      ],
      "name": "transferOwnership",
      "outputs": [],
      "stateMutability": "nonpayable",
      "type": "function"
    },
    {
      "inputs": [],
      "name": "withdraw",
      "outputs": [],
      "stateMutability": "nonpayable",
      "type": "function"
    }
  ],
  "bytecode": "0x6080346100ac57601f610c2f38819003918201601f19168301916001600160401b038311848410176100b1578084926020946040528339810103126100ac57516001600160a01b0390818116908190036100ac57600160005560015460018060a01b0319903382821617600155604051933391167f8be0079c531659141344cd1fd0a4f28419497f9722a3daafe3b4186f6b6457e0600080a36002541617600255610b6790816100c88239f35b600080fd5b634e487b7160e01b600052604160045260246000fdfe6080604081815260048036101561001557600080fd5b600092833560e01c908163305a67a81461086f575080633ccfd60b146107ea57806352ab1d11146107c157806361cf486314610789578063715018a61461072c57806384c4f594146104fd57806387c35bc01461044a5780638da5cb5b1461041d578063de74e57b146103bf578063f2fde38b146102eb5763fc025fa31461009c57600080fd5b346102e757816003193601126102e75780359060249283359360018060a01b0392836002541693835180956331a9108f60e11b82528784830152818560209889935afa9081156102dd5789916102a3575b50813391160361027057861561023b578588526003855260ff6003858a2001541661020957818885519261012084610a07565b888452878401338152878501908b82526060860192600184528960808801954287528d815260038d522096518755600187019151166bffffffffffffffffffffffff60a01b825416179055516002850155600384019051151560ff8019835416911617905551910155805491680100000000000000008310156101f85750846101d5836101ee9360017fda6e3f4579b83369067bea5d00c3f6f4ea90ea71243054b08c3c0d93a5a1bae5989796019055610962565b90919082549060031b91821b91600019901b1916179055565b519384523393a380f35b634e487b7160e01b88526041825287fd5b50600e6064928585519362461bcd60e51b85528401528201526d105b1c9958591e481b1a5cdd195960921b6044820152fd5b5060116064928585519362461bcd60e51b85528401528201527005072696365206d757374206265203e203607c1b6044820152fd5b50600f6064928585519362461bcd60e51b85528401528201526e2737ba103a37b5b2b71037bbb732b960891b6044820152fd5b90508581813d83116102d6575b6102ba8183610a39565b810103126102d2575181811681036102d257386100ed565b8880fd5b503d6102b0565b85513d8b823e3d90fd5b8280fd5b5090346102e75760203660031901126102e7576001600160a01b038235818116939192908490036103bb5761031e6109af565b8315610369575050600154826bffffffffffffffffffffffff60a01b821617600155167f8be0079c531659141344cd1fd0a4f28419497f9722a3daafe3b4186f6b6457e0600080a380f35b906020608492519162461bcd60e51b8352820152602660248201527f4f776e61626c653a206e6577206f776e657220697320746865207a65726f206160448201526564647265737360d01b6064820152fd5b8480fd5b5090346102e75760203660031901126102e7578060a09383358152600360205220805492600180861b036001830154169260028301549160ff6003850154169301549381519586526020860152840152151560608301526080820152f35b50503461044657816003193601126104465760015490516001600160a01b039091168152602090f35b5080fd5b5082346104fa57806003193601126104fa579190815192838254808652602080960190819484527f8a35acfbc15ff81a39ae7d344fd709f28e8600b4aa8c65c6b64bfe7fe36bd19b90845b8181106104e657505050816104ab910382610a39565b83519485948186019282875251809352850193925b8281106104cf57505050500390f35b8351855286955093810193928101926001016104c0565b825484529288019260019283019201610495565b80fd5b5091906020806003193601126102e757833560028454146106e95760028455808452600382528284209183519261053384610a07565b8054845260018060a01b0390816001820154169083860191825260028101549587810196875260808a60ff60038501541615938415606085015201549101526106b1578451341061067757868080808585511689519082821561066e575bf115610664578160025416803b1561066057878560448b838b519586948593631977454b60e21b85528401523360248401525af1801561065657610625575b50838752600380845286882001805460ff191690557fd43f5f34801f2e70be3032e4807e0460394b94b06f8ec19842703ce34dc1874b92919061061285610a5b565b5116935194519485523394a46001815580f35b67ffffffffffffffff819892981161064357865295965086386105d0565b634e487b7160e01b825260418952602482fd5b87513d8a823e3d90fd5b8780fd5b85513d88823e3d90fd5b506108fc610591565b855162461bcd60e51b81528089018490526014602482015273125b9cdd59999a58da595b9d081c185e5b595b9d60621b6044820152606490fd5b855162461bcd60e51b815280890184905260126024820152714e6f7420616374697665206c697374696e6760701b6044820152606490fd5b825162461bcd60e51b8152808601839052601f60248201527f5265656e7472616e637947756172643a207265656e7472616e742063616c6c006044820152606490fd5b83346104fa57806003193601126104fa576107456109af565b600180546001600160a01b0319811690915581906001600160a01b03167f8be0079c531659141344cd1fd0a4f28419497f9722a3daafe3b4186f6b6457e08280a380f35b5091346104fa5760203660031901126104fa57823592548310156104fa57506107b3602092610962565b91905490519160031b1c8152f35b50503461044657816003193601126104465760025490516001600160a01b039091168152602090f35b50346102e757826003193601126102e7576108036109af565b47908115610835575060015483918291829182916001600160a01b031682f11561082b575080f35b51903d90823e3d90fd5b606490602084519162461bcd60e51b835282015260146024820152734e6f2066756e647320746f20776974686472617760601b6044820152fd5b929190503461095e57602090816003193601126103bb57803580865260038352838620600101549094906001600160a01b0316330361093257508385526003825260ff600384872001541615610904575090600380928486525283200160ff1981541690556108dd81610a5b565b7f411aee90354c51b1b04cd563fcab2617142a9d50da19232d888547c8a1b7fd8a8280a280f35b915162461bcd60e51b815291820152600a6024820152694e6f742061637469766560b01b6044820152606490fd5b8260649262461bcd60e51b8352820152600a6024820152692737ba1039b2b63632b960b11b6044820152fd5b8380fd5b6004548110156109995760046000527f8a35acfbc15ff81a39ae7d344fd709f28e8600b4aa8c65c6b64bfe7fe36bd19b0190600090565b634e487b7160e01b600052603260045260246000fd5b6001546001600160a01b031633036109c357565b606460405162461bcd60e51b815260206004820152602060248201527f4f776e61626c653a2063616c6c6572206973206e6f7420746865206f776e65726044820152fd5b60a0810190811067ffffffffffffffff821117610a2357604052565b634e487b7160e01b600052604160045260246000fd5b90601f8019910116810190811067ffffffffffffffff821117610a2357604052565b9060005b6004805480831015610b2a57908491610a7784610962565b939054600394851b1c14610aaf575050506000198114610a9957600101610a5f565b634e487b7160e01b600052601160045260246000fd5b919394509160001991828101908111610b1557906101d5610ad2610ade93610962565b905490871b1c91610962565b81548015610b0057810192610af284610962565b81939154921b1b1916905555565b603183634e487b7160e01b6000525260246000fd5b601184634e487b7160e01b6000525260246000fd5b505050905056fea26469706673582212204b8da96590ffa23ba0282a54fa3db95f026ec34e4d9292f7929eafaf6da55a3a64736f6c63430008140033",
  "linkReferences": {},
  "deployedLinkReferences": {}
}