{
  "_format": "hh-sol-artifact-1",
  "contractName": "PatientEvolution",
  "sourceName": "contracts/PatientEvolution.sol",
  "abi": [
    {
      "anonymous": false,
      "inputs": [
        {
          "indexed": true,
          "internalType": "string",
          "name": "patientDid",
          "type": "string"
        },
        {
          "indexed": false,
          "internalType": "uint256",
          "name": "severity",
          "type": "uint256"
        },
        {
          "indexed": false,
          "internalType": "uint256",
          "name": "timestamp",
          "type": "uint256"
        },
        {
          "indexed": false,
          "internalType": "string",
          "name": "reason",
          "type": "string"
        }
      ],
      "name": "AnomalyDetected",
      "type": "event"
    },
    {
      "anonymous": false,
      "inputs": [
        {
          "indexed": true,
          "internalType": "string",
          "name": "patientDid",
          "type": "string"
        },
        {
          "indexed": false,
          "internalType": "string",
          "name": "contentHash",
          "type": "string"
        },
        {
          "indexed": false,
          "internalType": "uint256",
          "name": "severity",
          "type": "uint256"
        },
        {
          "indexed": false,
          "internalType": "uint256",
          "name": "timestamp",
          "type": "uint256"
        },
        {
          "indexed": false,
          "internalType": "string",
          "name": "diagnosis",
          "type": "string"
        },
        {
          "indexed": false,
          "internalType": "bool",
          "name": "isAnomaly",
          "type": "bool"
        }
      ],
      "name": "EvolutionRecorded",
      "type": "event"
    },
    {
      "anonymous": false,
      "inputs": [
        {
          "indexed": true,
          "internalType": "address",
          "name": "previousOwner",
          "type": "address"
        },
        {
          "indexed": true,
          "internalType": "address",
          "name": "newOwner",
          "type": "address"
        }
      ],
      "name": "OwnershipTransferred",
      "type": "event"
    },
    {
      "inputs": [],
      "name": "getGlobalStats",
      "outputs": [
        {
          "internalType": "uint256",
          "name": "totalSnapshots",
          "type": "uint256"
        },
        {
          "internalType": "uint256",
          "name": "totalAnomalies",
          "type": "uint256"
        }
      ],
      "stateMutability": "view",
      "type": "function"
    },
    {
      "inputs": [
        {
          "internalType": "string",
          "name": "patientDid",
          "type": "string"
        }
      ],
      "name": "getLatestSnapshot",
      "outputs": [
        {
          "components": [
            {
              "internalType": "string",
              "name": "patientDid",
              "type": "string"
            },
            {
              "internalType": "string",
              "name": "contentHash",
              "type": "string"
            },
            {
              "internalType": "uint256",
              "name": "severity",
              "type": "uint256"
            },
            {
              "internalType": "uint256",
              "name": "timestamp",
              "type": "uint256"
            },
            {
              "internalType": "string",
              "name": "diagnosis",
              "type": "string"
            },
            {
              "internalType": "bool",
              "name": "isAnomaly",
              "type": "bool"
            }
          ],
          "internalType": "struct PatientEvolution.EvolutionSnapshot",
          "name": "",
          "type": "tuple"
        }
      ],
      "stateMutability": "view",
      "type": "function"
    },
    {
      "inputs": [
        {
          "internalType": "string",
          "name": "patientDid",
          "type": "string"
        }
      ],
      "name": "getPatientEvolution",
      "outputs": [
        {
          "components": [
            {
              "internalType": "string",
              "name": "patientDid",
              "type": "string"
            },
            {
              "internalType": "string",
              "name": "contentHash",
              "type": "string"
            },
            {
              "internalType": "uint256",
              "name": "severity",
              "type": "uint256"
            },
            {
              "internalType": "uint256",
              "name": "timestamp",
              "type": "uint256"
            },
            {
              "internalType": "string",
              "name": "diagnosis",
              "type": "string"
            },
            {
              "internalType": "bool",
              "name": "isAnomaly",
              "type": "bool"
            }
          ],
          "internalType": "struct PatientEvolution.EvolutionSnapshot[]",
          "name": "",
          "type": "tuple[]"
        }
      ],
      "stateMutability": "view",
      "type": "function"
    },
    {
      "inputs": [
        {
          "internalType": "string",
          "name": "patientDid",
          "type": "string"
        }
      ],
      "name": "getSnapshotCount",
      "outputs": [
        {
          "internalType": "uint256",
          "name": "",
          "type": "uint256"
        }
      ],
      "stateMutability": "view",
      "type": "function"
    },
    {
      "inputs": [
        {
          "internalType": "string",
          "name": "patientDid",
          "type": "string"
        }
      ],
      "name": "getTrend",
      "outputs": [
        {
          "internalType": "bool",
          "name": "improving",
          "type": "bool"
        }
      ],
      "stateMutability": "view",
      "type": "function"
    },
    {
      "inputs": [
        {
          "internalType": "string",
          "name": "patientDid",
          "type": "string"
        }
      ],
      "name": "hasAnomalies",
      "outputs": [
        {
          "internalType": "bool",
          "name": "",
          "type": "bool"
        }
      ],
      "stateMutability": "view",
      "type": "function"
    },
    {
      "inputs": [],
      "name": "owner",
      "outputs": [
        {
          "internalType": "address",
          "name": "",
          "type": "address"
        }
      ],
      "stateMutability": "view",
      "type": "function"
    },
    {
      "inputs": [
        {
          "internalType": "string",
          "name": "",
          "type": "string"
        },
        {
          "internalType": "uint256",
          "name": "",
          "type": "uint256"
        }
      ],
      "name": "patientEvolutions",
      "outputs": [
        {
          "internalType": "string",
          "name": "patientDid",
          "type": "string"
        },
        {
          "internalType": "string",
          "name": "contentHash",
          "type": "string"
        },
        {
          "internalType": "uint256",
          "name": "severity",
          "type": "uint256"
        },
        {
          "internalType": "uint256",
          "name": "timestamp",
          "type": "uint256"
        },
        {
          "internalType": "string",
          "name": "diagnosis",
          "type": "string"
        },
        {
          "internalType": "bool",
          "name": "isAnomaly",
          "type": "bool"
        }
      ],
      "stateMutability": "view",
      "type": "function"
    },
    {
      "inputs": [
        {
          "internalType": "string",
          "name": "",
          "type": "string"
        }
      ],
      "name": "patientSnapshotCount",
      "outputs": [
        {
          "internalType": "uint256",
          "name": "",
          "type": "uint256"
        }
      ],
      "stateMutability": "view",
      "type": "function"
    },
    {
      "inputs": [
        {
          "internalType": "string",
          "name": "patientDid",
          "type": "string"
        },
        {
          "internalType": "string",
          "name": "contentHash",
          "type": "string"
        },
        {
          "internalType": "uint256",
          "name": "severity",
          "type": "uint256"
        },
        {
          "internalType": "string",
          "name": "diagnosis",
          "type": "string"
        },
        {
          "internalType": "bool",
          "name": "isAnomaly",
          "type": "bool"
        }
      ],
      "name": "recordEvolution",
      "outputs": [
        {
          "internalType": "uint256",
          "name": "",
          "type": "uint256"
        }
      ],
      "stateMutability": "nonpayable",
      "type": "function"
    },
    {
      "inputs": [],
      "name": "renounceOwnership",
      "outputs": [],
      "stateMutability": "nonpayable",
      "type": "function"
    },
    {
      "inputs": [
        {
          "internalType": "address",
          "name": "newOwner",
          "type": "address"
        }
      ],
      "name": "transferOwnership",
      "outputs": [],
      "stateMutability": "nonpayable",
      "type": "function"
    }
  ],
  "bytecode": "0x6080806040523461005b5760008054336001600160a01b0319821681178355916001600160a01b03909116907f8be0079c531659141344cd1fd0a4f28419497f9722a3daafe3b4186f6b6457e09080a361129890816100618239f35b600080fdfe6080604052600436101561001257600080fd5b60003560e01c80631485513814610e17578063379d848d14610de157806339a642a714610de15780636b4169c314610dbf578063715018a614610d665780637aedb35814610c7657806384527608146105815780638da5cb5b14610558578063957abb2314610440578063a7041850146102ff578063c2e21754146101705763f2fde38b146100a057600080fd5b3461016b57602036600319011261016b576004356001600160a01b038181169182900361016b576100cf611091565b811561011757600054826bffffffffffffffffffffffff60a01b821617600055167f8be0079c531659141344cd1fd0a4f28419497f9722a3daafe3b4186f6b6457e0600080a3005b60405162461bcd60e51b815260206004820152602660248201527f4f776e61626c653a206e6577206f776e657220697320746865207a65726f206160448201526564647265737360d01b6064820152608490fd5b600080fd5b3461016b5760208060031936011261016b576001600160401b0360043581811161016b576101a2903690600401610e97565b6040519060028151928581818501956101bc818389610eed565b81018481520301902054106102ba576101dd60405192839251928391610eed565b8101908381600193848152030190209081549283116102a45760405192610209858260051b0185610e76565b808452848401809360005285600020866000925b84841061028657508686815190811561027057516040015191600019820191821161025a5760409161024e91611178565b51015110604051908152f35b634e487b7160e01b600052601160045260246000fd5b634e487b7160e01b600052603260045260246000fd5b859160069161029485611118565b815201920192019190879061021d565b634e487b7160e01b600052604160045260246000fd5b60405162461bcd60e51b815260048101859052601960248201527f4e656564206174206c65617374203220736e617073686f7473000000000000006044820152606490fd5b3461016b5760208060031936011261016b576004356001600160401b03811161016b57610330903690600401610e97565b600060a060405161034081610e5b565b6060815260608582015282604082015282606082015260606080820152015260405190805191838181840194610377818388610eed565b8101600281520301902054156103fb5760405183818351610399818388610eed565b8101600281520301902054600019810190811161025a576103cd846103e2946103dc94604051938492839251928391610eed565b81016001815203019020610f10565b50611118565b906103f7604051928284938452830190611031565b0390f35b60405162461bcd60e51b815260048101849052601d60248201527f4e6f20736e617073686f747320666f7220746869732070617469656e740000006044820152606490fd5b3461016b5760208060031936011261016b576001600160401b039060043582811161016b57610473903690600401610e97565b91816104886040519485815193849201610eed565b8301928281600195868152030190209081549081116102a4578383604051926104b6828260051b0185610e76565b8084528184018095600052826000206000915b8383106105315750505050604051928184019082855251809152604084019160408260051b86010195926000905b8382106105045786880387f35b90919293948380610520839a603f198b82030186528951611031565b9997019594939190910191016104f7565b94600685829997610544859a989a611118565b8152019201920191909694969593956104c9565b3461016b57600036600319011261016b576000546040516001600160a01b039091168152602090f35b3461016b5760a036600319011261016b576004356001600160401b03811161016b576105b1903690600401610e97565b6024356001600160401b03811161016b576105d0903690600401610e97565b906064356001600160401b03811161016b576105f0903690600401610e97565b60843515156084350361016b57610605611091565b815115610c3a57825115610bfd57600a60443511610bc0576040519261062a84610e5b565b8284528060208501526044356040850152426060850152816080850152608435151560a085015260405160208185516106668183858a01610eed565b810160018152030190208054680100000000000000008110156102a45761069291600182018155610f10565b949094610baa5780518051906001600160401b0382116102a45781906106b88854610f2c565b601f8111610b5a575b50602090601f8311600114610aee57600092610ae3575b50508160011b916000199060031b1c19161785555b60208101518051906001600160401b0382116102a45781906107126001890154610f2c565b601f8111610a90575b50602090601f8311600114610a1e57600092610a13575b50508160011b916000199060031b1c19161760018601555b604081015160028601556060810151600386015560808101519485516001600160401b0381116102a4576107816004830154610f2c565b96601f88116109cc575b602097508790601f831160011461092d579360a060057f447fb0f2e0d11e4dc46eba7082310e177d50f56ff81d6f7b7cc8ffef335301aa958561084e966108919c9a968e9c9a600092610922575b50508160011b916000199060031b1c19161760048201555b01910151151560ff80198354169116179055604051868187516108178183858c01610eed565b8101600281520301902061082b81546110e9565b9055610869610839866110f8565b9460405193849360a0855260a085019061100c565b9060443589850152426040850152838203606085015261100c565b608435151560808301520390a26084356108a4575b8160405193828580945193849201610eed565b8101600281520301902054604051908152f35b6108ad816110f8565b7f43977a33ab35ef71da69bb151fa4bcd7daf6e7dbc7a3413ed290aa003b18e17d60c06040516044358152428682015260606040820152602260608201527f556e757375616c2065766f6c7574696f6e207061747465726e20646574656374608082015261195960f21b60a0820152a261087e565b015190508e806107d9565b9060048401600052886000209160005b601f19851681106109b5575060057f447fb0f2e0d11e4dc46eba7082310e177d50f56ff81d6f7b7cc8ffef335301aa956001866108919c9a968e9c9a9660a09661084e9a601f1981161061099c575b505050811b0160048201556107f1565b015160001960f88460031b161c191690558e808061098c565b91928a60018192868501518155019401920161093d565b600483016000526020600020601f830160051c810160208410610a0c575b601f8a0160051c82018110610a0057505061078b565b600081556001016109ea565b50806109ea565b015190508780610732565b9250600188016000526020600020906000935b601f1984168510610a75576001945083601f19811610610a5c575b505050811b01600186015561074a565b015160001960f88460031b161c19169055878080610a4c565b81810151835560209485019460019093019290910190610a31565b909150600188016000526020600020601f840160051c810160208510610adc575b90849392915b601f830160051c82018110610acd57505061071b565b60008155859450600101610ab7565b5080610ab1565b0151905087806106d8565b9250876000526020600020906000935b601f1984168510610b3f576001945083601f19811610610b26575b505050811b0185556106ed565b015160001960f88460031b161c19169055878080610b19565b81810151835560209485019460019093019290910190610afe565b909150876000526020600020601f840160051c810160208510610ba3575b90849392915b601f830160051c82018110610b945750506106c1565b60008155859450600101610b7e565b5080610b78565b634e487b7160e01b600052600060045260246000fd5b60405162461bcd60e51b815260206004820152601560248201527405365766572697479206d75737420626520302d313605c1b6044820152606490fd5b60405162461bcd60e51b815260206004820152601560248201527410dbdb9d195b9d081a185cda081c995c5d5a5c9959605a1b6044820152606490fd5b60405162461bcd60e51b815260206004820152601460248201527314185d1a595b9d08111251081c995c5d5a5c995960621b6044820152606490fd5b3461016b57604036600319011261016b576004356001600160401b03811161016b57610ca6903690600401610e97565b610cc26020602435928160405193828580945193849201610eed565b81016001815203019020805482101561016b57610d3491610ce291610f10565b50610cec81610f66565b90610d5a610cfc60018301610f66565b916002810154906003810154610d4260ff6005610d1b60048601610f66565b940154169560405198899860c08a5260c08a019061100c565b9088820360208a015261100c565b9260408701526060860152848203608086015261100c565b90151560a08301520390f35b3461016b57600036600319011261016b57610d7f611091565b600080546001600160a01b0319811682556001600160a01b03167f8be0079c531659141344cd1fd0a4f28419497f9722a3daafe3b4186f6b6457e08280a3005b3461016b57600036600319011261016b57604080516000815260006020820152f35b3461016b57602036600319011261016b576004356001600160401b03811161016b57610891602061087e81933690600401610e97565b3461016b57602036600319011261016b576004356001600160401b03811161016b57610e51610e4c6020923690600401610e97565b61118c565b6040519015158152f35b60c081019081106001600160401b038211176102a457604052565b90601f801991011681019081106001600160401b038211176102a457604052565b81601f8201121561016b578035906001600160401b0382116102a45760405192610ecb601f8401601f191660200185610e76565b8284526020838301011161016b57816000926020809301838601378301015290565b60005b838110610f005750506000910152565b8181015183820152602001610ef0565b8054821015610270576000526006602060002091020190600090565b90600182811c92168015610f5c575b6020831014610f4657565b634e487b7160e01b600052602260045260246000fd5b91607f1691610f3b565b9060405191826000825492610f7a84610f2c565b908184526001948581169081600014610fe95750600114610fa6575b5050610fa492500383610e76565b565b9093915060005260209081600020936000915b818310610fd1575050610fa493508201013880610f96565b85548884018501529485019487945091830191610fb9565b915050610fa494506020925060ff191682840152151560051b8201013880610f96565b9060209161102581518092818552858086019101610eed565b601f01601f1916010190565b9060a08061108661106061104e865160c0875260c087019061100c565b6020870151868203602088015261100c565b60408601516040860152606086015160608601526080860151858203608087015261100c565b930151151591015290565b6000546001600160a01b031633036110a557565b606460405162461bcd60e51b815260206004820152602060248201527f4f776e61626c653a2063616c6c6572206973206e6f7420746865206f776e65726044820152fd5b600019811461025a5760010190565b61111090602060405192828480945193849201610eed565b810103902090565b9060405161112581610e5b565b60a060ff6005839561113681610f66565b855261114460018201610f66565b6020860152600281015460408601526003810154606086015261116960048201610f66565b60808601520154161515910152565b80518210156102705760209160051b010190565b6040519080516111a181846020809501610eed565b8201918181600194858152030190208054906001600160401b0382116102a45790839291604051926111d8818460051b0185610e76565b82845260009182528082208185015b84841061123c5750505050506000915b611204575b505050600090565b8051821015611237578160a061121b859484611178565b5101516112315761122b906110e9565b916111f7565b50505090565b6111fc565b8260069161124f84959697989994611118565b81520192019301919092869594936111e756fea264697066735822122002211d68f96cb6b2be880aa76869866c9a939221dbcea081e85f6e0abc54c9f864736f6c63430008140033",
  "linkReferences": {},
  "deployedLinkReferences": {}
}