{
  "_format": "hh-sol-artifact-1",
  "contractName": "OrthoData",
  "sourceName": "contracts/OrthoData.sol",
  "abi": [
    {
      "inputs": [],
      "stateMutability": "nonpayable",
      "type": "constructor"
    },
    {
      "anonymous": false,
      "inputs": [
        {
          "indexed": true,
          "internalType": "uint256",
          "name": "tokenId",
          "type": "uint256"
        },
        {
          "indexed": true,
          "internalType": "address",
          "name": "patient",
          "type": "address"
        },
        {
          "indexed": true,
          "internalType": "address",
          "name": "grantedTo",
          "type": "address"
        }
      ],
      "name": "AccessGranted",
      "type": "event"
    },
    {
      "anonymous": false,
      "inputs": [
        {
          "indexed": true,
          "internalType": "uint256",
          "name": "tokenId",
          "type": "uint256"
        },
        {
          "indexed": true,
          "internalType": "address",
          "name": "patient",
          "type": "address"
        },
        {
          "indexed": true,
          "internalType": "address",
          "name": "revokedFrom",
          "type": "address"
        }
      ],
      "name": "AccessRevoked",
      "type": "event"
    },
    {
      "anonymous": false,
      "inputs": [
        {
          "indexed": true,
          "internalType": "address",
          "name": "owner",
          "type": "address"
        },
        {
          "indexed": true,
          "internalType": "address",
          "name": "approved",
          "type": "address"
        },
        {
          "indexed": true,
          "internalType": "uint256",
          "name": "tokenId",
          "type": "uint256"
        }
      ],
      "name": "Approval",
      "type": "event"
    },
    {
      "anonymous": false,
      "inputs": [
        {
          "indexed": true,
          "internalType": "address",
          "name": "owner",
          "type": "address"
        },
        {
          "indexed": true,
          "internalType": "address",
          "name": "operator",
          "type": "address"
        },
        {
          "indexed": false,
          "internalType": "bool",
          "name": "approved",
          "type": "bool"
        }
      ],
      "name": "ApprovalForAll",
      "type": "event"
    },
    {
      "anonymous": false,
      "inputs": [
        {
          "indexed": false,
          "internalType": "uint256",
          "name": "_fromTokenId",
          "type": "uint256"
        },
        {
          "indexed": false,
          "internalType": "uint256",
          "name": "_toTokenId",
          "type": "uint256"
        }
      ],
      "name": "BatchMetadataUpdate",
      "type": "event"
    },
    {
      "anonymous": false,
      "inputs": [
        {
          "indexed": true,
          "internalType": "uint256",
          "name": "tokenId",
          "type": "uint256"
        },
        {
          "indexed": true,
          "internalType": "address",
          "name": "patient",
          "type": "address"
        },
        {
          "indexed": false,
          "internalType": "string",
          "name": "diagnosis",
          "type": "string"
        },
        {
          "indexed": false,
          "internalType": "uint256",
          "name": "severity",
          "type": "uint256"
        },
        {
          "indexed": false,
          "internalType": "string",
          "name": "ipfsHash",
          "type": "string"
        }
      ],
      "name": "DiagnosisMinted",
      "type": "event"
    },
    {
      "anonymous": false,
      "inputs": [
        {
          "indexed": false,
          "internalType": "uint256",
          "name": "_tokenId",
          "type": "uint256"
        }
      ],
      "name": "MetadataUpdate",
      "type": "event"
    },
    {
      "anonymous": false,
      "inputs": [
        {
          "indexed": true,
          "internalType": "address",
          "name": "previousOwner",
          "type": "address"
        },
        {
          "indexed": true,
          "internalType": "address",
          "name": "newOwner",
          "type": "address"
        }
      ],
      "name": "OwnershipTransferred",
      "type": "event"
    },
    {
      "anonymous": false,
      "inputs": [
        {
          "indexed": true,
          "internalType": "address",
          "name": "from",
          "type": "address"
        },
        {
          "indexed": true,
          "internalType": "address",
          "name": "to",
          "type": "address"
        },
        {
          "indexed": true,
          "internalType": "uint256",
          "name": "tokenId",
          "type": "uint256"
        }
      ],
      "name": "Transfer",
      "type": "event"
    },
    {
      "inputs": [
        {
          "internalType": "uint256",
          "name": "",
          "type": "uint256"
        },
        {
          "internalType": "address",
          "name": "",
          "type": "address"
        }
      ],
      "name": "accessPermissions",
      "outputs": [
        {
          "internalType": "bool",
          "name": "",
          "type": "bool"
        }
      ],
      "stateMutability": "view",
      "type": "function"
    },
    {
      "inputs": [
        {
          "internalType": "address",
          "name": "to",
          "type": "address"
        },
        {
          "internalType": "uint256",
          "name": "tokenId",
          "type": "uint256"
        }
      ],
      "name": "approve",
      "outputs": [],
      "stateMutability": "nonpayable",
      "type": "function"
    },
    {
      "inputs": [
        {
          "internalType": "address",
          "name": "owner",
          "type": "address"
        }
      ],
      "name": "balanceOf",
      "outputs": [
        {
          "internalType": "uint256",
          "name": "",
          "type": "uint256"
        }
      ],
      "stateMutability": "view",
      "type": "function"
    },
    {
      "inputs": [
        {
          "internalType": "uint256",
          "name": "tokenId",
          "type": "uint256"
        }
      ],
      "name": "getApproved",
      "outputs": [
        {
          "internalType": "address",
          "name": "",
          "type": "address"
        }
      ],
      "stateMutability": "view",
      "type": "function"
    },
    {
      "inputs": [
        {
          "internalType": "uint256",
          "name": "tokenId",
          "type": "uint256"
        }
      ],
      "name": "getMedicalData",
      "outputs": [
        {
          "components": [
            {
              "internalType": "string",
              "name": "diagnosis",
              "type": "string"
            },
            {
              "internalType": "uint256",
              "name": "severity",
              "type": "uint256"
            },
            {
              "internalType": "uint256",
              "name": "timestamp",
              "type": "uint256"
            },
            {
              "internalType": "string",
              "name": "ipfsHash",
              "type": "string"
            },
            {
              "internalType": "string",
              "name": "recommendations",
              "type": "string"
            },
            {
              "internalType": "bool",
              "name": "isPublic",
              "type": "bool"
            }
          ],
          "internalType": "struct OrthoData.MedicalData",
          "name": "",
          "type": "tuple"
        }
      ],
      "stateMutability": "view",
      "type": "function"
    },
    {
      "inputs": [
        {
          "internalType": "address",
          "name": "patient",
          "type": "address"
        }
      ],
      "name": "getPatientTokens",
      "outputs": [
        {
          "internalType": "uint256[]",
          "name": "",
          "type": "uint256[]"
        }
      ],
      "stateMutability": "view",
      "type": "function"
    },
    {
      "inputs": [],
      "name": "getStats",
      "outputs": [
        {
          "internalType": "uint256",
          "name": "totalDiagnoses",
          "type": "uint256"
        },
        {
          "internalType": "uint256",
          "name": "activePatients",
          "type": "uint256"
        }
      ],
      "stateMutability": "view",
      "type": "function"
    },
    {
      "inputs": [
        {
          "internalType": "uint256",
          "name": "tokenId",
          "type": "uint256"
        },
        {
          "internalType": "address",
          "name": "professional",
          "type": "address"
        }
      ],
      "name": "grantAccess",
      "outputs": [],
      "stateMutability": "nonpayable",
      "type": "function"
    },
    {
      "inputs": [
        {
          "internalType": "uint256",
          "name": "tokenId",
          "type": "uint256"
        },
        {
          "internalType": "address",
          "name": "viewer",
          "type": "address"
        }
      ],
      "name": "hasAccess",
      "outputs": [
        {
          "internalType": "bool",
          "name": "",
          "type": "bool"
        }
      ],
      "stateMutability": "view",
      "type": "function"
    },
    {
      "inputs": [
        {
          "internalType": "address",
          "name": "owner",
          "type": "address"
        },
        {
          "internalType": "address",
          "name": "operator",
          "type": "address"
        }
      ],
      "name": "isApprovedForAll",
      "outputs": [
        {
          "internalType": "bool",
          "name": "",
          "type": "bool"
        }
      ],
      "stateMutability": "view",
      "type": "function"
    },
    {
      "inputs": [
        {
          "internalType": "uint256",
          "name": "tokenId",
          "type": "uint256"
        }
      ],
      "name": "makePrivate",
      "outputs": [],
      "stateMutability": "nonpayable",
      "type": "function"
    },
    {
      "inputs": [
        {
          "internalType": "uint256",
          "name": "tokenId",
          "type": "uint256"
        }
      ],
      "name": "makePublic",
      "outputs": [],
      "stateMutability": "nonpayable",
      "type": "function"
    },
    {
      "inputs": [
        {
          "internalType": "address",
          "name": "patient",
          "type": "address"
        },
        {
          "internalType": "string",
          "name": "diagnosis",
          "type": "string"
        },
        {
          "internalType": "uint256",
          "name": "severity",
          "type": "uint256"
        },
        {
          "internalType": "string",
          "name": "ipfsHash",
          "type": "string"
        },
        {
          "internalType": "string",
          "name": "recommendations",
          "type": "string"
        }
      ],
      "name": "mintDiagnosis",
      "outputs": [
        {
          "internalType": "uint256",
          "name": "",
          "type": "uint256"
        }
      ],
      "stateMutability": "nonpayable",
      "type": "function"
    },
    {
      "inputs": [],
      "name": "name",
      "outputs": [
        {
          "internalType": "string",
          "name": "",
          "type": "string"
        }
      ],
      "stateMutability": "view",
      "type": "function"
    },
    {
      "inputs": [],
      "name": "owner",
      "outputs": [
        {
          "internalType": "address",
          "name": "",
          "type": "address"
        }
      ],
      "stateMutability": "view",
      "type": "function"
    },
    {
      "inputs": [
        {
          "internalType": "uint256",
          "name": "tokenId",
          "type": "uint256"
        }
      ],
      "name": "ownerOf",
      "outputs": [
        {
          "internalType": "address",
          "name": "",
          "type": "address"
        }
      ],
      "stateMutability": "view",
      "type": "function"
    },
    {
      "inputs": [
        {
          "internalType": "address",
          "name": "",
          "type": "address"
        },
        {
          "internalType": "uint256",
          "name": "",
          "type": "uint256"
        }
      ],
      "name": "patientTokens",
      "outputs": [
        {
          "internalType": "uint256",
          "name": "",
          "type": "uint256"
        }
      ],
      "stateMutability": "view",
      "type": "function"
    },
    {
      "inputs": [],
      "name": "renounceOwnership",
      "outputs": [],
      "stateMutability": "nonpayable",
      "type": "function"
    },
    {
      "inputs": [
        {
          "internalType": "uint256",
          "name": "tokenId",
          "type": "uint256"
        },
        {
          "internalType": "address",
          "name": "professional",
          "type": "address"
        }
      ],
      "name": "revokeAccess",
      "outputs": [],
      "stateMutability": "nonpayable",
      "type": "function"
    },
    {
      "inputs": [
        {
          "internalType": "address",
          "name": "from",
          "type": "address"
        },
        {
          "internalType": "address",
          "name": "to",
          "type": "address"
        },
        {
          "internalType": "uint256",
          "name": "tokenId",
          "type": "uint256"
        }
      ],
      "name": "safeTransferFrom",
      "outputs": [],
      "stateMutability": "nonpayable",
      "type": "function"
    },
    {
      "inputs": [
        {
          "internalType": "address",
          "name": "from",
          "type": "address"
        },
        {
          "internalType": "address",
          "name": "to",
          "type": "address"
        },
        {
          "internalType": "uint256",
          "name": "tokenId",
          "type": "uint256"
        },
        {
          "internalType": "bytes",
          "name": "data",
          "type": "bytes"
        }
      ],
      "name": "safeTransferFrom",
      "outputs": [],
      "stateMutability": "nonpayable",
      "type": "function"
    },
    {
      "inputs": [
        {
          "internalType": "address",
          "name": "operator",
          "type": "address"
        },
        {
          "internalType": "bool",
          "name": "approved",
          "type": "bool"
        }
      ],
      "name": "setApprovalForAll",
      "outputs": [],
      "stateMutability": "nonpayable",
      "type": "function"
    },
    {
      "inputs": [
        {
          "internalType": "bytes4",
          "name": "interfaceId",
          "type": "bytes4"
        }
      ],
      "name": "supportsInterface",
      "outputs": [
        {
          "internalType": "bool",
          "name": "",
          "type": "bool"
        }
      ],
      "stateMutability": "view",
      "type": "function"
    },
    {
      "inputs": [],
      "name": "symbol",
      "outputs": [
        {
          "internalType": "string",
          "name": "",
          "type": "string"
        }
      ],
      "stateMutability": "view",
      "type": "function"
    },
    {
      "inputs": [
        {
          "internalType": "uint256",
          "name": "",
          "type": "uint256"
        }
      ],
      "name": "tokenData",
      "outputs": [
        {
          "internalType": "string",
          "name": "diagnosis",
          "type": "string"
        },
        {
          "internalType": "uint256",
          "name": "severity",
          "type": "uint256"
        },
        {
          "internalType": "uint256",
          "name": "timestamp",
          "type": "uint256"
        },
        {
          "internalType": "string",
          "name": "ipfsHash",
          "type": "string"
        },
        {
          "internalType": "string",
          "name": "recommendations",
          "type": "string"
        },
        {
          "internalType": "bool",
          "name": "isPublic",
          "type": "bool"
        }
      ],
      "stateMutability": "view",
      "type": "function"
    },
    {
      "inputs": [
        {
          "internalType": "uint256",
          "name": "tokenId",
          "type": "uint256"
        }
      ],
      "name": "tokenURI",
      "outputs": [
        {
          "internalType": "string",
          "name": "",
          "type": "string"
        }
      ],
      "stateMutability": "view",
      "type": "function"
    },
    {
      "inputs": [
        {
          "internalType": "address",
          "name": "from",
          "type": "address"
        },
        {
          "internalType": "address",
          "name": "to",
          "type": "address"
        },
        {
          "internalType": "uint256",
          "name": "tokenId",
          "type": "uint256"
        }
      ],
      "name": "transferFrom",
      "outputs": [],
      "stateMutability": "nonpayable",
      "type": "function"
    },
    {
      "inputs": [
        {
          "internalType": "address",
          "name": "newOwner",
          "type": "address"
        }
      ],
      "name": "transferOwnership",
      "outputs": [],
      "stateMutability": "nonpayable",
      "type": "function"
    }
  ],
  "bytecode": "0x60803462000358576001600160401b03906040818101838111838210176200034257815260098252602091684f7274686f4461746160b81b83820152815193828501858110828211176200034257835260058552644f5254484f60d81b84860152815181811162000342576000948554916001948584811c9416801562000337575b8385101462000323578190601f94858111620002d0575b5083908583116001146200026c57899262000260575b5050600019600383901b1c191690851b1786555b86519283116200024c5783548481811c9116801562000241575b828210146200022d57828111620001e5575b50809183116001146200017e57508495829394959262000172575b5050600019600383901b1c191690821b1790555b60078054336001600160a01b03198216811790925591519290916001600160a01b0316907f8be0079c531659141344cd1fd0a4f28419497f9722a3daafe3b4186f6b6457e09080a361258a90816200035e8239f35b01519050388062000109565b90601f198316968487528287209287905b898210620001cd575050838596979810620001b3575b505050811b0190556200011d565b015160001960f88460031b161c19169055388080620001a5565b8087859682949686015181550195019301906200018f565b8487528187208380860160051c82019284871062000223575b0160051c019085905b82811062000217575050620000ee565b88815501859062000207565b92508192620001fe565b634e487b7160e01b87526022600452602487fd5b90607f1690620000dc565b634e487b7160e01b86526041600452602486fd5b015190503880620000ae565b898052848a208894509190601f1984168b5b87828210620002b957505084116200029f575b505050811b018655620000c2565b015160001960f88460031b161c1916905538808062000291565b8385015186558b979095019493840193016200027e565b9091508880528389208580850160051c82019286861062000319575b918991869594930160051c01915b8281106200030a57505062000098565b8b8155859450899101620002fa565b92508192620002ec565b634e487b7160e01b88526022600452602488fd5b93607f169362000081565b634e487b7160e01b600052604160045260246000fd5b600080fdfe6080604052600436101561001257600080fd5b60003560e01c806301ffc9a7146101d757806306fdde03146101d2578063081812fc146101cd578063095ea7b3146101c857806312d533d7146101c357806319a2c6d4146101be57806323b872dd146101b957806342842e0e146101b45780636352211e146101af57806365dd152c146101aa5780636c0490ee146101a557806370a08231146101a057806370f4616d1461019b578063715018a6146101965780637847dc131461019157806381a1162a1461018c5780638681f447146101875780638da5cb5b1461018257806395d89b411461017d578063a22cb46514610178578063b4b5b48f14610173578063b88d4fde1461016e578063c59d484714610169578063c87b56dd14610164578063ced141981461015f578063d9a5ec1b1461015a578063e985e9c5146101555763f2fde38b1461015057600080fd5b611421565b6113d0565b61133e565b61130e565b61104e565b610fe0565b610f80565b610ed9565b610d0f565b610c6a565b610c41565b610bbd565b610af7565b6109d4565b610976565b610938565b610897565b61084c565b610770565b610752565b610713565b6106ea565b6105fa565b610533565b610416565b6103ba565b6102d7565b6101f3565b6001600160e01b03198116036101ee57565b600080fd5b346101ee5760203660031901126101ee576020600435610212816101dc565b63ffffffff60e01b16632483248360e11b8114908115610238575b506040519015158152f35b6380ac58cd60e01b81149150811561026a575b8115610259575b503861022d565b6301ffc9a760e01b14905038610252565b635b5e139f60e01b8114915061024b565b60005b83811061028e5750506000910152565b818101518382015260200161027e565b906020916102b78151809281855285808601910161027b565b601f01601f1916010190565b9060206102d492818152019061029e565b90565b346101ee576000806003193601126103b757604051908080546102f981610dfb565b8085529160019180831690811561038d5750600114610333575b61032f8561032381870382610a58565b604051918291826102c3565b0390f35b80809450527f290decd9548b62a8d60345a988386fc84ba6bc95484008f6362f93160ef3e5635b8284106103755750505081016020016103238261032f610313565b8054602085870181019190915290930192810161035a565b86955061032f9693506020925061032394915060ff191682840152151560051b8201019293610313565b80fd5b346101ee5760203660031901126101ee5760206103d8600435611623565b6040516001600160a01b039091168152f35b600435906001600160a01b03821682036101ee57565b602435906001600160a01b03821682036101ee57565b346101ee5760403660031901126101ee5761042f6103ea565b60243561043b8161158e565b916001600160a01b0380841690821681146104b65761046d9361046891331490811561046f575b506115b1565b611999565b005b6001600160a01b031660009081526005602052604090206104b091506104a99033905b9060018060a01b0316600052602052604060002090565b5460ff1690565b38610462565b60405162461bcd60e51b815260206004820152602160248201527f4552433732313a20617070726f76616c20746f2063757272656e74206f776e656044820152603960f91b6064820152608490fd5b805482101561051d5760005260206000200190600090565b634e487b7160e01b600052603260045260246000fd5b346101ee5760403660031901126101ee5761054c6103ea565b6001600160a01b03166000908152600b60205260409020805460243591908210156101ee5760209161057d91610505565b90546040519160031b1c8152f35b6020815260c060a06105ef6105ab855184602087015260e086019061029e565b60208601516040860152604086015160608601526105db606087015191601f19928388830301608089015261029e565b90608087015190868303018487015261029e565b930151151591015290565b346101ee5760203660031901126101ee57600435600060a060405161061e81610a3c565b60608152826020820152826040820152606080820152606060808201520152610647338261210e565b156106775761066b61066661032f926000526009602052604060002090565b612180565b6040519182918261058b565b60405162461bcd60e51b81526020600482015260166024820152754e6f2061636365737320746f2074686973206461746160501b6044820152606490fd5b60609060031901126101ee576001600160a01b039060043582811681036101ee579160243590811681036101ee579060443590565b346101ee5761046d6106fb366106b5565b9161070e610709843361175e565b611661565b611830565b346101ee57610721366106b5565b60405191602083019383851067ffffffffffffffff86111761074d5761046d94604052600084526116c3565b610a26565b346101ee5760203660031901126101ee5760206103d860043561158e565b346101ee5760403660031901126101ee5760043561078c610400565b906107968161158e565b6001600160a01b03906107ac90821633146120d0565b821691338314610807576107d16107de9161049284600052600a602052604060002090565b805460ff19166001179055565b33907f97a8264d9d0b9e21370349f9b49be012a5d1e27829879df8ba166dba48f898c6600080a4005b60405162461bcd60e51b815260206004820152601b60248201527f43616e6e6f74206772616e742061636365737320746f2073656c6600000000006044820152606490fd5b346101ee5760203660031901126101ee5760043561087c61086c8261158e565b6001600160a01b031633146120d0565b6000908152600960205260409020600501805460ff19169055005b346101ee5760203660031901126101ee576001600160a01b036108b86103ea565b1680156108e157600052600360205261032f604060002054604051918291829190602083019252565b60405162461bcd60e51b815260206004820152602960248201527f4552433732313a2061646472657373207a65726f206973206e6f7420612076616044820152683634b21037bbb732b960b91b6064820152608490fd5b346101ee5760203660031901126101ee5760043561095861086c8261158e565b6000908152600960205260409020600501805460ff19166001179055005b346101ee576000806003193601126103b7576109906114ea565b600780546001600160a01b0319811690915581906001600160a01b03167f8be0079c531659141344cd1fd0a4f28419497f9722a3daafe3b4186f6b6457e08280a380f35b346101ee5760403660031901126101ee57602060ff610a1a6109f4610400565b600435600052600a845260406000209060018060a01b0316600052602052604060002090565b54166040519015158152f35b634e487b7160e01b600052604160045260246000fd5b60c0810190811067ffffffffffffffff82111761074d57604052565b90601f8019910116810190811067ffffffffffffffff82111761074d57604052565b60405190610a8782610a3c565b565b67ffffffffffffffff811161074d57601f01601f191660200190565b929192610ab182610a89565b91610abf6040519384610a58565b8294818452818301116101ee578281602093846000960137010152565b9080601f830112156101ee578160206102d493359101610aa5565b346101ee5760a03660031901126101ee57610b106103ea565b67ffffffffffffffff6024358181116101ee57610b31903690600401610adc565b6064358281116101ee57610b49903690600401610adc565b6084359283116101ee5761032f93610b68610b72943690600401610adc565b9260443591611b36565b6040519081529081906020820190565b6020908160408183019282815285518094520193019160005b828110610ba9575050505090565b835185529381019392810192600101610b9b565b346101ee576020806003193601126101ee576001600160a01b03610bdf6103ea565b16600052600b8152604060002090604051908181845491828152019360005281600020916000905b828210610c2a5761032f85610c1e81890382610a58565b60405191829182610b82565b835486529485019460019384019390910190610c07565b346101ee5760003660031901126101ee576007546040516001600160a01b039091168152602090f35b346101ee576000806003193601126103b75760405190806001805491610c8f83610dfb565b8086529282811690811561038d5750600114610cb55761032f8561032381870382610a58565b92508083527fb10e2d527612073b26eecdfd717e6a320cf44b4afac2b0732d9fcbe2b7fa0cf65b828410610cf75750505081016020016103238261032f610313565b80546020858701810191909152909301928101610cdc565b346101ee5760403660031901126101ee57610d286103ea565b60243580151581036101ee576001600160a01b03821691338314610db65781610d73610d849233600052600560205260406000209060018060a01b0316600052602052604060002090565b9060ff801983541691151516179055565b604051901515815233907f17307eab39ab6107e8899845ad3d59bd9653f200f220920489ca2b5937696c3190602090a3005b60405162461bcd60e51b815260206004820152601960248201527f4552433732313a20617070726f766520746f2063616c6c6572000000000000006044820152606490fd5b90600182811c92168015610e2b575b6020831014610e1557565b634e487b7160e01b600052602260045260246000fd5b91607f1691610e0a565b9060405191826000825492610e4984610dfb565b908184526001948581169081600014610eb65750600114610e73575b5050610a8792500383610a58565b9093915060005260209081600020936000915b818310610e9e575050610a8793508201013880610e65565b85548884018501529485019487945091830191610e86565b915050610a8794506020925060ff191682840152151560051b8201013880610e65565b346101ee5760203660031901126101ee576004356000526009602052610f4e6040600020610f0681610e35565b90610f74600182015491610f66600282015493610f2560038401610e35565b60ff6005610f3560048701610e35565b950154169560405198899860c08a5260c08a019061029e565b9260208901526040880152868203606088015261029e565b90848203608086015261029e565b90151560a08301520390f35b346101ee5760803660031901126101ee57610f996103ea565b610fa1610400565b6064359167ffffffffffffffff83116101ee57366023840112156101ee57610fd661046d933690602481600401359101610aa5565b91604435916116c3565b346101ee5760003660031901126101ee57600060085460015b81811115611012575b5060409182519182526020820152f35b6000818152600260205260409020546001600160a01b031661103c57611037906121f6565b610ff9565b506110486040926121f6565b91611002565b346101ee5760203660031901126101ee576004356000818152600260205260409020546001600160a01b031615156110859061220a565b611099816000526009602052604060002090565b6110a290612180565b906110ac90612296565b81519160208101516110bd90612296565b9060408101516110cc90612296565b9060600151916040519485946020860161110a90601b907f7b226e616d65223a20224f7274686f20446961676e6f7369732023000000000081520190565b6111139161224d565b61088b60f21b81526002017f226465736372697074696f6e223a20224f7274686f646f6e746963206469616781526a1b9bdcda5cc8139195088b60aa1b6020820152602b016e2261747472696275746573223a205b60881b8152600f017f7b2274726169745f74797065223a2022446961676e6f736973222c202276616c8152653ab2911d101160d11b60208201526026016111ae9161224d565b62089f4b60ea1b81526003017f7b2274726169745f74797065223a20225365766572697479222c202276616c75815263032911d160e51b60208201526024016111f69161224d565b611f4b60f21b81526002017f7b2274726169745f74797065223a202254696d657374616d70222c202276616c81526403ab2911d160dd1b602082015260250161123e9161224d565b607d60f81b815260010161174b60f21b81526002017022696d616765223a2022697066733a2f2f60781b81526011016112769161224d565b6e17b234b0b3b737b9b4b9973837339160891b8152600f01607d60f81b81526001010390601f199182810182526112ad9082610a58565b6112b69061247d565b6040517f646174613a6170706c69636174696f6e2f6a736f6e3b6261736536342c000000602082015291908290603d82016112f09161224d565b0390810182526113009082610a58565b60405161032f8192826102c3565b346101ee5760403660031901126101ee57602061133461132c610400565b60043561210e565b6040519015158152f35b346101ee5760403660031901126101ee5760043561135a610400565b906113648161158e565b6001600160a01b039061137a90821633146120d0565b6000828152600a602090815260408083206001600160a01b03871684529091528120805460ff1916905592169033907f260547d4038414ef72f081dcde91825693dff9bc433178f3e92ad36e0cd227508480a480f35b346101ee5760403660031901126101ee57602060ff610a1a6113f06103ea565b6113f8610400565b6001600160a01b0391821660009081526005865260408082209290931681526020919091522090565b346101ee5760203660031901126101ee5761143a6103ea565b6114426114ea565b6001600160a01b0390811690811561149657600754826bffffffffffffffffffffffff60a01b821617600755167f8be0079c531659141344cd1fd0a4f28419497f9722a3daafe3b4186f6b6457e0600080a3005b60405162461bcd60e51b815260206004820152602660248201527f4f776e61626c653a206e6577206f776e657220697320746865207a65726f206160448201526564647265737360d01b6064820152608490fd5b6007546001600160a01b031633036114fe57565b606460405162461bcd60e51b815260206004820152602060248201527f4f776e61626c653a2063616c6c6572206973206e6f7420746865206f776e65726044820152fd5b1561154957565b60405162461bcd60e51b815260206004820152601860248201527f4552433732313a20696e76616c696420746f6b656e20494400000000000000006044820152606490fd5b6000908152600260205260409020546001600160a01b03166102d4811515611542565b156115b857565b60405162461bcd60e51b815260206004820152603d60248201527f4552433732313a20617070726f76652063616c6c6572206973206e6f7420746f60448201527f6b656e206f776e6572206f7220617070726f76656420666f7220616c6c0000006064820152608490fd5b600081815260026020526040902054611646906001600160a01b03161515611542565b6000908152600460205260409020546001600160a01b031690565b1561166857565b60405162461bcd60e51b815260206004820152602d60248201527f4552433732313a2063616c6c6572206973206e6f7420746f6b656e206f776e6560448201526c1c881bdc88185c1c1c9bdd9959609a1b6064820152608490fd5b906116e79392916116d7610709843361175e565b6116e2838383611830565b611a73565b156116ee57565b60405162461bcd60e51b8152806117076004820161170b565b0390fd5b60809060208152603260208201527f4552433732313a207472616e7366657220746f206e6f6e20455243373231526560408201527131b2b4bb32b91034b6b83632b6b2b73a32b960711b60608201520190565b6001600160a01b03806117708461158e565b1692818316928484149485156117a6575b50508315611790575b50505090565b61179c91929350611623565b161438808061178a565b60009081526005602090815260408083206001600160a01b03949094168352929052205460ff1693503880611781565b156117dd57565b60405162461bcd60e51b815260206004820152602560248201527f4552433732313a207472616e736665722066726f6d20696e636f72726563742060448201526437bbb732b960d91b6064820152608490fd5b6118549061183d8461158e565b6001600160a01b03828116939091821684146117d6565b8316928315611948576118c761192192611886856118806118748a61158e565b6001600160a01b031690565b146117d6565b6118ad61189d886000526004602052604060002090565b80546001600160a01b0319169055565b6001600160a01b0316600090815260036020526040902090565b80546000190190556001600160a01b038116600090815260036020526040902060018154019055611902856000526002602052604060002090565b80546001600160a01b0319166001600160a01b03909216919091179055565b7fddf252ad1be2c89b69c2b068fc378daa952ba7f163c4a11628f55a4df523b3ef600080a4565b60405162461bcd60e51b8152602060048201526024808201527f4552433732313a207472616e7366657220746f20746865207a65726f206164646044820152637265737360e01b6064820152608490fd5b600082815260046020526040902080546001600160a01b0319166001600160a01b0383161790556001600160a01b03806119d28461158e565b169116907f8c5be1e5ebec7d5bd14f71427d1e84f3dd0314c0f7b2291e5b200ac8c7c3b925600080a4565b908160209103126101ee57516102d4816101dc565b6001600160a01b0391821681529116602082015260408101919091526080606082018190526102d49291019061029e565b3d15611a6e573d90611a5482610a89565b91611a626040519384610a58565b82523d6000602084013e565b606090565b92909190823b15611b2d57611aa6926020926000604051809681958294630a85bd0160e11b9a8b85523360048601611a12565b03926001600160a01b03165af160009181611afd575b50611aef57611ac9611a43565b80519081611aea5760405162461bcd60e51b8152806117076004820161170b565b602001fd5b6001600160e01b0319161490565b611b1f91925060203d8111611b26575b611b178183610a58565b8101906119fd565b9038611abc565b503d611b0d565b50505050600190565b9391929092611b436114ea565b6103e88111611c3f57611be294611c3983611b817f2b22157a5918029f3d72ccd4ab559f389479007ccae09360ba84355b7f399cfc95511515611c84565b611b8f600160085401600855565b600854978896611b9f8886611fd3565b611ba7610a7a565b908982528660208301524260408301528360608301526080820152600060a0820152611bdd886000526009602052604060002090565b611de8565b6001600160a01b0383166000908152600b60205260409020611c05908790611f24565b611c206107d18461049289600052600a602052604060002090565b6040516001600160a01b03909316969293849384611f5e565b0390a390565b60405162461bcd60e51b815260206004820152601860248201527f5365766572697479206d757374206265203c3d203130303000000000000000006044820152606490fd5b15611c8b57565b60405162461bcd60e51b815260206004820152601260248201527112541194c81a185cda081c995c5d5a5c995960721b6044820152606490fd5b90601f8111611cd357505050565b600091825260208220906020601f850160051c83019410611d0f575b601f0160051c01915b828110611d0457505050565b818155600101611cf8565b9092508290611cef565b919091825167ffffffffffffffff811161074d57611d4181611d3b8454610dfb565b84611cc5565b602080601f8311600114611d7d575081929394600092611d72575b50508160011b916000199060031b1c1916179055565b015190503880611d5c565b90601f19831695611d9385600052602060002090565b926000905b888210611dd057505083600195969710611db7575b505050811b019055565b015160001960f88460031b161c19169055388080611dad565b80600185968294968601518155019501930190611d98565b919091825192835167ffffffffffffffff811161074d57611e1381611e0d8554610dfb565b85611cc5565b6020948590601f8311600114611eaa5792610a87959683611e8c9460a094600597600092611e9f575b50508160011b916000199060031b1c19161786555b810151600186015560408101516002860155611e74606082015160038701611d19565b611e85608082015160048701611d19565b0151151590565b91019060ff801983541691151516179055565b015190503880611e3c565b90601f19831691611ec086600052602060002090565b9260005b818110611f0d57508460a09460059794610a879a9b94611e8c9860019510611ef4575b505050811b018655611e51565b015160001960f88460031b161c19169055388080611ee7565b929389600181928786015181550195019301611ec4565b80546801000000000000000081101561074d57611f4691600182018155610505565b819291549060031b91821b91600019901b1916179055565b611f746102d4949260608352606083019061029e565b926020820152604081840391015261029e565b15611f8e57565b60405162461bcd60e51b815260206004820152601c60248201527f4552433732313a20746f6b656e20616c7265616479206d696e746564000000006044820152606490fd5b6001600160a01b03811690811561208c57600083815260026020526040902054612064919061200e906001600160a01b031615155b15611f87565b600084815260026020526040902054612031906001600160a01b03161515612008565b6001600160a01b038116600090815260036020526040902060018154019055611902846000526002602052604060002090565b60007fddf252ad1be2c89b69c2b068fc378daa952ba7f163c4a11628f55a4df523b3ef8180a4565b606460405162461bcd60e51b815260206004820152602060248201527f4552433732313a206d696e7420746f20746865207a65726f20616464726573736044820152fd5b156120d757565b60405162461bcd60e51b815260206004820152600f60248201526e2737ba103a37b5b2b71037bbb732b960891b6044820152606490fd5b6001600160a01b03806121208361158e565b1690831614918215612151575b508115612138575090565b9050600052600960205260ff6005604060002001541690565b6000828152600a602090815260408083206001600160a01b03949094168352929052205460ff1691503861212d565b9060405161218d81610a3c565b60a060ff6005839561219e81610e35565b855260018101546020860152600281015460408601526121c060038201610e35565b60608601526121d160048201610e35565b60808601520154161515910152565b634e487b7160e01b600052601160045260246000fd5b60001981146122055760010190565b6121e0565b1561221157565b60405162461bcd60e51b8152602060048201526014602482015273151bdad95b88191bd95cc81b9bdd08195e1a5cdd60621b6044820152606490fd5b906122606020928281519485920161027b565b0190565b9061226e82610a89565b61227b6040519182610a58565b828152809261228c601f1991610a89565b0190602036910137565b806000917a184f03e93ff9f4daa797ed6e38ed64bf6a1f010000000000000000808210156123cb575b506d04ee2d6d415b85acef8100000000808310156123bc575b50662386f26fc10000808310156123ad575b506305f5e1008083101561239e575b506127108083101561238f575b50606482101561237f575b600a80921015612375575b60019081602161232d828701612264565b95860101905b61233f575b5050505090565b600019019083906f181899199a1a9b1b9c1cb0b131b232b360811b8282061a83530491821561237057919082612333565b612338565b916001019161231c565b9190606460029104910191612311565b60049193920491019138612306565b600891939204910191386122f9565b601091939204910191386122ea565b602091939204910191386122d8565b6040935081049150386122bf565b604051906060820182811067ffffffffffffffff82111761074d57604052604082527f6768696a6b6c6d6e6f707172737475767778797a303132333435363738392b2f6040837f4142434445464748494a4b4c4d4e4f505152535455565758595a61626364656660208201520152565b906002820180921161220557565b906020820180921161220557565b600281901b91906001600160fe1b0381160361220557565b6124856123d9565b6124a161249c6124958451612449565b6003900490565b612465565b916124b36124ae84612457565b612264565b92835280815182019060208501935b828210612502575050506003905106806001146124ef576002146124e4575090565b603d90600019015390565b50603d9081600019820153600119015390565b9091936004906003809401938451600190603f9082828260121c16880101518553828282600c1c16880101518386015382828260061c16880101516002860153168501015190820153019391906124c256fea2646970667358221220c5226f85e2e80d0959cc8e9ed32317e10bb5a42045f99b9be5dc269918ea107964736f6c63430008140033",
  "linkReferences": {},
  "deployedLinkReferences": {}
}