{
  "_format": "hh-sol-artifact-1",
  "contractName": "OrthoConsult",
  "sourceName": "contracts/OrthoConsult.sol",
  "abi": [
    {
      "anonymous": false,
      "inputs": [
        {
          "indexed": true,
          "internalType": "uint256",
          "name": "caseId",
          "type": "uint256"
        },
        {
          "indexed": true,
          "internalType": "address",
          "name": "patient",
          "type": "address"
        },
        {
          "indexed": false,
          "internalType": "uint256",
          "name": "reward",
          "type": "uint256"
        },
        {
          "indexed": false,
          "internalType": "uint256",
          "name": "requiredOpinions",
          "type": "uint256"
        }
      ],
      "name": "CaseCreated",
      "type": "event"
    },
    {
      "anonymous": false,
      "inputs": [
        {
          "indexed": true,
          "internalType": "uint256",
          "name": "caseId",
          "type": "uint256"
        },
        {
          "indexed": true,
          "internalType": "address",
          "name": "orthodontist",
          "type": "address"
        }
      ],
      "name": "OpinionSubmitted",
      "type": "event"
    },
    {
      "anonymous": false,
      "inputs": [
        {
          "indexed": true,
          "internalType": "address",
          "name": "orthodontist",
          "type": "address"
        }
      ],
      "name": "OrthodontistRegistered",
      "type": "event"
    },
    {
      "anonymous": false,
      "inputs": [
        {
          "indexed": true,
          "internalType": "uint256",
          "name": "caseId",
          "type": "uint256"
        },
        {
          "indexed": true,
          "internalType": "address",
          "name": "orthodontist",
          "type": "address"
        },
        {
          "indexed": false,
          "internalType": "uint256",
          "name": "amount",
          "type": "uint256"
        }
      ],
      "name": "RewardClaimed",
      "type": "event"
    },
    {
      "inputs": [
        {
          "internalType": "uint256",
          "name": "",
          "type": "uint256"
        },
        {
          "internalType": "uint256",
          "name": "",
          "type": "uint256"
        }
      ],
      "name": "caseOpinions",
      "outputs": [
        {
          "internalType": "address",
          "name": "orthodontist",
          "type": "address"
        },
        {
          "internalType": "string",
          "name": "opinionHash",
          "type": "string"
        },
        {
          "internalType": "bool",
          "name": "isQualityMarked",
          "type": "bool"
        }
      ],
      "stateMutability": "view",
      "type": "function"
    },
    {
      "inputs": [
        {
          "internalType": "uint256",
          "name": "",
          "type": "uint256"
        }
      ],
      "name": "cases",
      "outputs": [
        {
          "internalType": "address payable",
          "name": "patient",
          "type": "address"
        },
        {
          "internalType": "uint256",
          "name": "caseId",
          "type": "uint256"
        },
        {
          "internalType": "string",
          "name": "descriptionHash",
          "type": "string"
        },
        {
          "internalType": "uint256",
          "name": "reward",
          "type": "uint256"
        },
        {
          "internalType": "uint256",
          "name": "requiredOpinions",
          "type": "uint256"
        },
        {
          "internalType": "bool",
          "name": "isOpen",
          "type": "bool"
        },
        {
          "internalType": "uint256",
          "name": "opinionsReceived",
          "type": "uint256"
        }
      ],
      "stateMutability": "view",
      "type": "function"
    },
    {
      "inputs": [
        {
          "internalType": "uint256",
          "name": "_caseId",
          "type": "uint256"
        }
      ],
      "name": "claimReward",
      "outputs": [],
      "stateMutability": "nonpayable",
      "type": "function"
    },
    {
      "inputs": [
        {
          "internalType": "string",
          "name": "_descriptionHash",
          "type": "string"
        },
        {
          "internalType": "uint256",
          "name": "_reward",
          "type": "uint256"
        },
        {
          "internalType": "uint256",
          "name": "_requiredOpinions",
          "type": "uint256"
        }
      ],
      "name": "createCase",
      "outputs": [],
      "stateMutability": "payable",
      "type": "function"
    },
    {
      "inputs": [
        {
          "internalType": "uint256",
          "name": "_caseId",
          "type": "uint256"
        }
      ],
      "name": "getCase",
      "outputs": [
        {
          "components": [
            {
              "internalType": "address payable",
              "name": "patient",
              "type": "address"
            },
            {
              "internalType": "uint256",
              "name": "caseId",
              "type": "uint256"
            },
            {
              "internalType": "string",
              "name": "descriptionHash",
              "type": "string"
            },
            {
              "internalType": "uint256",
              "name": "reward",
              "type": "uint256"
            },
            {
              "internalType": "uint256",
              "name": "requiredOpinions",
              "type": "uint256"
            },
            {
              "internalType": "bool",
              "name": "isOpen",
              "type": "bool"
            },
            {
              "internalType": "uint256",
              "name": "opinionsReceived",
              "type": "uint256"
            }
          ],
          "internalType": "struct OrthoConsult.Case",
          "name": "",
          "type": "tuple"
        }
      ],
      "stateMutability": "view",
      "type": "function"
    },
    {
      "inputs": [
        {
          "internalType": "uint256",
          "name": "_caseId",
          "type": "uint256"
        }
      ],
      "name": "getOpinionsByCase",
      "outputs": [
        {
          "components": [
            {
              "internalType": "address",
              "name": "orthodontist",
              "type": "address"
            },
            {
              "internalType": "string",
              "name": "opinionHash",
              "type": "string"
            },
            {
              "internalType": "bool",
              "name": "isQualityMarked",
              "type": "bool"
            }
          ],
          "internalType": "struct OrthoConsult.Opinion[]",
          "name": "",
          "type": "tuple[]"
        }
      ],
      "stateMutability": "view",
      "type": "function"
    },
    {
      "inputs": [],
      "name": "getTotalCases",
      "outputs": [
        {
          "internalType": "uint256",
          "name": "",
          "type": "uint256"
        }
      ],
      "stateMutability": "view",
      "type": "function"
    },
    {
      "inputs": [
        {
          "internalType": "uint256",
          "name": "",
          "type": "uint256"
        },
        {
          "internalType": "address",
          "name": "",
          "type": "address"
        }
      ],
      "name": "hasClaimedReward",
      "outputs": [
        {
          "internalType": "bool",
          "name": "",
          "type": "bool"
        }
      ],
      "stateMutability": "view",
      "type": "function"
    },
    {
      "inputs": [
        {
          "internalType": "address",
          "name": "",
          "type": "address"
        }
      ],
      "name": "isRegisteredOrthodontist",
      "outputs": [
        {
          "internalType": "bool",
          "name": "",
          "type": "bool"
        }
      ],
      "stateMutability": "view",
      "type": "function"
    },
    {
      "inputs": [
        {
          "internalType": "address",
          "name": "_orthoAddress",
          "type": "address"
        }
      ],
      "name": "registerOrthodontist",
      "outputs": [],
      "stateMutability": "nonpayable",
      "type": "function"
    },
    {
      "inputs": [
        {
          "internalType": "uint256",
          "name": "_caseId",
          "type": "uint256"
        },
        {
          "internalType": "string",
          "name": "_opinionHash",
          "type": "string"
        }
      ],
      "name": "submitOpinion",
      "outputs": [],
      "stateMutability": "nonpayable",
      "type": "function"
    }
  ],
  "bytecode": "0x6080806040523461001657611252908161001c8239f35b600080fdfe608080604052600436101561001357600080fd5b60003560e01c9081632da644cd14610e02575080636e61f91014610a2d5780637a69b32d14610a0f57806390be0674146109905780639c4d3ae0146108a1578063a91a10801461077f578063ae169a501461053f578063c8b727a1146104ed578063d82d76381461016e578063e379a11e1461012f5763f09790dd1461009857600080fd5b3461012a57602036600319011261012a576004356000526001602052604060002060018060a01b038154166001820154916100d56002820161108f565b600382015491600481015461010f600660ff600585015416930154936040519788978852602088015260e0604088015260e0870190610f32565b9360608601526080850152151560a084015260c08301520390f35b600080fd5b3461012a57602036600319011261012a576001600160a01b03610150611135565b166000526003602052602060ff604060002054166040519015158152f35b606036600319011261012a5767ffffffffffffffff60043581811161012a5761019b903690600401610fcc565b8051156104a8576044351561046357602435341061042657602435156103e157600054916101c88361114b565b600055604051906101d882610f8e565b33825260208201928484526040830190815260243560608401526044356080840152600160a0840152600060c084015284600052600160205260406000209360018060a01b038451166bffffffffffffffffffffffff60a01b8654161785555160018501555180519182116103cb576102546002850154611055565b601f8111610384575b50602090601f83116001146103115791806006949260c094600092610306575b50508160011b916000199060031b1c19161760028501555b60608101516003850155608081015160048501556102c860a08201511515600586019060ff801983541691151516179055565b015191015560405190602435825260443560208301527fb2ceebb70a23f0242ddffd77fd3c0082b18d8ea3818d528da47bcff8cead5c5b60403393a3005b01519050878061027d565b90601f198316916002860160005260206000209260005b81811061036c575092600192859260c0966006989610610353575b505050811b016002850155610295565b015160001960f88460031b161c19169055878080610343565b92936020600181928786015181550195019301610328565b600285016000526020600020601f840160051c8101602085106103c4575b601f830160051c820181106103b857505061025d565b600081556001016103a2565b50806103a2565b634e487b7160e01b600052604160045260246000fd5b60405162461bcd60e51b815260206004820152601d60248201527f526577617264206d7573742062652067726561746572207468616e20300000006044820152606490fd5b60405162461bcd60e51b8152602060048201526015602482015274125b9cdd59999a58da595b9d08115512081cd95b9d605a1b6044820152606490fd5b60405162461bcd60e51b815260206004820152601b60248201527f4174206c656173742031206f70696e696f6e20726571756972656400000000006044820152606490fd5b60405162461bcd60e51b815260206004820152601960248201527f4465736372697074696f6e2068617368207265717569726564000000000000006044820152606490fd5b3461012a57604036600319011261012a576024356001600160a01b0381169081900361012a576004356000526004602052604060002090600052602052602060ff604060002054166040519015158152f35b3461012a5760208060031936011261012a57600435336000526003825261056d60ff60406000205416611170565b61057a60005482106111da565b8060005260019182815260ff60056040600020015416610749578160005260048152604060002033600052815260ff6040600020541661070c5760008281526002825260408120805490825b8281106106d6575b50505015610687578160005282815260406000206003600682015491015481156106715704928260005260048252604060002033600052825260406000209060ff198254161790558260008115610668575b600080809381933390f11561065c577f24b5efa61dd1cfc659205a97fb8ed868f3cb8c81922bab2b96423e5de1de2cb7906040519384523393a3005b6040513d6000823e3d90fd5b506108fc610620565b634e487b7160e01b600052601260045260246000fd5b6084906040519062461bcd60e51b82526004820152602260248201527f4e6f206f70696e696f6e207375626d697474656420666f722074686973206361604482015261736560f01b6064820152fd5b6106e08183611023565b50546001600160a01b031633146106ff576106fa9061114b565b6105c6565b50505050828480806105ce565b6064906040519062461bcd60e51b82526004820152601660248201527514995dd85c9908185b1c9958591e4818db185a5b595960521b6044820152fd5b6064906040519062461bcd60e51b82526004820152600f60248201526e21b0b9b29039ba34b6361037b832b760891b6044820152fd5b3461012a5760208060031936011261012a57600435600060c06040516107a481610f8e565b8281528285820152606060408201528260608201528260808201528260a082015201526107d460005482106111da565b600052600181526040600020604051906107ed82610f8e565b80546001600160a01b0390811683526001820154838501908152909390916108176002820161108f565b92604085019384526108826003830154946060870195865260048401549260808801938452600660ff6005870154169560a08a01961515875201549560c08901968752604051998a99828b525116908901525160408801525160e06060880152610100870190610f32565b935160808601525160a085015251151560c08401525160e08301520390f35b3461012a57602036600319011261012a576001600160a01b036108c2611135565b1680156109595780600052600360205260ff6040600020541661091f578060005260036020526040600020600160ff198254161790557f0c21b00d203fb5e7fabe0879a3ca8355cd41a135033b0574653d1fb0e026607f600080a2005b60405162461bcd60e51b8152602060048201526012602482015271105b1c9958591e481c9959da5cdd195c995960721b6044820152606490fd5b60405162461bcd60e51b815260206004820152600f60248201526e496e76616c6964206164647265737360881b6044820152606490fd5b3461012a57604036600319011261012a576024356004356000526002602052604060002090815481101561012a576109c791611023565b5080546001600160a01b031660ff60026109e36001850161108f565b93015416610a036040519384938452606060208501526060840190610f32565b90151560408301520390f35b3461012a57600036600319011261012a576020600054604051908152f35b3461012a57604036600319011261012a57602460043567ffffffffffffffff823581811161012a57610a63903690600401610fcc565b913360005260209160038352610a8060ff60406000205416611170565b610a8d60005483106111da565b8160005260019384845260ff6005604060002001541615610dcd57805115610d9157600083815260028552604081208054915b828110610d1457505050826000526002845260406000209060405192610ae584610f72565b338452858401918252604084019260008452805468010000000000000000811015610cff57610b18918982018155611023565b949094610cea575184546001600160a01b0319166001600160a01b0391909116178455905180519097878501928211610cd65750610b568254611055565b601f8111610c8d575b5085601f8211600114610c215790806002949392610bac9798999a600092610c16575b5050600019600383901b1c191690891b1790555b51151591019060ff801983541691151516179055565b806000528282526006604060002001610bc5815461114b565b905533817f29757dbfe90f2dc4ac285205a33addb3372057ee7a373344f8b92952b1ee5499600080a3600052526040600020600681015460048201541115610c0957005b600501805460ff19169055005b015190508a80610b82565b601f1982169083600052876000209160005b818110610c7857509183918a9b6002979695610bac9a9b9c9510610c5f575b505050811b019055610b96565b015160001960f88460031b161c191690558a8080610c52565b8b8301518455928a0192918901918901610c33565b8260005286600020601f830160051c810191888410610ccc575b601f0160051c019088905b828110610cc0575050610b5f565b60008155018890610cb2565b9091508190610ca7565b634e487b7160e01b60009081526041600452fd5b88634e487b7160e01b60005260006004526000fd5b89634e487b7160e01b60005260416004526000fd5b610d1e8183611023565b50546001600160a01b03163314610d3d57610d389061114b565b610ac0565b60405162461bcd60e51b8152600481018890526027818b01527f416c7265616479207375626d6974746564206f70696e696f6e20666f722074686044820152666973206361736560c81b6064820152608490fd5b60405162461bcd60e51b8152600481018590526015818801527413dc1a5b9a5bdb881a185cda081c995c5d5a5c9959605a1b6044820152606490fd5b60405162461bcd60e51b815260048101859052600e818801526d10d85cd9481a5cc818db1bdcd95960921b6044820152606490fd5b3461012a576020908160031936011261012a57600435600052600280835260406000209081549067ffffffffffffffff82116103cb57610e4a858360059796971b0186610faa565b81855260009283528383208486019391845b848410610ee457604080518881528951818a01819052600092600582901b83018101918a918c9085015b828710610e935785850386f35b909192938280600192603f19898203018552875190848060a01b038251168152604080610ecc8585015160608088870152850190610f32565b93015115159101529601920196019592919092610e86565b60038760019260409a999a51610ef981610f72565b848060a01b038754168152610f0f85880161108f565b8382015260ff868801541615156040820152815201930193019291969596610e5c565b919082519283825260005b848110610f5e575050826000602080949584010152601f8019910116010190565b602081830181015184830182015201610f3d565b6060810190811067ffffffffffffffff8211176103cb57604052565b60e0810190811067ffffffffffffffff8211176103cb57604052565b90601f8019910116810190811067ffffffffffffffff8211176103cb57604052565b81601f8201121561012a5780359067ffffffffffffffff82116103cb5760405192611001601f8401601f191660200185610faa565b8284526020838301011161012a57816000926020809301838601378301015290565b805482101561103f576000526003602060002091020190600090565b634e487b7160e01b600052603260045260246000fd5b90600182811c92168015611085575b602083101461106f57565b634e487b7160e01b600052602260045260246000fd5b91607f1691611064565b90604051918260008254926110a384611055565b90818452600194858116908160001461111257506001146110cf575b50506110cd92500383610faa565b565b9093915060005260209081600020936000915b8183106110fa5750506110cd935082010138806110bf565b855488840185015294850194879450918301916110e2565b9150506110cd94506020925060ff191682840152151560051b82010138806110bf565b600435906001600160a01b038216820361012a57565b600019811461115a5760010190565b634e487b7160e01b600052601160045260246000fd5b1561117757565b60405162461bcd60e51b815260206004820152603560248201527f4f7274686f436f6e73756c743a2043616c6c6572206973206e6f74206120726560448201527419da5cdd195c9959081bdc9d1a1bd91bdb9d1a5cdd605a1b6064820152608490fd5b156111e157565b60405162461bcd60e51b815260206004820152601360248201527210d85cd948191bd95cc81b9bdd08195e1a5cdd606a1b6044820152606490fdfea2646970667358221220883684c3dded779150ccbc5cc2caa7a5d627f02d86ed2b9104907076fe76b36864736f6c63430008140033",
  "linkReferences": {},
  "deployedLinkReferences": {}
}