{"contracts/OrthoConsult.sol":{"OrthoConsult":{"abi":[{"anonymous":false,"inputs":[{"indexed":true,"internalType":"uint256","name":"caseId","type":"uint256"},{"indexed":true,"internalType":"address","name":"patient","type":"address"},{"indexed":false,"internalType":"uint256","name":"reward","type":"uint256"},{"indexed":false,"internalType":"uint256","name":"requiredOpinions","type":"uint256"}],"name":"CaseCreated","type":"event"},{"anonymous":false,"inputs":[{"indexed":true,"internalType":"uint256","name":"caseId","type":"uint256"},{"indexed":true,"internalType":"address","name":"orthodontist","type":"address"}],"name":"OpinionSubmitted","type":"event"},{"anonymous":false,"inputs":[{"indexed":true,"internalType":"address","name":"orthodontist","type":"address"}],"name":"OrthodontistRegistered","type":"event"},{"anonymous":false,"inputs":[{"indexed":true,"internalType":"uint256","name":"caseId","type":"uint256"},{"indexed":true,"internalType":"address","name":"orthodontist","type":"address"},{"indexed":false,"internalType":"uint256","name":"amount","type":"uint256"}],"name":"RewardClaimed","type":"event"},{"inputs":[{"internalType":"uint256","name":"","type":"uint256"},{"internalType":"uint256","name":"","type":"uint256"}],"name":"caseOpinions","outputs":[{"internalType":"address","name":"orthodontist","type":"address"},{"internalType":"string","name":"opinionHash","type":"string"},{"internalType":"bool","name":"isQualityMarked","type":"bool"}],"stateMutability":"view","type":"function"},{"inputs":[{"internalType":"uint256","name":"","type":"uint256"}],"name":"cases","outputs":[{"internalType":"address payable","name":"patient","type":"address"},{"internalType":"uint256","name":"caseId","type":"uint256"},{"internalType":"string","name":"descriptionHash","type":"string"},{"internalType":"uint256","name":"reward","type":"uint256"},{"internalType":"uint256","name":"requiredOpinions","type":"uint256"},{"internalType":"bool","name":"isOpen","type":"bool"},{"internalType":"uint256","name":"opinionsReceived","type":"uint256"}],"stateMutability":"view","type":"function"},{"inputs":[{"internalType":"uint256","name":"_caseId","type":"uint256"}],"name":"claimReward","outputs":[],"stateMutability":"nonpayable","type":"function"},{"inputs":[{"internalType":"string","name":"_descriptionHash","type":"string"},{"internalType":"uint256","name":"_reward","type":"uint256"},{"internalType":"uint256","name":"_requiredOpinions","type":"uint256"}],"name":"createCase","outputs":[],"stateMutability":"payable","type":"function"},{"inputs":[{"internalType":"uint256","name":"_caseId","type":"uint256"}],"name":"getCase","outputs":[{"components":[{"internalType":"address payable","name":"patient","type":"address"},{"internalType":"uint256","name":"caseId","type":"uint256"},{"internalType":"string","name":"descriptionHash","type":"string"},{"internalType":"uint256","name":"reward","type":"uint256"},{"internalType":"uint256","name":"requiredOpinions","type":"uint256"},{"internalType":"bool","name":"isOpen","type":"bool"},{"internalType":"uint256","name":"opinionsReceived","type":"uint256"}],"internalType":"struct OrthoConsult.Case","name":"","type":"tuple"}],"stateMutability":"view","type":"function"},{"inputs":[{"internalType":"uint256","name":"_caseId","type":"uint256"}],"name":"getOpinionsByCase","outputs":[{"components":[{"internalType":"address","name":"orthodontist","type":"address"},{"internalType":"string","name":"opinionHash","type":"string"},{"internalType":"bool","name":"isQualityMarked","type":"bool"}],"internalType":"struct OrthoConsult.Opinion[]","name":"","type":"tuple[]"}],"stateMutability":"view","type":"function"},{"inputs":[],"name":"getTotalCases","outputs":[{"internalType":"uint256","name":"","type":"uint256"}],"stateMutability":"view","type":"function"},{"inputs":[{"internalType":"uint256","name":"","type":"uint256"},{"internalType":"address","name":"","type":"address"}],"name":"hasClaimedReward","outputs":[{"internalType":"bool","name":"","type":"bool"}],"stateMutability":"view","type":"function"},{"inputs":[{"internalType":"address","name":"","type":"address"}],"name":"isRegisteredOrthodontist","outputs":[{"internalType":"bool","name":"","type":"bool"}],"stateMutability":"view","type":"function"},{"inputs":[{"internalType":"address","name":"_orthoAddress","type":"address"}],"name":"registerOrthodontist","outputs":[],"stateMutability":"nonpayable","type":"function"},{"inputs":[{"internalType":"uint256","name":"_caseId","type":"uint256"},{"internalType":"string","name":"_opinionHash","type":"string"}],"name":"submitOpinion","outputs":[],"stateMutability":"nonpayable","type":"function"}],"evm":{"bytecode":{"linkReferences":{},"object":"6080806040523461001657611252908161001c8239f35b600080fdfe608080604052600436101561001357600080fd5b60003560e01c9081632da644cd14610e02575080636e61f91014610a2d5780637a69b32d14610a0f57806390be0674146109905780639c4d3ae0146108a1578063a91a10801461077f578063ae169a501461053f578063c8b727a1146104ed578063d82d76381461016e578063e379a11e1461012f5763f09790dd1461009857600080fd5b3461012a57602036600319011261012a576004356000526001602052604060002060018060a01b038154166001820154916100d56002820161108f565b600382015491600481015461010f600660ff600585015416930154936040519788978852602088015260e0604088015260e0870190610f32565b9360608601526080850152151560a084015260c08301520390f35b600080fd5b3461012a57602036600319011261012a576001600160a01b03610150611135565b166000526003602052602060ff604060002054166040519015158152f35b606036600319011261012a5767ffffffffffffffff60043581811161012a5761019b903690600401610fcc565b8051156104a8576044351561046357602435341061042657602435156103e157600054916101c88361114b565b600055604051906101d882610f8e565b33825260208201928484526040830190815260243560608401526044356080840152600160a0840152600060c084015284600052600160205260406000209360018060a01b038451166bffffffffffffffffffffffff60a01b8654161785555160018501555180519182116103cb576102546002850154611055565b601f8111610384575b50602090601f83116001146103115791806006949260c094600092610306575b50508160011b916000199060031b1c19161760028501555b60608101516003850155608081015160048501556102c860a08201511515600586019060ff801983541691151516179055565b015191015560405190602435825260443560208301527fb2ceebb70a23f0242ddffd77fd3c0082b18d8ea3818d528da47bcff8cead5c5b60403393a3005b01519050878061027d565b90601f198316916002860160005260206000209260005b81811061036c575092600192859260c0966006989610610353575b505050811b016002850155610295565b015160001960f88460031b161c19169055878080610343565b92936020600181928786015181550195019301610328565b600285016000526020600020601f840160051c8101602085106103c4575b601f830160051c820181106103b857505061025d565b600081556001016103a2565b50806103a2565b634e487b7160e01b600052604160045260246000fd5b60405162461bcd60e51b815260206004820152601d60248201527f526577617264206d7573742062652067726561746572207468616e20300000006044820152606490fd5b60405162461bcd60e51b8152602060048201526015602482015274125b9cdd59999a58da595b9d08115512081cd95b9d605a1b6044820152606490fd5b60405162461bcd60e51b815260206004820152601b60248201527f4174206c656173742031206f70696e696f6e20726571756972656400000000006044820152606490fd5b60405162461bcd60e51b815260206004820152601960248201527f4465736372697074696f6e2068617368207265717569726564000000000000006044820152606490fd5b3461012a57604036600319011261012a576024356001600160a01b0381169081900361012a576004356000526004602052604060002090600052602052602060ff604060002054166040519015158152f35b3461012a5760208060031936011261012a57600435336000526003825261056d60ff60406000205416611170565b61057a60005482106111da565b8060005260019182815260ff60056040600020015416610749578160005260048152604060002033600052815260ff6040600020541661070c5760008281526002825260408120805490825b8281106106d6575b50505015610687578160005282815260406000206003600682015491015481156106715704928260005260048252604060002033600052825260406000209060ff198254161790558260008115610668575b600080809381933390f11561065c577f24b5efa61dd1cfc659205a97fb8ed868f3cb8c81922bab2b96423e5de1de2cb7906040519384523393a3005b6040513d6000823e3d90fd5b506108fc610620565b634e487b7160e01b600052601260045260246000fd5b6084906040519062461bcd60e51b82526004820152602260248201527f4e6f206f70696e696f6e207375626d697474656420666f722074686973206361604482015261736560f01b6064820152fd5b6106e08183611023565b50546001600160a01b031633146106ff576106fa9061114b565b6105c6565b50505050828480806105ce565b6064906040519062461bcd60e51b82526004820152601660248201527514995dd85c9908185b1c9958591e4818db185a5b595960521b6044820152fd5b6064906040519062461bcd60e51b82526004820152600f60248201526e21b0b9b29039ba34b6361037b832b760891b6044820152fd5b3461012a5760208060031936011261012a57600435600060c06040516107a481610f8e565b8281528285820152606060408201528260608201528260808201528260a082015201526107d460005482106111da565b600052600181526040600020604051906107ed82610f8e565b80546001600160a01b0390811683526001820154838501908152909390916108176002820161108f565b92604085019384526108826003830154946060870195865260048401549260808801938452600660ff6005870154169560a08a01961515875201549560c08901968752604051998a99828b525116908901525160408801525160e06060880152610100870190610f32565b935160808601525160a085015251151560c08401525160e08301520390f35b3461012a57602036600319011261012a576001600160a01b036108c2611135565b1680156109595780600052600360205260ff6040600020541661091f578060005260036020526040600020600160ff198254161790557f0c21b00d203fb5e7fabe0879a3ca8355cd41a135033b0574653d1fb0e026607f600080a2005b60405162461bcd60e51b8152602060048201526012602482015271105b1c9958591e481c9959da5cdd195c995960721b6044820152606490fd5b60405162461bcd60e51b815260206004820152600f60248201526e496e76616c6964206164647265737360881b6044820152606490fd5b3461012a57604036600319011261012a576024356004356000526002602052604060002090815481101561012a576109c791611023565b5080546001600160a01b031660ff60026109e36001850161108f565b93015416610a036040519384938452606060208501526060840190610f32565b90151560408301520390f35b3461012a57600036600319011261012a576020600054604051908152f35b3461012a57604036600319011261012a57602460043567ffffffffffffffff823581811161012a57610a63903690600401610fcc565b913360005260209160038352610a8060ff60406000205416611170565b610a8d60005483106111da565b8160005260019384845260ff6005604060002001541615610dcd57805115610d9157600083815260028552604081208054915b828110610d1457505050826000526002845260406000209060405192610ae584610f72565b338452858401918252604084019260008452805468010000000000000000811015610cff57610b18918982018155611023565b949094610cea575184546001600160a01b0319166001600160a01b0391909116178455905180519097878501928211610cd65750610b568254611055565b601f8111610c8d575b5085601f8211600114610c215790806002949392610bac9798999a600092610c16575b5050600019600383901b1c191690891b1790555b51151591019060ff801983541691151516179055565b806000528282526006604060002001610bc5815461114b565b905533817f29757dbfe90f2dc4ac285205a33addb3372057ee7a373344f8b92952b1ee5499600080a3600052526040600020600681015460048201541115610c0957005b600501805460ff19169055005b015190508a80610b82565b601f1982169083600052876000209160005b818110610c7857509183918a9b6002979695610bac9a9b9c9510610c5f575b505050811b019055610b96565b015160001960f88460031b161c191690558a8080610c52565b8b8301518455928a0192918901918901610c33565b8260005286600020601f830160051c810191888410610ccc575b601f0160051c019088905b828110610cc0575050610b5f565b60008155018890610cb2565b9091508190610ca7565b634e487b7160e01b60009081526041600452fd5b88634e487b7160e01b60005260006004526000fd5b89634e487b7160e01b60005260416004526000fd5b610d1e8183611023565b50546001600160a01b03163314610d3d57610d389061114b565b610ac0565b60405162461bcd60e51b8152600481018890526027818b01527f416c7265616479207375626d6974746564206f70696e696f6e20666f722074686044820152666973206361736560c81b6064820152608490fd5b60405162461bcd60e51b8152600481018590526015818801527413dc1a5b9a5bdb881a185cda081c995c5d5a5c9959605a1b6044820152606490fd5b60405162461bcd60e51b815260048101859052600e818801526d10d85cd9481a5cc818db1bdcd95960921b6044820152606490fd5b3461012a576020908160031936011261012a57600435600052600280835260406000209081549067ffffffffffffffff82116103cb57610e4a858360059796971b0186610faa565b81855260009283528383208486019391845b848410610ee457604080518881528951818a01819052600092600582901b83018101918a918c9085015b828710610e935785850386f35b909192938280600192603f19898203018552875190848060a01b038251168152604080610ecc8585015160608088870152850190610f32565b93015115159101529601920196019592919092610e86565b60038760019260409a999a51610ef981610f72565b848060a01b038754168152610f0f85880161108f565b8382015260ff868801541615156040820152815201930193019291969596610e5c565b919082519283825260005b848110610f5e575050826000602080949584010152601f8019910116010190565b602081830181015184830182015201610f3d565b6060810190811067ffffffffffffffff8211176103cb57604052565b60e0810190811067ffffffffffffffff8211176103cb57604052565b90601f8019910116810190811067ffffffffffffffff8211176103cb57604052565b81601f8201121561012a5780359067ffffffffffffffff82116103cb5760405192611001601f8401601f191660200185610faa565b8284526020838301011161012a57816000926020809301838601378301015290565b805482101561103f576000526003602060002091020190600090565b634e487b7160e01b600052603260045260246000fd5b90600182811c92168015611085575b602083101461106f57565b634e487b7160e01b600052602260045260246000fd5b91607f1691611064565b90604051918260008254926110a384611055565b90818452600194858116908160001461111257506001146110cf575b50506110cd92500383610faa565b565b9093915060005260209081600020936000915b8183106110fa5750506110cd935082010138806110bf565b855488840185015294850194879450918301916110e2565b9150506110cd94506020925060ff191682840152151560051b82010138806110bf565b600435906001600160a01b038216820361012a57565b600019811461115a5760010190565b634e487b7160e01b600052601160045260246000fd5b1561117757565b60405162461bcd60e51b815260206004820152603560248201527f4f7274686f436f6e73756c743a2043616c6c6572206973206e6f74206120726560448201527419da5cdd195c9959081bdc9d1a1bd91bdb9d1a5cdd605a1b6064820152608490fd5b156111e157565b60405162461bcd60e51b815260206004820152601360248201527210d85cd948191bd95cc81b9bdd08195e1a5cdd606a1b6044820152606490fdfea2646970667358221220883684c3dded779150ccbc5cc2caa7a5d627f02d86ed2b9104907076fe76b36864736f6c63430008140033","opcodes":"PUSH1 0x80 DUP1 PUSH1 0x40 MSTORE CALLVALUE PUSH2 0x16 JUMPI PUSH2 0x1252 SWAP1 DUP2 PUSH2 0x1C DUP3 CODECOPY RETURN JUMPDEST PUSH1 0x0 DUP1 REVERT INVALID PUSH1 0x80 DUP1 PUSH1 0x40 MSTORE PUSH1 0x4 CALLDATASIZE LT ISZERO PUSH2 0x13 JUMPI PUSH1 0x0 DUP1 REVERT JUMPDEST PUSH1 0x0 CALLDATALOAD PUSH1 0xE0 SHR SWAP1 DUP2 PUSH4 0x2DA644CD EQ PUSH2 0xE02 JUMPI POP DUP1 PUSH4 0x6E61F910 EQ PUSH2 0xA2D JUMPI DUP1 PUSH4 0x7A69B32D EQ PUSH2 0xA0F JUMPI DUP1 PUSH4 0x90BE0674 EQ PUSH2 0x990 JUMPI DUP1 PUSH4 0x9C4D3AE0 EQ PUSH2 0x8A1 JUMPI DUP1 PUSH4 0xA91A1080 EQ PUSH2 0x77F JUMPI DUP1 PUSH4 0xAE169A50 EQ PUSH2 0x53F JUMPI DUP1 PUSH4 0xC8B727A1 EQ PUSH2 0x4ED JUMPI DUP1 PUSH4 0xD82D7638 EQ PUSH2 0x16E JUMPI DUP1 PUSH4 0xE379A11E EQ PUSH2 0x12F JUMPI PUSH4 0xF09790DD EQ PUSH2 0x98 JUMPI PUSH1 0x0 DUP1 REVERT JUMPDEST CALLVALUE PUSH2 0x12A JUMPI PUSH1 0x20 CALLDATASIZE PUSH1 0x3 NOT ADD SLT PUSH2 0x12A JUMPI PUSH1 0x4 CALLDATALOAD PUSH1 0x0 MSTORE PUSH1 0x1 PUSH1 0x20 MSTORE PUSH1 0x40 PUSH1 0x0 KECCAK256 PUSH1 0x1 DUP1 PUSH1 0xA0 SHL SUB DUP2 SLOAD AND PUSH1 0x1 DUP3 ADD SLOAD SWAP2 PUSH2 0xD5 PUSH1 0x2 DUP3 ADD PUSH2 0x108F JUMP JUMPDEST PUSH1 0x3 DUP3 ADD SLOAD SWAP2 PUSH1 0x4 DUP2 ADD SLOAD PUSH2 0x10F PUSH1 0x6 PUSH1 0xFF PUSH1 0x5 DUP6 ADD SLOAD AND SWAP4 ADD SLOAD SWAP4 PUSH1 0x40 MLOAD SWAP8 DUP9 SWAP8 DUP9 MSTORE PUSH1 0x20 DUP9 ADD MSTORE PUSH1 0xE0 PUSH1 0x40 DUP9 ADD MSTORE PUSH1 0xE0 DUP8 ADD SWAP1 PUSH2 0xF32 JUMP JUMPDEST SWAP4 PUSH1 0x60 DUP7 ADD MSTORE PUSH1 0x80 DUP6 ADD MSTORE ISZERO ISZERO PUSH1 0xA0 DUP5 ADD MSTORE PUSH1 0xC0 DUP4 ADD MSTORE SUB SWAP1 RETURN JUMPDEST PUSH1 0x0 DUP1 REVERT JUMPDEST CALLVALUE PUSH2 0x12A JUMPI PUSH1 0x20 CALLDATASIZE PUSH1 0x3 NOT ADD SLT PUSH2 0x12A JUMPI PUSH1 0x1 PUSH1 0x1 PUSH1 0xA0 SHL SUB PUSH2 0x150 PUSH2 0x1135 JUMP JUMPDEST AND PUSH1 0x0 MSTORE PUSH1 0x3 PUSH1 0x20 MSTORE PUSH1 0x20 PUSH1 0xFF PUSH1 0x40 PUSH1 0x0 KECCAK256 SLOAD AND PUSH1 0x40 MLOAD SWAP1 ISZERO ISZERO DUP2 MSTORE RETURN JUMPDEST PUSH1 0x60 CALLDATASIZE PUSH1 0x3 NOT ADD SLT PUSH2 0x12A JUMPI PUSH8 0xFFFFFFFFFFFFFFFF PUSH1 0x4 CALLDATALOAD DUP2 DUP2 GT PUSH2 0x12A JUMPI PUSH2 0x19B SWAP1 CALLDATASIZE SWAP1 PUSH1 0x4 ADD PUSH2 0xFCC JUMP JUMPDEST DUP1 MLOAD ISZERO PUSH2 0x4A8 JUMPI PUSH1 0x44 CALLDATALOAD ISZERO PUSH2 0x463 JUMPI PUSH1 0x24 CALLDATALOAD CALLVALUE LT PUSH2 0x426 JUMPI PUSH1 0x24 CALLDATALOAD ISZERO PUSH2 0x3E1 JUMPI PUSH1 0x0 SLOAD SWAP2 PUSH2 0x1C8 DUP4 PUSH2 0x114B JUMP JUMPDEST PUSH1 0x0 SSTORE PUSH1 0x40 MLOAD SWAP1 PUSH2 0x1D8 DUP3 PUSH2 0xF8E JUMP JUMPDEST CALLER DUP3 MSTORE PUSH1 0x20 DUP3 ADD SWAP3 DUP5 DUP5 MSTORE PUSH1 0x40 DUP4 ADD SWAP1 DUP2 MSTORE PUSH1 0x24 CALLDATALOAD PUSH1 0x60 DUP5 ADD MSTORE PUSH1 0x44 CALLDATALOAD PUSH1 0x80 DUP5 ADD MSTORE PUSH1 0x1 PUSH1 0xA0 DUP5 ADD MSTORE PUSH1 0x0 PUSH1 0xC0 DUP5 ADD MSTORE DUP5 PUSH1 0x0 MSTORE PUSH1 0x1 PUSH1 0x20 MSTORE PUSH1 0x40 PUSH1 0x0 KECCAK256 SWAP4 PUSH1 0x1 DUP1 PUSH1 0xA0 SHL SUB DUP5 MLOAD AND PUSH12 0xFFFFFFFFFFFFFFFFFFFFFFFF PUSH1 0xA0 SHL DUP7 SLOAD AND OR DUP6 SSTORE MLOAD PUSH1 0x1 DUP6 ADD SSTORE MLOAD DUP1 MLOAD SWAP2 DUP3 GT PUSH2 0x3CB JUMPI PUSH2 0x254 PUSH1 0x2 DUP6 ADD SLOAD PUSH2 0x1055 JUMP JUMPDEST PUSH1 0x1F DUP2 GT PUSH2 0x384 JUMPI JUMPDEST POP PUSH1 0x20 SWAP1 PUSH1 0x1F DUP4 GT PUSH1 0x1 EQ PUSH2 0x311 JUMPI SWAP2 DUP1 PUSH1 0x6 SWAP5 SWAP3 PUSH1 0xC0 SWAP5 PUSH1 0x0 SWAP3 PUSH2 0x306 JUMPI JUMPDEST POP POP DUP2 PUSH1 0x1 SHL SWAP2 PUSH1 0x0 NOT SWAP1 PUSH1 0x3 SHL SHR NOT AND OR PUSH1 0x2 DUP6 ADD SSTORE JUMPDEST PUSH1 0x60 DUP2 ADD MLOAD PUSH1 0x3 DUP6 ADD SSTORE PUSH1 0x80 DUP2 ADD MLOAD PUSH1 0x4 DUP6 ADD SSTORE PUSH2 0x2C8 PUSH1 0xA0 DUP3 ADD MLOAD ISZERO ISZERO PUSH1 0x5 DUP7 ADD SWAP1 PUSH1 0xFF DUP1 NOT DUP4 SLOAD AND SWAP2 ISZERO ISZERO AND OR SWAP1 SSTORE JUMP JUMPDEST ADD MLOAD SWAP2 ADD SSTORE PUSH1 0x40 MLOAD SWAP1 PUSH1 0x24 CALLDATALOAD DUP3 MSTORE PUSH1 0x44 CALLDATALOAD PUSH1 0x20 DUP4 ADD MSTORE PUSH32 0xB2CEEBB70A23F0242DDFFD77FD3C0082B18D8EA3818D528DA47BCFF8CEAD5C5B PUSH1 0x40 CALLER SWAP4 LOG3 STOP JUMPDEST ADD MLOAD SWAP1 POP DUP8 DUP1 PUSH2 0x27D JUMP JUMPDEST SWAP1 PUSH1 0x1F NOT DUP4 AND SWAP2 PUSH1 0x2 DUP7 ADD PUSH1 0x0 MSTORE PUSH1 0x20 PUSH1 0x0 KECCAK256 SWAP3 PUSH1 0x0 JUMPDEST DUP2 DUP2 LT PUSH2 0x36C JUMPI POP SWAP3 PUSH1 0x1 SWAP3 DUP6 SWAP3 PUSH1 0xC0 SWAP7 PUSH1 0x6 SWAP9 SWAP7 LT PUSH2 0x353 JUMPI JUMPDEST POP POP POP DUP2 SHL ADD PUSH1 0x2 DUP6 ADD SSTORE PUSH2 0x295 JUMP JUMPDEST ADD MLOAD PUSH1 0x0 NOT PUSH1 0xF8 DUP5 PUSH1 0x3 SHL AND SHR NOT AND SWAP1 SSTORE DUP8 DUP1 DUP1 PUSH2 0x343 JUMP JUMPDEST SWAP3 SWAP4 PUSH1 0x20 PUSH1 0x1 DUP2 SWAP3 DUP8 DUP7 ADD MLOAD DUP2 SSTORE ADD SWAP6 ADD SWAP4 ADD PUSH2 0x328 JUMP JUMPDEST PUSH1 0x2 DUP6 ADD PUSH1 0x0 MSTORE PUSH1 0x20 PUSH1 0x0 KECCAK256 PUSH1 0x1F DUP5 ADD PUSH1 0x5 SHR DUP2 ADD PUSH1 0x20 DUP6 LT PUSH2 0x3C4 JUMPI JUMPDEST PUSH1 0x1F DUP4 ADD PUSH1 0x5 SHR DUP3 ADD DUP2 LT PUSH2 0x3B8 JUMPI POP POP PUSH2 0x25D JUMP JUMPDEST PUSH1 0x0 DUP2 SSTORE PUSH1 0x1 ADD PUSH2 0x3A2 JUMP JUMPDEST POP DUP1 PUSH2 0x3A2 JUMP JUMPDEST PUSH4 0x4E487B71 PUSH1 0xE0 SHL PUSH1 0x0 MSTORE PUSH1 0x41 PUSH1 0x4 MSTORE PUSH1 0x24 PUSH1 0x0 REVERT JUMPDEST PUSH1 0x40 MLOAD PUSH3 0x461BCD PUSH1 0xE5 SHL DUP2 MSTORE PUSH1 0x20 PUSH1 0x4 DUP3 ADD MSTORE PUSH1 0x1D PUSH1 0x24 DUP3 ADD MSTORE PUSH32 0x526577617264206D7573742062652067726561746572207468616E2030000000 PUSH1 0x44 DUP3 ADD MSTORE PUSH1 0x64 SWAP1 REVERT JUMPDEST PUSH1 0x40 MLOAD PUSH3 0x461BCD PUSH1 0xE5 SHL DUP2 MSTORE PUSH1 0x20 PUSH1 0x4 DUP3 ADD MSTORE PUSH1 0x15 PUSH1 0x24 DUP3 ADD MSTORE PUSH21 0x125B9CDD59999A58DA595B9D08115512081CD95B9D PUSH1 0x5A SHL PUSH1 0x44 DUP3 ADD MSTORE PUSH1 0x64 SWAP1 REVERT JUMPDEST PUSH1 0x40 MLOAD PUSH3 0x461BCD PUSH1 0xE5 SHL DUP2 MSTORE PUSH1 0x20 PUSH1 0x4 DUP3 ADD MSTORE PUSH1 0x1B PUSH1 0x24 DUP3 ADD MSTORE PUSH32 0x4174206C656173742031206F70696E696F6E2072657175697265640000000000 PUSH1 0x44 DUP3 ADD MSTORE PUSH1 0x64 SWAP1 REVERT JUMPDEST PUSH1 0x40 MLOAD PUSH3 0x461BCD PUSH1 0xE5 SHL DUP2 MSTORE PUSH1 0x20 PUSH1 0x4 DUP3 ADD MSTORE PUSH1 0x19 PUSH1 0x24 DUP3 ADD MSTORE PUSH32 0x4465736372697074696F6E206861736820726571756972656400000000000000 PUSH1 0x44 DUP3 ADD MSTORE PUSH1 0x64 SWAP1 REVERT JUMPDEST CALLVALUE PUSH2 0x12A JUMPI PUSH1 0x40 CALLDATASIZE PUSH1 0x3 NOT ADD SLT PUSH2 0x12A JUMPI PUSH1 0x24 CALLDATALOAD PUSH1 0x1 PUSH1 0x1 PUSH1 0xA0 SHL SUB DUP2 AND SWAP1 DUP2 SWAP1 SUB PUSH2 0x12A JUMPI PUSH1 0x4 CALLDATALOAD PUSH1 0x0 MSTORE PUSH1 0x4 PUSH1 0x20 MSTORE PUSH1 0x40 PUSH1 0x0 KECCAK256 SWAP1 PUSH1 0x0 MSTORE PUSH1 0x20 MSTORE PUSH1 0x20 PUSH1 0xFF PUSH1 0x40 PUSH1 0x0 KECCAK256 SLOAD AND PUSH1 0x40 MLOAD SWAP1 ISZERO ISZERO DUP2 MSTORE RETURN JUMPDEST CALLVALUE PUSH2 0x12A JUMPI PUSH1 0x20 DUP1 PUSH1 0x3 NOT CALLDATASIZE ADD SLT PUSH2 0x12A JUMPI PUSH1 0x4 CALLDATALOAD CALLER PUSH1 0x0 MSTORE PUSH1 0x3 DUP3 MSTORE PUSH2 0x56D PUSH1 0xFF PUSH1 0x40 PUSH1 0x0 KECCAK256 SLOAD AND PUSH2 0x1170 JUMP JUMPDEST PUSH2 0x57A PUSH1 0x0 SLOAD DUP3 LT PUSH2 0x11DA JUMP JUMPDEST DUP1 PUSH1 0x0 MSTORE PUSH1 0x1 SWAP2 DUP3 DUP2 MSTORE PUSH1 0xFF PUSH1 0x5 PUSH1 0x40 PUSH1 0x0 KECCAK256 ADD SLOAD AND PUSH2 0x749 JUMPI DUP2 PUSH1 0x0 MSTORE PUSH1 0x4 DUP2 MSTORE PUSH1 0x40 PUSH1 0x0 KECCAK256 CALLER PUSH1 0x0 MSTORE DUP2 MSTORE PUSH1 0xFF PUSH1 0x40 PUSH1 0x0 KECCAK256 SLOAD AND PUSH2 0x70C JUMPI PUSH1 0x0 DUP3 DUP2 MSTORE PUSH1 0x2 DUP3 MSTORE PUSH1 0x40 DUP2 KECCAK256 DUP1 SLOAD SWAP1 DUP3 JUMPDEST DUP3 DUP2 LT PUSH2 0x6D6 JUMPI JUMPDEST POP POP POP ISZERO PUSH2 0x687 JUMPI DUP2 PUSH1 0x0 MSTORE DUP3 DUP2 MSTORE PUSH1 0x40 PUSH1 0x0 KECCAK256 PUSH1 0x3 PUSH1 0x6 DUP3 ADD SLOAD SWAP2 ADD SLOAD DUP2 ISZERO PUSH2 0x671 JUMPI DIV SWAP3 DUP3 PUSH1 0x0 MSTORE PUSH1 0x4 DUP3 MSTORE PUSH1 0x40 PUSH1 0x0 KECCAK256 CALLER PUSH1 0x0 MSTORE DUP3 MSTORE PUSH1 0x40 PUSH1 0x0 KECCAK256 SWAP1 PUSH1 0xFF NOT DUP3 SLOAD AND OR SWAP1 SSTORE DUP3 PUSH1 0x0 DUP2 ISZERO PUSH2 0x668 JUMPI JUMPDEST PUSH1 0x0 DUP1 DUP1 SWAP4 DUP2 SWAP4 CALLER SWAP1 CALL ISZERO PUSH2 0x65C JUMPI PUSH32 0x24B5EFA61DD1CFC659205A97FB8ED868F3CB8C81922BAB2B96423E5DE1DE2CB7 SWAP1 PUSH1 0x40 MLOAD SWAP4 DUP5 MSTORE CALLER SWAP4 LOG3 STOP JUMPDEST PUSH1 0x40 MLOAD RETURNDATASIZE PUSH1 0x0 DUP3 RETURNDATACOPY RETURNDATASIZE SWAP1 REVERT JUMPDEST POP PUSH2 0x8FC PUSH2 0x620 JUMP JUMPDEST PUSH4 0x4E487B71 PUSH1 0xE0 SHL PUSH1 0x0 MSTORE PUSH1 0x12 PUSH1 0x4 MSTORE PUSH1 0x24 PUSH1 0x0 REVERT JUMPDEST PUSH1 0x84 SWAP1 PUSH1 0x40 MLOAD SWAP1 PUSH3 0x461BCD PUSH1 0xE5 SHL DUP3 MSTORE PUSH1 0x4 DUP3 ADD MSTORE PUSH1 0x22 PUSH1 0x24 DUP3 ADD MSTORE PUSH32 0x4E6F206F70696E696F6E207375626D697474656420666F722074686973206361 PUSH1 0x44 DUP3 ADD MSTORE PUSH2 0x7365 PUSH1 0xF0 SHL PUSH1 0x64 DUP3 ADD MSTORE REVERT JUMPDEST PUSH2 0x6E0 DUP2 DUP4 PUSH2 0x1023 JUMP JUMPDEST POP SLOAD PUSH1 0x1 PUSH1 0x1 PUSH1 0xA0 SHL SUB AND CALLER EQ PUSH2 0x6FF JUMPI PUSH2 0x6FA SWAP1 PUSH2 0x114B JUMP JUMPDEST PUSH2 0x5C6 JUMP JUMPDEST POP POP POP POP DUP3 DUP5 DUP1 DUP1 PUSH2 0x5CE JUMP JUMPDEST PUSH1 0x64 SWAP1 PUSH1 0x40 MLOAD SWAP1 PUSH3 0x461BCD PUSH1 0xE5 SHL DUP3 MSTORE PUSH1 0x4 DUP3 ADD MSTORE PUSH1 0x16 PUSH1 0x24 DUP3 ADD MSTORE PUSH22 0x14995DD85C9908185B1C9958591E4818DB185A5B5959 PUSH1 0x52 SHL PUSH1 0x44 DUP3 ADD MSTORE REVERT JUMPDEST PUSH1 0x64 SWAP1 PUSH1 0x40 MLOAD SWAP1 PUSH3 0x461BCD PUSH1 0xE5 SHL DUP3 MSTORE PUSH1 0x4 DUP3 ADD MSTORE PUSH1 0xF PUSH1 0x24 DUP3 ADD MSTORE PUSH15 0x21B0B9B29039BA34B6361037B832B7 PUSH1 0x89 SHL PUSH1 0x44 DUP3 ADD MSTORE REVERT JUMPDEST CALLVALUE PUSH2 0x12A JUMPI PUSH1 0x20 DUP1 PUSH1 0x3 NOT CALLDATASIZE ADD SLT PUSH2 0x12A JUMPI PUSH1 0x4 CALLDATALOAD PUSH1 0x0 PUSH1 0xC0 PUSH1 0x40 MLOAD PUSH2 0x7A4 DUP2 PUSH2 0xF8E JUMP JUMPDEST DUP3 DUP2 MSTORE DUP3 DUP6 DUP3 ADD MSTORE PUSH1 0x60 PUSH1 0x40 DUP3 ADD MSTORE DUP3 PUSH1 0x60 DUP3 ADD MSTORE DUP3 PUSH1 0x80 DUP3 ADD MSTORE DUP3 PUSH1 0xA0 DUP3 ADD MSTORE ADD MSTORE PUSH2 0x7D4 PUSH1 0x0 SLOAD DUP3 LT PUSH2 0x11DA JUMP JUMPDEST PUSH1 0x0 MSTORE PUSH1 0x1 DUP2 MSTORE PUSH1 0x40 PUSH1 0x0 KECCAK256 PUSH1 0x40 MLOAD SWAP1 PUSH2 0x7ED DUP3 PUSH2 0xF8E JUMP JUMPDEST DUP1 SLOAD PUSH1 0x1 PUSH1 0x1 PUSH1 0xA0 SHL SUB SWAP1 DUP2 AND DUP4 MSTORE PUSH1 0x1 DUP3 ADD SLOAD DUP4 DUP6 ADD SWAP1 DUP2 MSTORE SWAP1 SWAP4 SWAP1 SWAP2 PUSH2 0x817 PUSH1 0x2 DUP3 ADD PUSH2 0x108F JUMP JUMPDEST SWAP3 PUSH1 0x40 DUP6 ADD SWAP4 DUP5 MSTORE PUSH2 0x882 PUSH1 0x3 DUP4 ADD SLOAD SWAP5 PUSH1 0x60 DUP8 ADD SWAP6 DUP7 MSTORE PUSH1 0x4 DUP5 ADD SLOAD SWAP3 PUSH1 0x80 DUP9 ADD SWAP4 DUP5 MSTORE PUSH1 0x6 PUSH1 0xFF PUSH1 0x5 DUP8 ADD SLOAD AND SWAP6 PUSH1 0xA0 DUP11 ADD SWAP7 ISZERO ISZERO DUP8 MSTORE ADD SLOAD SWAP6 PUSH1 0xC0 DUP10 ADD SWAP7 DUP8 MSTORE PUSH1 0x40 MLOAD SWAP10 DUP11 SWAP10 DUP3 DUP12 MSTORE MLOAD AND SWAP1 DUP10 ADD MSTORE MLOAD PUSH1 0x40 DUP9 ADD MSTORE MLOAD PUSH1 0xE0 PUSH1 0x60 DUP9 ADD MSTORE PUSH2 0x100 DUP8 ADD SWAP1 PUSH2 0xF32 JUMP JUMPDEST SWAP4 MLOAD PUSH1 0x80 DUP7 ADD MSTORE MLOAD PUSH1 0xA0 DUP6 ADD MSTORE MLOAD ISZERO ISZERO PUSH1 0xC0 DUP5 ADD MSTORE MLOAD PUSH1 0xE0 DUP4 ADD MSTORE SUB SWAP1 RETURN JUMPDEST CALLVALUE PUSH2 0x12A JUMPI PUSH1 0x20 CALLDATASIZE PUSH1 0x3 NOT ADD SLT PUSH2 0x12A JUMPI PUSH1 0x1 PUSH1 0x1 PUSH1 0xA0 SHL SUB PUSH2 0x8C2 PUSH2 0x1135 JUMP JUMPDEST AND DUP1 ISZERO PUSH2 0x959 JUMPI DUP1 PUSH1 0x0 MSTORE PUSH1 0x3 PUSH1 0x20 MSTORE PUSH1 0xFF PUSH1 0x40 PUSH1 0x0 KECCAK256 SLOAD AND PUSH2 0x91F JUMPI DUP1 PUSH1 0x0 MSTORE PUSH1 0x3 PUSH1 0x20 MSTORE PUSH1 0x40 PUSH1 0x0 KECCAK256 PUSH1 0x1 PUSH1 0xFF NOT DUP3 SLOAD AND OR SWAP1 SSTORE PUSH32 0xC21B00D203FB5E7FABE0879A3CA8355CD41A135033B0574653D1FB0E026607F PUSH1 0x0 DUP1 LOG2 STOP JUMPDEST PUSH1 0x40 MLOAD PUSH3 0x461BCD PUSH1 0xE5 SHL DUP2 MSTORE PUSH1 0x20 PUSH1 0x4 DUP3 ADD MSTORE PUSH1 0x12 PUSH1 0x24 DUP3 ADD MSTORE PUSH18 0x105B1C9958591E481C9959DA5CDD195C9959 PUSH1 0x72 SHL PUSH1 0x44 DUP3 ADD MSTORE PUSH1 0x64 SWAP1 REVERT JUMPDEST PUSH1 0x40 MLOAD PUSH3 0x461BCD PUSH1 0xE5 SHL DUP2 MSTORE PUSH1 0x20 PUSH1 0x4 DUP3 ADD MSTORE PUSH1 0xF PUSH1 0x24 DUP3 ADD MSTORE PUSH15 0x496E76616C69642061646472657373 PUSH1 0x88 SHL PUSH1 0x44 DUP3 ADD MSTORE PUSH1 0x64 SWAP1 REVERT JUMPDEST CALLVALUE PUSH2 0x12A JUMPI PUSH1 0x40 CALLDATASIZE PUSH1 0x3 NOT ADD SLT PUSH2 0x12A JUMPI PUSH1 0x24 CALLDATALOAD PUSH1 0x4 CALLDATALOAD PUSH1 0x0 MSTORE PUSH1 0x2 PUSH1 0x20 MSTORE PUSH1 0x40 PUSH1 0x0 KECCAK256 SWAP1 DUP2 SLOAD DUP2 LT ISZERO PUSH2 0x12A JUMPI PUSH2 0x9C7 SWAP2 PUSH2 0x1023 JUMP JUMPDEST POP DUP1 SLOAD PUSH1 0x1 PUSH1 0x1 PUSH1 0xA0 SHL SUB AND PUSH1 0xFF PUSH1 0x2 PUSH2 0x9E3 PUSH1 0x1 DUP6 ADD PUSH2 0x108F JUMP JUMPDEST SWAP4 ADD SLOAD AND PUSH2 0xA03 PUSH1 0x40 MLOAD SWAP4 DUP5 SWAP4 DUP5 MSTORE PUSH1 0x60 PUSH1 0x20 DUP6 ADD MSTORE PUSH1 0x60 DUP5 ADD SWAP1 PUSH2 0xF32 JUMP JUMPDEST SWAP1 ISZERO ISZERO PUSH1 0x40 DUP4 ADD MSTORE SUB SWAP1 RETURN JUMPDEST CALLVALUE PUSH2 0x12A JUMPI PUSH1 0x0 CALLDATASIZE PUSH1 0x3 NOT ADD SLT PUSH2 0x12A JUMPI PUSH1 0x20 PUSH1 0x0 SLOAD PUSH1 0x40 MLOAD SWAP1 DUP2 MSTORE RETURN JUMPDEST CALLVALUE PUSH2 0x12A JUMPI PUSH1 0x40 CALLDATASIZE PUSH1 0x3 NOT ADD SLT PUSH2 0x12A JUMPI PUSH1 0x24 PUSH1 0x4 CALLDATALOAD PUSH8 0xFFFFFFFFFFFFFFFF DUP3 CALLDATALOAD DUP2 DUP2 GT PUSH2 0x12A JUMPI PUSH2 0xA63 SWAP1 CALLDATASIZE SWAP1 PUSH1 0x4 ADD PUSH2 0xFCC JUMP JUMPDEST SWAP2 CALLER PUSH1 0x0 MSTORE PUSH1 0x20 SWAP2 PUSH1 0x3 DUP4 MSTORE PUSH2 0xA80 PUSH1 0xFF PUSH1 0x40 PUSH1 0x0 KECCAK256 SLOAD AND PUSH2 0x1170 JUMP JUMPDEST PUSH2 0xA8D PUSH1 0x0 SLOAD DUP4 LT PUSH2 0x11DA JUMP JUMPDEST DUP2 PUSH1 0x0 MSTORE PUSH1 0x1 SWAP4 DUP5 DUP5 MSTORE PUSH1 0xFF PUSH1 0x5 PUSH1 0x40 PUSH1 0x0 KECCAK256 ADD SLOAD AND ISZERO PUSH2 0xDCD JUMPI DUP1 MLOAD ISZERO PUSH2 0xD91 JUMPI PUSH1 0x0 DUP4 DUP2 MSTORE PUSH1 0x2 DUP6 MSTORE PUSH1 0x40 DUP2 KECCAK256 DUP1 SLOAD SWAP2 JUMPDEST DUP3 DUP2 LT PUSH2 0xD14 JUMPI POP POP POP DUP3 PUSH1 0x0 MSTORE PUSH1 0x2 DUP5 MSTORE PUSH1 0x40 PUSH1 0x0 KECCAK256 SWAP1 PUSH1 0x40 MLOAD SWAP3 PUSH2 0xAE5 DUP5 PUSH2 0xF72 JUMP JUMPDEST CALLER DUP5 MSTORE DUP6 DUP5 ADD SWAP2 DUP3 MSTORE PUSH1 0x40 DUP5 ADD SWAP3 PUSH1 0x0 DUP5 MSTORE DUP1 SLOAD PUSH9 0x10000000000000000 DUP2 LT ISZERO PUSH2 0xCFF JUMPI PUSH2 0xB18 SWAP2 DUP10 DUP3 ADD DUP2 SSTORE PUSH2 0x1023 JUMP JUMPDEST SWAP5 SWAP1 SWAP5 PUSH2 0xCEA JUMPI MLOAD DUP5 SLOAD PUSH1 0x1 PUSH1 0x1 PUSH1 0xA0 SHL SUB NOT AND PUSH1 0x1 PUSH1 0x1 PUSH1 0xA0 SHL SUB SWAP2 SWAP1 SWAP2 AND OR DUP5 SSTORE SWAP1 MLOAD DUP1 MLOAD SWAP1 SWAP8 DUP8 DUP6 ADD SWAP3 DUP3 GT PUSH2 0xCD6 JUMPI POP PUSH2 0xB56 DUP3 SLOAD PUSH2 0x1055 JUMP JUMPDEST PUSH1 0x1F DUP2 GT PUSH2 0xC8D JUMPI JUMPDEST POP DUP6 PUSH1 0x1F DUP3 GT PUSH1 0x1 EQ PUSH2 0xC21 JUMPI SWAP1 DUP1 PUSH1 0x2 SWAP5 SWAP4 SWAP3 PUSH2 0xBAC SWAP8 SWAP9 SWAP10 SWAP11 PUSH1 0x0 SWAP3 PUSH2 0xC16 JUMPI JUMPDEST POP POP PUSH1 0x0 NOT PUSH1 0x3 DUP4 SWAP1 SHL SHR NOT AND SWAP1 DUP10 SHL OR SWAP1 SSTORE JUMPDEST MLOAD ISZERO ISZERO SWAP2 ADD SWAP1 PUSH1 0xFF DUP1 NOT DUP4 SLOAD AND SWAP2 ISZERO ISZERO AND OR SWAP1 SSTORE JUMP JUMPDEST DUP1 PUSH1 0x0 MSTORE DUP3 DUP3 MSTORE PUSH1 0x6 PUSH1 0x40 PUSH1 0x0 KECCAK256 ADD PUSH2 0xBC5 DUP2 SLOAD PUSH2 0x114B JUMP JUMPDEST SWAP1 SSTORE CALLER DUP2 PUSH32 0x29757DBFE90F2DC4AC285205A33ADDB3372057EE7A373344F8B92952B1EE5499 PUSH1 0x0 DUP1 LOG3 PUSH1 0x0 MSTORE MSTORE PUSH1 0x40 PUSH1 0x0 KECCAK256 PUSH1 0x6 DUP2 ADD SLOAD PUSH1 0x4 DUP3 ADD SLOAD GT ISZERO PUSH2 0xC09 JUMPI STOP JUMPDEST PUSH1 0x5 ADD DUP1 SLOAD PUSH1 0xFF NOT AND SWAP1 SSTORE STOP JUMPDEST ADD MLOAD SWAP1 POP DUP11 DUP1 PUSH2 0xB82 JUMP JUMPDEST PUSH1 0x1F NOT DUP3 AND SWAP1 DUP4 PUSH1 0x0 MSTORE DUP8 PUSH1 0x0 KECCAK256 SWAP2 PUSH1 0x0 JUMPDEST DUP2 DUP2 LT PUSH2 0xC78 JUMPI POP SWAP2 DUP4 SWAP2 DUP11 SWAP12 PUSH1 0x2 SWAP8 SWAP7 SWAP6 PUSH2 0xBAC SWAP11 SWAP12 SWAP13 SWAP6 LT PUSH2 0xC5F JUMPI JUMPDEST POP POP POP DUP2 SHL ADD SWAP1 SSTORE PUSH2 0xB96 JUMP JUMPDEST ADD MLOAD PUSH1 0x0 NOT PUSH1 0xF8 DUP5 PUSH1 0x3 SHL AND SHR NOT AND SWAP1 SSTORE DUP11 DUP1 DUP1 PUSH2 0xC52 JUMP JUMPDEST DUP12 DUP4 ADD MLOAD DUP5 SSTORE SWAP3 DUP11 ADD SWAP3 SWAP2 DUP10 ADD SWAP2 DUP10 ADD PUSH2 0xC33 JUMP JUMPDEST DUP3 PUSH1 0x0 MSTORE DUP7 PUSH1 0x0 KECCAK256 PUSH1 0x1F DUP4 ADD PUSH1 0x5 SHR DUP2 ADD SWAP2 DUP9 DUP5 LT PUSH2 0xCCC JUMPI JUMPDEST PUSH1 0x1F ADD PUSH1 0x5 SHR ADD SWAP1 DUP9 SWAP1 JUMPDEST DUP3 DUP2 LT PUSH2 0xCC0 JUMPI POP POP PUSH2 0xB5F JUMP JUMPDEST PUSH1 0x0 DUP2 SSTORE ADD DUP9 SWAP1 PUSH2 0xCB2 JUMP JUMPDEST SWAP1 SWAP2 POP DUP2 SWAP1 PUSH2 0xCA7 JUMP JUMPDEST PUSH4 0x4E487B71 PUSH1 0xE0 SHL PUSH1 0x0 SWAP1 DUP2 MSTORE PUSH1 0x41 PUSH1 0x4 MSTORE REVERT JUMPDEST DUP9 PUSH4 0x4E487B71 PUSH1 0xE0 SHL PUSH1 0x0 MSTORE PUSH1 0x0 PUSH1 0x4 MSTORE PUSH1 0x0 REVERT JUMPDEST DUP10 PUSH4 0x4E487B71 PUSH1 0xE0 SHL PUSH1 0x0 MSTORE PUSH1 0x41 PUSH1 0x4 MSTORE PUSH1 0x0 REVERT JUMPDEST PUSH2 0xD1E DUP2 DUP4 PUSH2 0x1023 JUMP JUMPDEST POP SLOAD PUSH1 0x1 PUSH1 0x1 PUSH1 0xA0 SHL SUB AND CALLER EQ PUSH2 0xD3D JUMPI PUSH2 0xD38 SWAP1 PUSH2 0x114B JUMP JUMPDEST PUSH2 0xAC0 JUMP JUMPDEST PUSH1 0x40 MLOAD PUSH3 0x461BCD PUSH1 0xE5 SHL DUP2 MSTORE PUSH1 0x4 DUP2 ADD DUP9 SWAP1 MSTORE PUSH1 0x27 DUP2 DUP12 ADD MSTORE PUSH32 0x416C7265616479207375626D6974746564206F70696E696F6E20666F72207468 PUSH1 0x44 DUP3 ADD MSTORE PUSH7 0x69732063617365 PUSH1 0xC8 SHL PUSH1 0x64 DUP3 ADD MSTORE PUSH1 0x84 SWAP1 REVERT JUMPDEST PUSH1 0x40 MLOAD PUSH3 0x461BCD PUSH1 0xE5 SHL DUP2 MSTORE PUSH1 0x4 DUP2 ADD DUP6 SWAP1 MSTORE PUSH1 0x15 DUP2 DUP9 ADD MSTORE PUSH21 0x13DC1A5B9A5BDB881A185CDA081C995C5D5A5C9959 PUSH1 0x5A SHL PUSH1 0x44 DUP3 ADD MSTORE PUSH1 0x64 SWAP1 REVERT JUMPDEST PUSH1 0x40 MLOAD PUSH3 0x461BCD PUSH1 0xE5 SHL DUP2 MSTORE PUSH1 0x4 DUP2 ADD DUP6 SWAP1 MSTORE PUSH1 0xE DUP2 DUP9 ADD MSTORE PUSH14 0x10D85CD9481A5CC818DB1BDCD959 PUSH1 0x92 SHL PUSH1 0x44 DUP3 ADD MSTORE PUSH1 0x64 SWAP1 REVERT JUMPDEST CALLVALUE PUSH2 0x12A JUMPI PUSH1 0x20 SWAP1 DUP2 PUSH1 0x3 NOT CALLDATASIZE ADD SLT PUSH2 0x12A JUMPI PUSH1 0x4 CALLDATALOAD PUSH1 0x0 MSTORE PUSH1 0x2 DUP1 DUP4 MSTORE PUSH1 0x40 PUSH1 0x0 KECCAK256 SWAP1 DUP2 SLOAD SWAP1 PUSH8 0xFFFFFFFFFFFFFFFF DUP3 GT PUSH2 0x3CB JUMPI PUSH2 0xE4A DUP6 DUP4 PUSH1 0x5 SWAP8 SWAP7 SWAP8 SHL ADD DUP7 PUSH2 0xFAA JUMP JUMPDEST DUP2 DUP6 MSTORE PUSH1 0x0 SWAP3 DUP4 MSTORE DUP4 DUP4 KECCAK256 DUP5 DUP7 ADD SWAP4 SWAP2 DUP5 JUMPDEST DUP5 DUP5 LT PUSH2 0xEE4 JUMPI PUSH1 0x40 DUP1 MLOAD DUP9 DUP2 MSTORE DUP10 MLOAD DUP2 DUP11 ADD DUP2 SWAP1 MSTORE PUSH1 0x0 SWAP3 PUSH1 0x5 DUP3 SWAP1 SHL DUP4 ADD DUP2 ADD SWAP2 DUP11 SWAP2 DUP13 SWAP1 DUP6 ADD JUMPDEST DUP3 DUP8 LT PUSH2 0xE93 JUMPI DUP6 DUP6 SUB DUP7 RETURN JUMPDEST SWAP1 SWAP2 SWAP3 SWAP4 DUP3 DUP1 PUSH1 0x1 SWAP3 PUSH1 0x3F NOT DUP10 DUP3 SUB ADD DUP6 MSTORE DUP8 MLOAD SWAP1 DUP5 DUP1 PUSH1 0xA0 SHL SUB DUP3 MLOAD AND DUP2 MSTORE PUSH1 0x40 DUP1 PUSH2 0xECC DUP6 DUP6 ADD MLOAD PUSH1 0x60 DUP1 DUP9 DUP8 ADD MSTORE DUP6 ADD SWAP1 PUSH2 0xF32 JUMP JUMPDEST SWAP4 ADD MLOAD ISZERO ISZERO SWAP2 ADD MSTORE SWAP7 ADD SWAP3 ADD SWAP7 ADD SWAP6 SWAP3 SWAP2 SWAP1 SWAP3 PUSH2 0xE86 JUMP JUMPDEST PUSH1 0x3 DUP8 PUSH1 0x1 SWAP3 PUSH1 0x40 SWAP11 SWAP10 SWAP11 MLOAD PUSH2 0xEF9 DUP2 PUSH2 0xF72 JUMP JUMPDEST DUP5 DUP1 PUSH1 0xA0 SHL SUB DUP8 SLOAD AND DUP2 MSTORE PUSH2 0xF0F DUP6 DUP9 ADD PUSH2 0x108F JUMP JUMPDEST DUP4 DUP3 ADD MSTORE PUSH1 0xFF DUP7 DUP9 ADD SLOAD AND ISZERO ISZERO PUSH1 0x40 DUP3 ADD MSTORE DUP2 MSTORE ADD SWAP4 ADD SWAP4 ADD SWAP3 SWAP2 SWAP7 SWAP6 SWAP7 PUSH2 0xE5C JUMP JUMPDEST SWAP2 SWAP1 DUP3 MLOAD SWAP3 DUP4 DUP3 MSTORE PUSH1 0x0 JUMPDEST DUP5 DUP2 LT PUSH2 0xF5E JUMPI POP POP DUP3 PUSH1 0x0 PUSH1 0x20 DUP1 SWAP5 SWAP6 DUP5 ADD ADD MSTORE PUSH1 0x1F DUP1 NOT SWAP2 ADD AND ADD ADD SWAP1 JUMP JUMPDEST PUSH1 0x20 DUP2 DUP4 ADD DUP2 ADD MLOAD DUP5 DUP4 ADD DUP3 ADD MSTORE ADD PUSH2 0xF3D JUMP JUMPDEST PUSH1 0x60 DUP2 ADD SWAP1 DUP2 LT PUSH8 0xFFFFFFFFFFFFFFFF DUP3 GT OR PUSH2 0x3CB JUMPI PUSH1 0x40 MSTORE JUMP JUMPDEST PUSH1 0xE0 DUP2 ADD SWAP1 DUP2 LT PUSH8 0xFFFFFFFFFFFFFFFF DUP3 GT OR PUSH2 0x3CB JUMPI PUSH1 0x40 MSTORE JUMP JUMPDEST SWAP1 PUSH1 0x1F DUP1 NOT SWAP2 ADD AND DUP2 ADD SWAP1 DUP2 LT PUSH8 0xFFFFFFFFFFFFFFFF DUP3 GT OR PUSH2 0x3CB JUMPI PUSH1 0x40 MSTORE JUMP JUMPDEST DUP2 PUSH1 0x1F DUP3 ADD SLT ISZERO PUSH2 0x12A JUMPI DUP1 CALLDATALOAD SWAP1 PUSH8 0xFFFFFFFFFFFFFFFF DUP3 GT PUSH2 0x3CB JUMPI PUSH1 0x40 MLOAD SWAP3 PUSH2 0x1001 PUSH1 0x1F DUP5 ADD PUSH1 0x1F NOT AND PUSH1 0x20 ADD DUP6 PUSH2 0xFAA JUMP JUMPDEST DUP3 DUP5 MSTORE PUSH1 0x20 DUP4 DUP4 ADD ADD GT PUSH2 0x12A JUMPI DUP2 PUSH1 0x0 SWAP3 PUSH1 0x20 DUP1 SWAP4 ADD DUP4 DUP7 ADD CALLDATACOPY DUP4 ADD ADD MSTORE SWAP1 JUMP JUMPDEST DUP1 SLOAD DUP3 LT ISZERO PUSH2 0x103F JUMPI PUSH1 0x0 MSTORE PUSH1 0x3 PUSH1 0x20 PUSH1 0x0 KECCAK256 SWAP2 MUL ADD SWAP1 PUSH1 0x0 SWAP1 JUMP JUMPDEST PUSH4 0x4E487B71 PUSH1 0xE0 SHL PUSH1 0x0 MSTORE PUSH1 0x32 PUSH1 0x4 MSTORE PUSH1 0x24 PUSH1 0x0 REVERT JUMPDEST SWAP1 PUSH1 0x1 DUP3 DUP2 SHR SWAP3 AND DUP1 ISZERO PUSH2 0x1085 JUMPI JUMPDEST PUSH1 0x20 DUP4 LT EQ PUSH2 0x106F JUMPI JUMP JUMPDEST PUSH4 0x4E487B71 PUSH1 0xE0 SHL PUSH1 0x0 MSTORE PUSH1 0x22 PUSH1 0x4 MSTORE PUSH1 0x24 PUSH1 0x0 REVERT JUMPDEST SWAP2 PUSH1 0x7F AND SWAP2 PUSH2 0x1064 JUMP JUMPDEST SWAP1 PUSH1 0x40 MLOAD SWAP2 DUP3 PUSH1 0x0 DUP3 SLOAD SWAP3 PUSH2 0x10A3 DUP5 PUSH2 0x1055 JUMP JUMPDEST SWAP1 DUP2 DUP5 MSTORE PUSH1 0x1 SWAP5 DUP6 DUP2 AND SWAP1 DUP2 PUSH1 0x0 EQ PUSH2 0x1112 JUMPI POP PUSH1 0x1 EQ PUSH2 0x10CF JUMPI JUMPDEST POP POP PUSH2 0x10CD SWAP3 POP SUB DUP4 PUSH2 0xFAA JUMP JUMPDEST JUMP JUMPDEST SWAP1 SWAP4 SWAP2 POP PUSH1 0x0 MSTORE PUSH1 0x20 SWAP1 DUP2 PUSH1 0x0 KECCAK256 SWAP4 PUSH1 0x0 SWAP2 JUMPDEST DUP2 DUP4 LT PUSH2 0x10FA JUMPI POP POP PUSH2 0x10CD SWAP4 POP DUP3 ADD ADD CODESIZE DUP1 PUSH2 0x10BF JUMP JUMPDEST DUP6 SLOAD DUP9 DUP5 ADD DUP6 ADD MSTORE SWAP5 DUP6 ADD SWAP5 DUP8 SWAP5 POP SWAP2 DUP4 ADD SWAP2 PUSH2 0x10E2 JUMP JUMPDEST SWAP2 POP POP PUSH2 0x10CD SWAP5 POP PUSH1 0x20 SWAP3 POP PUSH1 0xFF NOT AND DUP3 DUP5 ADD MSTORE ISZERO ISZERO PUSH1 0x5 SHL DUP3 ADD ADD CODESIZE DUP1 PUSH2 0x10BF JUMP JUMPDEST PUSH1 0x4 CALLDATALOAD SWAP1 PUSH1 0x1 PUSH1 0x1 PUSH1 0xA0 SHL SUB DUP3 AND DUP3 SUB PUSH2 0x12A JUMPI JUMP JUMPDEST PUSH1 0x0 NOT DUP2 EQ PUSH2 0x115A JUMPI PUSH1 0x1 ADD SWAP1 JUMP JUMPDEST PUSH4 0x4E487B71 PUSH1 0xE0 SHL PUSH1 0x0 MSTORE PUSH1 0x11 PUSH1 0x4 MSTORE PUSH1 0x24 PUSH1 0x0 REVERT JUMPDEST ISZERO PUSH2 0x1177 JUMPI JUMP JUMPDEST PUSH1 0x40 MLOAD PUSH3 0x461BCD PUSH1 0xE5 SHL DUP2 MSTORE PUSH1 0x20 PUSH1 0x4 DUP3 ADD MSTORE PUSH1 0x35 PUSH1 0x24 DUP3 ADD MSTORE PUSH32 0x4F7274686F436F6E73756C743A2043616C6C6572206973206E6F742061207265 PUSH1 0x44 DUP3 ADD MSTORE PUSH21 0x19DA5CDD195C9959081BDC9D1A1BD91BDB9D1A5CDD PUSH1 0x5A SHL PUSH1 0x64 DUP3 ADD MSTORE PUSH1 0x84 SWAP1 REVERT JUMPDEST ISZERO PUSH2 0x11E1 JUMPI JUMP JUMPDEST PUSH1 0x40 MLOAD PUSH3 0x461BCD PUSH1 0xE5 SHL DUP2 MSTORE PUSH1 0x20 PUSH1 0x4 DUP3 ADD MSTORE PUSH1 0x13 PUSH1 0x24 DUP3 ADD MSTORE PUSH19 0x10D85CD948191BD95CC81B9BDD08195E1A5CDD PUSH1 0x6A SHL PUSH1 0x44 DUP3 ADD MSTORE PUSH1 0x64 SWAP1 REVERT INVALID LOG2 PUSH5 0x6970667358 0x22 SLT KECCAK256 DUP9 CALLDATASIZE DUP5 0xC3 0xDD 0xED PUSH24 0x9150CCBC5CC2CAA7A5D627F02D86ED2B9104907076FE76B3 PUSH9 0x64736F6C6343000814 STOP CALLER "},"methodIdentifiers":{"caseOpinions(uint256,uint256)":"90be0674","cases(uint256)":"f09790dd","claimReward(uint256)":"ae169a50","createCase(string,uint256,uint256)":"d82d7638","getCase(uint256)":"a91a1080","getOpinionsByCase(uint256)":"2da644cd","getTotalCases()":"7a69b32d","hasClaimedReward(uint256,address)":"c8b727a1","isRegisteredOrthodontist(address)":"e379a11e","registerOrthodontist(address)":"9c4d3ae0","submitOpinion(uint256,string)":"6e61f910"}}}}}