{"contracts/OrthoData.sol":{"OrthoData":{"abi":[{"inputs":[],"stateMutability":"nonpayable","type":"constructor"},{"anonymous":false,"inputs":[{"indexed":true,"internalType":"uint256","name":"tokenId","type":"uint256"},{"indexed":true,"internalType":"address","name":"patient","type":"address"},{"indexed":true,"internalType":"address","name":"grantedTo","type":"address"}],"name":"AccessGranted","type":"event"},{"anonymous":false,"inputs":[{"indexed":true,"internalType":"uint256","name":"tokenId","type":"uint256"},{"indexed":true,"internalType":"address","name":"patient","type":"address"},{"indexed":true,"internalType":"address","name":"revokedFrom","type":"address"}],"name":"AccessRevoked","type":"event"},{"anonymous":false,"inputs":[{"indexed":true,"internalType":"address","name":"owner","type":"address"},{"indexed":true,"internalType":"address","name":"approved","type":"address"},{"indexed":true,"internalType":"uint256","name":"tokenId","type":"uint256"}],"name":"Approval","type":"event"},{"anonymous":false,"inputs":[{"indexed":true,"internalType":"address","name":"owner","type":"address"},{"indexed":true,"internalType":"address","name":"operator","type":"address"},{"indexed":false,"internalType":"bool","name":"approved","type":"bool"}],"name":"ApprovalForAll","type":"event"},{"anonymous":false,"inputs":[{"indexed":false,"internalType":"uint256","name":"_fromTokenId","type":"uint256"},{"indexed":false,"internalType":"uint256","name":"_toTokenId","type":"uint256"}],"name":"BatchMetadataUpdate","type":"event"},{"anonymous":false,"inputs":[{"indexed":true,"internalType":"uint256","name":"tokenId","type":"uint256"},{"indexed":true,"internalType":"address","name":"patient","type":"address"},{"indexed":false,"internalType":"string","name":"diagnosis","type":"string"},{"indexed":false,"internalType":"uint256","name":"severity","type":"uint256"},{"indexed":false,"internalType":"string","name":"ipfsHash","type":"string"}],"name":"DiagnosisMinted","type":"event"},{"anonymous":false,"inputs":[{"indexed":false,"internalType":"uint256","name":"_tokenId","type":"uint256"}],"name":"MetadataUpdate","type":"event"},{"anonymous":false,"inputs":[{"indexed":true,"internalType":"address","name":"previousOwner","type":"address"},{"indexed":true,"internalType":"address","name":"newOwner","type":"address"}],"name":"OwnershipTransferred","type":"event"},{"anonymous":false,"inputs":[{"indexed":true,"internalType":"address","name":"from","type":"address"},{"indexed":true,"internalType":"address","name":"to","type":"address"},{"indexed":true,"internalType":"uint256","name":"tokenId","type":"uint256"}],"name":"Transfer","type":"event"},{"inputs":[{"internalType":"uint256","name":"","type":"uint256"},{"internalType":"address","name":"","type":"address"}],"name":"accessPermissions","outputs":[{"internalType":"bool","name":"","type":"bool"}],"stateMutability":"view","type":"function"},{"inputs":[{"internalType":"address","name":"to","type":"address"},{"internalType":"uint256","name":"tokenId","type":"uint256"}],"name":"approve","outputs":[],"stateMutability":"nonpayable","type":"function"},{"inputs":[{"internalType":"address","name":"owner","type":"address"}],"name":"balanceOf","outputs":[{"internalType":"uint256","name":"","type":"uint256"}],"stateMutability":"view","type":"function"},{"inputs":[{"internalType":"uint256","name":"tokenId","type":"uint256"}],"name":"getApproved","outputs":[{"internalType":"address","name":"","type":"address"}],"stateMutability":"view","type":"function"},{"inputs":[{"internalType":"uint256","name":"tokenId","type":"uint256"}],"name":"getMedicalData","outputs":[{"components":[{"internalType":"string","name":"diagnosis","type":"string"},{"internalType":"uint256","name":"severity","type":"uint256"},{"internalType":"uint256","name":"timestamp","type":"uint256"},{"internalType":"string","name":"ipfsHash","type":"string"},{"internalType":"string","name":"recommendations","type":"string"},{"internalType":"bool","name":"isPublic","type":"bool"}],"internalType":"struct OrthoData.MedicalData","name":"","type":"tuple"}],"stateMutability":"view","type":"function"},{"inputs":[{"internalType":"address","name":"patient","type":"address"}],"name":"getPatientTokens","outputs":[{"internalType":"uint256[]","name":"","type":"uint256[]"}],"stateMutability":"view","type":"function"},{"inputs":[],"name":"getStats","outputs":[{"internalType":"uint256","name":"totalDiagnoses","type":"uint256"},{"internalType":"uint256","name":"activePatients","type":"uint256"}],"stateMutability":"view","type":"function"},{"inputs":[{"internalType":"uint256","name":"tokenId","type":"uint256"},{"internalType":"address","name":"professional","type":"address"}],"name":"grantAccess","outputs":[],"stateMutability":"nonpayable","type":"function"},{"inputs":[{"internalType":"uint256","name":"tokenId","type":"uint256"},{"internalType":"address","name":"viewer","type":"address"}],"name":"hasAccess","outputs":[{"internalType":"bool","name":"","type":"bool"}],"stateMutability":"view","type":"function"},{"inputs":[{"internalType":"address","name":"owner","type":"address"},{"internalType":"address","name":"operator","type":"address"}],"name":"isApprovedForAll","outputs":[{"internalType":"bool","name":"","type":"bool"}],"stateMutability":"view","type":"function"},{"inputs":[{"internalType":"uint256","name":"tokenId","type":"uint256"}],"name":"makePrivate","outputs":[],"stateMutability":"nonpayable","type":"function"},{"inputs":[{"internalType":"uint256","name":"tokenId","type":"uint256"}],"name":"makePublic","outputs":[],"stateMutability":"nonpayable","type":"function"},{"inputs":[{"internalType":"address","name":"patient","type":"address"},{"internalType":"string","name":"diagnosis","type":"string"},{"internalType":"uint256","name":"severity","type":"uint256"},{"internalType":"string","name":"ipfsHash","type":"string"},{"internalType":"string","name":"recommendations","type":"string"}],"name":"mintDiagnosis","outputs":[{"internalType":"uint256","name":"","type":"uint256"}],"stateMutability":"nonpayable","type":"function"},{"inputs":[],"name":"name","outputs":[{"internalType":"string","name":"","type":"string"}],"stateMutability":"view","type":"function"},{"inputs":[],"name":"owner","outputs":[{"internalType":"address","name":"","type":"address"}],"stateMutability":"view","type":"function"},{"inputs":[{"internalType":"uint256","name":"tokenId","type":"uint256"}],"name":"ownerOf","outputs":[{"internalType":"address","name":"","type":"address"}],"stateMutability":"view","type":"function"},{"inputs":[{"internalType":"address","name":"","type":"address"},{"internalType":"uint256","name":"","type":"uint256"}],"name":"patientTokens","outputs":[{"internalType":"uint256","name":"","type":"uint256"}],"stateMutability":"view","type":"function"},{"inputs":[],"name":"renounceOwnership","outputs":[],"stateMutability":"nonpayable","type":"function"},{"inputs":[{"internalType":"uint256","name":"tokenId","type":"uint256"},{"internalType":"address","name":"professional","type":"address"}],"name":"revokeAccess","outputs":[],"stateMutability":"nonpayable","type":"function"},{"inputs":[{"internalType":"address","name":"from","type":"address"},{"internalType":"address","name":"to","type":"address"},{"internalType":"uint256","name":"tokenId","type":"uint256"}],"name":"safeTransferFrom","outputs":[],"stateMutability":"nonpayable","type":"function"},{"inputs":[{"internalType":"address","name":"from","type":"address"},{"internalType":"address","name":"to","type":"address"},{"internalType":"uint256","name":"tokenId","type":"uint256"},{"internalType":"bytes","name":"data","type":"bytes"}],"name":"safeTransferFrom","outputs":[],"stateMutability":"nonpayable","type":"function"},{"inputs":[{"internalType":"address","name":"operator","type":"address"},{"internalType":"bool","name":"approved","type":"bool"}],"name":"setApprovalForAll","outputs":[],"stateMutability":"nonpayable","type":"function"},{"inputs":[{"internalType":"bytes4","name":"interfaceId","type":"bytes4"}],"name":"supportsInterface","outputs":[{"internalType":"bool","name":"","type":"bool"}],"stateMutability":"view","type":"function"},{"inputs":[],"name":"symbol","outputs":[{"internalType":"string","name":"","type":"string"}],"stateMutability":"view","type":"function"},{"inputs":[{"internalType":"uint256","name":"","type":"uint256"}],"name":"tokenData","outputs":[{"internalType":"string","name":"diagnosis","type":"string"},{"internalType":"uint256","name":"severity","type":"uint256"},{"internalType":"uint256","name":"timestamp","type":"uint256"},{"internalType":"string","name":"ipfsHash","type":"string"},{"internalType":"string","name":"recommendations","type":"string"},{"internalType":"bool","name":"isPublic","type":"bool"}],"stateMutability":"view","type":"function"},{"inputs":[{"internalType":"uint256","name":"tokenId","type":"uint256"}],"name":"tokenURI","outputs":[{"internalType":"string","name":"","type":"string"}],"stateMutability":"view","type":"function"},{"inputs":[{"internalType":"address","name":"from","type":"address"},{"internalType":"address","name":"to","type":"address"},{"internalType":"uint256","name":"tokenId","type":"uint256"}],"name":"transferFrom","outputs":[],"stateMutability":"nonpayable","type":"function"},{"inputs":[{"internalType":"address","name":"newOwner","type":"address"}],"name":"transferOwnership","outputs":[],"stateMutability":"nonpayable","type":"function"}],"evm":{"bytecode":{"linkReferences":{},"object":"60803462000358576001600160401b03906040818101838111838210176200034257815260098252602091684f7274686f4461746160b81b83820152815193828501858110828211176200034257835260058552644f5254484f60d81b84860152815181811162000342576000948554916001948584811c9416801562000337575b8385101462000323578190601f94858111620002d0575b5083908583116001146200026c57899262000260575b5050600019600383901b1c191690851b1786555b86519283116200024c5783548481811c9116801562000241575b828210146200022d57828111620001e5575b50809183116001146200017e57508495829394959262000172575b5050600019600383901b1c191690821b1790555b60078054336001600160a01b03198216811790925591519290916001600160a01b0316907f8be0079c531659141344cd1fd0a4f28419497f9722a3daafe3b4186f6b6457e09080a361258a90816200035e8239f35b01519050388062000109565b90601f198316968487528287209287905b898210620001cd575050838596979810620001b3575b505050811b0190556200011d565b015160001960f88460031b161c19169055388080620001a5565b8087859682949686015181550195019301906200018f565b8487528187208380860160051c82019284871062000223575b0160051c019085905b82811062000217575050620000ee565b88815501859062000207565b92508192620001fe565b634e487b7160e01b87526022600452602487fd5b90607f1690620000dc565b634e487b7160e01b86526041600452602486fd5b015190503880620000ae565b898052848a208894509190601f1984168b5b87828210620002b957505084116200029f575b505050811b018655620000c2565b015160001960f88460031b161c1916905538808062000291565b8385015186558b979095019493840193016200027e565b9091508880528389208580850160051c82019286861062000319575b918991869594930160051c01915b8281106200030a57505062000098565b8b8155859450899101620002fa565b92508192620002ec565b634e487b7160e01b88526022600452602488fd5b93607f169362000081565b634e487b7160e01b600052604160045260246000fd5b600080fdfe6080604052600436101561001257600080fd5b60003560e01c806301ffc9a7146101d757806306fdde03146101d2578063081812fc146101cd578063095ea7b3146101c857806312d533d7146101c357806319a2c6d4146101be57806323b872dd146101b957806342842e0e146101b45780636352211e146101af57806365dd152c146101aa5780636c0490ee146101a557806370a08231146101a057806370f4616d1461019b578063715018a6146101965780637847dc131461019157806381a1162a1461018c5780638681f447146101875780638da5cb5b1461018257806395d89b411461017d578063a22cb46514610178578063b4b5b48f14610173578063b88d4fde1461016e578063c59d484714610169578063c87b56dd14610164578063ced141981461015f578063d9a5ec1b1461015a578063e985e9c5146101555763f2fde38b1461015057600080fd5b611421565b6113d0565b61133e565b61130e565b61104e565b610fe0565b610f80565b610ed9565b610d0f565b610c6a565b610c41565b610bbd565b610af7565b6109d4565b610976565b610938565b610897565b61084c565b610770565b610752565b610713565b6106ea565b6105fa565b610533565b610416565b6103ba565b6102d7565b6101f3565b6001600160e01b03198116036101ee57565b600080fd5b346101ee5760203660031901126101ee576020600435610212816101dc565b63ffffffff60e01b16632483248360e11b8114908115610238575b506040519015158152f35b6380ac58cd60e01b81149150811561026a575b8115610259575b503861022d565b6301ffc9a760e01b14905038610252565b635b5e139f60e01b8114915061024b565b60005b83811061028e5750506000910152565b818101518382015260200161027e565b906020916102b78151809281855285808601910161027b565b601f01601f1916010190565b9060206102d492818152019061029e565b90565b346101ee576000806003193601126103b757604051908080546102f981610dfb565b8085529160019180831690811561038d5750600114610333575b61032f8561032381870382610a58565b604051918291826102c3565b0390f35b80809450527f290decd9548b62a8d60345a988386fc84ba6bc95484008f6362f93160ef3e5635b8284106103755750505081016020016103238261032f610313565b8054602085870181019190915290930192810161035a565b86955061032f9693506020925061032394915060ff191682840152151560051b8201019293610313565b80fd5b346101ee5760203660031901126101ee5760206103d8600435611623565b6040516001600160a01b039091168152f35b600435906001600160a01b03821682036101ee57565b602435906001600160a01b03821682036101ee57565b346101ee5760403660031901126101ee5761042f6103ea565b60243561043b8161158e565b916001600160a01b0380841690821681146104b65761046d9361046891331490811561046f575b506115b1565b611999565b005b6001600160a01b031660009081526005602052604090206104b091506104a99033905b9060018060a01b0316600052602052604060002090565b5460ff1690565b38610462565b60405162461bcd60e51b815260206004820152602160248201527f4552433732313a20617070726f76616c20746f2063757272656e74206f776e656044820152603960f91b6064820152608490fd5b805482101561051d5760005260206000200190600090565b634e487b7160e01b600052603260045260246000fd5b346101ee5760403660031901126101ee5761054c6103ea565b6001600160a01b03166000908152600b60205260409020805460243591908210156101ee5760209161057d91610505565b90546040519160031b1c8152f35b6020815260c060a06105ef6105ab855184602087015260e086019061029e565b60208601516040860152604086015160608601526105db606087015191601f19928388830301608089015261029e565b90608087015190868303018487015261029e565b930151151591015290565b346101ee5760203660031901126101ee57600435600060a060405161061e81610a3c565b60608152826020820152826040820152606080820152606060808201520152610647338261210e565b156106775761066b61066661032f926000526009602052604060002090565b612180565b6040519182918261058b565b60405162461bcd60e51b81526020600482015260166024820152754e6f2061636365737320746f2074686973206461746160501b6044820152606490fd5b60609060031901126101ee576001600160a01b039060043582811681036101ee579160243590811681036101ee579060443590565b346101ee5761046d6106fb366106b5565b9161070e610709843361175e565b611661565b611830565b346101ee57610721366106b5565b60405191602083019383851067ffffffffffffffff86111761074d5761046d94604052600084526116c3565b610a26565b346101ee5760203660031901126101ee5760206103d860043561158e565b346101ee5760403660031901126101ee5760043561078c610400565b906107968161158e565b6001600160a01b03906107ac90821633146120d0565b821691338314610807576107d16107de9161049284600052600a602052604060002090565b805460ff19166001179055565b33907f97a8264d9d0b9e21370349f9b49be012a5d1e27829879df8ba166dba48f898c6600080a4005b60405162461bcd60e51b815260206004820152601b60248201527f43616e6e6f74206772616e742061636365737320746f2073656c6600000000006044820152606490fd5b346101ee5760203660031901126101ee5760043561087c61086c8261158e565b6001600160a01b031633146120d0565b6000908152600960205260409020600501805460ff19169055005b346101ee5760203660031901126101ee576001600160a01b036108b86103ea565b1680156108e157600052600360205261032f604060002054604051918291829190602083019252565b60405162461bcd60e51b815260206004820152602960248201527f4552433732313a2061646472657373207a65726f206973206e6f7420612076616044820152683634b21037bbb732b960b91b6064820152608490fd5b346101ee5760203660031901126101ee5760043561095861086c8261158e565b6000908152600960205260409020600501805460ff19166001179055005b346101ee576000806003193601126103b7576109906114ea565b600780546001600160a01b0319811690915581906001600160a01b03167f8be0079c531659141344cd1fd0a4f28419497f9722a3daafe3b4186f6b6457e08280a380f35b346101ee5760403660031901126101ee57602060ff610a1a6109f4610400565b600435600052600a845260406000209060018060a01b0316600052602052604060002090565b54166040519015158152f35b634e487b7160e01b600052604160045260246000fd5b60c0810190811067ffffffffffffffff82111761074d57604052565b90601f8019910116810190811067ffffffffffffffff82111761074d57604052565b60405190610a8782610a3c565b565b67ffffffffffffffff811161074d57601f01601f191660200190565b929192610ab182610a89565b91610abf6040519384610a58565b8294818452818301116101ee578281602093846000960137010152565b9080601f830112156101ee578160206102d493359101610aa5565b346101ee5760a03660031901126101ee57610b106103ea565b67ffffffffffffffff6024358181116101ee57610b31903690600401610adc565b6064358281116101ee57610b49903690600401610adc565b6084359283116101ee5761032f93610b68610b72943690600401610adc565b9260443591611b36565b6040519081529081906020820190565b6020908160408183019282815285518094520193019160005b828110610ba9575050505090565b835185529381019392810192600101610b9b565b346101ee576020806003193601126101ee576001600160a01b03610bdf6103ea565b16600052600b8152604060002090604051908181845491828152019360005281600020916000905b828210610c2a5761032f85610c1e81890382610a58565b60405191829182610b82565b835486529485019460019384019390910190610c07565b346101ee5760003660031901126101ee576007546040516001600160a01b039091168152602090f35b346101ee576000806003193601126103b75760405190806001805491610c8f83610dfb565b8086529282811690811561038d5750600114610cb55761032f8561032381870382610a58565b92508083527fb10e2d527612073b26eecdfd717e6a320cf44b4afac2b0732d9fcbe2b7fa0cf65b828410610cf75750505081016020016103238261032f610313565b80546020858701810191909152909301928101610cdc565b346101ee5760403660031901126101ee57610d286103ea565b60243580151581036101ee576001600160a01b03821691338314610db65781610d73610d849233600052600560205260406000209060018060a01b0316600052602052604060002090565b9060ff801983541691151516179055565b604051901515815233907f17307eab39ab6107e8899845ad3d59bd9653f200f220920489ca2b5937696c3190602090a3005b60405162461bcd60e51b815260206004820152601960248201527f4552433732313a20617070726f766520746f2063616c6c6572000000000000006044820152606490fd5b90600182811c92168015610e2b575b6020831014610e1557565b634e487b7160e01b600052602260045260246000fd5b91607f1691610e0a565b9060405191826000825492610e4984610dfb565b908184526001948581169081600014610eb65750600114610e73575b5050610a8792500383610a58565b9093915060005260209081600020936000915b818310610e9e575050610a8793508201013880610e65565b85548884018501529485019487945091830191610e86565b915050610a8794506020925060ff191682840152151560051b8201013880610e65565b346101ee5760203660031901126101ee576004356000526009602052610f4e6040600020610f0681610e35565b90610f74600182015491610f66600282015493610f2560038401610e35565b60ff6005610f3560048701610e35565b950154169560405198899860c08a5260c08a019061029e565b9260208901526040880152868203606088015261029e565b90848203608086015261029e565b90151560a08301520390f35b346101ee5760803660031901126101ee57610f996103ea565b610fa1610400565b6064359167ffffffffffffffff83116101ee57366023840112156101ee57610fd661046d933690602481600401359101610aa5565b91604435916116c3565b346101ee5760003660031901126101ee57600060085460015b81811115611012575b5060409182519182526020820152f35b6000818152600260205260409020546001600160a01b031661103c57611037906121f6565b610ff9565b506110486040926121f6565b91611002565b346101ee5760203660031901126101ee576004356000818152600260205260409020546001600160a01b031615156110859061220a565b611099816000526009602052604060002090565b6110a290612180565b906110ac90612296565b81519160208101516110bd90612296565b9060408101516110cc90612296565b9060600151916040519485946020860161110a90601b907f7b226e616d65223a20224f7274686f20446961676e6f7369732023000000000081520190565b6111139161224d565b61088b60f21b81526002017f226465736372697074696f6e223a20224f7274686f646f6e746963206469616781526a1b9bdcda5cc8139195088b60aa1b6020820152602b016e2261747472696275746573223a205b60881b8152600f017f7b2274726169745f74797065223a2022446961676e6f736973222c202276616c8152653ab2911d101160d11b60208201526026016111ae9161224d565b62089f4b60ea1b81526003017f7b2274726169745f74797065223a20225365766572697479222c202276616c75815263032911d160e51b60208201526024016111f69161224d565b611f4b60f21b81526002017f7b2274726169745f74797065223a202254696d657374616d70222c202276616c81526403ab2911d160dd1b602082015260250161123e9161224d565b607d60f81b815260010161174b60f21b81526002017022696d616765223a2022697066733a2f2f60781b81526011016112769161224d565b6e17b234b0b3b737b9b4b9973837339160891b8152600f01607d60f81b81526001010390601f199182810182526112ad9082610a58565b6112b69061247d565b6040517f646174613a6170706c69636174696f6e2f6a736f6e3b6261736536342c000000602082015291908290603d82016112f09161224d565b0390810182526113009082610a58565b60405161032f8192826102c3565b346101ee5760403660031901126101ee57602061133461132c610400565b60043561210e565b6040519015158152f35b346101ee5760403660031901126101ee5760043561135a610400565b906113648161158e565b6001600160a01b039061137a90821633146120d0565b6000828152600a602090815260408083206001600160a01b03871684529091528120805460ff1916905592169033907f260547d4038414ef72f081dcde91825693dff9bc433178f3e92ad36e0cd227508480a480f35b346101ee5760403660031901126101ee57602060ff610a1a6113f06103ea565b6113f8610400565b6001600160a01b0391821660009081526005865260408082209290931681526020919091522090565b346101ee5760203660031901126101ee5761143a6103ea565b6114426114ea565b6001600160a01b0390811690811561149657600754826bffffffffffffffffffffffff60a01b821617600755167f8be0079c531659141344cd1fd0a4f28419497f9722a3daafe3b4186f6b6457e0600080a3005b60405162461bcd60e51b815260206004820152602660248201527f4f776e61626c653a206e6577206f776e657220697320746865207a65726f206160448201526564647265737360d01b6064820152608490fd5b6007546001600160a01b031633036114fe57565b606460405162461bcd60e51b815260206004820152602060248201527f4f776e61626c653a2063616c6c6572206973206e6f7420746865206f776e65726044820152fd5b1561154957565b60405162461bcd60e51b815260206004820152601860248201527f4552433732313a20696e76616c696420746f6b656e20494400000000000000006044820152606490fd5b6000908152600260205260409020546001600160a01b03166102d4811515611542565b156115b857565b60405162461bcd60e51b815260206004820152603d60248201527f4552433732313a20617070726f76652063616c6c6572206973206e6f7420746f60448201527f6b656e206f776e6572206f7220617070726f76656420666f7220616c6c0000006064820152608490fd5b600081815260026020526040902054611646906001600160a01b03161515611542565b6000908152600460205260409020546001600160a01b031690565b1561166857565b60405162461bcd60e51b815260206004820152602d60248201527f4552433732313a2063616c6c6572206973206e6f7420746f6b656e206f776e6560448201526c1c881bdc88185c1c1c9bdd9959609a1b6064820152608490fd5b906116e79392916116d7610709843361175e565b6116e2838383611830565b611a73565b156116ee57565b60405162461bcd60e51b8152806117076004820161170b565b0390fd5b60809060208152603260208201527f4552433732313a207472616e7366657220746f206e6f6e20455243373231526560408201527131b2b4bb32b91034b6b83632b6b2b73a32b960711b60608201520190565b6001600160a01b03806117708461158e565b1692818316928484149485156117a6575b50508315611790575b50505090565b61179c91929350611623565b161438808061178a565b60009081526005602090815260408083206001600160a01b03949094168352929052205460ff1693503880611781565b156117dd57565b60405162461bcd60e51b815260206004820152602560248201527f4552433732313a207472616e736665722066726f6d20696e636f72726563742060448201526437bbb732b960d91b6064820152608490fd5b6118549061183d8461158e565b6001600160a01b03828116939091821684146117d6565b8316928315611948576118c761192192611886856118806118748a61158e565b6001600160a01b031690565b146117d6565b6118ad61189d886000526004602052604060002090565b80546001600160a01b0319169055565b6001600160a01b0316600090815260036020526040902090565b80546000190190556001600160a01b038116600090815260036020526040902060018154019055611902856000526002602052604060002090565b80546001600160a01b0319166001600160a01b03909216919091179055565b7fddf252ad1be2c89b69c2b068fc378daa952ba7f163c4a11628f55a4df523b3ef600080a4565b60405162461bcd60e51b8152602060048201526024808201527f4552433732313a207472616e7366657220746f20746865207a65726f206164646044820152637265737360e01b6064820152608490fd5b600082815260046020526040902080546001600160a01b0319166001600160a01b0383161790556001600160a01b03806119d28461158e565b169116907f8c5be1e5ebec7d5bd14f71427d1e84f3dd0314c0f7b2291e5b200ac8c7c3b925600080a4565b908160209103126101ee57516102d4816101dc565b6001600160a01b0391821681529116602082015260408101919091526080606082018190526102d49291019061029e565b3d15611a6e573d90611a5482610a89565b91611a626040519384610a58565b82523d6000602084013e565b606090565b92909190823b15611b2d57611aa6926020926000604051809681958294630a85bd0160e11b9a8b85523360048601611a12565b03926001600160a01b03165af160009181611afd575b50611aef57611ac9611a43565b80519081611aea5760405162461bcd60e51b8152806117076004820161170b565b602001fd5b6001600160e01b0319161490565b611b1f91925060203d8111611b26575b611b178183610a58565b8101906119fd565b9038611abc565b503d611b0d565b50505050600190565b9391929092611b436114ea565b6103e88111611c3f57611be294611c3983611b817f2b22157a5918029f3d72ccd4ab559f389479007ccae09360ba84355b7f399cfc95511515611c84565b611b8f600160085401600855565b600854978896611b9f8886611fd3565b611ba7610a7a565b908982528660208301524260408301528360608301526080820152600060a0820152611bdd886000526009602052604060002090565b611de8565b6001600160a01b0383166000908152600b60205260409020611c05908790611f24565b611c206107d18461049289600052600a602052604060002090565b6040516001600160a01b03909316969293849384611f5e565b0390a390565b60405162461bcd60e51b815260206004820152601860248201527f5365766572697479206d757374206265203c3d203130303000000000000000006044820152606490fd5b15611c8b57565b60405162461bcd60e51b815260206004820152601260248201527112541194c81a185cda081c995c5d5a5c995960721b6044820152606490fd5b90601f8111611cd357505050565b600091825260208220906020601f850160051c83019410611d0f575b601f0160051c01915b828110611d0457505050565b818155600101611cf8565b9092508290611cef565b919091825167ffffffffffffffff811161074d57611d4181611d3b8454610dfb565b84611cc5565b602080601f8311600114611d7d575081929394600092611d72575b50508160011b916000199060031b1c1916179055565b015190503880611d5c565b90601f19831695611d9385600052602060002090565b926000905b888210611dd057505083600195969710611db7575b505050811b019055565b015160001960f88460031b161c19169055388080611dad565b80600185968294968601518155019501930190611d98565b919091825192835167ffffffffffffffff811161074d57611e1381611e0d8554610dfb565b85611cc5565b6020948590601f8311600114611eaa5792610a87959683611e8c9460a094600597600092611e9f575b50508160011b916000199060031b1c19161786555b810151600186015560408101516002860155611e74606082015160038701611d19565b611e85608082015160048701611d19565b0151151590565b91019060ff801983541691151516179055565b015190503880611e3c565b90601f19831691611ec086600052602060002090565b9260005b818110611f0d57508460a09460059794610a879a9b94611e8c9860019510611ef4575b505050811b018655611e51565b015160001960f88460031b161c19169055388080611ee7565b929389600181928786015181550195019301611ec4565b80546801000000000000000081101561074d57611f4691600182018155610505565b819291549060031b91821b91600019901b1916179055565b611f746102d4949260608352606083019061029e565b926020820152604081840391015261029e565b15611f8e57565b60405162461bcd60e51b815260206004820152601c60248201527f4552433732313a20746f6b656e20616c7265616479206d696e746564000000006044820152606490fd5b6001600160a01b03811690811561208c57600083815260026020526040902054612064919061200e906001600160a01b031615155b15611f87565b600084815260026020526040902054612031906001600160a01b03161515612008565b6001600160a01b038116600090815260036020526040902060018154019055611902846000526002602052604060002090565b60007fddf252ad1be2c89b69c2b068fc378daa952ba7f163c4a11628f55a4df523b3ef8180a4565b606460405162461bcd60e51b815260206004820152602060248201527f4552433732313a206d696e7420746f20746865207a65726f20616464726573736044820152fd5b156120d757565b60405162461bcd60e51b815260206004820152600f60248201526e2737ba103a37b5b2b71037bbb732b960891b6044820152606490fd5b6001600160a01b03806121208361158e565b1690831614918215612151575b508115612138575090565b9050600052600960205260ff6005604060002001541690565b6000828152600a602090815260408083206001600160a01b03949094168352929052205460ff1691503861212d565b9060405161218d81610a3c565b60a060ff6005839561219e81610e35565b855260018101546020860152600281015460408601526121c060038201610e35565b60608601526121d160048201610e35565b60808601520154161515910152565b634e487b7160e01b600052601160045260246000fd5b60001981146122055760010190565b6121e0565b1561221157565b60405162461bcd60e51b8152602060048201526014602482015273151bdad95b88191bd95cc81b9bdd08195e1a5cdd60621b6044820152606490fd5b906122606020928281519485920161027b565b0190565b9061226e82610a89565b61227b6040519182610a58565b828152809261228c601f1991610a89565b0190602036910137565b806000917a184f03e93ff9f4daa797ed6e38ed64bf6a1f010000000000000000808210156123cb575b506d04ee2d6d415b85acef8100000000808310156123bc575b50662386f26fc10000808310156123ad575b506305f5e1008083101561239e575b506127108083101561238f575b50606482101561237f575b600a80921015612375575b60019081602161232d828701612264565b95860101905b61233f575b5050505090565b600019019083906f181899199a1a9b1b9c1cb0b131b232b360811b8282061a83530491821561237057919082612333565b612338565b916001019161231c565b9190606460029104910191612311565b60049193920491019138612306565b600891939204910191386122f9565b601091939204910191386122ea565b602091939204910191386122d8565b6040935081049150386122bf565b604051906060820182811067ffffffffffffffff82111761074d57604052604082527f6768696a6b6c6d6e6f707172737475767778797a303132333435363738392b2f6040837f4142434445464748494a4b4c4d4e4f505152535455565758595a61626364656660208201520152565b906002820180921161220557565b906020820180921161220557565b600281901b91906001600160fe1b0381160361220557565b6124856123d9565b6124a161249c6124958451612449565b6003900490565b612465565b916124b36124ae84612457565b612264565b92835280815182019060208501935b828210612502575050506003905106806001146124ef576002146124e4575090565b603d90600019015390565b50603d9081600019820153600119015390565b9091936004906003809401938451600190603f9082828260121c16880101518553828282600c1c16880101518386015382828260061c16880101516002860153168501015190820153019391906124c256fea2646970667358221220c5226f85e2e80d0959cc8e9ed32317e10bb5a42045f99b9be5dc269918ea107964736f6c63430008140033","opcodes":"PUSH1 0x80 CALLVALUE PUSH3 0x358 JUMPI PUSH1 0x1 PUSH1 0x1 PUSH1 0x40 SHL SUB SWAP1 PUSH1 0x40 DUP2 DUP2 ADD DUP4 DUP2 GT DUP4 DUP3 LT OR PUSH3 0x342 JUMPI DUP2 MSTORE PUSH1 0x9 DUP3 MSTORE PUSH1 0x20 SWAP2 PUSH9 0x4F7274686F44617461 PUSH1 0xB8 SHL DUP4 DUP3 ADD MSTORE DUP2 MLOAD SWAP4 DUP3 DUP6 ADD DUP6 DUP2 LT DUP3 DUP3 GT OR PUSH3 0x342 JUMPI DUP4 MSTORE PUSH1 0x5 DUP6 MSTORE PUSH5 0x4F5254484F PUSH1 0xD8 SHL DUP5 DUP7 ADD MSTORE DUP2 MLOAD DUP2 DUP2 GT PUSH3 0x342 JUMPI PUSH1 0x0 SWAP5 DUP6 SLOAD SWAP2 PUSH1 0x1 SWAP5 DUP6 DUP5 DUP2 SHR SWAP5 AND DUP1 ISZERO PUSH3 0x337 JUMPI JUMPDEST DUP4 DUP6 LT EQ PUSH3 0x323 JUMPI DUP2 SWAP1 PUSH1 0x1F SWAP5 DUP6 DUP2 GT PUSH3 0x2D0 JUMPI JUMPDEST POP DUP4 SWAP1 DUP6 DUP4 GT PUSH1 0x1 EQ PUSH3 0x26C JUMPI DUP10 SWAP3 PUSH3 0x260 JUMPI JUMPDEST POP POP PUSH1 0x0 NOT PUSH1 0x3 DUP4 SWAP1 SHL SHR NOT AND SWAP1 DUP6 SHL OR DUP7 SSTORE JUMPDEST DUP7 MLOAD SWAP3 DUP4 GT PUSH3 0x24C JUMPI DUP4 SLOAD DUP5 DUP2 DUP2 SHR SWAP2 AND DUP1 ISZERO PUSH3 0x241 JUMPI JUMPDEST DUP3 DUP3 LT EQ PUSH3 0x22D JUMPI DUP3 DUP2 GT PUSH3 0x1E5 JUMPI JUMPDEST POP DUP1 SWAP2 DUP4 GT PUSH1 0x1 EQ PUSH3 0x17E JUMPI POP DUP5 SWAP6 DUP3 SWAP4 SWAP5 SWAP6 SWAP3 PUSH3 0x172 JUMPI JUMPDEST POP POP PUSH1 0x0 NOT PUSH1 0x3 DUP4 SWAP1 SHL SHR NOT AND SWAP1 DUP3 SHL OR SWAP1 SSTORE JUMPDEST PUSH1 0x7 DUP1 SLOAD CALLER PUSH1 0x1 PUSH1 0x1 PUSH1 0xA0 SHL SUB NOT DUP3 AND DUP2 OR SWAP1 SWAP3 SSTORE SWAP2 MLOAD SWAP3 SWAP1 SWAP2 PUSH1 0x1 PUSH1 0x1 PUSH1 0xA0 SHL SUB AND SWAP1 PUSH32 0x8BE0079C531659141344CD1FD0A4F28419497F9722A3DAAFE3B4186F6B6457E0 SWAP1 DUP1 LOG3 PUSH2 0x258A SWAP1 DUP2 PUSH3 0x35E DUP3 CODECOPY RETURN JUMPDEST ADD MLOAD SWAP1 POP CODESIZE DUP1 PUSH3 0x109 JUMP JUMPDEST SWAP1 PUSH1 0x1F NOT DUP4 AND SWAP7 DUP5 DUP8 MSTORE DUP3 DUP8 KECCAK256 SWAP3 DUP8 SWAP1 JUMPDEST DUP10 DUP3 LT PUSH3 0x1CD JUMPI POP POP DUP4 DUP6 SWAP7 SWAP8 SWAP9 LT PUSH3 0x1B3 JUMPI JUMPDEST POP POP POP DUP2 SHL ADD SWAP1 SSTORE PUSH3 0x11D JUMP JUMPDEST ADD MLOAD PUSH1 0x0 NOT PUSH1 0xF8 DUP5 PUSH1 0x3 SHL AND SHR NOT AND SWAP1 SSTORE CODESIZE DUP1 DUP1 PUSH3 0x1A5 JUMP JUMPDEST DUP1 DUP8 DUP6 SWAP7 DUP3 SWAP5 SWAP7 DUP7 ADD MLOAD DUP2 SSTORE ADD SWAP6 ADD SWAP4 ADD SWAP1 PUSH3 0x18F JUMP JUMPDEST DUP5 DUP8 MSTORE DUP2 DUP8 KECCAK256 DUP4 DUP1 DUP7 ADD PUSH1 0x5 SHR DUP3 ADD SWAP3 DUP5 DUP8 LT PUSH3 0x223 JUMPI JUMPDEST ADD PUSH1 0x5 SHR ADD SWAP1 DUP6 SWAP1 JUMPDEST DUP3 DUP2 LT PUSH3 0x217 JUMPI POP POP PUSH3 0xEE JUMP JUMPDEST DUP9 DUP2 SSTORE ADD DUP6 SWAP1 PUSH3 0x207 JUMP JUMPDEST SWAP3 POP DUP2 SWAP3 PUSH3 0x1FE JUMP JUMPDEST PUSH4 0x4E487B71 PUSH1 0xE0 SHL DUP8 MSTORE PUSH1 0x22 PUSH1 0x4 MSTORE PUSH1 0x24 DUP8 REVERT JUMPDEST SWAP1 PUSH1 0x7F AND SWAP1 PUSH3 0xDC JUMP JUMPDEST PUSH4 0x4E487B71 PUSH1 0xE0 SHL DUP7 MSTORE PUSH1 0x41 PUSH1 0x4 MSTORE PUSH1 0x24 DUP7 REVERT JUMPDEST ADD MLOAD SWAP1 POP CODESIZE DUP1 PUSH3 0xAE JUMP JUMPDEST DUP10 DUP1 MSTORE DUP5 DUP11 KECCAK256 DUP9 SWAP5 POP SWAP2 SWAP1 PUSH1 0x1F NOT DUP5 AND DUP12 JUMPDEST DUP8 DUP3 DUP3 LT PUSH3 0x2B9 JUMPI POP POP DUP5 GT PUSH3 0x29F JUMPI JUMPDEST POP POP POP DUP2 SHL ADD DUP7 SSTORE PUSH3 0xC2 JUMP JUMPDEST ADD MLOAD PUSH1 0x0 NOT PUSH1 0xF8 DUP5 PUSH1 0x3 SHL AND SHR NOT AND SWAP1 SSTORE CODESIZE DUP1 DUP1 PUSH3 0x291 JUMP JUMPDEST DUP4 DUP6 ADD MLOAD DUP7 SSTORE DUP12 SWAP8 SWAP1 SWAP6 ADD SWAP5 SWAP4 DUP5 ADD SWAP4 ADD PUSH3 0x27E JUMP JUMPDEST SWAP1 SWAP2 POP DUP9 DUP1 MSTORE DUP4 DUP10 KECCAK256 DUP6 DUP1 DUP6 ADD PUSH1 0x5 SHR DUP3 ADD SWAP3 DUP7 DUP7 LT PUSH3 0x319 JUMPI JUMPDEST SWAP2 DUP10 SWAP2 DUP7 SWAP6 SWAP5 SWAP4 ADD PUSH1 0x5 SHR ADD SWAP2 JUMPDEST DUP3 DUP2 LT PUSH3 0x30A JUMPI POP POP PUSH3 0x98 JUMP JUMPDEST DUP12 DUP2 SSTORE DUP6 SWAP5 POP DUP10 SWAP2 ADD PUSH3 0x2FA JUMP JUMPDEST SWAP3 POP DUP2 SWAP3 PUSH3 0x2EC JUMP JUMPDEST PUSH4 0x4E487B71 PUSH1 0xE0 SHL DUP9 MSTORE PUSH1 0x22 PUSH1 0x4 MSTORE PUSH1 0x24 DUP9 REVERT JUMPDEST SWAP4 PUSH1 0x7F AND SWAP4 PUSH3 0x81 JUMP JUMPDEST PUSH4 0x4E487B71 PUSH1 0xE0 SHL PUSH1 0x0 MSTORE PUSH1 0x41 PUSH1 0x4 MSTORE PUSH1 0x24 PUSH1 0x0 REVERT JUMPDEST PUSH1 0x0 DUP1 REVERT INVALID PUSH1 0x80 PUSH1 0x40 MSTORE PUSH1 0x4 CALLDATASIZE LT ISZERO PUSH2 0x12 JUMPI PUSH1 0x0 DUP1 REVERT JUMPDEST PUSH1 0x0 CALLDATALOAD PUSH1 0xE0 SHR DUP1 PUSH4 0x1FFC9A7 EQ PUSH2 0x1D7 JUMPI DUP1 PUSH4 0x6FDDE03 EQ PUSH2 0x1D2 JUMPI DUP1 PUSH4 0x81812FC EQ PUSH2 0x1CD JUMPI DUP1 PUSH4 0x95EA7B3 EQ PUSH2 0x1C8 JUMPI DUP1 PUSH4 0x12D533D7 EQ PUSH2 0x1C3 JUMPI DUP1 PUSH4 0x19A2C6D4 EQ PUSH2 0x1BE JUMPI DUP1 PUSH4 0x23B872DD EQ PUSH2 0x1B9 JUMPI DUP1 PUSH4 0x42842E0E EQ PUSH2 0x1B4 JUMPI DUP1 PUSH4 0x6352211E EQ PUSH2 0x1AF JUMPI DUP1 PUSH4 0x65DD152C EQ PUSH2 0x1AA JUMPI DUP1 PUSH4 0x6C0490EE EQ PUSH2 0x1A5 JUMPI DUP1 PUSH4 0x70A08231 EQ PUSH2 0x1A0 JUMPI DUP1 PUSH4 0x70F4616D EQ PUSH2 0x19B JUMPI DUP1 PUSH4 0x715018A6 EQ PUSH2 0x196 JUMPI DUP1 PUSH4 0x7847DC13 EQ PUSH2 0x191 JUMPI DUP1 PUSH4 0x81A1162A EQ PUSH2 0x18C JUMPI DUP1 PUSH4 0x8681F447 EQ PUSH2 0x187 JUMPI DUP1 PUSH4 0x8DA5CB5B EQ PUSH2 0x182 JUMPI DUP1 PUSH4 0x95D89B41 EQ PUSH2 0x17D JUMPI DUP1 PUSH4 0xA22CB465 EQ PUSH2 0x178 JUMPI DUP1 PUSH4 0xB4B5B48F EQ PUSH2 0x173 JUMPI DUP1 PUSH4 0xB88D4FDE EQ PUSH2 0x16E JUMPI DUP1 PUSH4 0xC59D4847 EQ PUSH2 0x169 JUMPI DUP1 PUSH4 0xC87B56DD EQ PUSH2 0x164 JUMPI DUP1 PUSH4 0xCED14198 EQ PUSH2 0x15F JUMPI DUP1 PUSH4 0xD9A5EC1B EQ PUSH2 0x15A JUMPI DUP1 PUSH4 0xE985E9C5 EQ PUSH2 0x155 JUMPI PUSH4 0xF2FDE38B EQ PUSH2 0x150 JUMPI PUSH1 0x0 DUP1 REVERT JUMPDEST PUSH2 0x1421 JUMP JUMPDEST PUSH2 0x13D0 JUMP JUMPDEST PUSH2 0x133E JUMP JUMPDEST PUSH2 0x130E JUMP JUMPDEST PUSH2 0x104E JUMP JUMPDEST PUSH2 0xFE0 JUMP JUMPDEST PUSH2 0xF80 JUMP JUMPDEST PUSH2 0xED9 JUMP JUMPDEST PUSH2 0xD0F JUMP JUMPDEST PUSH2 0xC6A JUMP JUMPDEST PUSH2 0xC41 JUMP JUMPDEST PUSH2 0xBBD JUMP JUMPDEST PUSH2 0xAF7 JUMP JUMPDEST PUSH2 0x9D4 JUMP JUMPDEST PUSH2 0x976 JUMP JUMPDEST PUSH2 0x938 JUMP JUMPDEST PUSH2 0x897 JUMP JUMPDEST PUSH2 0x84C JUMP JUMPDEST PUSH2 0x770 JUMP JUMPDEST PUSH2 0x752 JUMP JUMPDEST PUSH2 0x713 JUMP JUMPDEST PUSH2 0x6EA JUMP JUMPDEST PUSH2 0x5FA JUMP JUMPDEST PUSH2 0x533 JUMP JUMPDEST PUSH2 0x416 JUMP JUMPDEST PUSH2 0x3BA JUMP JUMPDEST PUSH2 0x2D7 JUMP JUMPDEST PUSH2 0x1F3 JUMP JUMPDEST PUSH1 0x1 PUSH1 0x1 PUSH1 0xE0 SHL SUB NOT DUP2 AND SUB PUSH2 0x1EE JUMPI JUMP JUMPDEST PUSH1 0x0 DUP1 REVERT JUMPDEST CALLVALUE PUSH2 0x1EE JUMPI PUSH1 0x20 CALLDATASIZE PUSH1 0x3 NOT ADD SLT PUSH2 0x1EE JUMPI PUSH1 0x20 PUSH1 0x4 CALLDATALOAD PUSH2 0x212 DUP2 PUSH2 0x1DC JUMP JUMPDEST PUSH4 0xFFFFFFFF PUSH1 0xE0 SHL AND PUSH4 0x24832483 PUSH1 0xE1 SHL DUP2 EQ SWAP1 DUP2 ISZERO PUSH2 0x238 JUMPI JUMPDEST POP PUSH1 0x40 MLOAD SWAP1 ISZERO ISZERO DUP2 MSTORE RETURN JUMPDEST PUSH4 0x80AC58CD PUSH1 0xE0 SHL DUP2 EQ SWAP2 POP DUP2 ISZERO PUSH2 0x26A JUMPI JUMPDEST DUP2 ISZERO PUSH2 0x259 JUMPI JUMPDEST POP CODESIZE PUSH2 0x22D JUMP JUMPDEST PUSH4 0x1FFC9A7 PUSH1 0xE0 SHL EQ SWAP1 POP CODESIZE PUSH2 0x252 JUMP JUMPDEST PUSH4 0x5B5E139F PUSH1 0xE0 SHL DUP2 EQ SWAP2 POP PUSH2 0x24B JUMP JUMPDEST PUSH1 0x0 JUMPDEST DUP4 DUP2 LT PUSH2 0x28E JUMPI POP POP PUSH1 0x0 SWAP2 ADD MSTORE JUMP JUMPDEST DUP2 DUP2 ADD MLOAD DUP4 DUP3 ADD MSTORE PUSH1 0x20 ADD PUSH2 0x27E JUMP JUMPDEST SWAP1 PUSH1 0x20 SWAP2 PUSH2 0x2B7 DUP2 MLOAD DUP1 SWAP3 DUP2 DUP6 MSTORE DUP6 DUP1 DUP7 ADD SWAP2 ADD PUSH2 0x27B JUMP JUMPDEST PUSH1 0x1F ADD PUSH1 0x1F NOT AND ADD ADD SWAP1 JUMP JUMPDEST SWAP1 PUSH1 0x20 PUSH2 0x2D4 SWAP3 DUP2 DUP2 MSTORE ADD SWAP1 PUSH2 0x29E JUMP JUMPDEST SWAP1 JUMP JUMPDEST CALLVALUE PUSH2 0x1EE JUMPI PUSH1 0x0 DUP1 PUSH1 0x3 NOT CALLDATASIZE ADD SLT PUSH2 0x3B7 JUMPI PUSH1 0x40 MLOAD SWAP1 DUP1 DUP1 SLOAD PUSH2 0x2F9 DUP2 PUSH2 0xDFB JUMP JUMPDEST DUP1 DUP6 MSTORE SWAP2 PUSH1 0x1 SWAP2 DUP1 DUP4 AND SWAP1 DUP2 ISZERO PUSH2 0x38D JUMPI POP PUSH1 0x1 EQ PUSH2 0x333 JUMPI JUMPDEST PUSH2 0x32F DUP6 PUSH2 0x323 DUP2 DUP8 SUB DUP3 PUSH2 0xA58 JUMP JUMPDEST PUSH1 0x40 MLOAD SWAP2 DUP3 SWAP2 DUP3 PUSH2 0x2C3 JUMP JUMPDEST SUB SWAP1 RETURN JUMPDEST DUP1 DUP1 SWAP5 POP MSTORE PUSH32 0x290DECD9548B62A8D60345A988386FC84BA6BC95484008F6362F93160EF3E563 JUMPDEST DUP3 DUP5 LT PUSH2 0x375 JUMPI POP POP POP DUP2 ADD PUSH1 0x20 ADD PUSH2 0x323 DUP3 PUSH2 0x32F PUSH2 0x313 JUMP JUMPDEST DUP1 SLOAD PUSH1 0x20 DUP6 DUP8 ADD DUP2 ADD SWAP2 SWAP1 SWAP2 MSTORE SWAP1 SWAP4 ADD SWAP3 DUP2 ADD PUSH2 0x35A JUMP JUMPDEST DUP7 SWAP6 POP PUSH2 0x32F SWAP7 SWAP4 POP PUSH1 0x20 SWAP3 POP PUSH2 0x323 SWAP5 SWAP2 POP PUSH1 0xFF NOT AND DUP3 DUP5 ADD MSTORE ISZERO ISZERO PUSH1 0x5 SHL DUP3 ADD ADD SWAP3 SWAP4 PUSH2 0x313 JUMP JUMPDEST DUP1 REVERT JUMPDEST CALLVALUE PUSH2 0x1EE JUMPI PUSH1 0x20 CALLDATASIZE PUSH1 0x3 NOT ADD SLT PUSH2 0x1EE JUMPI PUSH1 0x20 PUSH2 0x3D8 PUSH1 0x4 CALLDATALOAD PUSH2 0x1623 JUMP JUMPDEST PUSH1 0x40 MLOAD PUSH1 0x1 PUSH1 0x1 PUSH1 0xA0 SHL SUB SWAP1 SWAP2 AND DUP2 MSTORE RETURN JUMPDEST PUSH1 0x4 CALLDATALOAD SWAP1 PUSH1 0x1 PUSH1 0x1 PUSH1 0xA0 SHL SUB DUP3 AND DUP3 SUB PUSH2 0x1EE JUMPI JUMP JUMPDEST PUSH1 0x24 CALLDATALOAD SWAP1 PUSH1 0x1 PUSH1 0x1 PUSH1 0xA0 SHL SUB DUP3 AND DUP3 SUB PUSH2 0x1EE JUMPI JUMP JUMPDEST CALLVALUE PUSH2 0x1EE JUMPI PUSH1 0x40 CALLDATASIZE PUSH1 0x3 NOT ADD SLT PUSH2 0x1EE JUMPI PUSH2 0x42F PUSH2 0x3EA JUMP JUMPDEST PUSH1 0x24 CALLDATALOAD PUSH2 0x43B DUP2 PUSH2 0x158E JUMP JUMPDEST SWAP2 PUSH1 0x1 PUSH1 0x1 PUSH1 0xA0 SHL SUB DUP1 DUP5 AND SWAP1 DUP3 AND DUP2 EQ PUSH2 0x4B6 JUMPI PUSH2 0x46D SWAP4 PUSH2 0x468 SWAP2 CALLER EQ SWAP1 DUP2 ISZERO PUSH2 0x46F JUMPI JUMPDEST POP PUSH2 0x15B1 JUMP JUMPDEST PUSH2 0x1999 JUMP JUMPDEST STOP JUMPDEST PUSH1 0x1 PUSH1 0x1 PUSH1 0xA0 SHL SUB AND PUSH1 0x0 SWAP1 DUP2 MSTORE PUSH1 0x5 PUSH1 0x20 MSTORE PUSH1 0x40 SWAP1 KECCAK256 PUSH2 0x4B0 SWAP2 POP PUSH2 0x4A9 SWAP1 CALLER SWAP1 JUMPDEST SWAP1 PUSH1 0x1 DUP1 PUSH1 0xA0 SHL SUB AND PUSH1 0x0 MSTORE PUSH1 0x20 MSTORE PUSH1 0x40 PUSH1 0x0 KECCAK256 SWAP1 JUMP JUMPDEST SLOAD PUSH1 0xFF AND SWAP1 JUMP JUMPDEST CODESIZE PUSH2 0x462 JUMP JUMPDEST PUSH1 0x40 MLOAD PUSH3 0x461BCD PUSH1 0xE5 SHL DUP2 MSTORE PUSH1 0x20 PUSH1 0x4 DUP3 ADD MSTORE PUSH1 0x21 PUSH1 0x24 DUP3 ADD MSTORE PUSH32 0x4552433732313A20617070726F76616C20746F2063757272656E74206F776E65 PUSH1 0x44 DUP3 ADD MSTORE PUSH1 0x39 PUSH1 0xF9 SHL PUSH1 0x64 DUP3 ADD MSTORE PUSH1 0x84 SWAP1 REVERT JUMPDEST DUP1 SLOAD DUP3 LT ISZERO PUSH2 0x51D JUMPI PUSH1 0x0 MSTORE PUSH1 0x20 PUSH1 0x0 KECCAK256 ADD SWAP1 PUSH1 0x0 SWAP1 JUMP JUMPDEST PUSH4 0x4E487B71 PUSH1 0xE0 SHL PUSH1 0x0 MSTORE PUSH1 0x32 PUSH1 0x4 MSTORE PUSH1 0x24 PUSH1 0x0 REVERT JUMPDEST CALLVALUE PUSH2 0x1EE JUMPI PUSH1 0x40 CALLDATASIZE PUSH1 0x3 NOT ADD SLT PUSH2 0x1EE JUMPI PUSH2 0x54C PUSH2 0x3EA JUMP JUMPDEST PUSH1 0x1 PUSH1 0x1 PUSH1 0xA0 SHL SUB AND PUSH1 0x0 SWAP1 DUP2 MSTORE PUSH1 0xB PUSH1 0x20 MSTORE PUSH1 0x40 SWAP1 KECCAK256 DUP1 SLOAD PUSH1 0x24 CALLDATALOAD SWAP2 SWAP1 DUP3 LT ISZERO PUSH2 0x1EE JUMPI PUSH1 0x20 SWAP2 PUSH2 0x57D SWAP2 PUSH2 0x505 JUMP JUMPDEST SWAP1 SLOAD PUSH1 0x40 MLOAD SWAP2 PUSH1 0x3 SHL SHR DUP2 MSTORE RETURN JUMPDEST PUSH1 0x20 DUP2 MSTORE PUSH1 0xC0 PUSH1 0xA0 PUSH2 0x5EF PUSH2 0x5AB DUP6 MLOAD DUP5 PUSH1 0x20 DUP8 ADD MSTORE PUSH1 0xE0 DUP7 ADD SWAP1 PUSH2 0x29E JUMP JUMPDEST PUSH1 0x20 DUP7 ADD MLOAD PUSH1 0x40 DUP7 ADD MSTORE PUSH1 0x40 DUP7 ADD MLOAD PUSH1 0x60 DUP7 ADD MSTORE PUSH2 0x5DB PUSH1 0x60 DUP8 ADD MLOAD SWAP2 PUSH1 0x1F NOT SWAP3 DUP4 DUP9 DUP4 SUB ADD PUSH1 0x80 DUP10 ADD MSTORE PUSH2 0x29E JUMP JUMPDEST SWAP1 PUSH1 0x80 DUP8 ADD MLOAD SWAP1 DUP7 DUP4 SUB ADD DUP5 DUP8 ADD MSTORE PUSH2 0x29E JUMP JUMPDEST SWAP4 ADD MLOAD ISZERO ISZERO SWAP2 ADD MSTORE SWAP1 JUMP JUMPDEST CALLVALUE PUSH2 0x1EE JUMPI PUSH1 0x20 CALLDATASIZE PUSH1 0x3 NOT ADD SLT PUSH2 0x1EE JUMPI PUSH1 0x4 CALLDATALOAD PUSH1 0x0 PUSH1 0xA0 PUSH1 0x40 MLOAD PUSH2 0x61E DUP2 PUSH2 0xA3C JUMP JUMPDEST PUSH1 0x60 DUP2 MSTORE DUP3 PUSH1 0x20 DUP3 ADD MSTORE DUP3 PUSH1 0x40 DUP3 ADD MSTORE PUSH1 0x60 DUP1 DUP3 ADD MSTORE PUSH1 0x60 PUSH1 0x80 DUP3 ADD MSTORE ADD MSTORE PUSH2 0x647 CALLER DUP3 PUSH2 0x210E JUMP JUMPDEST ISZERO PUSH2 0x677 JUMPI PUSH2 0x66B PUSH2 0x666 PUSH2 0x32F SWAP3 PUSH1 0x0 MSTORE PUSH1 0x9 PUSH1 0x20 MSTORE PUSH1 0x40 PUSH1 0x0 KECCAK256 SWAP1 JUMP JUMPDEST PUSH2 0x2180 JUMP JUMPDEST PUSH1 0x40 MLOAD SWAP2 DUP3 SWAP2 DUP3 PUSH2 0x58B JUMP JUMPDEST PUSH1 0x40 MLOAD PUSH3 0x461BCD PUSH1 0xE5 SHL DUP2 MSTORE PUSH1 0x20 PUSH1 0x4 DUP3 ADD MSTORE PUSH1 0x16 PUSH1 0x24 DUP3 ADD MSTORE PUSH22 0x4E6F2061636365737320746F20746869732064617461 PUSH1 0x50 SHL PUSH1 0x44 DUP3 ADD MSTORE PUSH1 0x64 SWAP1 REVERT JUMPDEST PUSH1 0x60 SWAP1 PUSH1 0x3 NOT ADD SLT PUSH2 0x1EE JUMPI PUSH1 0x1 PUSH1 0x1 PUSH1 0xA0 SHL SUB SWAP1 PUSH1 0x4 CALLDATALOAD DUP3 DUP2 AND DUP2 SUB PUSH2 0x1EE JUMPI SWAP2 PUSH1 0x24 CALLDATALOAD SWAP1 DUP2 AND DUP2 SUB PUSH2 0x1EE JUMPI SWAP1 PUSH1 0x44 CALLDATALOAD SWAP1 JUMP JUMPDEST CALLVALUE PUSH2 0x1EE JUMPI PUSH2 0x46D PUSH2 0x6FB CALLDATASIZE PUSH2 0x6B5 JUMP JUMPDEST SWAP2 PUSH2 0x70E PUSH2 0x709 DUP5 CALLER PUSH2 0x175E JUMP JUMPDEST PUSH2 0x1661 JUMP JUMPDEST PUSH2 0x1830 JUMP JUMPDEST CALLVALUE PUSH2 0x1EE JUMPI PUSH2 0x721 CALLDATASIZE PUSH2 0x6B5 JUMP JUMPDEST PUSH1 0x40 MLOAD SWAP2 PUSH1 0x20 DUP4 ADD SWAP4 DUP4 DUP6 LT PUSH8 0xFFFFFFFFFFFFFFFF DUP7 GT OR PUSH2 0x74D JUMPI PUSH2 0x46D SWAP5 PUSH1 0x40 MSTORE PUSH1 0x0 DUP5 MSTORE PUSH2 0x16C3 JUMP JUMPDEST PUSH2 0xA26 JUMP JUMPDEST CALLVALUE PUSH2 0x1EE JUMPI PUSH1 0x20 CALLDATASIZE PUSH1 0x3 NOT ADD SLT PUSH2 0x1EE JUMPI PUSH1 0x20 PUSH2 0x3D8 PUSH1 0x4 CALLDATALOAD PUSH2 0x158E JUMP JUMPDEST CALLVALUE PUSH2 0x1EE JUMPI PUSH1 0x40 CALLDATASIZE PUSH1 0x3 NOT ADD SLT PUSH2 0x1EE JUMPI PUSH1 0x4 CALLDATALOAD PUSH2 0x78C PUSH2 0x400 JUMP JUMPDEST SWAP1 PUSH2 0x796 DUP2 PUSH2 0x158E JUMP JUMPDEST PUSH1 0x1 PUSH1 0x1 PUSH1 0xA0 SHL SUB SWAP1 PUSH2 0x7AC SWAP1 DUP3 AND CALLER EQ PUSH2 0x20D0 JUMP JUMPDEST DUP3 AND SWAP2 CALLER DUP4 EQ PUSH2 0x807 JUMPI PUSH2 0x7D1 PUSH2 0x7DE SWAP2 PUSH2 0x492 DUP5 PUSH1 0x0 MSTORE PUSH1 0xA PUSH1 0x20 MSTORE PUSH1 0x40 PUSH1 0x0 KECCAK256 SWAP1 JUMP JUMPDEST DUP1 SLOAD PUSH1 0xFF NOT AND PUSH1 0x1 OR SWAP1 SSTORE JUMP JUMPDEST CALLER SWAP1 PUSH32 0x97A8264D9D0B9E21370349F9B49BE012A5D1E27829879DF8BA166DBA48F898C6 PUSH1 0x0 DUP1 LOG4 STOP JUMPDEST PUSH1 0x40 MLOAD PUSH3 0x461BCD PUSH1 0xE5 SHL DUP2 MSTORE PUSH1 0x20 PUSH1 0x4 DUP3 ADD MSTORE PUSH1 0x1B PUSH1 0x24 DUP3 ADD MSTORE PUSH32 0x43616E6E6F74206772616E742061636365737320746F2073656C660000000000 PUSH1 0x44 DUP3 ADD MSTORE PUSH1 0x64 SWAP1 REVERT JUMPDEST CALLVALUE PUSH2 0x1EE JUMPI PUSH1 0x20 CALLDATASIZE PUSH1 0x3 NOT ADD SLT PUSH2 0x1EE JUMPI PUSH1 0x4 CALLDATALOAD PUSH2 0x87C PUSH2 0x86C DUP3 PUSH2 0x158E JUMP JUMPDEST PUSH1 0x1 PUSH1 0x1 PUSH1 0xA0 SHL SUB AND CALLER EQ PUSH2 0x20D0 JUMP JUMPDEST PUSH1 0x0 SWAP1 DUP2 MSTORE PUSH1 0x9 PUSH1 0x20 MSTORE PUSH1 0x40 SWAP1 KECCAK256 PUSH1 0x5 ADD DUP1 SLOAD PUSH1 0xFF NOT AND SWAP1 SSTORE STOP JUMPDEST CALLVALUE PUSH2 0x1EE JUMPI PUSH1 0x20 CALLDATASIZE PUSH1 0x3 NOT ADD SLT PUSH2 0x1EE JUMPI PUSH1 0x1 PUSH1 0x1 PUSH1 0xA0 SHL SUB PUSH2 0x8B8 PUSH2 0x3EA JUMP JUMPDEST AND DUP1 ISZERO PUSH2 0x8E1 JUMPI PUSH1 0x0 MSTORE PUSH1 0x3 PUSH1 0x20 MSTORE PUSH2 0x32F PUSH1 0x40 PUSH1 0x0 KECCAK256 SLOAD PUSH1 0x40 MLOAD SWAP2 DUP3 SWAP2 DUP3 SWAP2 SWAP1 PUSH1 0x20 DUP4 ADD SWAP3 MSTORE JUMP JUMPDEST PUSH1 0x40 MLOAD PUSH3 0x461BCD PUSH1 0xE5 SHL DUP2 MSTORE PUSH1 0x20 PUSH1 0x4 DUP3 ADD MSTORE PUSH1 0x29 PUSH1 0x24 DUP3 ADD MSTORE PUSH32 0x4552433732313A2061646472657373207A65726F206973206E6F742061207661 PUSH1 0x44 DUP3 ADD MSTORE PUSH9 0x3634B21037BBB732B9 PUSH1 0xB9 SHL PUSH1 0x64 DUP3 ADD MSTORE PUSH1 0x84 SWAP1 REVERT JUMPDEST CALLVALUE PUSH2 0x1EE JUMPI PUSH1 0x20 CALLDATASIZE PUSH1 0x3 NOT ADD SLT PUSH2 0x1EE JUMPI PUSH1 0x4 CALLDATALOAD PUSH2 0x958 PUSH2 0x86C DUP3 PUSH2 0x158E JUMP JUMPDEST PUSH1 0x0 SWAP1 DUP2 MSTORE PUSH1 0x9 PUSH1 0x20 MSTORE PUSH1 0x40 SWAP1 KECCAK256 PUSH1 0x5 ADD DUP1 SLOAD PUSH1 0xFF NOT AND PUSH1 0x1 OR SWAP1 SSTORE STOP JUMPDEST CALLVALUE PUSH2 0x1EE JUMPI PUSH1 0x0 DUP1 PUSH1 0x3 NOT CALLDATASIZE ADD SLT PUSH2 0x3B7 JUMPI PUSH2 0x990 PUSH2 0x14EA JUMP JUMPDEST PUSH1 0x7 DUP1 SLOAD PUSH1 0x1 PUSH1 0x1 PUSH1 0xA0 SHL SUB NOT DUP2 AND SWAP1 SWAP2 SSTORE DUP2 SWAP1 PUSH1 0x1 PUSH1 0x1 PUSH1 0xA0 SHL SUB AND PUSH32 0x8BE0079C531659141344CD1FD0A4F28419497F9722A3DAAFE3B4186F6B6457E0 DUP3 DUP1 LOG3 DUP1 RETURN JUMPDEST CALLVALUE PUSH2 0x1EE JUMPI PUSH1 0x40 CALLDATASIZE PUSH1 0x3 NOT ADD SLT PUSH2 0x1EE JUMPI PUSH1 0x20 PUSH1 0xFF PUSH2 0xA1A PUSH2 0x9F4 PUSH2 0x400 JUMP JUMPDEST PUSH1 0x4 CALLDATALOAD PUSH1 0x0 MSTORE PUSH1 0xA DUP5 MSTORE PUSH1 0x40 PUSH1 0x0 KECCAK256 SWAP1 PUSH1 0x1 DUP1 PUSH1 0xA0 SHL SUB AND PUSH1 0x0 MSTORE PUSH1 0x20 MSTORE PUSH1 0x40 PUSH1 0x0 KECCAK256 SWAP1 JUMP JUMPDEST SLOAD AND PUSH1 0x40 MLOAD SWAP1 ISZERO ISZERO DUP2 MSTORE RETURN JUMPDEST PUSH4 0x4E487B71 PUSH1 0xE0 SHL PUSH1 0x0 MSTORE PUSH1 0x41 PUSH1 0x4 MSTORE PUSH1 0x24 PUSH1 0x0 REVERT JUMPDEST PUSH1 0xC0 DUP2 ADD SWAP1 DUP2 LT PUSH8 0xFFFFFFFFFFFFFFFF DUP3 GT OR PUSH2 0x74D JUMPI PUSH1 0x40 MSTORE JUMP JUMPDEST SWAP1 PUSH1 0x1F DUP1 NOT SWAP2 ADD AND DUP2 ADD SWAP1 DUP2 LT PUSH8 0xFFFFFFFFFFFFFFFF DUP3 GT OR PUSH2 0x74D JUMPI PUSH1 0x40 MSTORE JUMP JUMPDEST PUSH1 0x40 MLOAD SWAP1 PUSH2 0xA87 DUP3 PUSH2 0xA3C JUMP JUMPDEST JUMP JUMPDEST PUSH8 0xFFFFFFFFFFFFFFFF DUP2 GT PUSH2 0x74D JUMPI PUSH1 0x1F ADD PUSH1 0x1F NOT AND PUSH1 0x20 ADD SWAP1 JUMP JUMPDEST SWAP3 SWAP2 SWAP3 PUSH2 0xAB1 DUP3 PUSH2 0xA89 JUMP JUMPDEST SWAP2 PUSH2 0xABF PUSH1 0x40 MLOAD SWAP4 DUP5 PUSH2 0xA58 JUMP JUMPDEST DUP3 SWAP5 DUP2 DUP5 MSTORE DUP2 DUP4 ADD GT PUSH2 0x1EE JUMPI DUP3 DUP2 PUSH1 0x20 SWAP4 DUP5 PUSH1 0x0 SWAP7 ADD CALLDATACOPY ADD ADD MSTORE JUMP JUMPDEST SWAP1 DUP1 PUSH1 0x1F DUP4 ADD SLT ISZERO PUSH2 0x1EE JUMPI DUP2 PUSH1 0x20 PUSH2 0x2D4 SWAP4 CALLDATALOAD SWAP2 ADD PUSH2 0xAA5 JUMP JUMPDEST CALLVALUE PUSH2 0x1EE JUMPI PUSH1 0xA0 CALLDATASIZE PUSH1 0x3 NOT ADD SLT PUSH2 0x1EE JUMPI PUSH2 0xB10 PUSH2 0x3EA JUMP JUMPDEST PUSH8 0xFFFFFFFFFFFFFFFF PUSH1 0x24 CALLDATALOAD DUP2 DUP2 GT PUSH2 0x1EE JUMPI PUSH2 0xB31 SWAP1 CALLDATASIZE SWAP1 PUSH1 0x4 ADD PUSH2 0xADC JUMP JUMPDEST PUSH1 0x64 CALLDATALOAD DUP3 DUP2 GT PUSH2 0x1EE JUMPI PUSH2 0xB49 SWAP1 CALLDATASIZE SWAP1 PUSH1 0x4 ADD PUSH2 0xADC JUMP JUMPDEST PUSH1 0x84 CALLDATALOAD SWAP3 DUP4 GT PUSH2 0x1EE JUMPI PUSH2 0x32F SWAP4 PUSH2 0xB68 PUSH2 0xB72 SWAP5 CALLDATASIZE SWAP1 PUSH1 0x4 ADD PUSH2 0xADC JUMP JUMPDEST SWAP3 PUSH1 0x44 CALLDATALOAD SWAP2 PUSH2 0x1B36 JUMP JUMPDEST PUSH1 0x40 MLOAD SWAP1 DUP2 MSTORE SWAP1 DUP2 SWAP1 PUSH1 0x20 DUP3 ADD SWAP1 JUMP JUMPDEST PUSH1 0x20 SWAP1 DUP2 PUSH1 0x40 DUP2 DUP4 ADD SWAP3 DUP3 DUP2 MSTORE DUP6 MLOAD DUP1 SWAP5 MSTORE ADD SWAP4 ADD SWAP2 PUSH1 0x0 JUMPDEST DUP3 DUP2 LT PUSH2 0xBA9 JUMPI POP POP POP POP SWAP1 JUMP JUMPDEST DUP4 MLOAD DUP6 MSTORE SWAP4 DUP2 ADD SWAP4 SWAP3 DUP2 ADD SWAP3 PUSH1 0x1 ADD PUSH2 0xB9B JUMP JUMPDEST CALLVALUE PUSH2 0x1EE JUMPI PUSH1 0x20 DUP1 PUSH1 0x3 NOT CALLDATASIZE ADD SLT PUSH2 0x1EE JUMPI PUSH1 0x1 PUSH1 0x1 PUSH1 0xA0 SHL SUB PUSH2 0xBDF PUSH2 0x3EA JUMP JUMPDEST AND PUSH1 0x0 MSTORE PUSH1 0xB DUP2 MSTORE PUSH1 0x40 PUSH1 0x0 KECCAK256 SWAP1 PUSH1 0x40 MLOAD SWAP1 DUP2 DUP2 DUP5 SLOAD SWAP2 DUP3 DUP2 MSTORE ADD SWAP4 PUSH1 0x0 MSTORE DUP2 PUSH1 0x0 KECCAK256 SWAP2 PUSH1 0x0 SWAP1 JUMPDEST DUP3 DUP3 LT PUSH2 0xC2A JUMPI PUSH2 0x32F DUP6 PUSH2 0xC1E DUP2 DUP10 SUB DUP3 PUSH2 0xA58 JUMP JUMPDEST PUSH1 0x40 MLOAD SWAP2 DUP3 SWAP2 DUP3 PUSH2 0xB82 JUMP JUMPDEST DUP4 SLOAD DUP7 MSTORE SWAP5 DUP6 ADD SWAP5 PUSH1 0x1 SWAP4 DUP5 ADD SWAP4 SWAP1 SWAP2 ADD SWAP1 PUSH2 0xC07 JUMP JUMPDEST CALLVALUE PUSH2 0x1EE JUMPI PUSH1 0x0 CALLDATASIZE PUSH1 0x3 NOT ADD SLT PUSH2 0x1EE JUMPI PUSH1 0x7 SLOAD PUSH1 0x40 MLOAD PUSH1 0x1 PUSH1 0x1 PUSH1 0xA0 SHL SUB SWAP1 SWAP2 AND DUP2 MSTORE PUSH1 0x20 SWAP1 RETURN JUMPDEST CALLVALUE PUSH2 0x1EE JUMPI PUSH1 0x0 DUP1 PUSH1 0x3 NOT CALLDATASIZE ADD SLT PUSH2 0x3B7 JUMPI PUSH1 0x40 MLOAD SWAP1 DUP1 PUSH1 0x1 DUP1 SLOAD SWAP2 PUSH2 0xC8F DUP4 PUSH2 0xDFB JUMP JUMPDEST DUP1 DUP7 MSTORE SWAP3 DUP3 DUP2 AND SWAP1 DUP2 ISZERO PUSH2 0x38D JUMPI POP PUSH1 0x1 EQ PUSH2 0xCB5 JUMPI PUSH2 0x32F DUP6 PUSH2 0x323 DUP2 DUP8 SUB DUP3 PUSH2 0xA58 JUMP JUMPDEST SWAP3 POP DUP1 DUP4 MSTORE PUSH32 0xB10E2D527612073B26EECDFD717E6A320CF44B4AFAC2B0732D9FCBE2B7FA0CF6 JUMPDEST DUP3 DUP5 LT PUSH2 0xCF7 JUMPI POP POP POP DUP2 ADD PUSH1 0x20 ADD PUSH2 0x323 DUP3 PUSH2 0x32F PUSH2 0x313 JUMP JUMPDEST DUP1 SLOAD PUSH1 0x20 DUP6 DUP8 ADD DUP2 ADD SWAP2 SWAP1 SWAP2 MSTORE SWAP1 SWAP4 ADD SWAP3 DUP2 ADD PUSH2 0xCDC JUMP JUMPDEST CALLVALUE PUSH2 0x1EE JUMPI PUSH1 0x40 CALLDATASIZE PUSH1 0x3 NOT ADD SLT PUSH2 0x1EE JUMPI PUSH2 0xD28 PUSH2 0x3EA JUMP JUMPDEST PUSH1 0x24 CALLDATALOAD DUP1 ISZERO ISZERO DUP2 SUB PUSH2 0x1EE JUMPI PUSH1 0x1 PUSH1 0x1 PUSH1 0xA0 SHL SUB DUP3 AND SWAP2 CALLER DUP4 EQ PUSH2 0xDB6 JUMPI DUP2 PUSH2 0xD73 PUSH2 0xD84 SWAP3 CALLER PUSH1 0x0 MSTORE PUSH1 0x5 PUSH1 0x20 MSTORE PUSH1 0x40 PUSH1 0x0 KECCAK256 SWAP1 PUSH1 0x1 DUP1 PUSH1 0xA0 SHL SUB AND PUSH1 0x0 MSTORE PUSH1 0x20 MSTORE PUSH1 0x40 PUSH1 0x0 KECCAK256 SWAP1 JUMP JUMPDEST SWAP1 PUSH1 0xFF DUP1 NOT DUP4 SLOAD AND SWAP2 ISZERO ISZERO AND OR SWAP1 SSTORE JUMP JUMPDEST PUSH1 0x40 MLOAD SWAP1 ISZERO ISZERO DUP2 MSTORE CALLER SWAP1 PUSH32 0x17307EAB39AB6107E8899845AD3D59BD9653F200F220920489CA2B5937696C31 SWAP1 PUSH1 0x20 SWAP1 LOG3 STOP JUMPDEST PUSH1 0x40 MLOAD PUSH3 0x461BCD PUSH1 0xE5 SHL DUP2 MSTORE PUSH1 0x20 PUSH1 0x4 DUP3 ADD MSTORE PUSH1 0x19 PUSH1 0x24 DUP3 ADD MSTORE PUSH32 0x4552433732313A20617070726F766520746F2063616C6C657200000000000000 PUSH1 0x44 DUP3 ADD MSTORE PUSH1 0x64 SWAP1 REVERT JUMPDEST SWAP1 PUSH1 0x1 DUP3 DUP2 SHR SWAP3 AND DUP1 ISZERO PUSH2 0xE2B JUMPI JUMPDEST PUSH1 0x20 DUP4 LT EQ PUSH2 0xE15 JUMPI JUMP JUMPDEST PUSH4 0x4E487B71 PUSH1 0xE0 SHL PUSH1 0x0 MSTORE PUSH1 0x22 PUSH1 0x4 MSTORE PUSH1 0x24 PUSH1 0x0 REVERT JUMPDEST SWAP2 PUSH1 0x7F AND SWAP2 PUSH2 0xE0A JUMP JUMPDEST SWAP1 PUSH1 0x40 MLOAD SWAP2 DUP3 PUSH1 0x0 DUP3 SLOAD SWAP3 PUSH2 0xE49 DUP5 PUSH2 0xDFB JUMP JUMPDEST SWAP1 DUP2 DUP5 MSTORE PUSH1 0x1 SWAP5 DUP6 DUP2 AND SWAP1 DUP2 PUSH1 0x0 EQ PUSH2 0xEB6 JUMPI POP PUSH1 0x1 EQ PUSH2 0xE73 JUMPI JUMPDEST POP POP PUSH2 0xA87 SWAP3 POP SUB DUP4 PUSH2 0xA58 JUMP JUMPDEST SWAP1 SWAP4 SWAP2 POP PUSH1 0x0 MSTORE PUSH1 0x20 SWAP1 DUP2 PUSH1 0x0 KECCAK256 SWAP4 PUSH1 0x0 SWAP2 JUMPDEST DUP2 DUP4 LT PUSH2 0xE9E JUMPI POP POP PUSH2 0xA87 SWAP4 POP DUP3 ADD ADD CODESIZE DUP1 PUSH2 0xE65 JUMP JUMPDEST DUP6 SLOAD DUP9 DUP5 ADD DUP6 ADD MSTORE SWAP5 DUP6 ADD SWAP5 DUP8 SWAP5 POP SWAP2 DUP4 ADD SWAP2 PUSH2 0xE86 JUMP JUMPDEST SWAP2 POP POP PUSH2 0xA87 SWAP5 POP PUSH1 0x20 SWAP3 POP PUSH1 0xFF NOT AND DUP3 DUP5 ADD MSTORE ISZERO ISZERO PUSH1 0x5 SHL DUP3 ADD ADD CODESIZE DUP1 PUSH2 0xE65 JUMP JUMPDEST CALLVALUE PUSH2 0x1EE JUMPI PUSH1 0x20 CALLDATASIZE PUSH1 0x3 NOT ADD SLT PUSH2 0x1EE JUMPI PUSH1 0x4 CALLDATALOAD PUSH1 0x0 MSTORE PUSH1 0x9 PUSH1 0x20 MSTORE PUSH2 0xF4E PUSH1 0x40 PUSH1 0x0 KECCAK256 PUSH2 0xF06 DUP2 PUSH2 0xE35 JUMP JUMPDEST SWAP1 PUSH2 0xF74 PUSH1 0x1 DUP3 ADD SLOAD SWAP2 PUSH2 0xF66 PUSH1 0x2 DUP3 ADD SLOAD SWAP4 PUSH2 0xF25 PUSH1 0x3 DUP5 ADD PUSH2 0xE35 JUMP JUMPDEST PUSH1 0xFF PUSH1 0x5 PUSH2 0xF35 PUSH1 0x4 DUP8 ADD PUSH2 0xE35 JUMP JUMPDEST SWAP6 ADD SLOAD AND SWAP6 PUSH1 0x40 MLOAD SWAP9 DUP10 SWAP9 PUSH1 0xC0 DUP11 MSTORE PUSH1 0xC0 DUP11 ADD SWAP1 PUSH2 0x29E JUMP JUMPDEST SWAP3 PUSH1 0x20 DUP10 ADD MSTORE PUSH1 0x40 DUP9 ADD MSTORE DUP7 DUP3 SUB PUSH1 0x60 DUP9 ADD MSTORE PUSH2 0x29E JUMP JUMPDEST SWAP1 DUP5 DUP3 SUB PUSH1 0x80 DUP7 ADD MSTORE PUSH2 0x29E JUMP JUMPDEST SWAP1 ISZERO ISZERO PUSH1 0xA0 DUP4 ADD MSTORE SUB SWAP1 RETURN JUMPDEST CALLVALUE PUSH2 0x1EE JUMPI PUSH1 0x80 CALLDATASIZE PUSH1 0x3 NOT ADD SLT PUSH2 0x1EE JUMPI PUSH2 0xF99 PUSH2 0x3EA JUMP JUMPDEST PUSH2 0xFA1 PUSH2 0x400 JUMP JUMPDEST PUSH1 0x64 CALLDATALOAD SWAP2 PUSH8 0xFFFFFFFFFFFFFFFF DUP4 GT PUSH2 0x1EE JUMPI CALLDATASIZE PUSH1 0x23 DUP5 ADD SLT ISZERO PUSH2 0x1EE JUMPI PUSH2 0xFD6 PUSH2 0x46D SWAP4 CALLDATASIZE SWAP1 PUSH1 0x24 DUP2 PUSH1 0x4 ADD CALLDATALOAD SWAP2 ADD PUSH2 0xAA5 JUMP JUMPDEST SWAP2 PUSH1 0x44 CALLDATALOAD SWAP2 PUSH2 0x16C3 JUMP JUMPDEST CALLVALUE PUSH2 0x1EE JUMPI PUSH1 0x0 CALLDATASIZE PUSH1 0x3 NOT ADD SLT PUSH2 0x1EE JUMPI PUSH1 0x0 PUSH1 0x8 SLOAD PUSH1 0x1 JUMPDEST DUP2 DUP2 GT ISZERO PUSH2 0x1012 JUMPI JUMPDEST POP PUSH1 0x40 SWAP2 DUP3 MLOAD SWAP2 DUP3 MSTORE PUSH1 0x20 DUP3 ADD MSTORE RETURN JUMPDEST PUSH1 0x0 DUP2 DUP2 MSTORE PUSH1 0x2 PUSH1 0x20 MSTORE PUSH1 0x40 SWAP1 KECCAK256 SLOAD PUSH1 0x1 PUSH1 0x1 PUSH1 0xA0 SHL SUB AND PUSH2 0x103C JUMPI PUSH2 0x1037 SWAP1 PUSH2 0x21F6 JUMP JUMPDEST PUSH2 0xFF9 JUMP JUMPDEST POP PUSH2 0x1048 PUSH1 0x40 SWAP3 PUSH2 0x21F6 JUMP JUMPDEST SWAP2 PUSH2 0x1002 JUMP JUMPDEST CALLVALUE PUSH2 0x1EE JUMPI PUSH1 0x20 CALLDATASIZE PUSH1 0x3 NOT ADD SLT PUSH2 0x1EE JUMPI PUSH1 0x4 CALLDATALOAD PUSH1 0x0 DUP2 DUP2 MSTORE PUSH1 0x2 PUSH1 0x20 MSTORE PUSH1 0x40 SWAP1 KECCAK256 SLOAD PUSH1 0x1 PUSH1 0x1 PUSH1 0xA0 SHL SUB AND ISZERO ISZERO PUSH2 0x1085 SWAP1 PUSH2 0x220A JUMP JUMPDEST PUSH2 0x1099 DUP2 PUSH1 0x0 MSTORE PUSH1 0x9 PUSH1 0x20 MSTORE PUSH1 0x40 PUSH1 0x0 KECCAK256 SWAP1 JUMP JUMPDEST PUSH2 0x10A2 SWAP1 PUSH2 0x2180 JUMP JUMPDEST SWAP1 PUSH2 0x10AC SWAP1 PUSH2 0x2296 JUMP JUMPDEST DUP2 MLOAD SWAP2 PUSH1 0x20 DUP2 ADD MLOAD PUSH2 0x10BD SWAP1 PUSH2 0x2296 JUMP JUMPDEST SWAP1 PUSH1 0x40 DUP2 ADD MLOAD PUSH2 0x10CC SWAP1 PUSH2 0x2296 JUMP JUMPDEST SWAP1 PUSH1 0x60 ADD MLOAD SWAP2 PUSH1 0x40 MLOAD SWAP5 DUP6 SWAP5 PUSH1 0x20 DUP7 ADD PUSH2 0x110A SWAP1 PUSH1 0x1B SWAP1 PUSH32 0x7B226E616D65223A20224F7274686F20446961676E6F73697320230000000000 DUP2 MSTORE ADD SWAP1 JUMP JUMPDEST PUSH2 0x1113 SWAP2 PUSH2 0x224D JUMP JUMPDEST PUSH2 0x88B PUSH1 0xF2 SHL DUP2 MSTORE PUSH1 0x2 ADD PUSH32 0x226465736372697074696F6E223A20224F7274686F646F6E7469632064696167 DUP2 MSTORE PUSH11 0x1B9BDCDA5CC8139195088B PUSH1 0xAA SHL PUSH1 0x20 DUP3 ADD MSTORE PUSH1 0x2B ADD PUSH15 0x2261747472696275746573223A205B PUSH1 0x88 SHL DUP2 MSTORE PUSH1 0xF ADD PUSH32 0x7B2274726169745F74797065223A2022446961676E6F736973222C202276616C DUP2 MSTORE PUSH6 0x3AB2911D1011 PUSH1 0xD1 SHL PUSH1 0x20 DUP3 ADD MSTORE PUSH1 0x26 ADD PUSH2 0x11AE SWAP2 PUSH2 0x224D JUMP JUMPDEST PUSH3 0x89F4B PUSH1 0xEA SHL DUP2 MSTORE PUSH1 0x3 ADD PUSH32 0x7B2274726169745F74797065223A20225365766572697479222C202276616C75 DUP2 MSTORE PUSH4 0x32911D1 PUSH1 0xE5 SHL PUSH1 0x20 DUP3 ADD MSTORE PUSH1 0x24 ADD PUSH2 0x11F6 SWAP2 PUSH2 0x224D JUMP JUMPDEST PUSH2 0x1F4B PUSH1 0xF2 SHL DUP2 MSTORE PUSH1 0x2 ADD PUSH32 0x7B2274726169745F74797065223A202254696D657374616D70222C202276616C DUP2 MSTORE PUSH5 0x3AB2911D1 PUSH1 0xDD SHL PUSH1 0x20 DUP3 ADD MSTORE PUSH1 0x25 ADD PUSH2 0x123E SWAP2 PUSH2 0x224D JUMP JUMPDEST PUSH1 0x7D PUSH1 0xF8 SHL DUP2 MSTORE PUSH1 0x1 ADD PUSH2 0x174B PUSH1 0xF2 SHL DUP2 MSTORE PUSH1 0x2 ADD PUSH17 0x22696D616765223A2022697066733A2F2F PUSH1 0x78 SHL DUP2 MSTORE PUSH1 0x11 ADD PUSH2 0x1276 SWAP2 PUSH2 0x224D JUMP JUMPDEST PUSH15 0x17B234B0B3B737B9B4B99738373391 PUSH1 0x89 SHL DUP2 MSTORE PUSH1 0xF ADD PUSH1 0x7D PUSH1 0xF8 SHL DUP2 MSTORE PUSH1 0x1 ADD SUB SWAP1 PUSH1 0x1F NOT SWAP2 DUP3 DUP2 ADD DUP3 MSTORE PUSH2 0x12AD SWAP1 DUP3 PUSH2 0xA58 JUMP JUMPDEST PUSH2 0x12B6 SWAP1 PUSH2 0x247D JUMP JUMPDEST PUSH1 0x40 MLOAD PUSH32 0x646174613A6170706C69636174696F6E2F6A736F6E3B6261736536342C000000 PUSH1 0x20 DUP3 ADD MSTORE SWAP2 SWAP1 DUP3 SWAP1 PUSH1 0x3D DUP3 ADD PUSH2 0x12F0 SWAP2 PUSH2 0x224D JUMP JUMPDEST SUB SWAP1 DUP2 ADD DUP3 MSTORE PUSH2 0x1300 SWAP1 DUP3 PUSH2 0xA58 JUMP JUMPDEST PUSH1 0x40 MLOAD PUSH2 0x32F DUP2 SWAP3 DUP3 PUSH2 0x2C3 JUMP JUMPDEST CALLVALUE PUSH2 0x1EE JUMPI PUSH1 0x40 CALLDATASIZE PUSH1 0x3 NOT ADD SLT PUSH2 0x1EE JUMPI PUSH1 0x20 PUSH2 0x1334 PUSH2 0x132C PUSH2 0x400 JUMP JUMPDEST PUSH1 0x4 CALLDATALOAD PUSH2 0x210E JUMP JUMPDEST PUSH1 0x40 MLOAD SWAP1 ISZERO ISZERO DUP2 MSTORE RETURN JUMPDEST CALLVALUE PUSH2 0x1EE JUMPI PUSH1 0x40 CALLDATASIZE PUSH1 0x3 NOT ADD SLT PUSH2 0x1EE JUMPI PUSH1 0x4 CALLDATALOAD PUSH2 0x135A PUSH2 0x400 JUMP JUMPDEST SWAP1 PUSH2 0x1364 DUP2 PUSH2 0x158E JUMP JUMPDEST PUSH1 0x1 PUSH1 0x1 PUSH1 0xA0 SHL SUB SWAP1 PUSH2 0x137A SWAP1 DUP3 AND CALLER EQ PUSH2 0x20D0 JUMP JUMPDEST PUSH1 0x0 DUP3 DUP2 MSTORE PUSH1 0xA PUSH1 0x20 SWAP1 DUP2 MSTORE PUSH1 0x40 DUP1 DUP4 KECCAK256 PUSH1 0x1 PUSH1 0x1 PUSH1 0xA0 SHL SUB DUP8 AND DUP5 MSTORE SWAP1 SWAP2 MSTORE DUP2 KECCAK256 DUP1 SLOAD PUSH1 0xFF NOT AND SWAP1 SSTORE SWAP3 AND SWAP1 CALLER SWAP1 PUSH32 0x260547D4038414EF72F081DCDE91825693DFF9BC433178F3E92AD36E0CD22750 DUP5 DUP1 LOG4 DUP1 RETURN JUMPDEST CALLVALUE PUSH2 0x1EE JUMPI PUSH1 0x40 CALLDATASIZE PUSH1 0x3 NOT ADD SLT PUSH2 0x1EE JUMPI PUSH1 0x20 PUSH1 0xFF PUSH2 0xA1A PUSH2 0x13F0 PUSH2 0x3EA JUMP JUMPDEST PUSH2 0x13F8 PUSH2 0x400 JUMP JUMPDEST PUSH1 0x1 PUSH1 0x1 PUSH1 0xA0 SHL SUB SWAP2 DUP3 AND PUSH1 0x0 SWAP1 DUP2 MSTORE PUSH1 0x5 DUP7 MSTORE PUSH1 0x40 DUP1 DUP3 KECCAK256 SWAP3 SWAP1 SWAP4 AND DUP2 MSTORE PUSH1 0x20 SWAP2 SWAP1 SWAP2 MSTORE KECCAK256 SWAP1 JUMP JUMPDEST CALLVALUE PUSH2 0x1EE JUMPI PUSH1 0x20 CALLDATASIZE PUSH1 0x3 NOT ADD SLT PUSH2 0x1EE JUMPI PUSH2 0x143A PUSH2 0x3EA JUMP JUMPDEST PUSH2 0x1442 PUSH2 0x14EA JUMP JUMPDEST PUSH1 0x1 PUSH1 0x1 PUSH1 0xA0 SHL SUB SWAP1 DUP2 AND SWAP1 DUP2 ISZERO PUSH2 0x1496 JUMPI PUSH1 0x7 SLOAD DUP3 PUSH12 0xFFFFFFFFFFFFFFFFFFFFFFFF PUSH1 0xA0 SHL DUP3 AND OR PUSH1 0x7 SSTORE AND PUSH32 0x8BE0079C531659141344CD1FD0A4F28419497F9722A3DAAFE3B4186F6B6457E0 PUSH1 0x0 DUP1 LOG3 STOP JUMPDEST PUSH1 0x40 MLOAD PUSH3 0x461BCD PUSH1 0xE5 SHL DUP2 MSTORE PUSH1 0x20 PUSH1 0x4 DUP3 ADD MSTORE PUSH1 0x26 PUSH1 0x24 DUP3 ADD MSTORE PUSH32 0x4F776E61626C653A206E6577206F776E657220697320746865207A65726F2061 PUSH1 0x44 DUP3 ADD MSTORE PUSH6 0x646472657373 PUSH1 0xD0 SHL PUSH1 0x64 DUP3 ADD MSTORE PUSH1 0x84 SWAP1 REVERT JUMPDEST PUSH1 0x7 SLOAD PUSH1 0x1 PUSH1 0x1 PUSH1 0xA0 SHL SUB AND CALLER SUB PUSH2 0x14FE JUMPI JUMP JUMPDEST PUSH1 0x64 PUSH1 0x40 MLOAD PUSH3 0x461BCD PUSH1 0xE5 SHL DUP2 MSTORE PUSH1 0x20 PUSH1 0x4 DUP3 ADD MSTORE PUSH1 0x20 PUSH1 0x24 DUP3 ADD MSTORE PUSH32 0x4F776E61626C653A2063616C6C6572206973206E6F7420746865206F776E6572 PUSH1 0x44 DUP3 ADD MSTORE REVERT JUMPDEST ISZERO PUSH2 0x1549 JUMPI JUMP JUMPDEST PUSH1 0x40 MLOAD PUSH3 0x461BCD PUSH1 0xE5 SHL DUP2 MSTORE PUSH1 0x20 PUSH1 0x4 DUP3 ADD MSTORE PUSH1 0x18 PUSH1 0x24 DUP3 ADD MSTORE PUSH32 0x4552433732313A20696E76616C696420746F6B656E2049440000000000000000 PUSH1 0x44 DUP3 ADD MSTORE PUSH1 0x64 SWAP1 REVERT JUMPDEST PUSH1 0x0 SWAP1 DUP2 MSTORE PUSH1 0x2 PUSH1 0x20 MSTORE PUSH1 0x40 SWAP1 KECCAK256 SLOAD PUSH1 0x1 PUSH1 0x1 PUSH1 0xA0 SHL SUB AND PUSH2 0x2D4 DUP2 ISZERO ISZERO PUSH2 0x1542 JUMP JUMPDEST ISZERO PUSH2 0x15B8 JUMPI JUMP JUMPDEST PUSH1 0x40 MLOAD PUSH3 0x461BCD PUSH1 0xE5 SHL DUP2 MSTORE PUSH1 0x20 PUSH1 0x4 DUP3 ADD MSTORE PUSH1 0x3D PUSH1 0x24 DUP3 ADD MSTORE PUSH32 0x4552433732313A20617070726F76652063616C6C6572206973206E6F7420746F PUSH1 0x44 DUP3 ADD MSTORE PUSH32 0x6B656E206F776E6572206F7220617070726F76656420666F7220616C6C000000 PUSH1 0x64 DUP3 ADD MSTORE PUSH1 0x84 SWAP1 REVERT JUMPDEST PUSH1 0x0 DUP2 DUP2 MSTORE PUSH1 0x2 PUSH1 0x20 MSTORE PUSH1 0x40 SWAP1 KECCAK256 SLOAD PUSH2 0x1646 SWAP1 PUSH1 0x1 PUSH1 0x1 PUSH1 0xA0 SHL SUB AND ISZERO ISZERO PUSH2 0x1542 JUMP JUMPDEST PUSH1 0x0 SWAP1 DUP2 MSTORE PUSH1 0x4 PUSH1 0x20 MSTORE PUSH1 0x40 SWAP1 KECCAK256 SLOAD PUSH1 0x1 PUSH1 0x1 PUSH1 0xA0 SHL SUB AND SWAP1 JUMP JUMPDEST ISZERO PUSH2 0x1668 JUMPI JUMP JUMPDEST PUSH1 0x40 MLOAD PUSH3 0x461BCD PUSH1 0xE5 SHL DUP2 MSTORE PUSH1 0x20 PUSH1 0x4 DUP3 ADD MSTORE PUSH1 0x2D PUSH1 0x24 DUP3 ADD MSTORE PUSH32 0x4552433732313A2063616C6C6572206973206E6F7420746F6B656E206F776E65 PUSH1 0x44 DUP3 ADD MSTORE PUSH13 0x1C881BDC88185C1C1C9BDD9959 PUSH1 0x9A SHL PUSH1 0x64 DUP3 ADD MSTORE PUSH1 0x84 SWAP1 REVERT JUMPDEST SWAP1 PUSH2 0x16E7 SWAP4 SWAP3 SWAP2 PUSH2 0x16D7 PUSH2 0x709 DUP5 CALLER PUSH2 0x175E JUMP JUMPDEST PUSH2 0x16E2 DUP4 DUP4 DUP4 PUSH2 0x1830 JUMP JUMPDEST PUSH2 0x1A73 JUMP JUMPDEST ISZERO PUSH2 0x16EE JUMPI JUMP JUMPDEST PUSH1 0x40 MLOAD PUSH3 0x461BCD PUSH1 0xE5 SHL DUP2 MSTORE DUP1 PUSH2 0x1707 PUSH1 0x4 DUP3 ADD PUSH2 0x170B JUMP JUMPDEST SUB SWAP1 REVERT JUMPDEST PUSH1 0x80 SWAP1 PUSH1 0x20 DUP2 MSTORE PUSH1 0x32 PUSH1 0x20 DUP3 ADD MSTORE PUSH32 0x4552433732313A207472616E7366657220746F206E6F6E204552433732315265 PUSH1 0x40 DUP3 ADD MSTORE PUSH18 0x31B2B4BB32B91034B6B83632B6B2B73A32B9 PUSH1 0x71 SHL PUSH1 0x60 DUP3 ADD MSTORE ADD SWAP1 JUMP JUMPDEST PUSH1 0x1 PUSH1 0x1 PUSH1 0xA0 SHL SUB DUP1 PUSH2 0x1770 DUP5 PUSH2 0x158E JUMP JUMPDEST AND SWAP3 DUP2 DUP4 AND SWAP3 DUP5 DUP5 EQ SWAP5 DUP6 ISZERO PUSH2 0x17A6 JUMPI JUMPDEST POP POP DUP4 ISZERO PUSH2 0x1790 JUMPI JUMPDEST POP POP POP SWAP1 JUMP JUMPDEST PUSH2 0x179C SWAP2 SWAP3 SWAP4 POP PUSH2 0x1623 JUMP JUMPDEST AND EQ CODESIZE DUP1 DUP1 PUSH2 0x178A JUMP JUMPDEST PUSH1 0x0 SWAP1 DUP2 MSTORE PUSH1 0x5 PUSH1 0x20 SWAP1 DUP2 MSTORE PUSH1 0x40 DUP1 DUP4 KECCAK256 PUSH1 0x1 PUSH1 0x1 PUSH1 0xA0 SHL SUB SWAP5 SWAP1 SWAP5 AND DUP4 MSTORE SWAP3 SWAP1 MSTORE KECCAK256 SLOAD PUSH1 0xFF AND SWAP4 POP CODESIZE DUP1 PUSH2 0x1781 JUMP JUMPDEST ISZERO PUSH2 0x17DD JUMPI JUMP JUMPDEST PUSH1 0x40 MLOAD PUSH3 0x461BCD PUSH1 0xE5 SHL DUP2 MSTORE PUSH1 0x20 PUSH1 0x4 DUP3 ADD MSTORE PUSH1 0x25 PUSH1 0x24 DUP3 ADD MSTORE PUSH32 0x4552433732313A207472616E736665722066726F6D20696E636F727265637420 PUSH1 0x44 DUP3 ADD MSTORE PUSH5 0x37BBB732B9 PUSH1 0xD9 SHL PUSH1 0x64 DUP3 ADD MSTORE PUSH1 0x84 SWAP1 REVERT JUMPDEST PUSH2 0x1854 SWAP1 PUSH2 0x183D DUP5 PUSH2 0x158E JUMP JUMPDEST PUSH1 0x1 PUSH1 0x1 PUSH1 0xA0 SHL SUB DUP3 DUP2 AND SWAP4 SWAP1 SWAP2 DUP3 AND DUP5 EQ PUSH2 0x17D6 JUMP JUMPDEST DUP4 AND SWAP3 DUP4 ISZERO PUSH2 0x1948 JUMPI PUSH2 0x18C7 PUSH2 0x1921 SWAP3 PUSH2 0x1886 DUP6 PUSH2 0x1880 PUSH2 0x1874 DUP11 PUSH2 0x158E JUMP JUMPDEST PUSH1 0x1 PUSH1 0x1 PUSH1 0xA0 SHL SUB AND SWAP1 JUMP JUMPDEST EQ PUSH2 0x17D6 JUMP JUMPDEST PUSH2 0x18AD PUSH2 0x189D DUP9 PUSH1 0x0 MSTORE PUSH1 0x4 PUSH1 0x20 MSTORE PUSH1 0x40 PUSH1 0x0 KECCAK256 SWAP1 JUMP JUMPDEST DUP1 SLOAD PUSH1 0x1 PUSH1 0x1 PUSH1 0xA0 SHL SUB NOT AND SWAP1 SSTORE JUMP JUMPDEST PUSH1 0x1 PUSH1 0x1 PUSH1 0xA0 SHL SUB AND PUSH1 0x0 SWAP1 DUP2 MSTORE PUSH1 0x3 PUSH1 0x20 MSTORE PUSH1 0x40 SWAP1 KECCAK256 SWAP1 JUMP JUMPDEST DUP1 SLOAD PUSH1 0x0 NOT ADD SWAP1 SSTORE PUSH1 0x1 PUSH1 0x1 PUSH1 0xA0 SHL SUB DUP2 AND PUSH1 0x0 SWAP1 DUP2 MSTORE PUSH1 0x3 PUSH1 0x20 MSTORE PUSH1 0x40 SWAP1 KECCAK256 PUSH1 0x1 DUP2 SLOAD ADD SWAP1 SSTORE PUSH2 0x1902 DUP6 PUSH1 0x0 MSTORE PUSH1 0x2 PUSH1 0x20 MSTORE PUSH1 0x40 PUSH1 0x0 KECCAK256 SWAP1 JUMP JUMPDEST DUP1 SLOAD PUSH1 0x1 PUSH1 0x1 PUSH1 0xA0 SHL SUB NOT AND PUSH1 0x1 PUSH1 0x1 PUSH1 0xA0 SHL SUB SWAP1 SWAP3 AND SWAP2 SWAP1 SWAP2 OR SWAP1 SSTORE JUMP JUMPDEST PUSH32 0xDDF252AD1BE2C89B69C2B068FC378DAA952BA7F163C4A11628F55A4DF523B3EF PUSH1 0x0 DUP1 LOG4 JUMP JUMPDEST PUSH1 0x40 MLOAD PUSH3 0x461BCD PUSH1 0xE5 SHL DUP2 MSTORE PUSH1 0x20 PUSH1 0x4 DUP3 ADD MSTORE PUSH1 0x24 DUP1 DUP3 ADD MSTORE PUSH32 0x4552433732313A207472616E7366657220746F20746865207A65726F20616464 PUSH1 0x44 DUP3 ADD MSTORE PUSH4 0x72657373 PUSH1 0xE0 SHL PUSH1 0x64 DUP3 ADD MSTORE PUSH1 0x84 SWAP1 REVERT JUMPDEST PUSH1 0x0 DUP3 DUP2 MSTORE PUSH1 0x4 PUSH1 0x20 MSTORE PUSH1 0x40 SWAP1 KECCAK256 DUP1 SLOAD PUSH1 0x1 PUSH1 0x1 PUSH1 0xA0 SHL SUB NOT AND PUSH1 0x1 PUSH1 0x1 PUSH1 0xA0 SHL SUB DUP4 AND OR SWAP1 SSTORE PUSH1 0x1 PUSH1 0x1 PUSH1 0xA0 SHL SUB DUP1 PUSH2 0x19D2 DUP5 PUSH2 0x158E JUMP JUMPDEST AND SWAP2 AND SWAP1 PUSH32 0x8C5BE1E5EBEC7D5BD14F71427D1E84F3DD0314C0F7B2291E5B200AC8C7C3B925 PUSH1 0x0 DUP1 LOG4 JUMP JUMPDEST SWAP1 DUP2 PUSH1 0x20 SWAP2 SUB SLT PUSH2 0x1EE JUMPI MLOAD PUSH2 0x2D4 DUP2 PUSH2 0x1DC JUMP JUMPDEST PUSH1 0x1 PUSH1 0x1 PUSH1 0xA0 SHL SUB SWAP2 DUP3 AND DUP2 MSTORE SWAP2 AND PUSH1 0x20 DUP3 ADD MSTORE PUSH1 0x40 DUP2 ADD SWAP2 SWAP1 SWAP2 MSTORE PUSH1 0x80 PUSH1 0x60 DUP3 ADD DUP2 SWAP1 MSTORE PUSH2 0x2D4 SWAP3 SWAP2 ADD SWAP1 PUSH2 0x29E JUMP JUMPDEST RETURNDATASIZE ISZERO PUSH2 0x1A6E JUMPI RETURNDATASIZE SWAP1 PUSH2 0x1A54 DUP3 PUSH2 0xA89 JUMP JUMPDEST SWAP2 PUSH2 0x1A62 PUSH1 0x40 MLOAD SWAP4 DUP5 PUSH2 0xA58 JUMP JUMPDEST DUP3 MSTORE RETURNDATASIZE PUSH1 0x0 PUSH1 0x20 DUP5 ADD RETURNDATACOPY JUMP JUMPDEST PUSH1 0x60 SWAP1 JUMP JUMPDEST SWAP3 SWAP1 SWAP2 SWAP1 DUP3 EXTCODESIZE ISZERO PUSH2 0x1B2D JUMPI PUSH2 0x1AA6 SWAP3 PUSH1 0x20 SWAP3 PUSH1 0x0 PUSH1 0x40 MLOAD DUP1 SWAP7 DUP2 SWAP6 DUP3 SWAP5 PUSH4 0xA85BD01 PUSH1 0xE1 SHL SWAP11 DUP12 DUP6 MSTORE CALLER PUSH1 0x4 DUP7 ADD PUSH2 0x1A12 JUMP JUMPDEST SUB SWAP3 PUSH1 0x1 PUSH1 0x1 PUSH1 0xA0 SHL SUB AND GAS CALL PUSH1 0x0 SWAP2 DUP2 PUSH2 0x1AFD JUMPI JUMPDEST POP PUSH2 0x1AEF JUMPI PUSH2 0x1AC9 PUSH2 0x1A43 JUMP JUMPDEST DUP1 MLOAD SWAP1 DUP2 PUSH2 0x1AEA JUMPI PUSH1 0x40 MLOAD PUSH3 0x461BCD PUSH1 0xE5 SHL DUP2 MSTORE DUP1 PUSH2 0x1707 PUSH1 0x4 DUP3 ADD PUSH2 0x170B JUMP JUMPDEST PUSH1 0x20 ADD REVERT JUMPDEST PUSH1 0x1 PUSH1 0x1 PUSH1 0xE0 SHL SUB NOT AND EQ SWAP1 JUMP JUMPDEST PUSH2 0x1B1F SWAP2 SWAP3 POP PUSH1 0x20 RETURNDATASIZE DUP2 GT PUSH2 0x1B26 JUMPI JUMPDEST PUSH2 0x1B17 DUP2 DUP4 PUSH2 0xA58 JUMP JUMPDEST DUP2 ADD SWAP1 PUSH2 0x19FD JUMP JUMPDEST SWAP1 CODESIZE PUSH2 0x1ABC JUMP JUMPDEST POP RETURNDATASIZE PUSH2 0x1B0D JUMP JUMPDEST POP POP POP POP PUSH1 0x1 SWAP1 JUMP JUMPDEST SWAP4 SWAP2 SWAP3 SWAP1 SWAP3 PUSH2 0x1B43 PUSH2 0x14EA JUMP JUMPDEST PUSH2 0x3E8 DUP2 GT PUSH2 0x1C3F JUMPI PUSH2 0x1BE2 SWAP5 PUSH2 0x1C39 DUP4 PUSH2 0x1B81 PUSH32 0x2B22157A5918029F3D72CCD4AB559F389479007CCAE09360BA84355B7F399CFC SWAP6 MLOAD ISZERO ISZERO PUSH2 0x1C84 JUMP JUMPDEST PUSH2 0x1B8F PUSH1 0x1 PUSH1 0x8 SLOAD ADD PUSH1 0x8 SSTORE JUMP JUMPDEST PUSH1 0x8 SLOAD SWAP8 DUP9 SWAP7 PUSH2 0x1B9F DUP9 DUP7 PUSH2 0x1FD3 JUMP JUMPDEST PUSH2 0x1BA7 PUSH2 0xA7A JUMP JUMPDEST SWAP1 DUP10 DUP3 MSTORE DUP7 PUSH1 0x20 DUP4 ADD MSTORE TIMESTAMP PUSH1 0x40 DUP4 ADD MSTORE DUP4 PUSH1 0x60 DUP4 ADD MSTORE PUSH1 0x80 DUP3 ADD MSTORE PUSH1 0x0 PUSH1 0xA0 DUP3 ADD MSTORE PUSH2 0x1BDD DUP9 PUSH1 0x0 MSTORE PUSH1 0x9 PUSH1 0x20 MSTORE PUSH1 0x40 PUSH1 0x0 KECCAK256 SWAP1 JUMP JUMPDEST PUSH2 0x1DE8 JUMP JUMPDEST PUSH1 0x1 PUSH1 0x1 PUSH1 0xA0 SHL SUB DUP4 AND PUSH1 0x0 SWAP1 DUP2 MSTORE PUSH1 0xB PUSH1 0x20 MSTORE PUSH1 0x40 SWAP1 KECCAK256 PUSH2 0x1C05 SWAP1 DUP8 SWAP1 PUSH2 0x1F24 JUMP JUMPDEST PUSH2 0x1C20 PUSH2 0x7D1 DUP5 PUSH2 0x492 DUP10 PUSH1 0x0 MSTORE PUSH1 0xA PUSH1 0x20 MSTORE PUSH1 0x40 PUSH1 0x0 KECCAK256 SWAP1 JUMP JUMPDEST PUSH1 0x40 MLOAD PUSH1 0x1 PUSH1 0x1 PUSH1 0xA0 SHL SUB SWAP1 SWAP4 AND SWAP7 SWAP3 SWAP4 DUP5 SWAP4 DUP5 PUSH2 0x1F5E JUMP JUMPDEST SUB SWAP1 LOG3 SWAP1 JUMP JUMPDEST PUSH1 0x40 MLOAD PUSH3 0x461BCD PUSH1 0xE5 SHL DUP2 MSTORE PUSH1 0x20 PUSH1 0x4 DUP3 ADD MSTORE PUSH1 0x18 PUSH1 0x24 DUP3 ADD MSTORE PUSH32 0x5365766572697479206D757374206265203C3D20313030300000000000000000 PUSH1 0x44 DUP3 ADD MSTORE PUSH1 0x64 SWAP1 REVERT JUMPDEST ISZERO PUSH2 0x1C8B JUMPI JUMP JUMPDEST PUSH1 0x40 MLOAD PUSH3 0x461BCD PUSH1 0xE5 SHL DUP2 MSTORE PUSH1 0x20 PUSH1 0x4 DUP3 ADD MSTORE PUSH1 0x12 PUSH1 0x24 DUP3 ADD MSTORE PUSH18 0x12541194C81A185CDA081C995C5D5A5C9959 PUSH1 0x72 SHL PUSH1 0x44 DUP3 ADD MSTORE PUSH1 0x64 SWAP1 REVERT JUMPDEST SWAP1 PUSH1 0x1F DUP2 GT PUSH2 0x1CD3 JUMPI POP POP POP JUMP JUMPDEST PUSH1 0x0 SWAP2 DUP3 MSTORE PUSH1 0x20 DUP3 KECCAK256 SWAP1 PUSH1 0x20 PUSH1 0x1F DUP6 ADD PUSH1 0x5 SHR DUP4 ADD SWAP5 LT PUSH2 0x1D0F JUMPI JUMPDEST PUSH1 0x1F ADD PUSH1 0x5 SHR ADD SWAP2 JUMPDEST DUP3 DUP2 LT PUSH2 0x1D04 JUMPI POP POP POP JUMP JUMPDEST DUP2 DUP2 SSTORE PUSH1 0x1 ADD PUSH2 0x1CF8 JUMP JUMPDEST SWAP1 SWAP3 POP DUP3 SWAP1 PUSH2 0x1CEF JUMP JUMPDEST SWAP2 SWAP1 SWAP2 DUP3 MLOAD PUSH8 0xFFFFFFFFFFFFFFFF DUP2 GT PUSH2 0x74D JUMPI PUSH2 0x1D41 DUP2 PUSH2 0x1D3B DUP5 SLOAD PUSH2 0xDFB JUMP JUMPDEST DUP5 PUSH2 0x1CC5 JUMP JUMPDEST PUSH1 0x20 DUP1 PUSH1 0x1F DUP4 GT PUSH1 0x1 EQ PUSH2 0x1D7D JUMPI POP DUP2 SWAP3 SWAP4 SWAP5 PUSH1 0x0 SWAP3 PUSH2 0x1D72 JUMPI JUMPDEST POP POP DUP2 PUSH1 0x1 SHL SWAP2 PUSH1 0x0 NOT SWAP1 PUSH1 0x3 SHL SHR NOT AND OR SWAP1 SSTORE JUMP JUMPDEST ADD MLOAD SWAP1 POP CODESIZE DUP1 PUSH2 0x1D5C JUMP JUMPDEST SWAP1 PUSH1 0x1F NOT DUP4 AND SWAP6 PUSH2 0x1D93 DUP6 PUSH1 0x0 MSTORE PUSH1 0x20 PUSH1 0x0 KECCAK256 SWAP1 JUMP JUMPDEST SWAP3 PUSH1 0x0 SWAP1 JUMPDEST DUP9 DUP3 LT PUSH2 0x1DD0 JUMPI POP POP DUP4 PUSH1 0x1 SWAP6 SWAP7 SWAP8 LT PUSH2 0x1DB7 JUMPI JUMPDEST POP POP POP DUP2 SHL ADD SWAP1 SSTORE JUMP JUMPDEST ADD MLOAD PUSH1 0x0 NOT PUSH1 0xF8 DUP5 PUSH1 0x3 SHL AND SHR NOT AND SWAP1 SSTORE CODESIZE DUP1 DUP1 PUSH2 0x1DAD JUMP JUMPDEST DUP1 PUSH1 0x1 DUP6 SWAP7 DUP3 SWAP5 SWAP7 DUP7 ADD MLOAD DUP2 SSTORE ADD SWAP6 ADD SWAP4 ADD SWAP1 PUSH2 0x1D98 JUMP JUMPDEST SWAP2 SWAP1 SWAP2 DUP3 MLOAD SWAP3 DUP4 MLOAD PUSH8 0xFFFFFFFFFFFFFFFF DUP2 GT PUSH2 0x74D JUMPI PUSH2 0x1E13 DUP2 PUSH2 0x1E0D DUP6 SLOAD PUSH2 0xDFB JUMP JUMPDEST DUP6 PUSH2 0x1CC5 JUMP JUMPDEST PUSH1 0x20 SWAP5 DUP6 SWAP1 PUSH1 0x1F DUP4 GT PUSH1 0x1 EQ PUSH2 0x1EAA JUMPI SWAP3 PUSH2 0xA87 SWAP6 SWAP7 DUP4 PUSH2 0x1E8C SWAP5 PUSH1 0xA0 SWAP5 PUSH1 0x5 SWAP8 PUSH1 0x0 SWAP3 PUSH2 0x1E9F JUMPI JUMPDEST POP POP DUP2 PUSH1 0x1 SHL SWAP2 PUSH1 0x0 NOT SWAP1 PUSH1 0x3 SHL SHR NOT AND OR DUP7 SSTORE JUMPDEST DUP2 ADD MLOAD PUSH1 0x1 DUP7 ADD SSTORE PUSH1 0x40 DUP2 ADD MLOAD PUSH1 0x2 DUP7 ADD SSTORE PUSH2 0x1E74 PUSH1 0x60 DUP3 ADD MLOAD PUSH1 0x3 DUP8 ADD PUSH2 0x1D19 JUMP JUMPDEST PUSH2 0x1E85 PUSH1 0x80 DUP3 ADD MLOAD PUSH1 0x4 DUP8 ADD PUSH2 0x1D19 JUMP JUMPDEST ADD MLOAD ISZERO ISZERO SWAP1 JUMP JUMPDEST SWAP2 ADD SWAP1 PUSH1 0xFF DUP1 NOT DUP4 SLOAD AND SWAP2 ISZERO ISZERO AND OR SWAP1 SSTORE JUMP JUMPDEST ADD MLOAD SWAP1 POP CODESIZE DUP1 PUSH2 0x1E3C JUMP JUMPDEST SWAP1 PUSH1 0x1F NOT DUP4 AND SWAP2 PUSH2 0x1EC0 DUP7 PUSH1 0x0 MSTORE PUSH1 0x20 PUSH1 0x0 KECCAK256 SWAP1 JUMP JUMPDEST SWAP3 PUSH1 0x0 JUMPDEST DUP2 DUP2 LT PUSH2 0x1F0D JUMPI POP DUP5 PUSH1 0xA0 SWAP5 PUSH1 0x5 SWAP8 SWAP5 PUSH2 0xA87 SWAP11 SWAP12 SWAP5 PUSH2 0x1E8C SWAP9 PUSH1 0x1 SWAP6 LT PUSH2 0x1EF4 JUMPI JUMPDEST POP POP POP DUP2 SHL ADD DUP7 SSTORE PUSH2 0x1E51 JUMP JUMPDEST ADD MLOAD PUSH1 0x0 NOT PUSH1 0xF8 DUP5 PUSH1 0x3 SHL AND SHR NOT AND SWAP1 SSTORE CODESIZE DUP1 DUP1 PUSH2 0x1EE7 JUMP JUMPDEST SWAP3 SWAP4 DUP10 PUSH1 0x1 DUP2 SWAP3 DUP8 DUP7 ADD MLOAD DUP2 SSTORE ADD SWAP6 ADD SWAP4 ADD PUSH2 0x1EC4 JUMP JUMPDEST DUP1 SLOAD PUSH9 0x10000000000000000 DUP2 LT ISZERO PUSH2 0x74D JUMPI PUSH2 0x1F46 SWAP2 PUSH1 0x1 DUP3 ADD DUP2 SSTORE PUSH2 0x505 JUMP JUMPDEST DUP2 SWAP3 SWAP2 SLOAD SWAP1 PUSH1 0x3 SHL SWAP2 DUP3 SHL SWAP2 PUSH1 0x0 NOT SWAP1 SHL NOT AND OR SWAP1 SSTORE JUMP JUMPDEST PUSH2 0x1F74 PUSH2 0x2D4 SWAP5 SWAP3 PUSH1 0x60 DUP4 MSTORE PUSH1 0x60 DUP4 ADD SWAP1 PUSH2 0x29E JUMP JUMPDEST SWAP3 PUSH1 0x20 DUP3 ADD MSTORE PUSH1 0x40 DUP2 DUP5 SUB SWAP2 ADD MSTORE PUSH2 0x29E JUMP JUMPDEST ISZERO PUSH2 0x1F8E JUMPI JUMP JUMPDEST PUSH1 0x40 MLOAD PUSH3 0x461BCD PUSH1 0xE5 SHL DUP2 MSTORE PUSH1 0x20 PUSH1 0x4 DUP3 ADD MSTORE PUSH1 0x1C PUSH1 0x24 DUP3 ADD MSTORE PUSH32 0x4552433732313A20746F6B656E20616C7265616479206D696E74656400000000 PUSH1 0x44 DUP3 ADD MSTORE PUSH1 0x64 SWAP1 REVERT JUMPDEST PUSH1 0x1 PUSH1 0x1 PUSH1 0xA0 SHL SUB DUP2 AND SWAP1 DUP2 ISZERO PUSH2 0x208C JUMPI PUSH1 0x0 DUP4 DUP2 MSTORE PUSH1 0x2 PUSH1 0x20 MSTORE PUSH1 0x40 SWAP1 KECCAK256 SLOAD PUSH2 0x2064 SWAP2 SWAP1 PUSH2 0x200E SWAP1 PUSH1 0x1 PUSH1 0x1 PUSH1 0xA0 SHL SUB AND ISZERO ISZERO JUMPDEST ISZERO PUSH2 0x1F87 JUMP JUMPDEST PUSH1 0x0 DUP5 DUP2 MSTORE PUSH1 0x2 PUSH1 0x20 MSTORE PUSH1 0x40 SWAP1 KECCAK256 SLOAD PUSH2 0x2031 SWAP1 PUSH1 0x1 PUSH1 0x1 PUSH1 0xA0 SHL SUB AND ISZERO ISZERO PUSH2 0x2008 JUMP JUMPDEST PUSH1 0x1 PUSH1 0x1 PUSH1 0xA0 SHL SUB DUP2 AND PUSH1 0x0 SWAP1 DUP2 MSTORE PUSH1 0x3 PUSH1 0x20 MSTORE PUSH1 0x40 SWAP1 KECCAK256 PUSH1 0x1 DUP2 SLOAD ADD SWAP1 SSTORE PUSH2 0x1902 DUP5 PUSH1 0x0 MSTORE PUSH1 0x2 PUSH1 0x20 MSTORE PUSH1 0x40 PUSH1 0x0 KECCAK256 SWAP1 JUMP JUMPDEST PUSH1 0x0 PUSH32 0xDDF252AD1BE2C89B69C2B068FC378DAA952BA7F163C4A11628F55A4DF523B3EF DUP2 DUP1 LOG4 JUMP JUMPDEST PUSH1 0x64 PUSH1 0x40 MLOAD PUSH3 0x461BCD PUSH1 0xE5 SHL DUP2 MSTORE PUSH1 0x20 PUSH1 0x4 DUP3 ADD MSTORE PUSH1 0x20 PUSH1 0x24 DUP3 ADD MSTORE PUSH32 0x4552433732313A206D696E7420746F20746865207A65726F2061646472657373 PUSH1 0x44 DUP3 ADD MSTORE REVERT JUMPDEST ISZERO PUSH2 0x20D7 JUMPI JUMP JUMPDEST PUSH1 0x40 MLOAD PUSH3 0x461BCD PUSH1 0xE5 SHL DUP2 MSTORE PUSH1 0x20 PUSH1 0x4 DUP3 ADD MSTORE PUSH1 0xF PUSH1 0x24 DUP3 ADD MSTORE PUSH15 0x2737BA103A37B5B2B71037BBB732B9 PUSH1 0x89 SHL PUSH1 0x44 DUP3 ADD MSTORE PUSH1 0x64 SWAP1 REVERT JUMPDEST PUSH1 0x1 PUSH1 0x1 PUSH1 0xA0 SHL SUB DUP1 PUSH2 0x2120 DUP4 PUSH2 0x158E JUMP JUMPDEST AND SWAP1 DUP4 AND EQ SWAP2 DUP3 ISZERO PUSH2 0x2151 JUMPI JUMPDEST POP DUP2 ISZERO PUSH2 0x2138 JUMPI POP SWAP1 JUMP JUMPDEST SWAP1 POP PUSH1 0x0 MSTORE PUSH1 0x9 PUSH1 0x20 MSTORE PUSH1 0xFF PUSH1 0x5 PUSH1 0x40 PUSH1 0x0 KECCAK256 ADD SLOAD AND SWAP1 JUMP JUMPDEST PUSH1 0x0 DUP3 DUP2 MSTORE PUSH1 0xA PUSH1 0x20 SWAP1 DUP2 MSTORE PUSH1 0x40 DUP1 DUP4 KECCAK256 PUSH1 0x1 PUSH1 0x1 PUSH1 0xA0 SHL SUB SWAP5 SWAP1 SWAP5 AND DUP4 MSTORE SWAP3 SWAP1 MSTORE KECCAK256 SLOAD PUSH1 0xFF AND SWAP2 POP CODESIZE PUSH2 0x212D JUMP JUMPDEST SWAP1 PUSH1 0x40 MLOAD PUSH2 0x218D DUP2 PUSH2 0xA3C JUMP JUMPDEST PUSH1 0xA0 PUSH1 0xFF PUSH1 0x5 DUP4 SWAP6 PUSH2 0x219E DUP2 PUSH2 0xE35 JUMP JUMPDEST DUP6 MSTORE PUSH1 0x1 DUP2 ADD SLOAD PUSH1 0x20 DUP7 ADD MSTORE PUSH1 0x2 DUP2 ADD SLOAD PUSH1 0x40 DUP7 ADD MSTORE PUSH2 0x21C0 PUSH1 0x3 DUP3 ADD PUSH2 0xE35 JUMP JUMPDEST PUSH1 0x60 DUP7 ADD MSTORE PUSH2 0x21D1 PUSH1 0x4 DUP3 ADD PUSH2 0xE35 JUMP JUMPDEST PUSH1 0x80 DUP7 ADD MSTORE ADD SLOAD AND ISZERO ISZERO SWAP2 ADD MSTORE JUMP JUMPDEST PUSH4 0x4E487B71 PUSH1 0xE0 SHL PUSH1 0x0 MSTORE PUSH1 0x11 PUSH1 0x4 MSTORE PUSH1 0x24 PUSH1 0x0 REVERT JUMPDEST PUSH1 0x0 NOT DUP2 EQ PUSH2 0x2205 JUMPI PUSH1 0x1 ADD SWAP1 JUMP JUMPDEST PUSH2 0x21E0 JUMP JUMPDEST ISZERO PUSH2 0x2211 JUMPI JUMP JUMPDEST PUSH1 0x40 MLOAD PUSH3 0x461BCD PUSH1 0xE5 SHL DUP2 MSTORE PUSH1 0x20 PUSH1 0x4 DUP3 ADD MSTORE PUSH1 0x14 PUSH1 0x24 DUP3 ADD MSTORE PUSH20 0x151BDAD95B88191BD95CC81B9BDD08195E1A5CDD PUSH1 0x62 SHL PUSH1 0x44 DUP3 ADD MSTORE PUSH1 0x64 SWAP1 REVERT JUMPDEST SWAP1 PUSH2 0x2260 PUSH1 0x20 SWAP3 DUP3 DUP2 MLOAD SWAP5 DUP6 SWAP3 ADD PUSH2 0x27B JUMP JUMPDEST ADD SWAP1 JUMP JUMPDEST SWAP1 PUSH2 0x226E DUP3 PUSH2 0xA89 JUMP JUMPDEST PUSH2 0x227B PUSH1 0x40 MLOAD SWAP2 DUP3 PUSH2 0xA58 JUMP JUMPDEST DUP3 DUP2 MSTORE DUP1 SWAP3 PUSH2 0x228C PUSH1 0x1F NOT SWAP2 PUSH2 0xA89 JUMP JUMPDEST ADD SWAP1 PUSH1 0x20 CALLDATASIZE SWAP2 ADD CALLDATACOPY JUMP JUMPDEST DUP1 PUSH1 0x0 SWAP2 PUSH27 0x184F03E93FF9F4DAA797ED6E38ED64BF6A1F010000000000000000 DUP1 DUP3 LT ISZERO PUSH2 0x23CB JUMPI JUMPDEST POP PUSH14 0x4EE2D6D415B85ACEF8100000000 DUP1 DUP4 LT ISZERO PUSH2 0x23BC JUMPI JUMPDEST POP PUSH7 0x2386F26FC10000 DUP1 DUP4 LT ISZERO PUSH2 0x23AD JUMPI JUMPDEST POP PUSH4 0x5F5E100 DUP1 DUP4 LT ISZERO PUSH2 0x239E JUMPI JUMPDEST POP PUSH2 0x2710 DUP1 DUP4 LT ISZERO PUSH2 0x238F JUMPI JUMPDEST POP PUSH1 0x64 DUP3 LT ISZERO PUSH2 0x237F JUMPI JUMPDEST PUSH1 0xA DUP1 SWAP3 LT ISZERO PUSH2 0x2375 JUMPI JUMPDEST PUSH1 0x1 SWAP1 DUP2 PUSH1 0x21 PUSH2 0x232D DUP3 DUP8 ADD PUSH2 0x2264 JUMP JUMPDEST SWAP6 DUP7 ADD ADD SWAP1 JUMPDEST PUSH2 0x233F JUMPI JUMPDEST POP POP POP POP SWAP1 JUMP JUMPDEST PUSH1 0x0 NOT ADD SWAP1 DUP4 SWAP1 PUSH16 0x181899199A1A9B1B9C1CB0B131B232B3 PUSH1 0x81 SHL DUP3 DUP3 MOD BYTE DUP4 MSTORE8 DIV SWAP2 DUP3 ISZERO PUSH2 0x2370 JUMPI SWAP2 SWAP1 DUP3 PUSH2 0x2333 JUMP JUMPDEST PUSH2 0x2338 JUMP JUMPDEST SWAP2 PUSH1 0x1 ADD SWAP2 PUSH2 0x231C JUMP JUMPDEST SWAP2 SWAP1 PUSH1 0x64 PUSH1 0x2 SWAP2 DIV SWAP2 ADD SWAP2 PUSH2 0x2311 JUMP JUMPDEST PUSH1 0x4 SWAP2 SWAP4 SWAP3 DIV SWAP2 ADD SWAP2 CODESIZE PUSH2 0x2306 JUMP JUMPDEST PUSH1 0x8 SWAP2 SWAP4 SWAP3 DIV SWAP2 ADD SWAP2 CODESIZE PUSH2 0x22F9 JUMP JUMPDEST PUSH1 0x10 SWAP2 SWAP4 SWAP3 DIV SWAP2 ADD SWAP2 CODESIZE PUSH2 0x22EA JUMP JUMPDEST PUSH1 0x20 SWAP2 SWAP4 SWAP3 DIV SWAP2 ADD SWAP2 CODESIZE PUSH2 0x22D8 JUMP JUMPDEST PUSH1 0x40 SWAP4 POP DUP2 DIV SWAP2 POP CODESIZE PUSH2 0x22BF JUMP JUMPDEST PUSH1 0x40 MLOAD SWAP1 PUSH1 0x60 DUP3 ADD DUP3 DUP2 LT PUSH8 0xFFFFFFFFFFFFFFFF DUP3 GT OR PUSH2 0x74D JUMPI PUSH1 0x40 MSTORE PUSH1 0x40 DUP3 MSTORE PUSH32 0x6768696A6B6C6D6E6F707172737475767778797A303132333435363738392B2F PUSH1 0x40 DUP4 PUSH32 0x4142434445464748494A4B4C4D4E4F505152535455565758595A616263646566 PUSH1 0x20 DUP3 ADD MSTORE ADD MSTORE JUMP JUMPDEST SWAP1 PUSH1 0x2 DUP3 ADD DUP1 SWAP3 GT PUSH2 0x2205 JUMPI JUMP JUMPDEST SWAP1 PUSH1 0x20 DUP3 ADD DUP1 SWAP3 GT PUSH2 0x2205 JUMPI JUMP JUMPDEST PUSH1 0x2 DUP2 SWAP1 SHL SWAP2 SWAP1 PUSH1 0x1 PUSH1 0x1 PUSH1 0xFE SHL SUB DUP2 AND SUB PUSH2 0x2205 JUMPI JUMP JUMPDEST PUSH2 0x2485 PUSH2 0x23D9 JUMP JUMPDEST PUSH2 0x24A1 PUSH2 0x249C PUSH2 0x2495 DUP5 MLOAD PUSH2 0x2449 JUMP JUMPDEST PUSH1 0x3 SWAP1 DIV SWAP1 JUMP JUMPDEST PUSH2 0x2465 JUMP JUMPDEST SWAP2 PUSH2 0x24B3 PUSH2 0x24AE DUP5 PUSH2 0x2457 JUMP JUMPDEST PUSH2 0x2264 JUMP JUMPDEST SWAP3 DUP4 MSTORE DUP1 DUP2 MLOAD DUP3 ADD SWAP1 PUSH1 0x20 DUP6 ADD SWAP4 JUMPDEST DUP3 DUP3 LT PUSH2 0x2502 JUMPI POP POP POP PUSH1 0x3 SWAP1 MLOAD MOD DUP1 PUSH1 0x1 EQ PUSH2 0x24EF JUMPI PUSH1 0x2 EQ PUSH2 0x24E4 JUMPI POP SWAP1 JUMP JUMPDEST PUSH1 0x3D SWAP1 PUSH1 0x0 NOT ADD MSTORE8 SWAP1 JUMP JUMPDEST POP PUSH1 0x3D SWAP1 DUP2 PUSH1 0x0 NOT DUP3 ADD MSTORE8 PUSH1 0x1 NOT ADD MSTORE8 SWAP1 JUMP JUMPDEST SWAP1 SWAP2 SWAP4 PUSH1 0x4 SWAP1 PUSH1 0x3 DUP1 SWAP5 ADD SWAP4 DUP5 MLOAD PUSH1 0x1 SWAP1 PUSH1 0x3F SWAP1 DUP3 DUP3 DUP3 PUSH1 0x12 SHR AND DUP9 ADD ADD MLOAD DUP6 MSTORE8 DUP3 DUP3 DUP3 PUSH1 0xC SHR AND DUP9 ADD ADD MLOAD DUP4 DUP7 ADD MSTORE8 DUP3 DUP3 DUP3 PUSH1 0x6 SHR AND DUP9 ADD ADD MLOAD PUSH1 0x2 DUP7 ADD MSTORE8 AND DUP6 ADD ADD MLOAD SWAP1 DUP3 ADD MSTORE8 ADD SWAP4 SWAP2 SWAP1 PUSH2 0x24C2 JUMP INVALID LOG2 PUSH5 0x6970667358 0x22 SLT KECCAK256 0xC5 0x22 PUSH16 0x85E2E80D0959CC8E9ED32317E10BB5A4 KECCAK256 GASLIMIT 0xF9 SWAP12 SWAP12 0xE5 0xDC 0x26 SWAP10 XOR 0xEA LT PUSH26 0x64736F6C63430008140033000000000000000000000000000000 "},"methodIdentifiers":{"accessPermissions(uint256,address)":"7847dc13","approve(address,uint256)":"095ea7b3","balanceOf(address)":"70a08231","getApproved(uint256)":"081812fc","getMedicalData(uint256)":"19a2c6d4","getPatientTokens(address)":"8681f447","getStats()":"c59d4847","grantAccess(uint256,address)":"65dd152c","hasAccess(uint256,address)":"ced14198","isApprovedForAll(address,address)":"e985e9c5","makePrivate(uint256)":"6c0490ee","makePublic(uint256)":"70f4616d","mintDiagnosis(address,string,uint256,string,string)":"81a1162a","name()":"06fdde03","owner()":"8da5cb5b","ownerOf(uint256)":"6352211e","patientTokens(address,uint256)":"12d533d7","renounceOwnership()":"715018a6","revokeAccess(uint256,address)":"d9a5ec1b","safeTransferFrom(address,address,uint256)":"42842e0e","safeTransferFrom(address,address,uint256,bytes)":"b88d4fde","setApprovalForAll(address,bool)":"a22cb465","supportsInterface(bytes4)":"01ffc9a7","symbol()":"95d89b41","tokenData(uint256)":"b4b5b48f","tokenURI(uint256)":"c87b56dd","transferFrom(address,address,uint256)":"23b872dd","transferOwnership(address)":"f2fde38b"}}}}}