{"contracts/OrthoConsent.sol":{"OrthoConsent":{"abi":[{"inputs":[],"stateMutability":"nonpayable","type":"constructor"},{"anonymous":false,"inputs":[{"indexed":true,"internalType":"bytes32","name":"consentId","type":"bytes32"},{"indexed":true,"internalType":"address","name":"patient","type":"address"},{"indexed":true,"internalType":"address","name":"recipient","type":"address"},{"indexed":false,"internalType":"uint256","name":"tokenId","type":"uint256"},{"indexed":false,"internalType":"enum OrthoConsent.Purpose","name":"purpose","type":"uint8"},{"indexed":false,"internalType":"uint256","name":"expirationTime","type":"uint256"}],"name":"ConsentGranted","type":"event"},{"anonymous":false,"inputs":[{"indexed":true,"internalType":"bytes32","name":"consentId","type":"bytes32"},{"indexed":true,"internalType":"address","name":"patient","type":"address"},{"indexed":true,"internalType":"address","name":"recipient","type":"address"},{"indexed":false,"internalType":"string","name":"reason","type":"string"}],"name":"ConsentRevoked","type":"event"},{"anonymous":false,"inputs":[{"indexed":true,"internalType":"address","name":"previousOwner","type":"address"},{"indexed":true,"internalType":"address","name":"newOwner","type":"address"}],"name":"OwnershipTransferred","type":"event"},{"inputs":[{"internalType":"address","name":"_patient","type":"address"},{"internalType":"address","name":"_recipient","type":"address"},{"internalType":"uint256","name":"_tokenId","type":"uint256"},{"internalType":"enum OrthoConsent.Purpose","name":"_purpose","type":"uint8"}],"name":"checkConsent","outputs":[{"internalType":"bool","name":"","type":"bool"}],"stateMutability":"view","type":"function"},{"inputs":[{"internalType":"bytes32","name":"","type":"bytes32"}],"name":"consents","outputs":[{"internalType":"uint256","name":"tokenId","type":"uint256"},{"internalType":"address","name":"patient","type":"address"},{"internalType":"address","name":"recipient","type":"address"},{"internalType":"enum OrthoConsent.Purpose","name":"purpose","type":"uint8"},{"internalType":"uint256","name":"startTime","type":"uint256"},{"internalType":"uint256","name":"expirationTime","type":"uint256"},{"internalType":"bool","name":"isValid","type":"bool"},{"internalType":"string","name":"termsHash","type":"string"}],"stateMutability":"view","type":"function"},{"inputs":[{"internalType":"bytes32","name":"_consentId","type":"bytes32"}],"name":"getConsentDetails","outputs":[{"components":[{"internalType":"uint256","name":"tokenId","type":"uint256"},{"internalType":"address","name":"patient","type":"address"},{"internalType":"address","name":"recipient","type":"address"},{"internalType":"enum OrthoConsent.Purpose","name":"purpose","type":"uint8"},{"internalType":"uint256","name":"startTime","type":"uint256"},{"internalType":"uint256","name":"expirationTime","type":"uint256"},{"internalType":"bool","name":"isValid","type":"bool"},{"internalType":"string","name":"termsHash","type":"string"}],"internalType":"struct OrthoConsent.Consent","name":"","type":"tuple"}],"stateMutability":"view","type":"function"},{"inputs":[{"internalType":"address","name":"_patient","type":"address"}],"name":"getPatientConsents","outputs":[{"internalType":"bytes32[]","name":"","type":"bytes32[]"}],"stateMutability":"view","type":"function"},{"inputs":[{"internalType":"uint256","name":"_tokenId","type":"uint256"},{"internalType":"address","name":"_recipient","type":"address"},{"internalType":"enum OrthoConsent.Purpose","name":"_purpose","type":"uint8"},{"internalType":"uint256","name":"_durationSeconds","type":"uint256"},{"internalType":"string","name":"_termsHash","type":"string"}],"name":"grantConsent","outputs":[{"internalType":"bytes32","name":"","type":"bytes32"}],"stateMutability":"nonpayable","type":"function"},{"inputs":[],"name":"owner","outputs":[{"internalType":"address","name":"","type":"address"}],"stateMutability":"view","type":"function"},{"inputs":[],"name":"renounceOwnership","outputs":[],"stateMutability":"nonpayable","type":"function"},{"inputs":[{"internalType":"bytes32","name":"_consentId","type":"bytes32"},{"internalType":"string","name":"_reason","type":"string"}],"name":"revokeConsent","outputs":[],"stateMutability":"nonpayable","type":"function"},{"inputs":[{"internalType":"address","name":"newOwner","type":"address"}],"name":"transferOwnership","outputs":[],"stateMutability":"nonpayable","type":"function"},{"inputs":[{"internalType":"address","name":"","type":"address"},{"internalType":"uint256","name":"","type":"uint256"}],"name":"userConsents","outputs":[{"internalType":"bytes32","name":"","type":"bytes32"}],"stateMutability":"view","type":"function"}],"evm":{"bytecode":{"linkReferences":{},"object":"6080806040523461005b5760008054336001600160a01b0319821681178355916001600160a01b03909116907f8be0079c531659141344cd1fd0a4f28419497f9722a3daafe3b4186f6b6457e09080a3610f4090816100618239f35b600080fdfe60c0604081815260048036101561001557600080fd5b600092833560e01c90816318737dd314610923575080632492438514610876578063380b413f1461073b5780633e3ace6d146106e5578063715018a61461068b5780638da5cb5b14610663578063aebe61b71461024d578063b3d8ccbd146101a8578063c5acf90b146101565763f2fde38b1461009157600080fd5b34610152576020366003190112610152576100aa610ab8565b906100b3610ca3565b6001600160a01b0391821692831561010057505082546001600160a01b0319811683178455167f8be0079c531659141344cd1fd0a4f28419497f9722a3daafe3b4186f6b6457e08380a380f35b906020608492519162461bcd60e51b8352820152602660248201527f4f776e61626c653a206e6577206f776e657220697320746865207a65726f206160448201526564647265737360d01b6064820152fd5b8280fd5b5050346101a45760803660031901126101a457610171610ab8565b610179610ad3565b6064359360058510156101a15750926101989160209460443591610d07565b90519015158152f35b80fd5b5080fd5b5091346101a15760203660031901126101a1578161024991843581526001602052209182549260018060a01b03918260018301541695610227600284015460038501549285015493610204600660ff6005890154169701610bfd565b9681519a8b9a8b5260208b015282169089015260ff606089019160a01c16610a55565b608086015260a0850152151560c08401526101008060e0850152830190610a78565b0390f35b5090346101525760a036600319011261015257610268610ad3565b916005604435101561065f576064356084359367ffffffffffffffff9485811161065b576102999036908501610b3e565b6001600160a01b039290828416156106245733848416146105ea578791806105c4575b5085519060208201973360601b89526bffffffffffffffffffffffff198560601b1660348401528635604884015260443560f81b60688401524260698401526069835260a0830198838a10828b111761059b57898952835190209861032081610ae9565b87358152898b8a60c0870133815260e08801908b8b16825261010089019061034a60443583610cfb565b6101208a01934285526101408b01958c87526101608c019761018060019d8e8b52019b8c5281528b60205220965187558c8a88019151166bffffffffffffffffffffffff60a01b8254161790558b600287019251168254915160058110156105ae576001600160a81b03199092161760a09190911b60ff60a01b1617905551600384015551898301555160058201805491151560ff1660ff1992909216919091179055915180516006939093019291821161059b57819061040b8454610bc3565b601f8111610549575b50602090601f83116001146104e9578c926104de575b5050600019600383901b1c191690831b1790555b338852600260205285882090815498680100000000000000008a10156104cb57508801815560209761046f91610b95565b81549060031b9088821b91600019901b1916179055845193358452610498878501604435610a55565b848401521690837fca2b5991665366e635b787eed9ac9a20484c91f6b3764742d0fd80b11d1dd0ce60603393a451908152f35b634e487b7160e01b815260418752602490fd5b01519050388061042a565b848d5260208d208694509190601f1984168e5b81811061053157508411610518575b505050811b01905561043e565b015160001960f88460031b161c1916905538808061050b565b828401518555889690940193602093840193016104fc565b909150838c5260208c20601f840160051c81019160208510610591575b84939291601f88920160051c01915b828110610583575050610414565b8e8155859450879101610575565b9091508190610566565b634e487b7160e01b8b526041885260248bfd5b50505060248f60218e634e487b7160e01b835252fd5b90915042018042116105d75790386102bc565b634e487b7160e01b885260118552602488fd5b855162461bcd60e51b8152602081870152601460248201527321b0b73737ba1033b930b73a103a379039b2b63360611b6044820152606490fd5b855162461bcd60e51b81526020818701526011602482015270125b9d985b1a59081c9958da5c1a595b9d607a1b6044820152606490fd5b8680fd5b8380fd5b5050346101a457816003193601126101a457905490516001600160a01b039091168152602090f35b83346101a157806003193601126101a1576106a4610ca3565b80546001600160a01b03198116825581906001600160a01b03167f8be0079c531659141344cd1fd0a4f28419497f9722a3daafe3b4186f6b6457e08280a380f35b5050346101a457806003193601126101a4576106ff610ab8565b6001600160a01b031682526002602052808220805460243593908410156101a1575060209261072d91610b95565b91905490519160031b1c8152f35b5034610152578160031936011261015257803560243567ffffffffffffffff81116108725761076d9036908401610b3e565b818552600160208190528486209081015491936001600160a01b03928316330361083d57600582019081549060ff8216156107ef5750916002917fc73fa31cadbbb7e7e5bd491631159139530eb37d6f32565203f7854d35ce30fd949360ff19169055015416935160208152806107e933956020830190610a78565b0390a480f35b608490602089519162461bcd60e51b8352820152602260248201527f436f6e73656e7420616c7265616479207265766f6b6564206f7220696e76616c6044820152611a5960f21b6064820152fd5b606490602087519162461bcd60e51b8352820152600f60248201526e139bdd081d1a19481c185d1a595b9d608a1b6044820152fd5b8480fd5b8284346101a157602090816003193601126101a15782906001600160a01b0361089d610ab8565b16815260028352818120908251808584549182815201908194845286842090845b81811061090f57505050816108d4910382610b1c565b83519485948186019282875251809352850193925b8281106108f857505050500390f35b8351855286955093810193928101926001016108e9565b8254845292880192600192830192016108be565b828486346101a157602093846003193601126101a457918091606060e08561094d61024997610ae9565b8381528389820152838582015283838201528360808201528360a08201528360c0820152015284358152600186522092815193849161098b83610ae9565b81548352610a2e60018060a01b039485600185015416958986019687526002850154918087019082841682526109cb60ff60608a019560a01c1685610cfb565b82610a00600660038a01549860808c01998a528a01549960a08c019a8b5260c060ff6005830154169c019b15158c5201610bfd565b9960e08d019a8b5282518e819f9e829f8352519101525116908b015251166060890152516080880190610a55565b5160a08601525160c085015251151560e08401525161010080840152610120830190610a78565b906005821015610a625752565b634e487b7160e01b600052602160045260246000fd5b919082519283825260005b848110610aa4575050826000602080949584010152601f8019910116010190565b602081830181015184830182015201610a83565b600435906001600160a01b0382168203610ace57565b600080fd5b602435906001600160a01b0382168203610ace57565b610100810190811067ffffffffffffffff821117610b0657604052565b634e487b7160e01b600052604160045260246000fd5b90601f8019910116810190811067ffffffffffffffff821117610b0657604052565b81601f82011215610ace5780359067ffffffffffffffff8211610b065760405192610b73601f8401601f191660200185610b1c565b82845260208383010111610ace57816000926020809301838601378301015290565b8054821015610bad5760005260206000200190600090565b634e487b7160e01b600052603260045260246000fd5b90600182811c92168015610bf3575b6020831014610bdd57565b634e487b7160e01b600052602260045260246000fd5b91607f1691610bd2565b9060405191826000825492610c1184610bc3565b908184526001948581169081600014610c805750600114610c3d575b5050610c3b92500383610b1c565b565b9093915060005260209081600020936000915b818310610c68575050610c3b93508201013880610c2d565b85548884018501529485019487945091830191610c50565b915050610c3b94506020925060ff191682840152151560051b8201013880610c2d565b6000546001600160a01b03163303610cb757565b606460405162461bcd60e51b815260206004820152602060248201527f4f776e61626c653a2063616c6c6572206973206e6f7420746865206f776e65726044820152fd5b6005821015610a625752565b939290919360018060a01b03608052600060a0526080511660a051526020600281526040918260a05120835180828582945493848152019060a051528560a051209260a0515b87828210610ef457505050610d6492500382610b1c565b60a0515b8151811015610ee75760058482821b8401015160a051526001908186528660a0512090875190610d9782610ae9565b8254825260805184840154168883015260028301549289830192608051851684528d606082019160ff93610dd18560a0998a1c1685610cfb565b60038101546080830152610e026006600496878401549a85019a8b5288840154169260c08501931515845201610bfd565b60e08301525115159586610ed4575b5085610ec9575b505083610e7d575b505050610e53575b50506000198114610e3b57600101610d68565b634e487b7160e01b60a051526011600452602460a051fd5b518015908115610e73575b50610e695780610e28565b9750505050505050565b9050421038610e5e565b5192509080831015610eb257871015610e9b57508514388080610e20565b602190634e487b7160e01b60a0515252602460a051fd5b602182634e487b7160e01b60a0515252602460a051fd5b511493508d38610e18565b60805190518f8216911614955038610e11565b505060a051955050505050565b8554845260019586019587955093019201610d4d56fea2646970667358221220e70709681997543483360ef37c70b02fd136e9f13c461e1f7a8e2d23a352801364736f6c63430008140033","opcodes":"PUSH1 0x80 DUP1 PUSH1 0x40 MSTORE CALLVALUE PUSH2 0x5B JUMPI PUSH1 0x0 DUP1 SLOAD CALLER PUSH1 0x1 PUSH1 0x1 PUSH1 0xA0 SHL SUB NOT DUP3 AND DUP2 OR DUP4 SSTORE SWAP2 PUSH1 0x1 PUSH1 0x1 PUSH1 0xA0 SHL SUB SWAP1 SWAP2 AND SWAP1 PUSH32 0x8BE0079C531659141344CD1FD0A4F28419497F9722A3DAAFE3B4186F6B6457E0 SWAP1 DUP1 LOG3 PUSH2 0xF40 SWAP1 DUP2 PUSH2 0x61 DUP3 CODECOPY RETURN JUMPDEST PUSH1 0x0 DUP1 REVERT INVALID PUSH1 0xC0 PUSH1 0x40 DUP2 DUP2 MSTORE PUSH1 0x4 DUP1 CALLDATASIZE LT ISZERO PUSH2 0x15 JUMPI PUSH1 0x0 DUP1 REVERT JUMPDEST PUSH1 0x0 SWAP3 DUP4 CALLDATALOAD PUSH1 0xE0 SHR SWAP1 DUP2 PUSH4 0x18737DD3 EQ PUSH2 0x923 JUMPI POP DUP1 PUSH4 0x24924385 EQ PUSH2 0x876 JUMPI DUP1 PUSH4 0x380B413F EQ PUSH2 0x73B JUMPI DUP1 PUSH4 0x3E3ACE6D EQ PUSH2 0x6E5 JUMPI DUP1 PUSH4 0x715018A6 EQ PUSH2 0x68B JUMPI DUP1 PUSH4 0x8DA5CB5B EQ PUSH2 0x663 JUMPI DUP1 PUSH4 0xAEBE61B7 EQ PUSH2 0x24D JUMPI DUP1 PUSH4 0xB3D8CCBD EQ PUSH2 0x1A8 JUMPI DUP1 PUSH4 0xC5ACF90B EQ PUSH2 0x156 JUMPI PUSH4 0xF2FDE38B EQ PUSH2 0x91 JUMPI PUSH1 0x0 DUP1 REVERT JUMPDEST CALLVALUE PUSH2 0x152 JUMPI PUSH1 0x20 CALLDATASIZE PUSH1 0x3 NOT ADD SLT PUSH2 0x152 JUMPI PUSH2 0xAA PUSH2 0xAB8 JUMP JUMPDEST SWAP1 PUSH2 0xB3 PUSH2 0xCA3 JUMP JUMPDEST PUSH1 0x1 PUSH1 0x1 PUSH1 0xA0 SHL SUB SWAP2 DUP3 AND SWAP3 DUP4 ISZERO PUSH2 0x100 JUMPI POP POP DUP3 SLOAD PUSH1 0x1 PUSH1 0x1 PUSH1 0xA0 SHL SUB NOT DUP2 AND DUP4 OR DUP5 SSTORE AND PUSH32 0x8BE0079C531659141344CD1FD0A4F28419497F9722A3DAAFE3B4186F6B6457E0 DUP4 DUP1 LOG3 DUP1 RETURN JUMPDEST SWAP1 PUSH1 0x20 PUSH1 0x84 SWAP3 MLOAD SWAP2 PUSH3 0x461BCD PUSH1 0xE5 SHL DUP4 MSTORE DUP3 ADD MSTORE PUSH1 0x26 PUSH1 0x24 DUP3 ADD MSTORE PUSH32 0x4F776E61626C653A206E6577206F776E657220697320746865207A65726F2061 PUSH1 0x44 DUP3 ADD MSTORE PUSH6 0x646472657373 PUSH1 0xD0 SHL PUSH1 0x64 DUP3 ADD MSTORE REVERT JUMPDEST DUP3 DUP1 REVERT JUMPDEST POP POP CALLVALUE PUSH2 0x1A4 JUMPI PUSH1 0x80 CALLDATASIZE PUSH1 0x3 NOT ADD SLT PUSH2 0x1A4 JUMPI PUSH2 0x171 PUSH2 0xAB8 JUMP JUMPDEST PUSH2 0x179 PUSH2 0xAD3 JUMP JUMPDEST PUSH1 0x64 CALLDATALOAD SWAP4 PUSH1 0x5 DUP6 LT ISZERO PUSH2 0x1A1 JUMPI POP SWAP3 PUSH2 0x198 SWAP2 PUSH1 0x20 SWAP5 PUSH1 0x44 CALLDATALOAD SWAP2 PUSH2 0xD07 JUMP JUMPDEST SWAP1 MLOAD SWAP1 ISZERO ISZERO DUP2 MSTORE RETURN JUMPDEST DUP1 REVERT JUMPDEST POP DUP1 REVERT JUMPDEST POP SWAP2 CALLVALUE PUSH2 0x1A1 JUMPI PUSH1 0x20 CALLDATASIZE PUSH1 0x3 NOT ADD SLT PUSH2 0x1A1 JUMPI DUP2 PUSH2 0x249 SWAP2 DUP5 CALLDATALOAD DUP2 MSTORE PUSH1 0x1 PUSH1 0x20 MSTORE KECCAK256 SWAP2 DUP3 SLOAD SWAP3 PUSH1 0x1 DUP1 PUSH1 0xA0 SHL SUB SWAP2 DUP3 PUSH1 0x1 DUP4 ADD SLOAD AND SWAP6 PUSH2 0x227 PUSH1 0x2 DUP5 ADD SLOAD PUSH1 0x3 DUP6 ADD SLOAD SWAP3 DUP6 ADD SLOAD SWAP4 PUSH2 0x204 PUSH1 0x6 PUSH1 0xFF PUSH1 0x5 DUP10 ADD SLOAD AND SWAP8 ADD PUSH2 0xBFD JUMP JUMPDEST SWAP7 DUP2 MLOAD SWAP11 DUP12 SWAP11 DUP12 MSTORE PUSH1 0x20 DUP12 ADD MSTORE DUP3 AND SWAP1 DUP10 ADD MSTORE PUSH1 0xFF PUSH1 0x60 DUP10 ADD SWAP2 PUSH1 0xA0 SHR AND PUSH2 0xA55 JUMP JUMPDEST PUSH1 0x80 DUP7 ADD MSTORE PUSH1 0xA0 DUP6 ADD MSTORE ISZERO ISZERO PUSH1 0xC0 DUP5 ADD MSTORE PUSH2 0x100 DUP1 PUSH1 0xE0 DUP6 ADD MSTORE DUP4 ADD SWAP1 PUSH2 0xA78 JUMP JUMPDEST SUB SWAP1 RETURN JUMPDEST POP SWAP1 CALLVALUE PUSH2 0x152 JUMPI PUSH1 0xA0 CALLDATASIZE PUSH1 0x3 NOT ADD SLT PUSH2 0x152 JUMPI PUSH2 0x268 PUSH2 0xAD3 JUMP JUMPDEST SWAP2 PUSH1 0x5 PUSH1 0x44 CALLDATALOAD LT ISZERO PUSH2 0x65F JUMPI PUSH1 0x64 CALLDATALOAD PUSH1 0x84 CALLDATALOAD SWAP4 PUSH8 0xFFFFFFFFFFFFFFFF SWAP5 DUP6 DUP2 GT PUSH2 0x65B JUMPI PUSH2 0x299 SWAP1 CALLDATASIZE SWAP1 DUP6 ADD PUSH2 0xB3E JUMP JUMPDEST PUSH1 0x1 PUSH1 0x1 PUSH1 0xA0 SHL SUB SWAP3 SWAP1 DUP3 DUP5 AND ISZERO PUSH2 0x624 JUMPI CALLER DUP5 DUP5 AND EQ PUSH2 0x5EA JUMPI DUP8 SWAP2 DUP1 PUSH2 0x5C4 JUMPI JUMPDEST POP DUP6 MLOAD SWAP1 PUSH1 0x20 DUP3 ADD SWAP8 CALLER PUSH1 0x60 SHL DUP10 MSTORE PUSH12 0xFFFFFFFFFFFFFFFFFFFFFFFF NOT DUP6 PUSH1 0x60 SHL AND PUSH1 0x34 DUP5 ADD MSTORE DUP7 CALLDATALOAD PUSH1 0x48 DUP5 ADD MSTORE PUSH1 0x44 CALLDATALOAD PUSH1 0xF8 SHL PUSH1 0x68 DUP5 ADD MSTORE TIMESTAMP PUSH1 0x69 DUP5 ADD MSTORE PUSH1 0x69 DUP4 MSTORE PUSH1 0xA0 DUP4 ADD SWAP9 DUP4 DUP11 LT DUP3 DUP12 GT OR PUSH2 0x59B JUMPI DUP10 DUP10 MSTORE DUP4 MLOAD SWAP1 KECCAK256 SWAP9 PUSH2 0x320 DUP2 PUSH2 0xAE9 JUMP JUMPDEST DUP8 CALLDATALOAD DUP2 MSTORE DUP10 DUP12 DUP11 PUSH1 0xC0 DUP8 ADD CALLER DUP2 MSTORE PUSH1 0xE0 DUP9 ADD SWAP1 DUP12 DUP12 AND DUP3 MSTORE PUSH2 0x100 DUP10 ADD SWAP1 PUSH2 0x34A PUSH1 0x44 CALLDATALOAD DUP4 PUSH2 0xCFB JUMP JUMPDEST PUSH2 0x120 DUP11 ADD SWAP4 TIMESTAMP DUP6 MSTORE PUSH2 0x140 DUP12 ADD SWAP6 DUP13 DUP8 MSTORE PUSH2 0x160 DUP13 ADD SWAP8 PUSH2 0x180 PUSH1 0x1 SWAP14 DUP15 DUP12 MSTORE ADD SWAP12 DUP13 MSTORE DUP2 MSTORE DUP12 PUSH1 0x20 MSTORE KECCAK256 SWAP7 MLOAD DUP8 SSTORE DUP13 DUP11 DUP9 ADD SWAP2 MLOAD AND PUSH12 0xFFFFFFFFFFFFFFFFFFFFFFFF PUSH1 0xA0 SHL DUP3 SLOAD AND OR SWAP1 SSTORE DUP12 PUSH1 0x2 DUP8 ADD SWAP3 MLOAD AND DUP3 SLOAD SWAP2 MLOAD PUSH1 0x5 DUP2 LT ISZERO PUSH2 0x5AE JUMPI PUSH1 0x1 PUSH1 0x1 PUSH1 0xA8 SHL SUB NOT SWAP1 SWAP3 AND OR PUSH1 0xA0 SWAP2 SWAP1 SWAP2 SHL PUSH1 0xFF PUSH1 0xA0 SHL AND OR SWAP1 SSTORE MLOAD PUSH1 0x3 DUP5 ADD SSTORE MLOAD DUP10 DUP4 ADD SSTORE MLOAD PUSH1 0x5 DUP3 ADD DUP1 SLOAD SWAP2 ISZERO ISZERO PUSH1 0xFF AND PUSH1 0xFF NOT SWAP3 SWAP1 SWAP3 AND SWAP2 SWAP1 SWAP2 OR SWAP1 SSTORE SWAP2 MLOAD DUP1 MLOAD PUSH1 0x6 SWAP4 SWAP1 SWAP4 ADD SWAP3 SWAP2 DUP3 GT PUSH2 0x59B JUMPI DUP2 SWAP1 PUSH2 0x40B DUP5 SLOAD PUSH2 0xBC3 JUMP JUMPDEST PUSH1 0x1F DUP2 GT PUSH2 0x549 JUMPI JUMPDEST POP PUSH1 0x20 SWAP1 PUSH1 0x1F DUP4 GT PUSH1 0x1 EQ PUSH2 0x4E9 JUMPI DUP13 SWAP3 PUSH2 0x4DE JUMPI JUMPDEST POP POP PUSH1 0x0 NOT PUSH1 0x3 DUP4 SWAP1 SHL SHR NOT AND SWAP1 DUP4 SHL OR SWAP1 SSTORE JUMPDEST CALLER DUP9 MSTORE PUSH1 0x2 PUSH1 0x20 MSTORE DUP6 DUP9 KECCAK256 SWAP1 DUP2 SLOAD SWAP9 PUSH9 0x10000000000000000 DUP11 LT ISZERO PUSH2 0x4CB JUMPI POP DUP9 ADD DUP2 SSTORE PUSH1 0x20 SWAP8 PUSH2 0x46F SWAP2 PUSH2 0xB95 JUMP JUMPDEST DUP2 SLOAD SWAP1 PUSH1 0x3 SHL SWAP1 DUP9 DUP3 SHL SWAP2 PUSH1 0x0 NOT SWAP1 SHL NOT AND OR SWAP1 SSTORE DUP5 MLOAD SWAP4 CALLDATALOAD DUP5 MSTORE PUSH2 0x498 DUP8 DUP6 ADD PUSH1 0x44 CALLDATALOAD PUSH2 0xA55 JUMP JUMPDEST DUP5 DUP5 ADD MSTORE AND SWAP1 DUP4 PUSH32 0xCA2B5991665366E635B787EED9AC9A20484C91F6B3764742D0FD80B11D1DD0CE PUSH1 0x60 CALLER SWAP4 LOG4 MLOAD SWAP1 DUP2 MSTORE RETURN JUMPDEST PUSH4 0x4E487B71 PUSH1 0xE0 SHL DUP2 MSTORE PUSH1 0x41 DUP8 MSTORE PUSH1 0x24 SWAP1 REVERT JUMPDEST ADD MLOAD SWAP1 POP CODESIZE DUP1 PUSH2 0x42A JUMP JUMPDEST DUP5 DUP14 MSTORE PUSH1 0x20 DUP14 KECCAK256 DUP7 SWAP5 POP SWAP2 SWAP1 PUSH1 0x1F NOT DUP5 AND DUP15 JUMPDEST DUP2 DUP2 LT PUSH2 0x531 JUMPI POP DUP5 GT PUSH2 0x518 JUMPI JUMPDEST POP POP POP DUP2 SHL ADD SWAP1 SSTORE PUSH2 0x43E JUMP JUMPDEST ADD MLOAD PUSH1 0x0 NOT PUSH1 0xF8 DUP5 PUSH1 0x3 SHL AND SHR NOT AND SWAP1 SSTORE CODESIZE DUP1 DUP1 PUSH2 0x50B JUMP JUMPDEST DUP3 DUP5 ADD MLOAD DUP6 SSTORE DUP9 SWAP7 SWAP1 SWAP5 ADD SWAP4 PUSH1 0x20 SWAP4 DUP5 ADD SWAP4 ADD PUSH2 0x4FC JUMP JUMPDEST SWAP1 SWAP2 POP DUP4 DUP13 MSTORE PUSH1 0x20 DUP13 KECCAK256 PUSH1 0x1F DUP5 ADD PUSH1 0x5 SHR DUP2 ADD SWAP2 PUSH1 0x20 DUP6 LT PUSH2 0x591 JUMPI JUMPDEST DUP5 SWAP4 SWAP3 SWAP2 PUSH1 0x1F DUP9 SWAP3 ADD PUSH1 0x5 SHR ADD SWAP2 JUMPDEST DUP3 DUP2 LT PUSH2 0x583 JUMPI POP POP PUSH2 0x414 JUMP JUMPDEST DUP15 DUP2 SSTORE DUP6 SWAP5 POP DUP8 SWAP2 ADD PUSH2 0x575 JUMP JUMPDEST SWAP1 SWAP2 POP DUP2 SWAP1 PUSH2 0x566 JUMP JUMPDEST PUSH4 0x4E487B71 PUSH1 0xE0 SHL DUP12 MSTORE PUSH1 0x41 DUP9 MSTORE PUSH1 0x24 DUP12 REVERT JUMPDEST POP POP POP PUSH1 0x24 DUP16 PUSH1 0x21 DUP15 PUSH4 0x4E487B71 PUSH1 0xE0 SHL DUP4 MSTORE MSTORE REVERT JUMPDEST SWAP1 SWAP2 POP TIMESTAMP ADD DUP1 TIMESTAMP GT PUSH2 0x5D7 JUMPI SWAP1 CODESIZE PUSH2 0x2BC JUMP JUMPDEST PUSH4 0x4E487B71 PUSH1 0xE0 SHL DUP9 MSTORE PUSH1 0x11 DUP6 MSTORE PUSH1 0x24 DUP9 REVERT JUMPDEST DUP6 MLOAD PUSH3 0x461BCD PUSH1 0xE5 SHL DUP2 MSTORE PUSH1 0x20 DUP2 DUP8 ADD MSTORE PUSH1 0x14 PUSH1 0x24 DUP3 ADD MSTORE PUSH20 0x21B0B73737BA1033B930B73A103A379039B2B633 PUSH1 0x61 SHL PUSH1 0x44 DUP3 ADD MSTORE PUSH1 0x64 SWAP1 REVERT JUMPDEST DUP6 MLOAD PUSH3 0x461BCD PUSH1 0xE5 SHL DUP2 MSTORE PUSH1 0x20 DUP2 DUP8 ADD MSTORE PUSH1 0x11 PUSH1 0x24 DUP3 ADD MSTORE PUSH17 0x125B9D985B1A59081C9958DA5C1A595B9D PUSH1 0x7A SHL PUSH1 0x44 DUP3 ADD MSTORE PUSH1 0x64 SWAP1 REVERT JUMPDEST DUP7 DUP1 REVERT JUMPDEST DUP4 DUP1 REVERT JUMPDEST POP POP CALLVALUE PUSH2 0x1A4 JUMPI DUP2 PUSH1 0x3 NOT CALLDATASIZE ADD SLT PUSH2 0x1A4 JUMPI SWAP1 SLOAD SWAP1 MLOAD PUSH1 0x1 PUSH1 0x1 PUSH1 0xA0 SHL SUB SWAP1 SWAP2 AND DUP2 MSTORE PUSH1 0x20 SWAP1 RETURN JUMPDEST DUP4 CALLVALUE PUSH2 0x1A1 JUMPI DUP1 PUSH1 0x3 NOT CALLDATASIZE ADD SLT PUSH2 0x1A1 JUMPI PUSH2 0x6A4 PUSH2 0xCA3 JUMP JUMPDEST DUP1 SLOAD PUSH1 0x1 PUSH1 0x1 PUSH1 0xA0 SHL SUB NOT DUP2 AND DUP3 SSTORE DUP2 SWAP1 PUSH1 0x1 PUSH1 0x1 PUSH1 0xA0 SHL SUB AND PUSH32 0x8BE0079C531659141344CD1FD0A4F28419497F9722A3DAAFE3B4186F6B6457E0 DUP3 DUP1 LOG3 DUP1 RETURN JUMPDEST POP POP CALLVALUE PUSH2 0x1A4 JUMPI DUP1 PUSH1 0x3 NOT CALLDATASIZE ADD SLT PUSH2 0x1A4 JUMPI PUSH2 0x6FF PUSH2 0xAB8 JUMP JUMPDEST PUSH1 0x1 PUSH1 0x1 PUSH1 0xA0 SHL SUB AND DUP3 MSTORE PUSH1 0x2 PUSH1 0x20 MSTORE DUP1 DUP3 KECCAK256 DUP1 SLOAD PUSH1 0x24 CALLDATALOAD SWAP4 SWAP1 DUP5 LT ISZERO PUSH2 0x1A1 JUMPI POP PUSH1 0x20 SWAP3 PUSH2 0x72D SWAP2 PUSH2 0xB95 JUMP JUMPDEST SWAP2 SWAP1 SLOAD SWAP1 MLOAD SWAP2 PUSH1 0x3 SHL SHR DUP2 MSTORE RETURN JUMPDEST POP CALLVALUE PUSH2 0x152 JUMPI DUP2 PUSH1 0x3 NOT CALLDATASIZE ADD SLT PUSH2 0x152 JUMPI DUP1 CALLDATALOAD PUSH1 0x24 CALLDATALOAD PUSH8 0xFFFFFFFFFFFFFFFF DUP2 GT PUSH2 0x872 JUMPI PUSH2 0x76D SWAP1 CALLDATASIZE SWAP1 DUP5 ADD PUSH2 0xB3E JUMP JUMPDEST DUP2 DUP6 MSTORE PUSH1 0x1 PUSH1 0x20 DUP2 SWAP1 MSTORE DUP5 DUP7 KECCAK256 SWAP1 DUP2 ADD SLOAD SWAP2 SWAP4 PUSH1 0x1 PUSH1 0x1 PUSH1 0xA0 SHL SUB SWAP3 DUP4 AND CALLER SUB PUSH2 0x83D JUMPI PUSH1 0x5 DUP3 ADD SWAP1 DUP2 SLOAD SWAP1 PUSH1 0xFF DUP3 AND ISZERO PUSH2 0x7EF JUMPI POP SWAP2 PUSH1 0x2 SWAP2 PUSH32 0xC73FA31CADBBB7E7E5BD491631159139530EB37D6F32565203F7854D35CE30FD SWAP5 SWAP4 PUSH1 0xFF NOT AND SWAP1 SSTORE ADD SLOAD AND SWAP4 MLOAD PUSH1 0x20 DUP2 MSTORE DUP1 PUSH2 0x7E9 CALLER SWAP6 PUSH1 0x20 DUP4 ADD SWAP1 PUSH2 0xA78 JUMP JUMPDEST SUB SWAP1 LOG4 DUP1 RETURN JUMPDEST PUSH1 0x84 SWAP1 PUSH1 0x20 DUP10 MLOAD SWAP2 PUSH3 0x461BCD PUSH1 0xE5 SHL DUP4 MSTORE DUP3 ADD MSTORE PUSH1 0x22 PUSH1 0x24 DUP3 ADD MSTORE PUSH32 0x436F6E73656E7420616C7265616479207265766F6B6564206F7220696E76616C PUSH1 0x44 DUP3 ADD MSTORE PUSH2 0x1A59 PUSH1 0xF2 SHL PUSH1 0x64 DUP3 ADD MSTORE REVERT JUMPDEST PUSH1 0x64 SWAP1 PUSH1 0x20 DUP8 MLOAD SWAP2 PUSH3 0x461BCD PUSH1 0xE5 SHL DUP4 MSTORE DUP3 ADD MSTORE PUSH1 0xF PUSH1 0x24 DUP3 ADD MSTORE PUSH15 0x139BDD081D1A19481C185D1A595B9D PUSH1 0x8A SHL PUSH1 0x44 DUP3 ADD MSTORE REVERT JUMPDEST DUP5 DUP1 REVERT JUMPDEST DUP3 DUP5 CALLVALUE PUSH2 0x1A1 JUMPI PUSH1 0x20 SWAP1 DUP2 PUSH1 0x3 NOT CALLDATASIZE ADD SLT PUSH2 0x1A1 JUMPI DUP3 SWAP1 PUSH1 0x1 PUSH1 0x1 PUSH1 0xA0 SHL SUB PUSH2 0x89D PUSH2 0xAB8 JUMP JUMPDEST AND DUP2 MSTORE PUSH1 0x2 DUP4 MSTORE DUP2 DUP2 KECCAK256 SWAP1 DUP3 MLOAD DUP1 DUP6 DUP5 SLOAD SWAP2 DUP3 DUP2 MSTORE ADD SWAP1 DUP2 SWAP5 DUP5 MSTORE DUP7 DUP5 KECCAK256 SWAP1 DUP5 JUMPDEST DUP2 DUP2 LT PUSH2 0x90F JUMPI POP POP POP DUP2 PUSH2 0x8D4 SWAP2 SUB DUP3 PUSH2 0xB1C JUMP JUMPDEST DUP4 MLOAD SWAP5 DUP6 SWAP5 DUP2 DUP7 ADD SWAP3 DUP3 DUP8 MSTORE MLOAD DUP1 SWAP4 MSTORE DUP6 ADD SWAP4 SWAP3 JUMPDEST DUP3 DUP2 LT PUSH2 0x8F8 JUMPI POP POP POP POP SUB SWAP1 RETURN JUMPDEST DUP4 MLOAD DUP6 MSTORE DUP7 SWAP6 POP SWAP4 DUP2 ADD SWAP4 SWAP3 DUP2 ADD SWAP3 PUSH1 0x1 ADD PUSH2 0x8E9 JUMP JUMPDEST DUP3 SLOAD DUP5 MSTORE SWAP3 DUP9 ADD SWAP3 PUSH1 0x1 SWAP3 DUP4 ADD SWAP3 ADD PUSH2 0x8BE JUMP JUMPDEST DUP3 DUP5 DUP7 CALLVALUE PUSH2 0x1A1 JUMPI PUSH1 0x20 SWAP4 DUP5 PUSH1 0x3 NOT CALLDATASIZE ADD SLT PUSH2 0x1A4 JUMPI SWAP2 DUP1 SWAP2 PUSH1 0x60 PUSH1 0xE0 DUP6 PUSH2 0x94D PUSH2 0x249 SWAP8 PUSH2 0xAE9 JUMP JUMPDEST DUP4 DUP2 MSTORE DUP4 DUP10 DUP3 ADD MSTORE DUP4 DUP6 DUP3 ADD MSTORE DUP4 DUP4 DUP3 ADD MSTORE DUP4 PUSH1 0x80 DUP3 ADD MSTORE DUP4 PUSH1 0xA0 DUP3 ADD MSTORE DUP4 PUSH1 0xC0 DUP3 ADD MSTORE ADD MSTORE DUP5 CALLDATALOAD DUP2 MSTORE PUSH1 0x1 DUP7 MSTORE KECCAK256 SWAP3 DUP2 MLOAD SWAP4 DUP5 SWAP2 PUSH2 0x98B DUP4 PUSH2 0xAE9 JUMP JUMPDEST DUP2 SLOAD DUP4 MSTORE PUSH2 0xA2E PUSH1 0x1 DUP1 PUSH1 0xA0 SHL SUB SWAP5 DUP6 PUSH1 0x1 DUP6 ADD SLOAD AND SWAP6 DUP10 DUP7 ADD SWAP7 DUP8 MSTORE PUSH1 0x2 DUP6 ADD SLOAD SWAP2 DUP1 DUP8 ADD SWAP1 DUP3 DUP5 AND DUP3 MSTORE PUSH2 0x9CB PUSH1 0xFF PUSH1 0x60 DUP11 ADD SWAP6 PUSH1 0xA0 SHR AND DUP6 PUSH2 0xCFB JUMP JUMPDEST DUP3 PUSH2 0xA00 PUSH1 0x6 PUSH1 0x3 DUP11 ADD SLOAD SWAP9 PUSH1 0x80 DUP13 ADD SWAP10 DUP11 MSTORE DUP11 ADD SLOAD SWAP10 PUSH1 0xA0 DUP13 ADD SWAP11 DUP12 MSTORE PUSH1 0xC0 PUSH1 0xFF PUSH1 0x5 DUP4 ADD SLOAD AND SWAP13 ADD SWAP12 ISZERO ISZERO DUP13 MSTORE ADD PUSH2 0xBFD JUMP JUMPDEST SWAP10 PUSH1 0xE0 DUP14 ADD SWAP11 DUP12 MSTORE DUP3 MLOAD DUP15 DUP2 SWAP16 SWAP15 DUP3 SWAP16 DUP4 MSTORE MLOAD SWAP2 ADD MSTORE MLOAD AND SWAP1 DUP12 ADD MSTORE MLOAD AND PUSH1 0x60 DUP10 ADD MSTORE MLOAD PUSH1 0x80 DUP9 ADD SWAP1 PUSH2 0xA55 JUMP JUMPDEST MLOAD PUSH1 0xA0 DUP7 ADD MSTORE MLOAD PUSH1 0xC0 DUP6 ADD MSTORE MLOAD ISZERO ISZERO PUSH1 0xE0 DUP5 ADD MSTORE MLOAD PUSH2 0x100 DUP1 DUP5 ADD MSTORE PUSH2 0x120 DUP4 ADD SWAP1 PUSH2 0xA78 JUMP JUMPDEST SWAP1 PUSH1 0x5 DUP3 LT ISZERO PUSH2 0xA62 JUMPI MSTORE JUMP JUMPDEST PUSH4 0x4E487B71 PUSH1 0xE0 SHL PUSH1 0x0 MSTORE PUSH1 0x21 PUSH1 0x4 MSTORE PUSH1 0x24 PUSH1 0x0 REVERT JUMPDEST SWAP2 SWAP1 DUP3 MLOAD SWAP3 DUP4 DUP3 MSTORE PUSH1 0x0 JUMPDEST DUP5 DUP2 LT PUSH2 0xAA4 JUMPI POP POP DUP3 PUSH1 0x0 PUSH1 0x20 DUP1 SWAP5 SWAP6 DUP5 ADD ADD MSTORE PUSH1 0x1F DUP1 NOT SWAP2 ADD AND ADD ADD SWAP1 JUMP JUMPDEST PUSH1 0x20 DUP2 DUP4 ADD DUP2 ADD MLOAD DUP5 DUP4 ADD DUP3 ADD MSTORE ADD PUSH2 0xA83 JUMP JUMPDEST PUSH1 0x4 CALLDATALOAD SWAP1 PUSH1 0x1 PUSH1 0x1 PUSH1 0xA0 SHL SUB DUP3 AND DUP3 SUB PUSH2 0xACE JUMPI JUMP JUMPDEST PUSH1 0x0 DUP1 REVERT JUMPDEST PUSH1 0x24 CALLDATALOAD SWAP1 PUSH1 0x1 PUSH1 0x1 PUSH1 0xA0 SHL SUB DUP3 AND DUP3 SUB PUSH2 0xACE JUMPI JUMP JUMPDEST PUSH2 0x100 DUP2 ADD SWAP1 DUP2 LT PUSH8 0xFFFFFFFFFFFFFFFF DUP3 GT OR PUSH2 0xB06 JUMPI PUSH1 0x40 MSTORE JUMP JUMPDEST PUSH4 0x4E487B71 PUSH1 0xE0 SHL PUSH1 0x0 MSTORE PUSH1 0x41 PUSH1 0x4 MSTORE PUSH1 0x24 PUSH1 0x0 REVERT JUMPDEST SWAP1 PUSH1 0x1F DUP1 NOT SWAP2 ADD AND DUP2 ADD SWAP1 DUP2 LT PUSH8 0xFFFFFFFFFFFFFFFF DUP3 GT OR PUSH2 0xB06 JUMPI PUSH1 0x40 MSTORE JUMP JUMPDEST DUP2 PUSH1 0x1F DUP3 ADD SLT ISZERO PUSH2 0xACE JUMPI DUP1 CALLDATALOAD SWAP1 PUSH8 0xFFFFFFFFFFFFFFFF DUP3 GT PUSH2 0xB06 JUMPI PUSH1 0x40 MLOAD SWAP3 PUSH2 0xB73 PUSH1 0x1F DUP5 ADD PUSH1 0x1F NOT AND PUSH1 0x20 ADD DUP6 PUSH2 0xB1C JUMP JUMPDEST DUP3 DUP5 MSTORE PUSH1 0x20 DUP4 DUP4 ADD ADD GT PUSH2 0xACE JUMPI DUP2 PUSH1 0x0 SWAP3 PUSH1 0x20 DUP1 SWAP4 ADD DUP4 DUP7 ADD CALLDATACOPY DUP4 ADD ADD MSTORE SWAP1 JUMP JUMPDEST DUP1 SLOAD DUP3 LT ISZERO PUSH2 0xBAD JUMPI PUSH1 0x0 MSTORE PUSH1 0x20 PUSH1 0x0 KECCAK256 ADD SWAP1 PUSH1 0x0 SWAP1 JUMP JUMPDEST PUSH4 0x4E487B71 PUSH1 0xE0 SHL PUSH1 0x0 MSTORE PUSH1 0x32 PUSH1 0x4 MSTORE PUSH1 0x24 PUSH1 0x0 REVERT JUMPDEST SWAP1 PUSH1 0x1 DUP3 DUP2 SHR SWAP3 AND DUP1 ISZERO PUSH2 0xBF3 JUMPI JUMPDEST PUSH1 0x20 DUP4 LT EQ PUSH2 0xBDD JUMPI JUMP JUMPDEST PUSH4 0x4E487B71 PUSH1 0xE0 SHL PUSH1 0x0 MSTORE PUSH1 0x22 PUSH1 0x4 MSTORE PUSH1 0x24 PUSH1 0x0 REVERT JUMPDEST SWAP2 PUSH1 0x7F AND SWAP2 PUSH2 0xBD2 JUMP JUMPDEST SWAP1 PUSH1 0x40 MLOAD SWAP2 DUP3 PUSH1 0x0 DUP3 SLOAD SWAP3 PUSH2 0xC11 DUP5 PUSH2 0xBC3 JUMP JUMPDEST SWAP1 DUP2 DUP5 MSTORE PUSH1 0x1 SWAP5 DUP6 DUP2 AND SWAP1 DUP2 PUSH1 0x0 EQ PUSH2 0xC80 JUMPI POP PUSH1 0x1 EQ PUSH2 0xC3D JUMPI JUMPDEST POP POP PUSH2 0xC3B SWAP3 POP SUB DUP4 PUSH2 0xB1C JUMP JUMPDEST JUMP JUMPDEST SWAP1 SWAP4 SWAP2 POP PUSH1 0x0 MSTORE PUSH1 0x20 SWAP1 DUP2 PUSH1 0x0 KECCAK256 SWAP4 PUSH1 0x0 SWAP2 JUMPDEST DUP2 DUP4 LT PUSH2 0xC68 JUMPI POP POP PUSH2 0xC3B SWAP4 POP DUP3 ADD ADD CODESIZE DUP1 PUSH2 0xC2D JUMP JUMPDEST DUP6 SLOAD DUP9 DUP5 ADD DUP6 ADD MSTORE SWAP5 DUP6 ADD SWAP5 DUP8 SWAP5 POP SWAP2 DUP4 ADD SWAP2 PUSH2 0xC50 JUMP JUMPDEST SWAP2 POP POP PUSH2 0xC3B SWAP5 POP PUSH1 0x20 SWAP3 POP PUSH1 0xFF NOT AND DUP3 DUP5 ADD MSTORE ISZERO ISZERO PUSH1 0x5 SHL DUP3 ADD ADD CODESIZE DUP1 PUSH2 0xC2D JUMP JUMPDEST PUSH1 0x0 SLOAD PUSH1 0x1 PUSH1 0x1 PUSH1 0xA0 SHL SUB AND CALLER SUB PUSH2 0xCB7 JUMPI JUMP JUMPDEST PUSH1 0x64 PUSH1 0x40 MLOAD PUSH3 0x461BCD PUSH1 0xE5 SHL DUP2 MSTORE PUSH1 0x20 PUSH1 0x4 DUP3 ADD MSTORE PUSH1 0x20 PUSH1 0x24 DUP3 ADD MSTORE PUSH32 0x4F776E61626C653A2063616C6C6572206973206E6F7420746865206F776E6572 PUSH1 0x44 DUP3 ADD MSTORE REVERT JUMPDEST PUSH1 0x5 DUP3 LT ISZERO PUSH2 0xA62 JUMPI MSTORE JUMP JUMPDEST SWAP4 SWAP3 SWAP1 SWAP2 SWAP4 PUSH1 0x1 DUP1 PUSH1 0xA0 SHL SUB PUSH1 0x80 MSTORE PUSH1 0x0 PUSH1 0xA0 MSTORE PUSH1 0x80 MLOAD AND PUSH1 0xA0 MLOAD MSTORE PUSH1 0x20 PUSH1 0x2 DUP2 MSTORE PUSH1 0x40 SWAP2 DUP3 PUSH1 0xA0 MLOAD KECCAK256 DUP4 MLOAD DUP1 DUP3 DUP6 DUP3 SWAP5 SLOAD SWAP4 DUP5 DUP2 MSTORE ADD SWAP1 PUSH1 0xA0 MLOAD MSTORE DUP6 PUSH1 0xA0 MLOAD KECCAK256 SWAP3 PUSH1 0xA0 MLOAD JUMPDEST DUP8 DUP3 DUP3 LT PUSH2 0xEF4 JUMPI POP POP POP PUSH2 0xD64 SWAP3 POP SUB DUP3 PUSH2 0xB1C JUMP JUMPDEST PUSH1 0xA0 MLOAD JUMPDEST DUP2 MLOAD DUP2 LT ISZERO PUSH2 0xEE7 JUMPI PUSH1 0x5 DUP5 DUP3 DUP3 SHL DUP5 ADD ADD MLOAD PUSH1 0xA0 MLOAD MSTORE PUSH1 0x1 SWAP1 DUP2 DUP7 MSTORE DUP7 PUSH1 0xA0 MLOAD KECCAK256 SWAP1 DUP8 MLOAD SWAP1 PUSH2 0xD97 DUP3 PUSH2 0xAE9 JUMP JUMPDEST DUP3 SLOAD DUP3 MSTORE PUSH1 0x80 MLOAD DUP5 DUP5 ADD SLOAD AND DUP9 DUP4 ADD MSTORE PUSH1 0x2 DUP4 ADD SLOAD SWAP3 DUP10 DUP4 ADD SWAP3 PUSH1 0x80 MLOAD DUP6 AND DUP5 MSTORE DUP14 PUSH1 0x60 DUP3 ADD SWAP2 PUSH1 0xFF SWAP4 PUSH2 0xDD1 DUP6 PUSH1 0xA0 SWAP10 DUP11 SHR AND DUP6 PUSH2 0xCFB JUMP JUMPDEST PUSH1 0x3 DUP2 ADD SLOAD PUSH1 0x80 DUP4 ADD MSTORE PUSH2 0xE02 PUSH1 0x6 PUSH1 0x4 SWAP7 DUP8 DUP5 ADD SLOAD SWAP11 DUP6 ADD SWAP11 DUP12 MSTORE DUP9 DUP5 ADD SLOAD AND SWAP3 PUSH1 0xC0 DUP6 ADD SWAP4 ISZERO ISZERO DUP5 MSTORE ADD PUSH2 0xBFD JUMP JUMPDEST PUSH1 0xE0 DUP4 ADD MSTORE MLOAD ISZERO ISZERO SWAP6 DUP7 PUSH2 0xED4 JUMPI JUMPDEST POP DUP6 PUSH2 0xEC9 JUMPI JUMPDEST POP POP DUP4 PUSH2 0xE7D JUMPI JUMPDEST POP POP POP PUSH2 0xE53 JUMPI JUMPDEST POP POP PUSH1 0x0 NOT DUP2 EQ PUSH2 0xE3B JUMPI PUSH1 0x1 ADD PUSH2 0xD68 JUMP JUMPDEST PUSH4 0x4E487B71 PUSH1 0xE0 SHL PUSH1 0xA0 MLOAD MSTORE PUSH1 0x11 PUSH1 0x4 MSTORE PUSH1 0x24 PUSH1 0xA0 MLOAD REVERT JUMPDEST MLOAD DUP1 ISZERO SWAP1 DUP2 ISZERO PUSH2 0xE73 JUMPI JUMPDEST POP PUSH2 0xE69 JUMPI DUP1 PUSH2 0xE28 JUMP JUMPDEST SWAP8 POP POP POP POP POP POP POP JUMP JUMPDEST SWAP1 POP TIMESTAMP LT CODESIZE PUSH2 0xE5E JUMP JUMPDEST MLOAD SWAP3 POP SWAP1 DUP1 DUP4 LT ISZERO PUSH2 0xEB2 JUMPI DUP8 LT ISZERO PUSH2 0xE9B JUMPI POP DUP6 EQ CODESIZE DUP1 DUP1 PUSH2 0xE20 JUMP JUMPDEST PUSH1 0x21 SWAP1 PUSH4 0x4E487B71 PUSH1 0xE0 SHL PUSH1 0xA0 MLOAD MSTORE MSTORE PUSH1 0x24 PUSH1 0xA0 MLOAD REVERT JUMPDEST PUSH1 0x21 DUP3 PUSH4 0x4E487B71 PUSH1 0xE0 SHL PUSH1 0xA0 MLOAD MSTORE MSTORE PUSH1 0x24 PUSH1 0xA0 MLOAD REVERT JUMPDEST MLOAD EQ SWAP4 POP DUP14 CODESIZE PUSH2 0xE18 JUMP JUMPDEST PUSH1 0x80 MLOAD SWAP1 MLOAD DUP16 DUP3 AND SWAP2 AND EQ SWAP6 POP CODESIZE PUSH2 0xE11 JUMP JUMPDEST POP POP PUSH1 0xA0 MLOAD SWAP6 POP POP POP POP POP JUMP JUMPDEST DUP6 SLOAD DUP5 MSTORE PUSH1 0x1 SWAP6 DUP7 ADD SWAP6 DUP8 SWAP6 POP SWAP4 ADD SWAP3 ADD PUSH2 0xD4D JUMP INVALID LOG2 PUSH5 0x6970667358 0x22 SLT KECCAK256 0xE7 SMOD MULMOD PUSH9 0x1997543483360EF37C PUSH17 0xB02FD136E9F13C461E1F7A8E2D23A35280 SGT PUSH5 0x736F6C6343 STOP ADDMOD EQ STOP CALLER "},"methodIdentifiers":{"checkConsent(address,address,uint256,uint8)":"c5acf90b","consents(bytes32)":"b3d8ccbd","getConsentDetails(bytes32)":"18737dd3","getPatientConsents(address)":"24924385","grantConsent(uint256,address,uint8,uint256,string)":"aebe61b7","owner()":"8da5cb5b","renounceOwnership()":"715018a6","revokeConsent(bytes32,string)":"380b413f","transferOwnership(address)":"f2fde38b","userConsents(address,uint256)":"3e3ace6d"}}}}}