{"contracts/OrthoMarket.sol":{"OrthoMarket":{"abi":[{"inputs":[{"internalType":"address","name":"_orthoDataAddress","type":"address"}],"stateMutability":"nonpayable","type":"constructor"},{"anonymous":false,"inputs":[{"indexed":true,"internalType":"uint256","name":"tokenId","type":"uint256"},{"indexed":true,"internalType":"address","name":"seller","type":"address"},{"indexed":false,"internalType":"uint256","name":"price","type":"uint256"}],"name":"DataListed","type":"event"},{"anonymous":false,"inputs":[{"indexed":true,"internalType":"uint256","name":"tokenId","type":"uint256"},{"indexed":true,"internalType":"address","name":"seller","type":"address"},{"indexed":true,"internalType":"address","name":"buyer","type":"address"},{"indexed":false,"internalType":"uint256","name":"price","type":"uint256"}],"name":"DataPurchased","type":"event"},{"anonymous":false,"inputs":[{"indexed":true,"internalType":"uint256","name":"tokenId","type":"uint256"}],"name":"ListingCancelled","type":"event"},{"anonymous":false,"inputs":[{"indexed":true,"internalType":"address","name":"previousOwner","type":"address"},{"indexed":true,"internalType":"address","name":"newOwner","type":"address"}],"name":"OwnershipTransferred","type":"event"},{"inputs":[{"internalType":"uint256","name":"","type":"uint256"}],"name":"activeListings","outputs":[{"internalType":"uint256","name":"","type":"uint256"}],"stateMutability":"view","type":"function"},{"inputs":[{"internalType":"uint256","name":"tokenId","type":"uint256"}],"name":"cancelListing","outputs":[],"stateMutability":"nonpayable","type":"function"},{"inputs":[],"name":"getActiveListings","outputs":[{"internalType":"uint256[]","name":"","type":"uint256[]"}],"stateMutability":"view","type":"function"},{"inputs":[{"internalType":"uint256","name":"tokenId","type":"uint256"},{"internalType":"uint256","name":"price","type":"uint256"}],"name":"listData","outputs":[],"stateMutability":"nonpayable","type":"function"},{"inputs":[{"internalType":"uint256","name":"","type":"uint256"}],"name":"listings","outputs":[{"internalType":"uint256","name":"tokenId","type":"uint256"},{"internalType":"address","name":"seller","type":"address"},{"internalType":"uint256","name":"price","type":"uint256"},{"internalType":"bool","name":"isActive","type":"bool"},{"internalType":"uint256","name":"timestamp","type":"uint256"}],"stateMutability":"view","type":"function"},{"inputs":[],"name":"orthoData","outputs":[{"internalType":"contract OrthoData","name":"","type":"address"}],"stateMutability":"view","type":"function"},{"inputs":[],"name":"owner","outputs":[{"internalType":"address","name":"","type":"address"}],"stateMutability":"view","type":"function"},{"inputs":[{"internalType":"uint256","name":"tokenId","type":"uint256"}],"name":"purchaseData","outputs":[],"stateMutability":"payable","type":"function"},{"inputs":[],"name":"renounceOwnership","outputs":[],"stateMutability":"nonpayable","type":"function"},{"inputs":[{"internalType":"address","name":"newOwner","type":"address"}],"name":"transferOwnership","outputs":[],"stateMutability":"nonpayable","type":"function"},{"inputs":[],"name":"withdraw","outputs":[],"stateMutability":"nonpayable","type":"function"}],"evm":{"bytecode":{"linkReferences":{},"object":"6080346100ac57601f610c2f38819003918201601f19168301916001600160401b038311848410176100b1578084926020946040528339810103126100ac57516001600160a01b0390818116908190036100ac57600160005560015460018060a01b0319903382821617600155604051933391167f8be0079c531659141344cd1fd0a4f28419497f9722a3daafe3b4186f6b6457e0600080a36002541617600255610b6790816100c88239f35b600080fd5b634e487b7160e01b600052604160045260246000fdfe6080604081815260048036101561001557600080fd5b600092833560e01c908163305a67a81461086f575080633ccfd60b146107ea57806352ab1d11146107c157806361cf486314610789578063715018a61461072c57806384c4f594146104fd57806387c35bc01461044a5780638da5cb5b1461041d578063de74e57b146103bf578063f2fde38b146102eb5763fc025fa31461009c57600080fd5b346102e757816003193601126102e75780359060249283359360018060a01b0392836002541693835180956331a9108f60e11b82528784830152818560209889935afa9081156102dd5789916102a3575b50813391160361027057861561023b578588526003855260ff6003858a2001541661020957818885519261012084610a07565b888452878401338152878501908b82526060860192600184528960808801954287528d815260038d522096518755600187019151166bffffffffffffffffffffffff60a01b825416179055516002850155600384019051151560ff8019835416911617905551910155805491680100000000000000008310156101f85750846101d5836101ee9360017fda6e3f4579b83369067bea5d00c3f6f4ea90ea71243054b08c3c0d93a5a1bae5989796019055610962565b90919082549060031b91821b91600019901b1916179055565b519384523393a380f35b634e487b7160e01b88526041825287fd5b50600e6064928585519362461bcd60e51b85528401528201526d105b1c9958591e481b1a5cdd195960921b6044820152fd5b5060116064928585519362461bcd60e51b85528401528201527005072696365206d757374206265203e203607c1b6044820152fd5b50600f6064928585519362461bcd60e51b85528401528201526e2737ba103a37b5b2b71037bbb732b960891b6044820152fd5b90508581813d83116102d6575b6102ba8183610a39565b810103126102d2575181811681036102d257386100ed565b8880fd5b503d6102b0565b85513d8b823e3d90fd5b8280fd5b5090346102e75760203660031901126102e7576001600160a01b038235818116939192908490036103bb5761031e6109af565b8315610369575050600154826bffffffffffffffffffffffff60a01b821617600155167f8be0079c531659141344cd1fd0a4f28419497f9722a3daafe3b4186f6b6457e0600080a380f35b906020608492519162461bcd60e51b8352820152602660248201527f4f776e61626c653a206e6577206f776e657220697320746865207a65726f206160448201526564647265737360d01b6064820152fd5b8480fd5b5090346102e75760203660031901126102e7578060a09383358152600360205220805492600180861b036001830154169260028301549160ff6003850154169301549381519586526020860152840152151560608301526080820152f35b50503461044657816003193601126104465760015490516001600160a01b039091168152602090f35b5080fd5b5082346104fa57806003193601126104fa579190815192838254808652602080960190819484527f8a35acfbc15ff81a39ae7d344fd709f28e8600b4aa8c65c6b64bfe7fe36bd19b90845b8181106104e657505050816104ab910382610a39565b83519485948186019282875251809352850193925b8281106104cf57505050500390f35b8351855286955093810193928101926001016104c0565b825484529288019260019283019201610495565b80fd5b5091906020806003193601126102e757833560028454146106e95760028455808452600382528284209183519261053384610a07565b8054845260018060a01b0390816001820154169083860191825260028101549587810196875260808a60ff60038501541615938415606085015201549101526106b1578451341061067757868080808585511689519082821561066e575bf115610664578160025416803b1561066057878560448b838b519586948593631977454b60e21b85528401523360248401525af1801561065657610625575b50838752600380845286882001805460ff191690557fd43f5f34801f2e70be3032e4807e0460394b94b06f8ec19842703ce34dc1874b92919061061285610a5b565b5116935194519485523394a46001815580f35b67ffffffffffffffff819892981161064357865295965086386105d0565b634e487b7160e01b825260418952602482fd5b87513d8a823e3d90fd5b8780fd5b85513d88823e3d90fd5b506108fc610591565b855162461bcd60e51b81528089018490526014602482015273125b9cdd59999a58da595b9d081c185e5b595b9d60621b6044820152606490fd5b855162461bcd60e51b815280890184905260126024820152714e6f7420616374697665206c697374696e6760701b6044820152606490fd5b825162461bcd60e51b8152808601839052601f60248201527f5265656e7472616e637947756172643a207265656e7472616e742063616c6c006044820152606490fd5b83346104fa57806003193601126104fa576107456109af565b600180546001600160a01b0319811690915581906001600160a01b03167f8be0079c531659141344cd1fd0a4f28419497f9722a3daafe3b4186f6b6457e08280a380f35b5091346104fa5760203660031901126104fa57823592548310156104fa57506107b3602092610962565b91905490519160031b1c8152f35b50503461044657816003193601126104465760025490516001600160a01b039091168152602090f35b50346102e757826003193601126102e7576108036109af565b47908115610835575060015483918291829182916001600160a01b031682f11561082b575080f35b51903d90823e3d90fd5b606490602084519162461bcd60e51b835282015260146024820152734e6f2066756e647320746f20776974686472617760601b6044820152fd5b929190503461095e57602090816003193601126103bb57803580865260038352838620600101549094906001600160a01b0316330361093257508385526003825260ff600384872001541615610904575090600380928486525283200160ff1981541690556108dd81610a5b565b7f411aee90354c51b1b04cd563fcab2617142a9d50da19232d888547c8a1b7fd8a8280a280f35b915162461bcd60e51b815291820152600a6024820152694e6f742061637469766560b01b6044820152606490fd5b8260649262461bcd60e51b8352820152600a6024820152692737ba1039b2b63632b960b11b6044820152fd5b8380fd5b6004548110156109995760046000527f8a35acfbc15ff81a39ae7d344fd709f28e8600b4aa8c65c6b64bfe7fe36bd19b0190600090565b634e487b7160e01b600052603260045260246000fd5b6001546001600160a01b031633036109c357565b606460405162461bcd60e51b815260206004820152602060248201527f4f776e61626c653a2063616c6c6572206973206e6f7420746865206f776e65726044820152fd5b60a0810190811067ffffffffffffffff821117610a2357604052565b634e487b7160e01b600052604160045260246000fd5b90601f8019910116810190811067ffffffffffffffff821117610a2357604052565b9060005b6004805480831015610b2a57908491610a7784610962565b939054600394851b1c14610aaf575050506000198114610a9957600101610a5f565b634e487b7160e01b600052601160045260246000fd5b919394509160001991828101908111610b1557906101d5610ad2610ade93610962565b905490871b1c91610962565b81548015610b0057810192610af284610962565b81939154921b1b1916905555565b603183634e487b7160e01b6000525260246000fd5b601184634e487b7160e01b6000525260246000fd5b505050905056fea26469706673582212204b8da96590ffa23ba0282a54fa3db95f026ec34e4d9292f7929eafaf6da55a3a64736f6c63430008140033","opcodes":"PUSH1 0x80 CALLVALUE PUSH2 0xAC JUMPI PUSH1 0x1F PUSH2 0xC2F CODESIZE DUP2 SWAP1 SUB SWAP2 DUP3 ADD PUSH1 0x1F NOT AND DUP4 ADD SWAP2 PUSH1 0x1 PUSH1 0x1 PUSH1 0x40 SHL SUB DUP4 GT DUP5 DUP5 LT OR PUSH2 0xB1 JUMPI DUP1 DUP5 SWAP3 PUSH1 0x20 SWAP5 PUSH1 0x40 MSTORE DUP4 CODECOPY DUP2 ADD SUB SLT PUSH2 0xAC JUMPI MLOAD PUSH1 0x1 PUSH1 0x1 PUSH1 0xA0 SHL SUB SWAP1 DUP2 DUP2 AND SWAP1 DUP2 SWAP1 SUB PUSH2 0xAC JUMPI PUSH1 0x1 PUSH1 0x0 SSTORE PUSH1 0x1 SLOAD PUSH1 0x1 DUP1 PUSH1 0xA0 SHL SUB NOT SWAP1 CALLER DUP3 DUP3 AND OR PUSH1 0x1 SSTORE PUSH1 0x40 MLOAD SWAP4 CALLER SWAP2 AND PUSH32 0x8BE0079C531659141344CD1FD0A4F28419497F9722A3DAAFE3B4186F6B6457E0 PUSH1 0x0 DUP1 LOG3 PUSH1 0x2 SLOAD AND OR PUSH1 0x2 SSTORE PUSH2 0xB67 SWAP1 DUP2 PUSH2 0xC8 DUP3 CODECOPY RETURN JUMPDEST PUSH1 0x0 DUP1 REVERT JUMPDEST PUSH4 0x4E487B71 PUSH1 0xE0 SHL PUSH1 0x0 MSTORE PUSH1 0x41 PUSH1 0x4 MSTORE PUSH1 0x24 PUSH1 0x0 REVERT INVALID PUSH1 0x80 PUSH1 0x40 DUP2 DUP2 MSTORE PUSH1 0x4 DUP1 CALLDATASIZE LT ISZERO PUSH2 0x15 JUMPI PUSH1 0x0 DUP1 REVERT JUMPDEST PUSH1 0x0 SWAP3 DUP4 CALLDATALOAD PUSH1 0xE0 SHR SWAP1 DUP2 PUSH4 0x305A67A8 EQ PUSH2 0x86F JUMPI POP DUP1 PUSH4 0x3CCFD60B EQ PUSH2 0x7EA JUMPI DUP1 PUSH4 0x52AB1D11 EQ PUSH2 0x7C1 JUMPI DUP1 PUSH4 0x61CF4863 EQ PUSH2 0x789 JUMPI DUP1 PUSH4 0x715018A6 EQ PUSH2 0x72C JUMPI DUP1 PUSH4 0x84C4F594 EQ PUSH2 0x4FD JUMPI DUP1 PUSH4 0x87C35BC0 EQ PUSH2 0x44A JUMPI DUP1 PUSH4 0x8DA5CB5B EQ PUSH2 0x41D JUMPI DUP1 PUSH4 0xDE74E57B EQ PUSH2 0x3BF JUMPI DUP1 PUSH4 0xF2FDE38B EQ PUSH2 0x2EB JUMPI PUSH4 0xFC025FA3 EQ PUSH2 0x9C JUMPI PUSH1 0x0 DUP1 REVERT JUMPDEST CALLVALUE PUSH2 0x2E7 JUMPI DUP2 PUSH1 0x3 NOT CALLDATASIZE ADD SLT PUSH2 0x2E7 JUMPI DUP1 CALLDATALOAD SWAP1 PUSH1 0x24 SWAP3 DUP4 CALLDATALOAD SWAP4 PUSH1 0x1 DUP1 PUSH1 0xA0 SHL SUB SWAP3 DUP4 PUSH1 0x2 SLOAD AND SWAP4 DUP4 MLOAD DUP1 SWAP6 PUSH4 0x31A9108F PUSH1 0xE1 SHL DUP3 MSTORE DUP8 DUP5 DUP4 ADD MSTORE DUP2 DUP6 PUSH1 0x20 SWAP9 DUP10 SWAP4 GAS STATICCALL SWAP1 DUP2 ISZERO PUSH2 0x2DD JUMPI DUP10 SWAP2 PUSH2 0x2A3 JUMPI JUMPDEST POP DUP2 CALLER SWAP2 AND SUB PUSH2 0x270 JUMPI DUP7 ISZERO PUSH2 0x23B JUMPI DUP6 DUP9 MSTORE PUSH1 0x3 DUP6 MSTORE PUSH1 0xFF PUSH1 0x3 DUP6 DUP11 KECCAK256 ADD SLOAD AND PUSH2 0x209 JUMPI DUP2 DUP9 DUP6 MLOAD SWAP3 PUSH2 0x120 DUP5 PUSH2 0xA07 JUMP JUMPDEST DUP9 DUP5 MSTORE DUP8 DUP5 ADD CALLER DUP2 MSTORE DUP8 DUP6 ADD SWAP1 DUP12 DUP3 MSTORE PUSH1 0x60 DUP7 ADD SWAP3 PUSH1 0x1 DUP5 MSTORE DUP10 PUSH1 0x80 DUP9 ADD SWAP6 TIMESTAMP DUP8 MSTORE DUP14 DUP2 MSTORE PUSH1 0x3 DUP14 MSTORE KECCAK256 SWAP7 MLOAD DUP8 SSTORE PUSH1 0x1 DUP8 ADD SWAP2 MLOAD AND PUSH12 0xFFFFFFFFFFFFFFFFFFFFFFFF PUSH1 0xA0 SHL DUP3 SLOAD AND OR SWAP1 SSTORE MLOAD PUSH1 0x2 DUP6 ADD SSTORE PUSH1 0x3 DUP5 ADD SWAP1 MLOAD ISZERO ISZERO PUSH1 0xFF DUP1 NOT DUP4 SLOAD AND SWAP2 AND OR SWAP1 SSTORE MLOAD SWAP2 ADD SSTORE DUP1 SLOAD SWAP2 PUSH9 0x10000000000000000 DUP4 LT ISZERO PUSH2 0x1F8 JUMPI POP DUP5 PUSH2 0x1D5 DUP4 PUSH2 0x1EE SWAP4 PUSH1 0x1 PUSH32 0xDA6E3F4579B83369067BEA5D00C3F6F4EA90EA71243054B08C3C0D93A5A1BAE5 SWAP9 SWAP8 SWAP7 ADD SWAP1 SSTORE PUSH2 0x962 JUMP JUMPDEST SWAP1 SWAP2 SWAP1 DUP3 SLOAD SWAP1 PUSH1 0x3 SHL SWAP2 DUP3 SHL SWAP2 PUSH1 0x0 NOT SWAP1 SHL NOT AND OR SWAP1 SSTORE JUMP JUMPDEST MLOAD SWAP4 DUP5 MSTORE CALLER SWAP4 LOG3 DUP1 RETURN JUMPDEST PUSH4 0x4E487B71 PUSH1 0xE0 SHL DUP9 MSTORE PUSH1 0x41 DUP3 MSTORE DUP8 REVERT JUMPDEST POP PUSH1 0xE PUSH1 0x64 SWAP3 DUP6 DUP6 MLOAD SWAP4 PUSH3 0x461BCD PUSH1 0xE5 SHL DUP6 MSTORE DUP5 ADD MSTORE DUP3 ADD MSTORE PUSH14 0x105B1C9958591E481B1A5CDD1959 PUSH1 0x92 SHL PUSH1 0x44 DUP3 ADD MSTORE REVERT JUMPDEST POP PUSH1 0x11 PUSH1 0x64 SWAP3 DUP6 DUP6 MLOAD SWAP4 PUSH3 0x461BCD PUSH1 0xE5 SHL DUP6 MSTORE DUP5 ADD MSTORE DUP3 ADD MSTORE PUSH17 0x5072696365206D757374206265203E203 PUSH1 0x7C SHL PUSH1 0x44 DUP3 ADD MSTORE REVERT JUMPDEST POP PUSH1 0xF PUSH1 0x64 SWAP3 DUP6 DUP6 MLOAD SWAP4 PUSH3 0x461BCD PUSH1 0xE5 SHL DUP6 MSTORE DUP5 ADD MSTORE DUP3 ADD MSTORE PUSH15 0x2737BA103A37B5B2B71037BBB732B9 PUSH1 0x89 SHL PUSH1 0x44 DUP3 ADD MSTORE REVERT JUMPDEST SWAP1 POP DUP6 DUP2 DUP2 RETURNDATASIZE DUP4 GT PUSH2 0x2D6 JUMPI JUMPDEST PUSH2 0x2BA DUP2 DUP4 PUSH2 0xA39 JUMP JUMPDEST DUP2 ADD SUB SLT PUSH2 0x2D2 JUMPI MLOAD DUP2 DUP2 AND DUP2 SUB PUSH2 0x2D2 JUMPI CODESIZE PUSH2 0xED JUMP JUMPDEST DUP9 DUP1 REVERT JUMPDEST POP RETURNDATASIZE PUSH2 0x2B0 JUMP JUMPDEST DUP6 MLOAD RETURNDATASIZE DUP12 DUP3 RETURNDATACOPY RETURNDATASIZE SWAP1 REVERT JUMPDEST DUP3 DUP1 REVERT JUMPDEST POP SWAP1 CALLVALUE PUSH2 0x2E7 JUMPI PUSH1 0x20 CALLDATASIZE PUSH1 0x3 NOT ADD SLT PUSH2 0x2E7 JUMPI PUSH1 0x1 PUSH1 0x1 PUSH1 0xA0 SHL SUB DUP3 CALLDATALOAD DUP2 DUP2 AND SWAP4 SWAP2 SWAP3 SWAP1 DUP5 SWAP1 SUB PUSH2 0x3BB JUMPI PUSH2 0x31E PUSH2 0x9AF JUMP JUMPDEST DUP4 ISZERO PUSH2 0x369 JUMPI POP POP PUSH1 0x1 SLOAD DUP3 PUSH12 0xFFFFFFFFFFFFFFFFFFFFFFFF PUSH1 0xA0 SHL DUP3 AND OR PUSH1 0x1 SSTORE AND PUSH32 0x8BE0079C531659141344CD1FD0A4F28419497F9722A3DAAFE3B4186F6B6457E0 PUSH1 0x0 DUP1 LOG3 DUP1 RETURN JUMPDEST SWAP1 PUSH1 0x20 PUSH1 0x84 SWAP3 MLOAD SWAP2 PUSH3 0x461BCD PUSH1 0xE5 SHL DUP4 MSTORE DUP3 ADD MSTORE PUSH1 0x26 PUSH1 0x24 DUP3 ADD MSTORE PUSH32 0x4F776E61626C653A206E6577206F776E657220697320746865207A65726F2061 PUSH1 0x44 DUP3 ADD MSTORE PUSH6 0x646472657373 PUSH1 0xD0 SHL PUSH1 0x64 DUP3 ADD MSTORE REVERT JUMPDEST DUP5 DUP1 REVERT JUMPDEST POP SWAP1 CALLVALUE PUSH2 0x2E7 JUMPI PUSH1 0x20 CALLDATASIZE PUSH1 0x3 NOT ADD SLT PUSH2 0x2E7 JUMPI DUP1 PUSH1 0xA0 SWAP4 DUP4 CALLDATALOAD DUP2 MSTORE PUSH1 0x3 PUSH1 0x20 MSTORE KECCAK256 DUP1 SLOAD SWAP3 PUSH1 0x1 DUP1 DUP7 SHL SUB PUSH1 0x1 DUP4 ADD SLOAD AND SWAP3 PUSH1 0x2 DUP4 ADD SLOAD SWAP2 PUSH1 0xFF PUSH1 0x3 DUP6 ADD SLOAD AND SWAP4 ADD SLOAD SWAP4 DUP2 MLOAD SWAP6 DUP7 MSTORE PUSH1 0x20 DUP7 ADD MSTORE DUP5 ADD MSTORE ISZERO ISZERO PUSH1 0x60 DUP4 ADD MSTORE PUSH1 0x80 DUP3 ADD MSTORE RETURN JUMPDEST POP POP CALLVALUE PUSH2 0x446 JUMPI DUP2 PUSH1 0x3 NOT CALLDATASIZE ADD SLT PUSH2 0x446 JUMPI PUSH1 0x1 SLOAD SWAP1 MLOAD PUSH1 0x1 PUSH1 0x1 PUSH1 0xA0 SHL SUB SWAP1 SWAP2 AND DUP2 MSTORE PUSH1 0x20 SWAP1 RETURN JUMPDEST POP DUP1 REVERT JUMPDEST POP DUP3 CALLVALUE PUSH2 0x4FA JUMPI DUP1 PUSH1 0x3 NOT CALLDATASIZE ADD SLT PUSH2 0x4FA JUMPI SWAP2 SWAP1 DUP2 MLOAD SWAP3 DUP4 DUP3 SLOAD DUP1 DUP7 MSTORE PUSH1 0x20 DUP1 SWAP7 ADD SWAP1 DUP2 SWAP5 DUP5 MSTORE PUSH32 0x8A35ACFBC15FF81A39AE7D344FD709F28E8600B4AA8C65C6B64BFE7FE36BD19B SWAP1 DUP5 JUMPDEST DUP2 DUP2 LT PUSH2 0x4E6 JUMPI POP POP POP DUP2 PUSH2 0x4AB SWAP2 SUB DUP3 PUSH2 0xA39 JUMP JUMPDEST DUP4 MLOAD SWAP5 DUP6 SWAP5 DUP2 DUP7 ADD SWAP3 DUP3 DUP8 MSTORE MLOAD DUP1 SWAP4 MSTORE DUP6 ADD SWAP4 SWAP3 JUMPDEST DUP3 DUP2 LT PUSH2 0x4CF JUMPI POP POP POP POP SUB SWAP1 RETURN JUMPDEST DUP4 MLOAD DUP6 MSTORE DUP7 SWAP6 POP SWAP4 DUP2 ADD SWAP4 SWAP3 DUP2 ADD SWAP3 PUSH1 0x1 ADD PUSH2 0x4C0 JUMP JUMPDEST DUP3 SLOAD DUP5 MSTORE SWAP3 DUP9 ADD SWAP3 PUSH1 0x1 SWAP3 DUP4 ADD SWAP3 ADD PUSH2 0x495 JUMP JUMPDEST DUP1 REVERT JUMPDEST POP SWAP2 SWAP1 PUSH1 0x20 DUP1 PUSH1 0x3 NOT CALLDATASIZE ADD SLT PUSH2 0x2E7 JUMPI DUP4 CALLDATALOAD PUSH1 0x2 DUP5 SLOAD EQ PUSH2 0x6E9 JUMPI PUSH1 0x2 DUP5 SSTORE DUP1 DUP5 MSTORE PUSH1 0x3 DUP3 MSTORE DUP3 DUP5 KECCAK256 SWAP2 DUP4 MLOAD SWAP3 PUSH2 0x533 DUP5 PUSH2 0xA07 JUMP JUMPDEST DUP1 SLOAD DUP5 MSTORE PUSH1 0x1 DUP1 PUSH1 0xA0 SHL SUB SWAP1 DUP2 PUSH1 0x1 DUP3 ADD SLOAD AND SWAP1 DUP4 DUP7 ADD SWAP2 DUP3 MSTORE PUSH1 0x2 DUP2 ADD SLOAD SWAP6 DUP8 DUP2 ADD SWAP7 DUP8 MSTORE PUSH1 0x80 DUP11 PUSH1 0xFF PUSH1 0x3 DUP6 ADD SLOAD AND ISZERO SWAP4 DUP5 ISZERO PUSH1 0x60 DUP6 ADD MSTORE ADD SLOAD SWAP2 ADD MSTORE PUSH2 0x6B1 JUMPI DUP5 MLOAD CALLVALUE LT PUSH2 0x677 JUMPI DUP7 DUP1 DUP1 DUP1 DUP6 DUP6 MLOAD AND DUP10 MLOAD SWAP1 DUP3 DUP3 ISZERO PUSH2 0x66E JUMPI JUMPDEST CALL ISZERO PUSH2 0x664 JUMPI DUP2 PUSH1 0x2 SLOAD AND DUP1 EXTCODESIZE ISZERO PUSH2 0x660 JUMPI DUP8 DUP6 PUSH1 0x44 DUP12 DUP4 DUP12 MLOAD SWAP6 DUP7 SWAP5 DUP6 SWAP4 PUSH4 0x1977454B PUSH1 0xE2 SHL DUP6 MSTORE DUP5 ADD MSTORE CALLER PUSH1 0x24 DUP5 ADD MSTORE GAS CALL DUP1 ISZERO PUSH2 0x656 JUMPI PUSH2 0x625 JUMPI JUMPDEST POP DUP4 DUP8 MSTORE PUSH1 0x3 DUP1 DUP5 MSTORE DUP7 DUP9 KECCAK256 ADD DUP1 SLOAD PUSH1 0xFF NOT AND SWAP1 SSTORE PUSH32 0xD43F5F34801F2E70BE3032E4807E0460394B94B06F8EC19842703CE34DC1874B SWAP3 SWAP2 SWAP1 PUSH2 0x612 DUP6 PUSH2 0xA5B JUMP JUMPDEST MLOAD AND SWAP4 MLOAD SWAP5 MLOAD SWAP5 DUP6 MSTORE CALLER SWAP5 LOG4 PUSH1 0x1 DUP2 SSTORE DUP1 RETURN JUMPDEST PUSH8 0xFFFFFFFFFFFFFFFF DUP2 SWAP9 SWAP3 SWAP9 GT PUSH2 0x643 JUMPI DUP7 MSTORE SWAP6 SWAP7 POP DUP7 CODESIZE PUSH2 0x5D0 JUMP JUMPDEST PUSH4 0x4E487B71 PUSH1 0xE0 SHL DUP3 MSTORE PUSH1 0x41 DUP10 MSTORE PUSH1 0x24 DUP3 REVERT JUMPDEST DUP8 MLOAD RETURNDATASIZE DUP11 DUP3 RETURNDATACOPY RETURNDATASIZE SWAP1 REVERT JUMPDEST DUP8 DUP1 REVERT JUMPDEST DUP6 MLOAD RETURNDATASIZE DUP9 DUP3 RETURNDATACOPY RETURNDATASIZE SWAP1 REVERT JUMPDEST POP PUSH2 0x8FC PUSH2 0x591 JUMP JUMPDEST DUP6 MLOAD PUSH3 0x461BCD PUSH1 0xE5 SHL DUP2 MSTORE DUP1 DUP10 ADD DUP5 SWAP1 MSTORE PUSH1 0x14 PUSH1 0x24 DUP3 ADD MSTORE PUSH20 0x125B9CDD59999A58DA595B9D081C185E5B595B9D PUSH1 0x62 SHL PUSH1 0x44 DUP3 ADD MSTORE PUSH1 0x64 SWAP1 REVERT JUMPDEST DUP6 MLOAD PUSH3 0x461BCD PUSH1 0xE5 SHL DUP2 MSTORE DUP1 DUP10 ADD DUP5 SWAP1 MSTORE PUSH1 0x12 PUSH1 0x24 DUP3 ADD MSTORE PUSH18 0x4E6F7420616374697665206C697374696E67 PUSH1 0x70 SHL PUSH1 0x44 DUP3 ADD MSTORE PUSH1 0x64 SWAP1 REVERT JUMPDEST DUP3 MLOAD PUSH3 0x461BCD PUSH1 0xE5 SHL DUP2 MSTORE DUP1 DUP7 ADD DUP4 SWAP1 MSTORE PUSH1 0x1F PUSH1 0x24 DUP3 ADD MSTORE PUSH32 0x5265656E7472616E637947756172643A207265656E7472616E742063616C6C00 PUSH1 0x44 DUP3 ADD MSTORE PUSH1 0x64 SWAP1 REVERT JUMPDEST DUP4 CALLVALUE PUSH2 0x4FA JUMPI DUP1 PUSH1 0x3 NOT CALLDATASIZE ADD SLT PUSH2 0x4FA JUMPI PUSH2 0x745 PUSH2 0x9AF JUMP JUMPDEST PUSH1 0x1 DUP1 SLOAD PUSH1 0x1 PUSH1 0x1 PUSH1 0xA0 SHL SUB NOT DUP2 AND SWAP1 SWAP2 SSTORE DUP2 SWAP1 PUSH1 0x1 PUSH1 0x1 PUSH1 0xA0 SHL SUB AND PUSH32 0x8BE0079C531659141344CD1FD0A4F28419497F9722A3DAAFE3B4186F6B6457E0 DUP3 DUP1 LOG3 DUP1 RETURN JUMPDEST POP SWAP2 CALLVALUE PUSH2 0x4FA JUMPI PUSH1 0x20 CALLDATASIZE PUSH1 0x3 NOT ADD SLT PUSH2 0x4FA JUMPI DUP3 CALLDATALOAD SWAP3 SLOAD DUP4 LT ISZERO PUSH2 0x4FA JUMPI POP PUSH2 0x7B3 PUSH1 0x20 SWAP3 PUSH2 0x962 JUMP JUMPDEST SWAP2 SWAP1 SLOAD SWAP1 MLOAD SWAP2 PUSH1 0x3 SHL SHR DUP2 MSTORE RETURN JUMPDEST POP POP CALLVALUE PUSH2 0x446 JUMPI DUP2 PUSH1 0x3 NOT CALLDATASIZE ADD SLT PUSH2 0x446 JUMPI PUSH1 0x2 SLOAD SWAP1 MLOAD PUSH1 0x1 PUSH1 0x1 PUSH1 0xA0 SHL SUB SWAP1 SWAP2 AND DUP2 MSTORE PUSH1 0x20 SWAP1 RETURN JUMPDEST POP CALLVALUE PUSH2 0x2E7 JUMPI DUP3 PUSH1 0x3 NOT CALLDATASIZE ADD SLT PUSH2 0x2E7 JUMPI PUSH2 0x803 PUSH2 0x9AF JUMP JUMPDEST SELFBALANCE SWAP1 DUP2 ISZERO PUSH2 0x835 JUMPI POP PUSH1 0x1 SLOAD DUP4 SWAP2 DUP3 SWAP2 DUP3 SWAP2 DUP3 SWAP2 PUSH1 0x1 PUSH1 0x1 PUSH1 0xA0 SHL SUB AND DUP3 CALL ISZERO PUSH2 0x82B JUMPI POP DUP1 RETURN JUMPDEST MLOAD SWAP1 RETURNDATASIZE SWAP1 DUP3 RETURNDATACOPY RETURNDATASIZE SWAP1 REVERT JUMPDEST PUSH1 0x64 SWAP1 PUSH1 0x20 DUP5 MLOAD SWAP2 PUSH3 0x461BCD PUSH1 0xE5 SHL DUP4 MSTORE DUP3 ADD MSTORE PUSH1 0x14 PUSH1 0x24 DUP3 ADD MSTORE PUSH20 0x4E6F2066756E647320746F207769746864726177 PUSH1 0x60 SHL PUSH1 0x44 DUP3 ADD MSTORE REVERT JUMPDEST SWAP3 SWAP2 SWAP1 POP CALLVALUE PUSH2 0x95E JUMPI PUSH1 0x20 SWAP1 DUP2 PUSH1 0x3 NOT CALLDATASIZE ADD SLT PUSH2 0x3BB JUMPI DUP1 CALLDATALOAD DUP1 DUP7 MSTORE PUSH1 0x3 DUP4 MSTORE DUP4 DUP7 KECCAK256 PUSH1 0x1 ADD SLOAD SWAP1 SWAP5 SWAP1 PUSH1 0x1 PUSH1 0x1 PUSH1 0xA0 SHL SUB AND CALLER SUB PUSH2 0x932 JUMPI POP DUP4 DUP6 MSTORE PUSH1 0x3 DUP3 MSTORE PUSH1 0xFF PUSH1 0x3 DUP5 DUP8 KECCAK256 ADD SLOAD AND ISZERO PUSH2 0x904 JUMPI POP SWAP1 PUSH1 0x3 DUP1 SWAP3 DUP5 DUP7 MSTORE MSTORE DUP4 KECCAK256 ADD PUSH1 0xFF NOT DUP2 SLOAD AND SWAP1 SSTORE PUSH2 0x8DD DUP2 PUSH2 0xA5B JUMP JUMPDEST PUSH32 0x411AEE90354C51B1B04CD563FCAB2617142A9D50DA19232D888547C8A1B7FD8A DUP3 DUP1 LOG2 DUP1 RETURN JUMPDEST SWAP2 MLOAD PUSH3 0x461BCD PUSH1 0xE5 SHL DUP2 MSTORE SWAP2 DUP3 ADD MSTORE PUSH1 0xA PUSH1 0x24 DUP3 ADD MSTORE PUSH10 0x4E6F7420616374697665 PUSH1 0xB0 SHL PUSH1 0x44 DUP3 ADD MSTORE PUSH1 0x64 SWAP1 REVERT JUMPDEST DUP3 PUSH1 0x64 SWAP3 PUSH3 0x461BCD PUSH1 0xE5 SHL DUP4 MSTORE DUP3 ADD MSTORE PUSH1 0xA PUSH1 0x24 DUP3 ADD MSTORE PUSH10 0x2737BA1039B2B63632B9 PUSH1 0xB1 SHL PUSH1 0x44 DUP3 ADD MSTORE REVERT JUMPDEST DUP4 DUP1 REVERT JUMPDEST PUSH1 0x4 SLOAD DUP2 LT ISZERO PUSH2 0x999 JUMPI PUSH1 0x4 PUSH1 0x0 MSTORE PUSH32 0x8A35ACFBC15FF81A39AE7D344FD709F28E8600B4AA8C65C6B64BFE7FE36BD19B ADD SWAP1 PUSH1 0x0 SWAP1 JUMP JUMPDEST PUSH4 0x4E487B71 PUSH1 0xE0 SHL PUSH1 0x0 MSTORE PUSH1 0x32 PUSH1 0x4 MSTORE PUSH1 0x24 PUSH1 0x0 REVERT JUMPDEST PUSH1 0x1 SLOAD PUSH1 0x1 PUSH1 0x1 PUSH1 0xA0 SHL SUB AND CALLER SUB PUSH2 0x9C3 JUMPI JUMP JUMPDEST PUSH1 0x64 PUSH1 0x40 MLOAD PUSH3 0x461BCD PUSH1 0xE5 SHL DUP2 MSTORE PUSH1 0x20 PUSH1 0x4 DUP3 ADD MSTORE PUSH1 0x20 PUSH1 0x24 DUP3 ADD MSTORE PUSH32 0x4F776E61626C653A2063616C6C6572206973206E6F7420746865206F776E6572 PUSH1 0x44 DUP3 ADD MSTORE REVERT JUMPDEST PUSH1 0xA0 DUP2 ADD SWAP1 DUP2 LT PUSH8 0xFFFFFFFFFFFFFFFF DUP3 GT OR PUSH2 0xA23 JUMPI PUSH1 0x40 MSTORE JUMP JUMPDEST PUSH4 0x4E487B71 PUSH1 0xE0 SHL PUSH1 0x0 MSTORE PUSH1 0x41 PUSH1 0x4 MSTORE PUSH1 0x24 PUSH1 0x0 REVERT JUMPDEST SWAP1 PUSH1 0x1F DUP1 NOT SWAP2 ADD AND DUP2 ADD SWAP1 DUP2 LT PUSH8 0xFFFFFFFFFFFFFFFF DUP3 GT OR PUSH2 0xA23 JUMPI PUSH1 0x40 MSTORE JUMP JUMPDEST SWAP1 PUSH1 0x0 JUMPDEST PUSH1 0x4 DUP1 SLOAD DUP1 DUP4 LT ISZERO PUSH2 0xB2A JUMPI SWAP1 DUP5 SWAP2 PUSH2 0xA77 DUP5 PUSH2 0x962 JUMP JUMPDEST SWAP4 SWAP1 SLOAD PUSH1 0x3 SWAP5 DUP6 SHL SHR EQ PUSH2 0xAAF JUMPI POP POP POP PUSH1 0x0 NOT DUP2 EQ PUSH2 0xA99 JUMPI PUSH1 0x1 ADD PUSH2 0xA5F JUMP JUMPDEST PUSH4 0x4E487B71 PUSH1 0xE0 SHL PUSH1 0x0 MSTORE PUSH1 0x11 PUSH1 0x4 MSTORE PUSH1 0x24 PUSH1 0x0 REVERT JUMPDEST SWAP2 SWAP4 SWAP5 POP SWAP2 PUSH1 0x0 NOT SWAP2 DUP3 DUP2 ADD SWAP1 DUP2 GT PUSH2 0xB15 JUMPI SWAP1 PUSH2 0x1D5 PUSH2 0xAD2 PUSH2 0xADE SWAP4 PUSH2 0x962 JUMP JUMPDEST SWAP1 SLOAD SWAP1 DUP8 SHL SHR SWAP2 PUSH2 0x962 JUMP JUMPDEST DUP2 SLOAD DUP1 ISZERO PUSH2 0xB00 JUMPI DUP2 ADD SWAP3 PUSH2 0xAF2 DUP5 PUSH2 0x962 JUMP JUMPDEST DUP2 SWAP4 SWAP2 SLOAD SWAP3 SHL SHL NOT AND SWAP1 SSTORE SSTORE JUMP JUMPDEST PUSH1 0x31 DUP4 PUSH4 0x4E487B71 PUSH1 0xE0 SHL PUSH1 0x0 MSTORE MSTORE PUSH1 0x24 PUSH1 0x0 REVERT JUMPDEST PUSH1 0x11 DUP5 PUSH4 0x4E487B71 PUSH1 0xE0 SHL PUSH1 0x0 MSTORE MSTORE PUSH1 0x24 PUSH1 0x0 REVERT JUMPDEST POP POP POP SWAP1 POP JUMP INVALID LOG2 PUSH5 0x6970667358 0x22 SLT KECCAK256 0x4B DUP14 0xA9 PUSH6 0x90FFA23BA028 0x2A SLOAD STATICCALL RETURNDATASIZE 0xB9 PUSH0 MUL PUSH15 0xC34E4D9292F7929EAFAF6DA55A3A64 PUSH20 0x6F6C634300081400330000000000000000000000 "},"methodIdentifiers":{"activeListings(uint256)":"61cf4863","cancelListing(uint256)":"305a67a8","getActiveListings()":"87c35bc0","listData(uint256,uint256)":"fc025fa3","listings(uint256)":"de74e57b","orthoData()":"52ab1d11","owner()":"8da5cb5b","purchaseData(uint256)":"84c4f594","renounceOwnership()":"715018a6","transferOwnership(address)":"f2fde38b","withdraw()":"3ccfd60b"}}}}}