{"contracts/PatientEvolution.sol":{"PatientEvolution":{"abi":[{"anonymous":false,"inputs":[{"indexed":true,"internalType":"string","name":"patientDid","type":"string"},{"indexed":false,"internalType":"uint256","name":"severity","type":"uint256"},{"indexed":false,"internalType":"uint256","name":"timestamp","type":"uint256"},{"indexed":false,"internalType":"string","name":"reason","type":"string"}],"name":"AnomalyDetected","type":"event"},{"anonymous":false,"inputs":[{"indexed":true,"internalType":"string","name":"patientDid","type":"string"},{"indexed":false,"internalType":"string","name":"contentHash","type":"string"},{"indexed":false,"internalType":"uint256","name":"severity","type":"uint256"},{"indexed":false,"internalType":"uint256","name":"timestamp","type":"uint256"},{"indexed":false,"internalType":"string","name":"diagnosis","type":"string"},{"indexed":false,"internalType":"bool","name":"isAnomaly","type":"bool"}],"name":"EvolutionRecorded","type":"event"},{"anonymous":false,"inputs":[{"indexed":true,"internalType":"address","name":"previousOwner","type":"address"},{"indexed":true,"internalType":"address","name":"newOwner","type":"address"}],"name":"OwnershipTransferred","type":"event"},{"inputs":[],"name":"getGlobalStats","outputs":[{"internalType":"uint256","name":"totalSnapshots","type":"uint256"},{"internalType":"uint256","name":"totalAnomalies","type":"uint256"}],"stateMutability":"view","type":"function"},{"inputs":[{"internalType":"string","name":"patientDid","type":"string"}],"name":"getLatestSnapshot","outputs":[{"components":[{"internalType":"string","name":"patientDid","type":"string"},{"internalType":"string","name":"contentHash","type":"string"},{"internalType":"uint256","name":"severity","type":"uint256"},{"internalType":"uint256","name":"timestamp","type":"uint256"},{"internalType":"string","name":"diagnosis","type":"string"},{"internalType":"bool","name":"isAnomaly","type":"bool"}],"internalType":"struct PatientEvolution.EvolutionSnapshot","name":"","type":"tuple"}],"stateMutability":"view","type":"function"},{"inputs":[{"internalType":"string","name":"patientDid","type":"string"}],"name":"getPatientEvolution","outputs":[{"components":[{"internalType":"string","name":"patientDid","type":"string"},{"internalType":"string","name":"contentHash","type":"string"},{"internalType":"uint256","name":"severity","type":"uint256"},{"internalType":"uint256","name":"timestamp","type":"uint256"},{"internalType":"string","name":"diagnosis","type":"string"},{"internalType":"bool","name":"isAnomaly","type":"bool"}],"internalType":"struct PatientEvolution.EvolutionSnapshot[]","name":"","type":"tuple[]"}],"stateMutability":"view","type":"function"},{"inputs":[{"internalType":"string","name":"patientDid","type":"string"}],"name":"getSnapshotCount","outputs":[{"internalType":"uint256","name":"","type":"uint256"}],"stateMutability":"view","type":"function"},{"inputs":[{"internalType":"string","name":"patientDid","type":"string"}],"name":"getTrend","outputs":[{"internalType":"bool","name":"improving","type":"bool"}],"stateMutability":"view","type":"function"},{"inputs":[{"internalType":"string","name":"patientDid","type":"string"}],"name":"hasAnomalies","outputs":[{"internalType":"bool","name":"","type":"bool"}],"stateMutability":"view","type":"function"},{"inputs":[],"name":"owner","outputs":[{"internalType":"address","name":"","type":"address"}],"stateMutability":"view","type":"function"},{"inputs":[{"internalType":"string","name":"","type":"string"},{"internalType":"uint256","name":"","type":"uint256"}],"name":"patientEvolutions","outputs":[{"internalType":"string","name":"patientDid","type":"string"},{"internalType":"string","name":"contentHash","type":"string"},{"internalType":"uint256","name":"severity","type":"uint256"},{"internalType":"uint256","name":"timestamp","type":"uint256"},{"internalType":"string","name":"diagnosis","type":"string"},{"internalType":"bool","name":"isAnomaly","type":"bool"}],"stateMutability":"view","type":"function"},{"inputs":[{"internalType":"string","name":"","type":"string"}],"name":"patientSnapshotCount","outputs":[{"internalType":"uint256","name":"","type":"uint256"}],"stateMutability":"view","type":"function"},{"inputs":[{"internalType":"string","name":"patientDid","type":"string"},{"internalType":"string","name":"contentHash","type":"string"},{"internalType":"uint256","name":"severity","type":"uint256"},{"internalType":"string","name":"diagnosis","type":"string"},{"internalType":"bool","name":"isAnomaly","type":"bool"}],"name":"recordEvolution","outputs":[{"internalType":"uint256","name":"","type":"uint256"}],"stateMutability":"nonpayable","type":"function"},{"inputs":[],"name":"renounceOwnership","outputs":[],"stateMutability":"nonpayable","type":"function"},{"inputs":[{"internalType":"address","name":"newOwner","type":"address"}],"name":"transferOwnership","outputs":[],"stateMutability":"nonpayable","type":"function"}],"evm":{"bytecode":{"linkReferences":{},"object":"6080806040523461005b5760008054336001600160a01b0319821681178355916001600160a01b03909116907f8be0079c531659141344cd1fd0a4f28419497f9722a3daafe3b4186f6b6457e09080a361129890816100618239f35b600080fdfe6080604052600436101561001257600080fd5b60003560e01c80631485513814610e17578063379d848d14610de157806339a642a714610de15780636b4169c314610dbf578063715018a614610d665780637aedb35814610c7657806384527608146105815780638da5cb5b14610558578063957abb2314610440578063a7041850146102ff578063c2e21754146101705763f2fde38b146100a057600080fd5b3461016b57602036600319011261016b576004356001600160a01b038181169182900361016b576100cf611091565b811561011757600054826bffffffffffffffffffffffff60a01b821617600055167f8be0079c531659141344cd1fd0a4f28419497f9722a3daafe3b4186f6b6457e0600080a3005b60405162461bcd60e51b815260206004820152602660248201527f4f776e61626c653a206e6577206f776e657220697320746865207a65726f206160448201526564647265737360d01b6064820152608490fd5b600080fd5b3461016b5760208060031936011261016b576001600160401b0360043581811161016b576101a2903690600401610e97565b6040519060028151928581818501956101bc818389610eed565b81018481520301902054106102ba576101dd60405192839251928391610eed565b8101908381600193848152030190209081549283116102a45760405192610209858260051b0185610e76565b808452848401809360005285600020866000925b84841061028657508686815190811561027057516040015191600019820191821161025a5760409161024e91611178565b51015110604051908152f35b634e487b7160e01b600052601160045260246000fd5b634e487b7160e01b600052603260045260246000fd5b859160069161029485611118565b815201920192019190879061021d565b634e487b7160e01b600052604160045260246000fd5b60405162461bcd60e51b815260048101859052601960248201527f4e656564206174206c65617374203220736e617073686f7473000000000000006044820152606490fd5b3461016b5760208060031936011261016b576004356001600160401b03811161016b57610330903690600401610e97565b600060a060405161034081610e5b565b6060815260608582015282604082015282606082015260606080820152015260405190805191838181840194610377818388610eed565b8101600281520301902054156103fb5760405183818351610399818388610eed565b8101600281520301902054600019810190811161025a576103cd846103e2946103dc94604051938492839251928391610eed565b81016001815203019020610f10565b50611118565b906103f7604051928284938452830190611031565b0390f35b60405162461bcd60e51b815260048101849052601d60248201527f4e6f20736e617073686f747320666f7220746869732070617469656e740000006044820152606490fd5b3461016b5760208060031936011261016b576001600160401b039060043582811161016b57610473903690600401610e97565b91816104886040519485815193849201610eed565b8301928281600195868152030190209081549081116102a4578383604051926104b6828260051b0185610e76565b8084528184018095600052826000206000915b8383106105315750505050604051928184019082855251809152604084019160408260051b86010195926000905b8382106105045786880387f35b90919293948380610520839a603f198b82030186528951611031565b9997019594939190910191016104f7565b94600685829997610544859a989a611118565b8152019201920191909694969593956104c9565b3461016b57600036600319011261016b576000546040516001600160a01b039091168152602090f35b3461016b5760a036600319011261016b576004356001600160401b03811161016b576105b1903690600401610e97565b6024356001600160401b03811161016b576105d0903690600401610e97565b906064356001600160401b03811161016b576105f0903690600401610e97565b60843515156084350361016b57610605611091565b815115610c3a57825115610bfd57600a60443511610bc0576040519261062a84610e5b565b8284528060208501526044356040850152426060850152816080850152608435151560a085015260405160208185516106668183858a01610eed565b810160018152030190208054680100000000000000008110156102a45761069291600182018155610f10565b949094610baa5780518051906001600160401b0382116102a45781906106b88854610f2c565b601f8111610b5a575b50602090601f8311600114610aee57600092610ae3575b50508160011b916000199060031b1c19161785555b60208101518051906001600160401b0382116102a45781906107126001890154610f2c565b601f8111610a90575b50602090601f8311600114610a1e57600092610a13575b50508160011b916000199060031b1c19161760018601555b604081015160028601556060810151600386015560808101519485516001600160401b0381116102a4576107816004830154610f2c565b96601f88116109cc575b602097508790601f831160011461092d579360a060057f447fb0f2e0d11e4dc46eba7082310e177d50f56ff81d6f7b7cc8ffef335301aa958561084e966108919c9a968e9c9a600092610922575b50508160011b916000199060031b1c19161760048201555b01910151151560ff80198354169116179055604051868187516108178183858c01610eed565b8101600281520301902061082b81546110e9565b9055610869610839866110f8565b9460405193849360a0855260a085019061100c565b9060443589850152426040850152838203606085015261100c565b608435151560808301520390a26084356108a4575b8160405193828580945193849201610eed565b8101600281520301902054604051908152f35b6108ad816110f8565b7f43977a33ab35ef71da69bb151fa4bcd7daf6e7dbc7a3413ed290aa003b18e17d60c06040516044358152428682015260606040820152602260608201527f556e757375616c2065766f6c7574696f6e207061747465726e20646574656374608082015261195960f21b60a0820152a261087e565b015190508e806107d9565b9060048401600052886000209160005b601f19851681106109b5575060057f447fb0f2e0d11e4dc46eba7082310e177d50f56ff81d6f7b7cc8ffef335301aa956001866108919c9a968e9c9a9660a09661084e9a601f1981161061099c575b505050811b0160048201556107f1565b015160001960f88460031b161c191690558e808061098c565b91928a60018192868501518155019401920161093d565b600483016000526020600020601f830160051c810160208410610a0c575b601f8a0160051c82018110610a0057505061078b565b600081556001016109ea565b50806109ea565b015190508780610732565b9250600188016000526020600020906000935b601f1984168510610a75576001945083601f19811610610a5c575b505050811b01600186015561074a565b015160001960f88460031b161c19169055878080610a4c565b81810151835560209485019460019093019290910190610a31565b909150600188016000526020600020601f840160051c810160208510610adc575b90849392915b601f830160051c82018110610acd57505061071b565b60008155859450600101610ab7565b5080610ab1565b0151905087806106d8565b9250876000526020600020906000935b601f1984168510610b3f576001945083601f19811610610b26575b505050811b0185556106ed565b015160001960f88460031b161c19169055878080610b19565b81810151835560209485019460019093019290910190610afe565b909150876000526020600020601f840160051c810160208510610ba3575b90849392915b601f830160051c82018110610b945750506106c1565b60008155859450600101610b7e565b5080610b78565b634e487b7160e01b600052600060045260246000fd5b60405162461bcd60e51b815260206004820152601560248201527405365766572697479206d75737420626520302d313605c1b6044820152606490fd5b60405162461bcd60e51b815260206004820152601560248201527410dbdb9d195b9d081a185cda081c995c5d5a5c9959605a1b6044820152606490fd5b60405162461bcd60e51b815260206004820152601460248201527314185d1a595b9d08111251081c995c5d5a5c995960621b6044820152606490fd5b3461016b57604036600319011261016b576004356001600160401b03811161016b57610ca6903690600401610e97565b610cc26020602435928160405193828580945193849201610eed565b81016001815203019020805482101561016b57610d3491610ce291610f10565b50610cec81610f66565b90610d5a610cfc60018301610f66565b916002810154906003810154610d4260ff6005610d1b60048601610f66565b940154169560405198899860c08a5260c08a019061100c565b9088820360208a015261100c565b9260408701526060860152848203608086015261100c565b90151560a08301520390f35b3461016b57600036600319011261016b57610d7f611091565b600080546001600160a01b0319811682556001600160a01b03167f8be0079c531659141344cd1fd0a4f28419497f9722a3daafe3b4186f6b6457e08280a3005b3461016b57600036600319011261016b57604080516000815260006020820152f35b3461016b57602036600319011261016b576004356001600160401b03811161016b57610891602061087e81933690600401610e97565b3461016b57602036600319011261016b576004356001600160401b03811161016b57610e51610e4c6020923690600401610e97565b61118c565b6040519015158152f35b60c081019081106001600160401b038211176102a457604052565b90601f801991011681019081106001600160401b038211176102a457604052565b81601f8201121561016b578035906001600160401b0382116102a45760405192610ecb601f8401601f191660200185610e76565b8284526020838301011161016b57816000926020809301838601378301015290565b60005b838110610f005750506000910152565b8181015183820152602001610ef0565b8054821015610270576000526006602060002091020190600090565b90600182811c92168015610f5c575b6020831014610f4657565b634e487b7160e01b600052602260045260246000fd5b91607f1691610f3b565b9060405191826000825492610f7a84610f2c565b908184526001948581169081600014610fe95750600114610fa6575b5050610fa492500383610e76565b565b9093915060005260209081600020936000915b818310610fd1575050610fa493508201013880610f96565b85548884018501529485019487945091830191610fb9565b915050610fa494506020925060ff191682840152151560051b8201013880610f96565b9060209161102581518092818552858086019101610eed565b601f01601f1916010190565b9060a08061108661106061104e865160c0875260c087019061100c565b6020870151868203602088015261100c565b60408601516040860152606086015160608601526080860151858203608087015261100c565b930151151591015290565b6000546001600160a01b031633036110a557565b606460405162461bcd60e51b815260206004820152602060248201527f4f776e61626c653a2063616c6c6572206973206e6f7420746865206f776e65726044820152fd5b600019811461025a5760010190565b61111090602060405192828480945193849201610eed565b810103902090565b9060405161112581610e5b565b60a060ff6005839561113681610f66565b855261114460018201610f66565b6020860152600281015460408601526003810154606086015261116960048201610f66565b60808601520154161515910152565b80518210156102705760209160051b010190565b6040519080516111a181846020809501610eed565b8201918181600194858152030190208054906001600160401b0382116102a45790839291604051926111d8818460051b0185610e76565b82845260009182528082208185015b84841061123c5750505050506000915b611204575b505050600090565b8051821015611237578160a061121b859484611178565b5101516112315761122b906110e9565b916111f7565b50505090565b6111fc565b8260069161124f84959697989994611118565b81520192019301919092869594936111e756fea264697066735822122002211d68f96cb6b2be880aa76869866c9a939221dbcea081e85f6e0abc54c9f864736f6c63430008140033","opcodes":"PUSH1 0x80 DUP1 PUSH1 0x40 MSTORE CALLVALUE PUSH2 0x5B JUMPI PUSH1 0x0 DUP1 SLOAD CALLER PUSH1 0x1 PUSH1 0x1 PUSH1 0xA0 SHL SUB NOT DUP3 AND DUP2 OR DUP4 SSTORE SWAP2 PUSH1 0x1 PUSH1 0x1 PUSH1 0xA0 SHL SUB SWAP1 SWAP2 AND SWAP1 PUSH32 0x8BE0079C531659141344CD1FD0A4F28419497F9722A3DAAFE3B4186F6B6457E0 SWAP1 DUP1 LOG3 PUSH2 0x1298 SWAP1 DUP2 PUSH2 0x61 DUP3 CODECOPY RETURN JUMPDEST PUSH1 0x0 DUP1 REVERT INVALID PUSH1 0x80 PUSH1 0x40 MSTORE PUSH1 0x4 CALLDATASIZE LT ISZERO PUSH2 0x12 JUMPI PUSH1 0x0 DUP1 REVERT JUMPDEST PUSH1 0x0 CALLDATALOAD PUSH1 0xE0 SHR DUP1 PUSH4 0x14855138 EQ PUSH2 0xE17 JUMPI DUP1 PUSH4 0x379D848D EQ PUSH2 0xDE1 JUMPI DUP1 PUSH4 0x39A642A7 EQ PUSH2 0xDE1 JUMPI DUP1 PUSH4 0x6B4169C3 EQ PUSH2 0xDBF JUMPI DUP1 PUSH4 0x715018A6 EQ PUSH2 0xD66 JUMPI DUP1 PUSH4 0x7AEDB358 EQ PUSH2 0xC76 JUMPI DUP1 PUSH4 0x84527608 EQ PUSH2 0x581 JUMPI DUP1 PUSH4 0x8DA5CB5B EQ PUSH2 0x558 JUMPI DUP1 PUSH4 0x957ABB23 EQ PUSH2 0x440 JUMPI DUP1 PUSH4 0xA7041850 EQ PUSH2 0x2FF JUMPI DUP1 PUSH4 0xC2E21754 EQ PUSH2 0x170 JUMPI PUSH4 0xF2FDE38B EQ PUSH2 0xA0 JUMPI PUSH1 0x0 DUP1 REVERT JUMPDEST CALLVALUE PUSH2 0x16B JUMPI PUSH1 0x20 CALLDATASIZE PUSH1 0x3 NOT ADD SLT PUSH2 0x16B JUMPI PUSH1 0x4 CALLDATALOAD PUSH1 0x1 PUSH1 0x1 PUSH1 0xA0 SHL SUB DUP2 DUP2 AND SWAP2 DUP3 SWAP1 SUB PUSH2 0x16B JUMPI PUSH2 0xCF PUSH2 0x1091 JUMP JUMPDEST DUP2 ISZERO PUSH2 0x117 JUMPI PUSH1 0x0 SLOAD DUP3 PUSH12 0xFFFFFFFFFFFFFFFFFFFFFFFF PUSH1 0xA0 SHL DUP3 AND OR PUSH1 0x0 SSTORE AND PUSH32 0x8BE0079C531659141344CD1FD0A4F28419497F9722A3DAAFE3B4186F6B6457E0 PUSH1 0x0 DUP1 LOG3 STOP JUMPDEST PUSH1 0x40 MLOAD PUSH3 0x461BCD PUSH1 0xE5 SHL DUP2 MSTORE PUSH1 0x20 PUSH1 0x4 DUP3 ADD MSTORE PUSH1 0x26 PUSH1 0x24 DUP3 ADD MSTORE PUSH32 0x4F776E61626C653A206E6577206F776E657220697320746865207A65726F2061 PUSH1 0x44 DUP3 ADD MSTORE PUSH6 0x646472657373 PUSH1 0xD0 SHL PUSH1 0x64 DUP3 ADD MSTORE PUSH1 0x84 SWAP1 REVERT JUMPDEST PUSH1 0x0 DUP1 REVERT JUMPDEST CALLVALUE PUSH2 0x16B JUMPI PUSH1 0x20 DUP1 PUSH1 0x3 NOT CALLDATASIZE ADD SLT PUSH2 0x16B JUMPI PUSH1 0x1 PUSH1 0x1 PUSH1 0x40 SHL SUB PUSH1 0x4 CALLDATALOAD DUP2 DUP2 GT PUSH2 0x16B JUMPI PUSH2 0x1A2 SWAP1 CALLDATASIZE SWAP1 PUSH1 0x4 ADD PUSH2 0xE97 JUMP JUMPDEST PUSH1 0x40 MLOAD SWAP1 PUSH1 0x2 DUP2 MLOAD SWAP3 DUP6 DUP2 DUP2 DUP6 ADD SWAP6 PUSH2 0x1BC DUP2 DUP4 DUP10 PUSH2 0xEED JUMP JUMPDEST DUP2 ADD DUP5 DUP2 MSTORE SUB ADD SWAP1 KECCAK256 SLOAD LT PUSH2 0x2BA JUMPI PUSH2 0x1DD PUSH1 0x40 MLOAD SWAP3 DUP4 SWAP3 MLOAD SWAP3 DUP4 SWAP2 PUSH2 0xEED JUMP JUMPDEST DUP2 ADD SWAP1 DUP4 DUP2 PUSH1 0x1 SWAP4 DUP5 DUP2 MSTORE SUB ADD SWAP1 KECCAK256 SWAP1 DUP2 SLOAD SWAP3 DUP4 GT PUSH2 0x2A4 JUMPI PUSH1 0x40 MLOAD SWAP3 PUSH2 0x209 DUP6 DUP3 PUSH1 0x5 SHL ADD DUP6 PUSH2 0xE76 JUMP JUMPDEST DUP1 DUP5 MSTORE DUP5 DUP5 ADD DUP1 SWAP4 PUSH1 0x0 MSTORE DUP6 PUSH1 0x0 KECCAK256 DUP7 PUSH1 0x0 SWAP3 JUMPDEST DUP5 DUP5 LT PUSH2 0x286 JUMPI POP DUP7 DUP7 DUP2 MLOAD SWAP1 DUP2 ISZERO PUSH2 0x270 JUMPI MLOAD PUSH1 0x40 ADD MLOAD SWAP2 PUSH1 0x0 NOT DUP3 ADD SWAP2 DUP3 GT PUSH2 0x25A JUMPI PUSH1 0x40 SWAP2 PUSH2 0x24E SWAP2 PUSH2 0x1178 JUMP JUMPDEST MLOAD ADD MLOAD LT PUSH1 0x40 MLOAD SWAP1 DUP2 MSTORE RETURN JUMPDEST PUSH4 0x4E487B71 PUSH1 0xE0 SHL PUSH1 0x0 MSTORE PUSH1 0x11 PUSH1 0x4 MSTORE PUSH1 0x24 PUSH1 0x0 REVERT JUMPDEST PUSH4 0x4E487B71 PUSH1 0xE0 SHL PUSH1 0x0 MSTORE PUSH1 0x32 PUSH1 0x4 MSTORE PUSH1 0x24 PUSH1 0x0 REVERT JUMPDEST DUP6 SWAP2 PUSH1 0x6 SWAP2 PUSH2 0x294 DUP6 PUSH2 0x1118 JUMP JUMPDEST DUP2 MSTORE ADD SWAP3 ADD SWAP3 ADD SWAP2 SWAP1 DUP8 SWAP1 PUSH2 0x21D JUMP JUMPDEST PUSH4 0x4E487B71 PUSH1 0xE0 SHL PUSH1 0x0 MSTORE PUSH1 0x41 PUSH1 0x4 MSTORE PUSH1 0x24 PUSH1 0x0 REVERT JUMPDEST PUSH1 0x40 MLOAD PUSH3 0x461BCD PUSH1 0xE5 SHL DUP2 MSTORE PUSH1 0x4 DUP2 ADD DUP6 SWAP1 MSTORE PUSH1 0x19 PUSH1 0x24 DUP3 ADD MSTORE PUSH32 0x4E656564206174206C65617374203220736E617073686F747300000000000000 PUSH1 0x44 DUP3 ADD MSTORE PUSH1 0x64 SWAP1 REVERT JUMPDEST CALLVALUE PUSH2 0x16B JUMPI PUSH1 0x20 DUP1 PUSH1 0x3 NOT CALLDATASIZE ADD SLT PUSH2 0x16B JUMPI PUSH1 0x4 CALLDATALOAD PUSH1 0x1 PUSH1 0x1 PUSH1 0x40 SHL SUB DUP2 GT PUSH2 0x16B JUMPI PUSH2 0x330 SWAP1 CALLDATASIZE SWAP1 PUSH1 0x4 ADD PUSH2 0xE97 JUMP JUMPDEST PUSH1 0x0 PUSH1 0xA0 PUSH1 0x40 MLOAD PUSH2 0x340 DUP2 PUSH2 0xE5B JUMP JUMPDEST PUSH1 0x60 DUP2 MSTORE PUSH1 0x60 DUP6 DUP3 ADD MSTORE DUP3 PUSH1 0x40 DUP3 ADD MSTORE DUP3 PUSH1 0x60 DUP3 ADD MSTORE PUSH1 0x60 PUSH1 0x80 DUP3 ADD MSTORE ADD MSTORE PUSH1 0x40 MLOAD SWAP1 DUP1 MLOAD SWAP2 DUP4 DUP2 DUP2 DUP5 ADD SWAP5 PUSH2 0x377 DUP2 DUP4 DUP9 PUSH2 0xEED JUMP JUMPDEST DUP2 ADD PUSH1 0x2 DUP2 MSTORE SUB ADD SWAP1 KECCAK256 SLOAD ISZERO PUSH2 0x3FB JUMPI PUSH1 0x40 MLOAD DUP4 DUP2 DUP4 MLOAD PUSH2 0x399 DUP2 DUP4 DUP9 PUSH2 0xEED JUMP JUMPDEST DUP2 ADD PUSH1 0x2 DUP2 MSTORE SUB ADD SWAP1 KECCAK256 SLOAD PUSH1 0x0 NOT DUP2 ADD SWAP1 DUP2 GT PUSH2 0x25A JUMPI PUSH2 0x3CD DUP5 PUSH2 0x3E2 SWAP5 PUSH2 0x3DC SWAP5 PUSH1 0x40 MLOAD SWAP4 DUP5 SWAP3 DUP4 SWAP3 MLOAD SWAP3 DUP4 SWAP2 PUSH2 0xEED JUMP JUMPDEST DUP2 ADD PUSH1 0x1 DUP2 MSTORE SUB ADD SWAP1 KECCAK256 PUSH2 0xF10 JUMP JUMPDEST POP PUSH2 0x1118 JUMP JUMPDEST SWAP1 PUSH2 0x3F7 PUSH1 0x40 MLOAD SWAP3 DUP3 DUP5 SWAP4 DUP5 MSTORE DUP4 ADD SWAP1 PUSH2 0x1031 JUMP JUMPDEST SUB SWAP1 RETURN JUMPDEST PUSH1 0x40 MLOAD PUSH3 0x461BCD PUSH1 0xE5 SHL DUP2 MSTORE PUSH1 0x4 DUP2 ADD DUP5 SWAP1 MSTORE PUSH1 0x1D PUSH1 0x24 DUP3 ADD MSTORE PUSH32 0x4E6F20736E617073686F747320666F7220746869732070617469656E74000000 PUSH1 0x44 DUP3 ADD MSTORE PUSH1 0x64 SWAP1 REVERT JUMPDEST CALLVALUE PUSH2 0x16B JUMPI PUSH1 0x20 DUP1 PUSH1 0x3 NOT CALLDATASIZE ADD SLT PUSH2 0x16B JUMPI PUSH1 0x1 PUSH1 0x1 PUSH1 0x40 SHL SUB SWAP1 PUSH1 0x4 CALLDATALOAD DUP3 DUP2 GT PUSH2 0x16B JUMPI PUSH2 0x473 SWAP1 CALLDATASIZE SWAP1 PUSH1 0x4 ADD PUSH2 0xE97 JUMP JUMPDEST SWAP2 DUP2 PUSH2 0x488 PUSH1 0x40 MLOAD SWAP5 DUP6 DUP2 MLOAD SWAP4 DUP5 SWAP3 ADD PUSH2 0xEED JUMP JUMPDEST DUP4 ADD SWAP3 DUP3 DUP2 PUSH1 0x1 SWAP6 DUP7 DUP2 MSTORE SUB ADD SWAP1 KECCAK256 SWAP1 DUP2 SLOAD SWAP1 DUP2 GT PUSH2 0x2A4 JUMPI DUP4 DUP4 PUSH1 0x40 MLOAD SWAP3 PUSH2 0x4B6 DUP3 DUP3 PUSH1 0x5 SHL ADD DUP6 PUSH2 0xE76 JUMP JUMPDEST DUP1 DUP5 MSTORE DUP2 DUP5 ADD DUP1 SWAP6 PUSH1 0x0 MSTORE DUP3 PUSH1 0x0 KECCAK256 PUSH1 0x0 SWAP2 JUMPDEST DUP4 DUP4 LT PUSH2 0x531 JUMPI POP POP POP POP PUSH1 0x40 MLOAD SWAP3 DUP2 DUP5 ADD SWAP1 DUP3 DUP6 MSTORE MLOAD DUP1 SWAP2 MSTORE PUSH1 0x40 DUP5 ADD SWAP2 PUSH1 0x40 DUP3 PUSH1 0x5 SHL DUP7 ADD ADD SWAP6 SWAP3 PUSH1 0x0 SWAP1 JUMPDEST DUP4 DUP3 LT PUSH2 0x504 JUMPI DUP7 DUP9 SUB DUP8 RETURN JUMPDEST SWAP1 SWAP2 SWAP3 SWAP4 SWAP5 DUP4 DUP1 PUSH2 0x520 DUP4 SWAP11 PUSH1 0x3F NOT DUP12 DUP3 SUB ADD DUP7 MSTORE DUP10 MLOAD PUSH2 0x1031 JUMP JUMPDEST SWAP10 SWAP8 ADD SWAP6 SWAP5 SWAP4 SWAP2 SWAP1 SWAP2 ADD SWAP2 ADD PUSH2 0x4F7 JUMP JUMPDEST SWAP5 PUSH1 0x6 DUP6 DUP3 SWAP10 SWAP8 PUSH2 0x544 DUP6 SWAP11 SWAP9 SWAP11 PUSH2 0x1118 JUMP JUMPDEST DUP2 MSTORE ADD SWAP3 ADD SWAP3 ADD SWAP2 SWAP1 SWAP7 SWAP5 SWAP7 SWAP6 SWAP4 SWAP6 PUSH2 0x4C9 JUMP JUMPDEST CALLVALUE PUSH2 0x16B JUMPI PUSH1 0x0 CALLDATASIZE PUSH1 0x3 NOT ADD SLT PUSH2 0x16B JUMPI PUSH1 0x0 SLOAD PUSH1 0x40 MLOAD PUSH1 0x1 PUSH1 0x1 PUSH1 0xA0 SHL SUB SWAP1 SWAP2 AND DUP2 MSTORE PUSH1 0x20 SWAP1 RETURN JUMPDEST CALLVALUE PUSH2 0x16B JUMPI PUSH1 0xA0 CALLDATASIZE PUSH1 0x3 NOT ADD SLT PUSH2 0x16B JUMPI PUSH1 0x4 CALLDATALOAD PUSH1 0x1 PUSH1 0x1 PUSH1 0x40 SHL SUB DUP2 GT PUSH2 0x16B JUMPI PUSH2 0x5B1 SWAP1 CALLDATASIZE SWAP1 PUSH1 0x4 ADD PUSH2 0xE97 JUMP JUMPDEST PUSH1 0x24 CALLDATALOAD PUSH1 0x1 PUSH1 0x1 PUSH1 0x40 SHL SUB DUP2 GT PUSH2 0x16B JUMPI PUSH2 0x5D0 SWAP1 CALLDATASIZE SWAP1 PUSH1 0x4 ADD PUSH2 0xE97 JUMP JUMPDEST SWAP1 PUSH1 0x64 CALLDATALOAD PUSH1 0x1 PUSH1 0x1 PUSH1 0x40 SHL SUB DUP2 GT PUSH2 0x16B JUMPI PUSH2 0x5F0 SWAP1 CALLDATASIZE SWAP1 PUSH1 0x4 ADD PUSH2 0xE97 JUMP JUMPDEST PUSH1 0x84 CALLDATALOAD ISZERO ISZERO PUSH1 0x84 CALLDATALOAD SUB PUSH2 0x16B JUMPI PUSH2 0x605 PUSH2 0x1091 JUMP JUMPDEST DUP2 MLOAD ISZERO PUSH2 0xC3A JUMPI DUP3 MLOAD ISZERO PUSH2 0xBFD JUMPI PUSH1 0xA PUSH1 0x44 CALLDATALOAD GT PUSH2 0xBC0 JUMPI PUSH1 0x40 MLOAD SWAP3 PUSH2 0x62A DUP5 PUSH2 0xE5B JUMP JUMPDEST DUP3 DUP5 MSTORE DUP1 PUSH1 0x20 DUP6 ADD MSTORE PUSH1 0x44 CALLDATALOAD PUSH1 0x40 DUP6 ADD MSTORE TIMESTAMP PUSH1 0x60 DUP6 ADD MSTORE DUP2 PUSH1 0x80 DUP6 ADD MSTORE PUSH1 0x84 CALLDATALOAD ISZERO ISZERO PUSH1 0xA0 DUP6 ADD MSTORE PUSH1 0x40 MLOAD PUSH1 0x20 DUP2 DUP6 MLOAD PUSH2 0x666 DUP2 DUP4 DUP6 DUP11 ADD PUSH2 0xEED JUMP JUMPDEST DUP2 ADD PUSH1 0x1 DUP2 MSTORE SUB ADD SWAP1 KECCAK256 DUP1 SLOAD PUSH9 0x10000000000000000 DUP2 LT ISZERO PUSH2 0x2A4 JUMPI PUSH2 0x692 SWAP2 PUSH1 0x1 DUP3 ADD DUP2 SSTORE PUSH2 0xF10 JUMP JUMPDEST SWAP5 SWAP1 SWAP5 PUSH2 0xBAA JUMPI DUP1 MLOAD DUP1 MLOAD SWAP1 PUSH1 0x1 PUSH1 0x1 PUSH1 0x40 SHL SUB DUP3 GT PUSH2 0x2A4 JUMPI DUP2 SWAP1 PUSH2 0x6B8 DUP9 SLOAD PUSH2 0xF2C JUMP JUMPDEST PUSH1 0x1F DUP2 GT PUSH2 0xB5A JUMPI JUMPDEST POP PUSH1 0x20 SWAP1 PUSH1 0x1F DUP4 GT PUSH1 0x1 EQ PUSH2 0xAEE JUMPI PUSH1 0x0 SWAP3 PUSH2 0xAE3 JUMPI JUMPDEST POP POP DUP2 PUSH1 0x1 SHL SWAP2 PUSH1 0x0 NOT SWAP1 PUSH1 0x3 SHL SHR NOT AND OR DUP6 SSTORE JUMPDEST PUSH1 0x20 DUP2 ADD MLOAD DUP1 MLOAD SWAP1 PUSH1 0x1 PUSH1 0x1 PUSH1 0x40 SHL SUB DUP3 GT PUSH2 0x2A4 JUMPI DUP2 SWAP1 PUSH2 0x712 PUSH1 0x1 DUP10 ADD SLOAD PUSH2 0xF2C JUMP JUMPDEST PUSH1 0x1F DUP2 GT PUSH2 0xA90 JUMPI JUMPDEST POP PUSH1 0x20 SWAP1 PUSH1 0x1F DUP4 GT PUSH1 0x1 EQ PUSH2 0xA1E JUMPI PUSH1 0x0 SWAP3 PUSH2 0xA13 JUMPI JUMPDEST POP POP DUP2 PUSH1 0x1 SHL SWAP2 PUSH1 0x0 NOT SWAP1 PUSH1 0x3 SHL SHR NOT AND OR PUSH1 0x1 DUP7 ADD SSTORE JUMPDEST PUSH1 0x40 DUP2 ADD MLOAD PUSH1 0x2 DUP7 ADD SSTORE PUSH1 0x60 DUP2 ADD MLOAD PUSH1 0x3 DUP7 ADD SSTORE PUSH1 0x80 DUP2 ADD MLOAD SWAP5 DUP6 MLOAD PUSH1 0x1 PUSH1 0x1 PUSH1 0x40 SHL SUB DUP2 GT PUSH2 0x2A4 JUMPI PUSH2 0x781 PUSH1 0x4 DUP4 ADD SLOAD PUSH2 0xF2C JUMP JUMPDEST SWAP7 PUSH1 0x1F DUP9 GT PUSH2 0x9CC JUMPI JUMPDEST PUSH1 0x20 SWAP8 POP DUP8 SWAP1 PUSH1 0x1F DUP4 GT PUSH1 0x1 EQ PUSH2 0x92D JUMPI SWAP4 PUSH1 0xA0 PUSH1 0x5 PUSH32 0x447FB0F2E0D11E4DC46EBA7082310E177D50F56FF81D6F7B7CC8FFEF335301AA SWAP6 DUP6 PUSH2 0x84E SWAP7 PUSH2 0x891 SWAP13 SWAP11 SWAP7 DUP15 SWAP13 SWAP11 PUSH1 0x0 SWAP3 PUSH2 0x922 JUMPI JUMPDEST POP POP DUP2 PUSH1 0x1 SHL SWAP2 PUSH1 0x0 NOT SWAP1 PUSH1 0x3 SHL SHR NOT AND OR PUSH1 0x4 DUP3 ADD SSTORE JUMPDEST ADD SWAP2 ADD MLOAD ISZERO ISZERO PUSH1 0xFF DUP1 NOT DUP4 SLOAD AND SWAP2 AND OR SWAP1 SSTORE PUSH1 0x40 MLOAD DUP7 DUP2 DUP8 MLOAD PUSH2 0x817 DUP2 DUP4 DUP6 DUP13 ADD PUSH2 0xEED JUMP JUMPDEST DUP2 ADD PUSH1 0x2 DUP2 MSTORE SUB ADD SWAP1 KECCAK256 PUSH2 0x82B DUP2 SLOAD PUSH2 0x10E9 JUMP JUMPDEST SWAP1 SSTORE PUSH2 0x869 PUSH2 0x839 DUP7 PUSH2 0x10F8 JUMP JUMPDEST SWAP5 PUSH1 0x40 MLOAD SWAP4 DUP5 SWAP4 PUSH1 0xA0 DUP6 MSTORE PUSH1 0xA0 DUP6 ADD SWAP1 PUSH2 0x100C JUMP JUMPDEST SWAP1 PUSH1 0x44 CALLDATALOAD DUP10 DUP6 ADD MSTORE TIMESTAMP PUSH1 0x40 DUP6 ADD MSTORE DUP4 DUP3 SUB PUSH1 0x60 DUP6 ADD MSTORE PUSH2 0x100C JUMP JUMPDEST PUSH1 0x84 CALLDATALOAD ISZERO ISZERO PUSH1 0x80 DUP4 ADD MSTORE SUB SWAP1 LOG2 PUSH1 0x84 CALLDATALOAD PUSH2 0x8A4 JUMPI JUMPDEST DUP2 PUSH1 0x40 MLOAD SWAP4 DUP3 DUP6 DUP1 SWAP5 MLOAD SWAP4 DUP5 SWAP3 ADD PUSH2 0xEED JUMP JUMPDEST DUP2 ADD PUSH1 0x2 DUP2 MSTORE SUB ADD SWAP1 KECCAK256 SLOAD PUSH1 0x40 MLOAD SWAP1 DUP2 MSTORE RETURN JUMPDEST PUSH2 0x8AD DUP2 PUSH2 0x10F8 JUMP JUMPDEST PUSH32 0x43977A33AB35EF71DA69BB151FA4BCD7DAF6E7DBC7A3413ED290AA003B18E17D PUSH1 0xC0 PUSH1 0x40 MLOAD PUSH1 0x44 CALLDATALOAD DUP2 MSTORE TIMESTAMP DUP7 DUP3 ADD MSTORE PUSH1 0x60 PUSH1 0x40 DUP3 ADD MSTORE PUSH1 0x22 PUSH1 0x60 DUP3 ADD MSTORE PUSH32 0x556E757375616C2065766F6C7574696F6E207061747465726E20646574656374 PUSH1 0x80 DUP3 ADD MSTORE PUSH2 0x1959 PUSH1 0xF2 SHL PUSH1 0xA0 DUP3 ADD MSTORE LOG2 PUSH2 0x87E JUMP JUMPDEST ADD MLOAD SWAP1 POP DUP15 DUP1 PUSH2 0x7D9 JUMP JUMPDEST SWAP1 PUSH1 0x4 DUP5 ADD PUSH1 0x0 MSTORE DUP9 PUSH1 0x0 KECCAK256 SWAP2 PUSH1 0x0 JUMPDEST PUSH1 0x1F NOT DUP6 AND DUP2 LT PUSH2 0x9B5 JUMPI POP PUSH1 0x5 PUSH32 0x447FB0F2E0D11E4DC46EBA7082310E177D50F56FF81D6F7B7CC8FFEF335301AA SWAP6 PUSH1 0x1 DUP7 PUSH2 0x891 SWAP13 SWAP11 SWAP7 DUP15 SWAP13 SWAP11 SWAP7 PUSH1 0xA0 SWAP7 PUSH2 0x84E SWAP11 PUSH1 0x1F NOT DUP2 AND LT PUSH2 0x99C JUMPI JUMPDEST POP POP POP DUP2 SHL ADD PUSH1 0x4 DUP3 ADD SSTORE PUSH2 0x7F1 JUMP JUMPDEST ADD MLOAD PUSH1 0x0 NOT PUSH1 0xF8 DUP5 PUSH1 0x3 SHL AND SHR NOT AND SWAP1 SSTORE DUP15 DUP1 DUP1 PUSH2 0x98C JUMP JUMPDEST SWAP2 SWAP3 DUP11 PUSH1 0x1 DUP2 SWAP3 DUP7 DUP6 ADD MLOAD DUP2 SSTORE ADD SWAP5 ADD SWAP3 ADD PUSH2 0x93D JUMP JUMPDEST PUSH1 0x4 DUP4 ADD PUSH1 0x0 MSTORE PUSH1 0x20 PUSH1 0x0 KECCAK256 PUSH1 0x1F DUP4 ADD PUSH1 0x5 SHR DUP2 ADD PUSH1 0x20 DUP5 LT PUSH2 0xA0C JUMPI JUMPDEST PUSH1 0x1F DUP11 ADD PUSH1 0x5 SHR DUP3 ADD DUP2 LT PUSH2 0xA00 JUMPI POP POP PUSH2 0x78B JUMP JUMPDEST PUSH1 0x0 DUP2 SSTORE PUSH1 0x1 ADD PUSH2 0x9EA JUMP JUMPDEST POP DUP1 PUSH2 0x9EA JUMP JUMPDEST ADD MLOAD SWAP1 POP DUP8 DUP1 PUSH2 0x732 JUMP JUMPDEST SWAP3 POP PUSH1 0x1 DUP9 ADD PUSH1 0x0 MSTORE PUSH1 0x20 PUSH1 0x0 KECCAK256 SWAP1 PUSH1 0x0 SWAP4 JUMPDEST PUSH1 0x1F NOT DUP5 AND DUP6 LT PUSH2 0xA75 JUMPI PUSH1 0x1 SWAP5 POP DUP4 PUSH1 0x1F NOT DUP2 AND LT PUSH2 0xA5C JUMPI JUMPDEST POP POP POP DUP2 SHL ADD PUSH1 0x1 DUP7 ADD SSTORE PUSH2 0x74A JUMP JUMPDEST ADD MLOAD PUSH1 0x0 NOT PUSH1 0xF8 DUP5 PUSH1 0x3 SHL AND SHR NOT AND SWAP1 SSTORE DUP8 DUP1 DUP1 PUSH2 0xA4C JUMP JUMPDEST DUP2 DUP2 ADD MLOAD DUP4 SSTORE PUSH1 0x20 SWAP5 DUP6 ADD SWAP5 PUSH1 0x1 SWAP1 SWAP4 ADD SWAP3 SWAP1 SWAP2 ADD SWAP1 PUSH2 0xA31 JUMP JUMPDEST SWAP1 SWAP2 POP PUSH1 0x1 DUP9 ADD PUSH1 0x0 MSTORE PUSH1 0x20 PUSH1 0x0 KECCAK256 PUSH1 0x1F DUP5 ADD PUSH1 0x5 SHR DUP2 ADD PUSH1 0x20 DUP6 LT PUSH2 0xADC JUMPI JUMPDEST SWAP1 DUP5 SWAP4 SWAP3 SWAP2 JUMPDEST PUSH1 0x1F DUP4 ADD PUSH1 0x5 SHR DUP3 ADD DUP2 LT PUSH2 0xACD JUMPI POP POP PUSH2 0x71B JUMP JUMPDEST PUSH1 0x0 DUP2 SSTORE DUP6 SWAP5 POP PUSH1 0x1 ADD PUSH2 0xAB7 JUMP JUMPDEST POP DUP1 PUSH2 0xAB1 JUMP JUMPDEST ADD MLOAD SWAP1 POP DUP8 DUP1 PUSH2 0x6D8 JUMP JUMPDEST SWAP3 POP DUP8 PUSH1 0x0 MSTORE PUSH1 0x20 PUSH1 0x0 KECCAK256 SWAP1 PUSH1 0x0 SWAP4 JUMPDEST PUSH1 0x1F NOT DUP5 AND DUP6 LT PUSH2 0xB3F JUMPI PUSH1 0x1 SWAP5 POP DUP4 PUSH1 0x1F NOT DUP2 AND LT PUSH2 0xB26 JUMPI JUMPDEST POP POP POP DUP2 SHL ADD DUP6 SSTORE PUSH2 0x6ED JUMP JUMPDEST ADD MLOAD PUSH1 0x0 NOT PUSH1 0xF8 DUP5 PUSH1 0x3 SHL AND SHR NOT AND SWAP1 SSTORE DUP8 DUP1 DUP1 PUSH2 0xB19 JUMP JUMPDEST DUP2 DUP2 ADD MLOAD DUP4 SSTORE PUSH1 0x20 SWAP5 DUP6 ADD SWAP5 PUSH1 0x1 SWAP1 SWAP4 ADD SWAP3 SWAP1 SWAP2 ADD SWAP1 PUSH2 0xAFE JUMP JUMPDEST SWAP1 SWAP2 POP DUP8 PUSH1 0x0 MSTORE PUSH1 0x20 PUSH1 0x0 KECCAK256 PUSH1 0x1F DUP5 ADD PUSH1 0x5 SHR DUP2 ADD PUSH1 0x20 DUP6 LT PUSH2 0xBA3 JUMPI JUMPDEST SWAP1 DUP5 SWAP4 SWAP3 SWAP2 JUMPDEST PUSH1 0x1F DUP4 ADD PUSH1 0x5 SHR DUP3 ADD DUP2 LT PUSH2 0xB94 JUMPI POP POP PUSH2 0x6C1 JUMP JUMPDEST PUSH1 0x0 DUP2 SSTORE DUP6 SWAP5 POP PUSH1 0x1 ADD PUSH2 0xB7E JUMP JUMPDEST POP DUP1 PUSH2 0xB78 JUMP JUMPDEST PUSH4 0x4E487B71 PUSH1 0xE0 SHL PUSH1 0x0 MSTORE PUSH1 0x0 PUSH1 0x4 MSTORE PUSH1 0x24 PUSH1 0x0 REVERT JUMPDEST PUSH1 0x40 MLOAD PUSH3 0x461BCD PUSH1 0xE5 SHL DUP2 MSTORE PUSH1 0x20 PUSH1 0x4 DUP3 ADD MSTORE PUSH1 0x15 PUSH1 0x24 DUP3 ADD MSTORE PUSH21 0x5365766572697479206D75737420626520302D313 PUSH1 0x5C SHL PUSH1 0x44 DUP3 ADD MSTORE PUSH1 0x64 SWAP1 REVERT JUMPDEST PUSH1 0x40 MLOAD PUSH3 0x461BCD PUSH1 0xE5 SHL DUP2 MSTORE PUSH1 0x20 PUSH1 0x4 DUP3 ADD MSTORE PUSH1 0x15 PUSH1 0x24 DUP3 ADD MSTORE PUSH21 0x10DBDB9D195B9D081A185CDA081C995C5D5A5C9959 PUSH1 0x5A SHL PUSH1 0x44 DUP3 ADD MSTORE PUSH1 0x64 SWAP1 REVERT JUMPDEST PUSH1 0x40 MLOAD PUSH3 0x461BCD PUSH1 0xE5 SHL DUP2 MSTORE PUSH1 0x20 PUSH1 0x4 DUP3 ADD MSTORE PUSH1 0x14 PUSH1 0x24 DUP3 ADD MSTORE PUSH20 0x14185D1A595B9D08111251081C995C5D5A5C9959 PUSH1 0x62 SHL PUSH1 0x44 DUP3 ADD MSTORE PUSH1 0x64 SWAP1 REVERT JUMPDEST CALLVALUE PUSH2 0x16B JUMPI PUSH1 0x40 CALLDATASIZE PUSH1 0x3 NOT ADD SLT PUSH2 0x16B JUMPI PUSH1 0x4 CALLDATALOAD PUSH1 0x1 PUSH1 0x1 PUSH1 0x40 SHL SUB DUP2 GT PUSH2 0x16B JUMPI PUSH2 0xCA6 SWAP1 CALLDATASIZE SWAP1 PUSH1 0x4 ADD PUSH2 0xE97 JUMP JUMPDEST PUSH2 0xCC2 PUSH1 0x20 PUSH1 0x24 CALLDATALOAD SWAP3 DUP2 PUSH1 0x40 MLOAD SWAP4 DUP3 DUP6 DUP1 SWAP5 MLOAD SWAP4 DUP5 SWAP3 ADD PUSH2 0xEED JUMP JUMPDEST DUP2 ADD PUSH1 0x1 DUP2 MSTORE SUB ADD SWAP1 KECCAK256 DUP1 SLOAD DUP3 LT ISZERO PUSH2 0x16B JUMPI PUSH2 0xD34 SWAP2 PUSH2 0xCE2 SWAP2 PUSH2 0xF10 JUMP JUMPDEST POP PUSH2 0xCEC DUP2 PUSH2 0xF66 JUMP JUMPDEST SWAP1 PUSH2 0xD5A PUSH2 0xCFC PUSH1 0x1 DUP4 ADD PUSH2 0xF66 JUMP JUMPDEST SWAP2 PUSH1 0x2 DUP2 ADD SLOAD SWAP1 PUSH1 0x3 DUP2 ADD SLOAD PUSH2 0xD42 PUSH1 0xFF PUSH1 0x5 PUSH2 0xD1B PUSH1 0x4 DUP7 ADD PUSH2 0xF66 JUMP JUMPDEST SWAP5 ADD SLOAD AND SWAP6 PUSH1 0x40 MLOAD SWAP9 DUP10 SWAP9 PUSH1 0xC0 DUP11 MSTORE PUSH1 0xC0 DUP11 ADD SWAP1 PUSH2 0x100C JUMP JUMPDEST SWAP1 DUP9 DUP3 SUB PUSH1 0x20 DUP11 ADD MSTORE PUSH2 0x100C JUMP JUMPDEST SWAP3 PUSH1 0x40 DUP8 ADD MSTORE PUSH1 0x60 DUP7 ADD MSTORE DUP5 DUP3 SUB PUSH1 0x80 DUP7 ADD MSTORE PUSH2 0x100C JUMP JUMPDEST SWAP1 ISZERO ISZERO PUSH1 0xA0 DUP4 ADD MSTORE SUB SWAP1 RETURN JUMPDEST CALLVALUE PUSH2 0x16B JUMPI PUSH1 0x0 CALLDATASIZE PUSH1 0x3 NOT ADD SLT PUSH2 0x16B JUMPI PUSH2 0xD7F PUSH2 0x1091 JUMP JUMPDEST PUSH1 0x0 DUP1 SLOAD PUSH1 0x1 PUSH1 0x1 PUSH1 0xA0 SHL SUB NOT DUP2 AND DUP3 SSTORE PUSH1 0x1 PUSH1 0x1 PUSH1 0xA0 SHL SUB AND PUSH32 0x8BE0079C531659141344CD1FD0A4F28419497F9722A3DAAFE3B4186F6B6457E0 DUP3 DUP1 LOG3 STOP JUMPDEST CALLVALUE PUSH2 0x16B JUMPI PUSH1 0x0 CALLDATASIZE PUSH1 0x3 NOT ADD SLT PUSH2 0x16B JUMPI PUSH1 0x40 DUP1 MLOAD PUSH1 0x0 DUP2 MSTORE PUSH1 0x0 PUSH1 0x20 DUP3 ADD MSTORE RETURN JUMPDEST CALLVALUE PUSH2 0x16B JUMPI PUSH1 0x20 CALLDATASIZE PUSH1 0x3 NOT ADD SLT PUSH2 0x16B JUMPI PUSH1 0x4 CALLDATALOAD PUSH1 0x1 PUSH1 0x1 PUSH1 0x40 SHL SUB DUP2 GT PUSH2 0x16B JUMPI PUSH2 0x891 PUSH1 0x20 PUSH2 0x87E DUP2 SWAP4 CALLDATASIZE SWAP1 PUSH1 0x4 ADD PUSH2 0xE97 JUMP JUMPDEST CALLVALUE PUSH2 0x16B JUMPI PUSH1 0x20 CALLDATASIZE PUSH1 0x3 NOT ADD SLT PUSH2 0x16B JUMPI PUSH1 0x4 CALLDATALOAD PUSH1 0x1 PUSH1 0x1 PUSH1 0x40 SHL SUB DUP2 GT PUSH2 0x16B JUMPI PUSH2 0xE51 PUSH2 0xE4C PUSH1 0x20 SWAP3 CALLDATASIZE SWAP1 PUSH1 0x4 ADD PUSH2 0xE97 JUMP JUMPDEST PUSH2 0x118C JUMP JUMPDEST PUSH1 0x40 MLOAD SWAP1 ISZERO ISZERO DUP2 MSTORE RETURN JUMPDEST PUSH1 0xC0 DUP2 ADD SWAP1 DUP2 LT PUSH1 0x1 PUSH1 0x1 PUSH1 0x40 SHL SUB DUP3 GT OR PUSH2 0x2A4 JUMPI PUSH1 0x40 MSTORE JUMP JUMPDEST SWAP1 PUSH1 0x1F DUP1 NOT SWAP2 ADD AND DUP2 ADD SWAP1 DUP2 LT PUSH1 0x1 PUSH1 0x1 PUSH1 0x40 SHL SUB DUP3 GT OR PUSH2 0x2A4 JUMPI PUSH1 0x40 MSTORE JUMP JUMPDEST DUP2 PUSH1 0x1F DUP3 ADD SLT ISZERO PUSH2 0x16B JUMPI DUP1 CALLDATALOAD SWAP1 PUSH1 0x1 PUSH1 0x1 PUSH1 0x40 SHL SUB DUP3 GT PUSH2 0x2A4 JUMPI PUSH1 0x40 MLOAD SWAP3 PUSH2 0xECB PUSH1 0x1F DUP5 ADD PUSH1 0x1F NOT AND PUSH1 0x20 ADD DUP6 PUSH2 0xE76 JUMP JUMPDEST DUP3 DUP5 MSTORE PUSH1 0x20 DUP4 DUP4 ADD ADD GT PUSH2 0x16B JUMPI DUP2 PUSH1 0x0 SWAP3 PUSH1 0x20 DUP1 SWAP4 ADD DUP4 DUP7 ADD CALLDATACOPY DUP4 ADD ADD MSTORE SWAP1 JUMP JUMPDEST PUSH1 0x0 JUMPDEST DUP4 DUP2 LT PUSH2 0xF00 JUMPI POP POP PUSH1 0x0 SWAP2 ADD MSTORE JUMP JUMPDEST DUP2 DUP2 ADD MLOAD DUP4 DUP3 ADD MSTORE PUSH1 0x20 ADD PUSH2 0xEF0 JUMP JUMPDEST DUP1 SLOAD DUP3 LT ISZERO PUSH2 0x270 JUMPI PUSH1 0x0 MSTORE PUSH1 0x6 PUSH1 0x20 PUSH1 0x0 KECCAK256 SWAP2 MUL ADD SWAP1 PUSH1 0x0 SWAP1 JUMP JUMPDEST SWAP1 PUSH1 0x1 DUP3 DUP2 SHR SWAP3 AND DUP1 ISZERO PUSH2 0xF5C JUMPI JUMPDEST PUSH1 0x20 DUP4 LT EQ PUSH2 0xF46 JUMPI JUMP JUMPDEST PUSH4 0x4E487B71 PUSH1 0xE0 SHL PUSH1 0x0 MSTORE PUSH1 0x22 PUSH1 0x4 MSTORE PUSH1 0x24 PUSH1 0x0 REVERT JUMPDEST SWAP2 PUSH1 0x7F AND SWAP2 PUSH2 0xF3B JUMP JUMPDEST SWAP1 PUSH1 0x40 MLOAD SWAP2 DUP3 PUSH1 0x0 DUP3 SLOAD SWAP3 PUSH2 0xF7A DUP5 PUSH2 0xF2C JUMP JUMPDEST SWAP1 DUP2 DUP5 MSTORE PUSH1 0x1 SWAP5 DUP6 DUP2 AND SWAP1 DUP2 PUSH1 0x0 EQ PUSH2 0xFE9 JUMPI POP PUSH1 0x1 EQ PUSH2 0xFA6 JUMPI JUMPDEST POP POP PUSH2 0xFA4 SWAP3 POP SUB DUP4 PUSH2 0xE76 JUMP JUMPDEST JUMP JUMPDEST SWAP1 SWAP4 SWAP2 POP PUSH1 0x0 MSTORE PUSH1 0x20 SWAP1 DUP2 PUSH1 0x0 KECCAK256 SWAP4 PUSH1 0x0 SWAP2 JUMPDEST DUP2 DUP4 LT PUSH2 0xFD1 JUMPI POP POP PUSH2 0xFA4 SWAP4 POP DUP3 ADD ADD CODESIZE DUP1 PUSH2 0xF96 JUMP JUMPDEST DUP6 SLOAD DUP9 DUP5 ADD DUP6 ADD MSTORE SWAP5 DUP6 ADD SWAP5 DUP8 SWAP5 POP SWAP2 DUP4 ADD SWAP2 PUSH2 0xFB9 JUMP JUMPDEST SWAP2 POP POP PUSH2 0xFA4 SWAP5 POP PUSH1 0x20 SWAP3 POP PUSH1 0xFF NOT AND DUP3 DUP5 ADD MSTORE ISZERO ISZERO PUSH1 0x5 SHL DUP3 ADD ADD CODESIZE DUP1 PUSH2 0xF96 JUMP JUMPDEST SWAP1 PUSH1 0x20 SWAP2 PUSH2 0x1025 DUP2 MLOAD DUP1 SWAP3 DUP2 DUP6 MSTORE DUP6 DUP1 DUP7 ADD SWAP2 ADD PUSH2 0xEED JUMP JUMPDEST PUSH1 0x1F ADD PUSH1 0x1F NOT AND ADD ADD SWAP1 JUMP JUMPDEST SWAP1 PUSH1 0xA0 DUP1 PUSH2 0x1086 PUSH2 0x1060 PUSH2 0x104E DUP7 MLOAD PUSH1 0xC0 DUP8 MSTORE PUSH1 0xC0 DUP8 ADD SWAP1 PUSH2 0x100C JUMP JUMPDEST PUSH1 0x20 DUP8 ADD MLOAD DUP7 DUP3 SUB PUSH1 0x20 DUP9 ADD MSTORE PUSH2 0x100C JUMP JUMPDEST PUSH1 0x40 DUP7 ADD MLOAD PUSH1 0x40 DUP7 ADD MSTORE PUSH1 0x60 DUP7 ADD MLOAD PUSH1 0x60 DUP7 ADD MSTORE PUSH1 0x80 DUP7 ADD MLOAD DUP6 DUP3 SUB PUSH1 0x80 DUP8 ADD MSTORE PUSH2 0x100C JUMP JUMPDEST SWAP4 ADD MLOAD ISZERO ISZERO SWAP2 ADD MSTORE SWAP1 JUMP JUMPDEST PUSH1 0x0 SLOAD PUSH1 0x1 PUSH1 0x1 PUSH1 0xA0 SHL SUB AND CALLER SUB PUSH2 0x10A5 JUMPI JUMP JUMPDEST PUSH1 0x64 PUSH1 0x40 MLOAD PUSH3 0x461BCD PUSH1 0xE5 SHL DUP2 MSTORE PUSH1 0x20 PUSH1 0x4 DUP3 ADD MSTORE PUSH1 0x20 PUSH1 0x24 DUP3 ADD MSTORE PUSH32 0x4F776E61626C653A2063616C6C6572206973206E6F7420746865206F776E6572 PUSH1 0x44 DUP3 ADD MSTORE REVERT JUMPDEST PUSH1 0x0 NOT DUP2 EQ PUSH2 0x25A JUMPI PUSH1 0x1 ADD SWAP1 JUMP JUMPDEST PUSH2 0x1110 SWAP1 PUSH1 0x20 PUSH1 0x40 MLOAD SWAP3 DUP3 DUP5 DUP1 SWAP5 MLOAD SWAP4 DUP5 SWAP3 ADD PUSH2 0xEED JUMP JUMPDEST DUP2 ADD SUB SWAP1 KECCAK256 SWAP1 JUMP JUMPDEST SWAP1 PUSH1 0x40 MLOAD PUSH2 0x1125 DUP2 PUSH2 0xE5B JUMP JUMPDEST PUSH1 0xA0 PUSH1 0xFF PUSH1 0x5 DUP4 SWAP6 PUSH2 0x1136 DUP2 PUSH2 0xF66 JUMP JUMPDEST DUP6 MSTORE PUSH2 0x1144 PUSH1 0x1 DUP3 ADD PUSH2 0xF66 JUMP JUMPDEST PUSH1 0x20 DUP7 ADD MSTORE PUSH1 0x2 DUP2 ADD SLOAD PUSH1 0x40 DUP7 ADD MSTORE PUSH1 0x3 DUP2 ADD SLOAD PUSH1 0x60 DUP7 ADD MSTORE PUSH2 0x1169 PUSH1 0x4 DUP3 ADD PUSH2 0xF66 JUMP JUMPDEST PUSH1 0x80 DUP7 ADD MSTORE ADD SLOAD AND ISZERO ISZERO SWAP2 ADD MSTORE JUMP JUMPDEST DUP1 MLOAD DUP3 LT ISZERO PUSH2 0x270 JUMPI PUSH1 0x20 SWAP2 PUSH1 0x5 SHL ADD ADD SWAP1 JUMP JUMPDEST PUSH1 0x40 MLOAD SWAP1 DUP1 MLOAD PUSH2 0x11A1 DUP2 DUP5 PUSH1 0x20 DUP1 SWAP6 ADD PUSH2 0xEED JUMP JUMPDEST DUP3 ADD SWAP2 DUP2 DUP2 PUSH1 0x1 SWAP5 DUP6 DUP2 MSTORE SUB ADD SWAP1 KECCAK256 DUP1 SLOAD SWAP1 PUSH1 0x1 PUSH1 0x1 PUSH1 0x40 SHL SUB DUP3 GT PUSH2 0x2A4 JUMPI SWAP1 DUP4 SWAP3 SWAP2 PUSH1 0x40 MLOAD SWAP3 PUSH2 0x11D8 DUP2 DUP5 PUSH1 0x5 SHL ADD DUP6 PUSH2 0xE76 JUMP JUMPDEST DUP3 DUP5 MSTORE PUSH1 0x0 SWAP2 DUP3 MSTORE DUP1 DUP3 KECCAK256 DUP2 DUP6 ADD JUMPDEST DUP5 DUP5 LT PUSH2 0x123C JUMPI POP POP POP POP POP PUSH1 0x0 SWAP2 JUMPDEST PUSH2 0x1204 JUMPI JUMPDEST POP POP POP PUSH1 0x0 SWAP1 JUMP JUMPDEST DUP1 MLOAD DUP3 LT ISZERO PUSH2 0x1237 JUMPI DUP2 PUSH1 0xA0 PUSH2 0x121B DUP6 SWAP5 DUP5 PUSH2 0x1178 JUMP JUMPDEST MLOAD ADD MLOAD PUSH2 0x1231 JUMPI PUSH2 0x122B SWAP1 PUSH2 0x10E9 JUMP JUMPDEST SWAP2 PUSH2 0x11F7 JUMP JUMPDEST POP POP POP SWAP1 JUMP JUMPDEST PUSH2 0x11FC JUMP JUMPDEST DUP3 PUSH1 0x6 SWAP2 PUSH2 0x124F DUP5 SWAP6 SWAP7 SWAP8 SWAP9 SWAP10 SWAP5 PUSH2 0x1118 JUMP JUMPDEST DUP2 MSTORE ADD SWAP3 ADD SWAP4 ADD SWAP2 SWAP1 SWAP3 DUP7 SWAP6 SWAP5 SWAP4 PUSH2 0x11E7 JUMP INVALID LOG2 PUSH5 0x6970667358 0x22 SLT KECCAK256 MUL 0x21 SAR PUSH9 0xF96CB6B2BE880AA768 PUSH10 0x866C9A939221DBCEA081 0xE8 PUSH0 PUSH15 0xABC54C9F864736F6C634300081400 CALLER "},"methodIdentifiers":{"getGlobalStats()":"6b4169c3","getLatestSnapshot(string)":"a7041850","getPatientEvolution(string)":"957abb23","getSnapshotCount(string)":"379d848d","getTrend(string)":"c2e21754","hasAnomalies(string)":"14855138","owner()":"8da5cb5b","patientEvolutions(string,uint256)":"7aedb358","patientSnapshotCount(string)":"39a642a7","recordEvolution(string,string,uint256,string,bool)":"84527608","renounceOwnership()":"715018a6","transferOwnership(address)":"f2fde38b"}}}}}